{
	"data": {
		"bytecode": {
			"linkReferences": {},
			"object": "6080604052348015600f57600080fd5b50606180601d6000396000f3fe608060405260043610601c5760003560e01c8063b60d4288146021575b600080fd5b60276029565b005b56fea264697066735822122019b9f8f945c0507222b7103444381efca76a5b2858fb18ba8d2c87b81d99b2c964736f6c63430008130033",
			"opcodes": "PUSH1 0x80 PUSH1 0x40 MSTORE CALLVALUE DUP1 ISZERO PUSH1 0xF JUMPI PUSH1 0x0 DUP1 REVERT JUMPDEST POP PUSH1 0x61 DUP1 PUSH1 0x1D PUSH1 0x0 CODECOPY PUSH1 0x0 RETURN INVALID PUSH1 0x80 PUSH1 0x40 MSTORE PUSH1 0x4 CALLDATASIZE LT PUSH1 0x1C JUMPI PUSH1 0x0 CALLDATALOAD PUSH1 0xE0 SHR DUP1 PUSH4 0xB60D4288 EQ PUSH1 0x21 JUMPI JUMPDEST PUSH1 0x0 DUP1 REVERT JUMPDEST PUSH1 0x27 PUSH1 0x29 JUMP JUMPDEST STOP JUMPDEST JUMP INVALID LOG2 PUSH5 0x6970667358 0x22 SLT KECCAK256 NOT 0xB9 0xF8 0xF9 GASLIMIT 0xC0 POP PUSH19 0x22B7103444381EFCA76A5B2858FB18BA8D2C87 0xB8 SAR SWAP10 0xB2 0xC9 PUSH5 0x736F6C6343 STOP ADDMOD SGT STOP CALLER "
		},
		"deployedBytecode": {
			"immutableReferences": {},
			"linkReferences": {},
			"object": "608060405260043610601c5760003560e01c8063b60d4288146021575b600080fd5b60276029565b005b56fea264697066735822122019b9f8f945c0507222b7103444381efca76a5b2858fb18ba8d2c87b81d99b2c964736f6c63430008130033",
			"opcodes": "PUSH1 0x80 PUSH1 0x40 MSTORE PUSH1 0x4 CALLDATASIZE LT PUSH1 0x1C JUMPI PUSH1 0x0 CALLDATALOAD PUSH1 0xE0 SHR DUP1 PUSH4 0xB60D4288 EQ PUSH1 0x21 JUMPI JUMPDEST PUSH1 0x0 DUP1 REVERT JUMPDEST PUSH1 0x27 PUSH1 0x29 JUMP JUMPDEST STOP JUMPDEST JUMP INVALID LOG2 PUSH5 0x6970667358 0x22 SLT KECCAK256 NOT 0xB9 0xF8 0xF9 GASLIMIT 0xC0 POP PUSH19 0x22B7103444381EFCA76A5B2858FB18BA8D2C87 0xB8 SAR SWAP10 0xB2 0xC9 PUSH5 0x736F6C6343 STOP ADDMOD SGT STOP CALLER "
		},
		"gasEstimates": {
			"creation": {
				"codeDepositCost": "19400",
				"executionCost": "75",
				"totalCost": "19475"
			},
			"external": {
				"fund()": "98"
			}
		},
		"methodIdentifiers": {
			"fund()": "b60d4288"
		}
	},
	"abi": [
		{
			"inputs": [],
			"name": "fund",
			"outputs": [],
			"stateMutability": "payable",
			"type": "function"
		}
	]
}