{
	"data": {
		"bytecode": {
			"linkReferences": {},
			"object": "6080604052674563918244f4000060015534801561001c57600080fd5b5073694aa1769357215de4fac081bf1f309adc3253066000806101000a81548173ffffffffffffffffffffffffffffffffffffffff021916908373ffffffffffffffffffffffffffffffffffffffff1602179055506105e9806100806000396000f3fe6080604052600436106100345760003560e01c80630d8e6e2c1461003957806398d5fdca14610064578063b60d42881461008f575b600080fd5b34801561004557600080fd5b5061004e610099565b60405161005b9190610281565b60405180910390f35b34801561007057600080fd5b50610079610130565b6040516100869190610281565b60405180910390f35b6100976101df565b005b60008060009054906101000a900473ffffffffffffffffffffffffffffffffffffffff1673ffffffffffffffffffffffffffffffffffffffff166354fd4d506040518163ffffffff1660e01b8152600401602060405180830381865afa158015610107573d6000803e3d6000fd5b505050506040513d601f19601f8201168201806040525081019061012b91906102cd565b905090565b60008060008054906101000a900473ffffffffffffffffffffffffffffffffffffffff1673ffffffffffffffffffffffffffffffffffffffff1663feaf968c6040518163ffffffff1660e01b815260040160a060405180830381865afa15801561019e573d6000803e3d6000fd5b505050506040513d601f19601f820116820180604052508101906101c29190610372565b5050509150506402540be400816101d9919061041c565b91505090565b6001546101eb3461022e565b101561022c576040517f08c379a0000000000000000000000000000000000000000000000000000000008152600401610223906104f1565b60405180910390fd5b565b600080610239610130565b90506000670de0b6b3a764000084836102529190610511565b61025c9190610582565b90508092505050919050565b6000819050919050565b61027b81610268565b82525050565b60006020820190506102966000830184610272565b92915050565b600080fd5b6102aa81610268565b81146102b557600080fd5b50565b6000815190506102c7816102a1565b92915050565b6000602082840312156102e3576102e261029c565b5b60006102f1848285016102b8565b91505092915050565b600069ffffffffffffffffffff82169050919050565b610319816102fa565b811461032457600080fd5b50565b60008151905061033681610310565b92915050565b6000819050919050565b61034f8161033c565b811461035a57600080fd5b50565b60008151905061036c81610346565b92915050565b600080600080600060a0868803121561038e5761038d61029c565b5b600061039c88828901610327565b95505060206103ad8882890161035d565b94505060406103be888289016102b8565b93505060606103cf888289016102b8565b92505060806103e088828901610327565b9150509295509295909350565b7f4e487b7100000000000000000000000000000000000000000000000000000000600052601160045260246000fd5b60006104278261033c565b91506104328361033c565b92508282026104408161033c565b91507f80000000000000000000000000000000000000000000000000000000000000008414600084121615610478576104776103ed565b5b828205841483151761048d5761048c6103ed565b5b5092915050565b600082825260208201905092915050565b7f596f75206e65656420746f2073656e64206d6f72652076616c75650000000000600082015250565b60006104db601b83610494565b91506104e6826104a5565b602082019050919050565b6000602082019050818103600083015261050a816104ce565b9050919050565b600061051c82610268565b915061052783610268565b925082820261053581610268565b9150828204841483151761054c5761054b6103ed565b5b5092915050565b7f4e487b7100000000000000000000000000000000000000000000000000000000600052601260045260246000fd5b600061058d82610268565b915061059883610268565b9250826105a8576105a7610553565b5b82820490509291505056fea26469706673582212204c8ff905ff551819f1f16442c800f3657be14815294a7d1a9a679325ec60b8fa64736f6c63430008130033",
			"opcodes": "PUSH1 0x80 PUSH1 0x40 MSTORE PUSH8 0x4563918244F40000 PUSH1 0x1 SSTORE CALLVALUE DUP1 ISZERO PUSH2 0x1C JUMPI PUSH1 0x0 DUP1 REVERT JUMPDEST POP PUSH20 0x694AA1769357215DE4FAC081BF1F309ADC325306 PUSH1 0x0 DUP1 PUSH2 0x100 EXP DUP2 SLOAD DUP2 PUSH20 0xFFFFFFFFFFFFFFFFFFFFFFFFFFFFFFFFFFFFFFFF MUL NOT AND SWAP1 DUP4 PUSH20 0xFFFFFFFFFFFFFFFFFFFFFFFFFFFFFFFFFFFFFFFF AND MUL OR SWAP1 SSTORE POP PUSH2 0x5E9 DUP1 PUSH2 0x80 PUSH1 0x0 CODECOPY PUSH1 0x0 RETURN INVALID PUSH1 0x80 PUSH1 0x40 MSTORE PUSH1 0x4 CALLDATASIZE LT PUSH2 0x34 JUMPI PUSH1 0x0 CALLDATALOAD PUSH1 0xE0 SHR DUP1 PUSH4 0xD8E6E2C EQ PUSH2 0x39 JUMPI DUP1 PUSH4 0x98D5FDCA EQ PUSH2 0x64 JUMPI DUP1 PUSH4 0xB60D4288 EQ PUSH2 0x8F JUMPI JUMPDEST PUSH1 0x0 DUP1 REVERT JUMPDEST CALLVALUE DUP1 ISZERO PUSH2 0x45 JUMPI PUSH1 0x0 DUP1 REVERT JUMPDEST POP PUSH2 0x4E PUSH2 0x99 JUMP JUMPDEST PUSH1 0x40 MLOAD PUSH2 0x5B SWAP2 SWAP1 PUSH2 0x281 JUMP JUMPDEST PUSH1 0x40 MLOAD DUP1 SWAP2 SUB SWAP1 RETURN JUMPDEST CALLVALUE DUP1 ISZERO PUSH2 0x70 JUMPI PUSH1 0x0 DUP1 REVERT JUMPDEST POP PUSH2 0x79 PUSH2 0x130 JUMP JUMPDEST PUSH1 0x40 MLOAD PUSH2 0x86 SWAP2 SWAP1 PUSH2 0x281 JUMP JUMPDEST PUSH1 0x40 MLOAD DUP1 SWAP2 SUB SWAP1 RETURN JUMPDEST PUSH2 0x97 PUSH2 0x1DF JUMP JUMPDEST STOP JUMPDEST PUSH1 0x0 DUP1 PUSH1 0x0 SWAP1 SLOAD SWAP1 PUSH2 0x100 EXP SWAP1 DIV PUSH20 0xFFFFFFFFFFFFFFFFFFFFFFFFFFFFFFFFFFFFFFFF AND PUSH20 0xFFFFFFFFFFFFFFFFFFFFFFFFFFFFFFFFFFFFFFFF AND PUSH4 0x54FD4D50 PUSH1 0x40 MLOAD DUP2 PUSH4 0xFFFFFFFF AND PUSH1 0xE0 SHL DUP2 MSTORE PUSH1 0x4 ADD PUSH1 0x20 PUSH1 0x40 MLOAD DUP1 DUP4 SUB DUP2 DUP7 GAS STATICCALL ISZERO DUP1 ISZERO PUSH2 0x107 JUMPI RETURNDATASIZE PUSH1 0x0 DUP1 RETURNDATACOPY RETURNDATASIZE PUSH1 0x0 REVERT JUMPDEST POP POP POP POP PUSH1 0x40 MLOAD RETURNDATASIZE PUSH1 0x1F NOT PUSH1 0x1F DUP3 ADD AND DUP3 ADD DUP1 PUSH1 0x40 MSTORE POP DUP2 ADD SWAP1 PUSH2 0x12B SWAP2 SWAP1 PUSH2 0x2CD JUMP JUMPDEST SWAP1 POP SWAP1 JUMP JUMPDEST PUSH1 0x0 DUP1 PUSH1 0x0 DUP1 SLOAD SWAP1 PUSH2 0x100 EXP SWAP1 DIV PUSH20 0xFFFFFFFFFFFFFFFFFFFFFFFFFFFFFFFFFFFFFFFF AND PUSH20 0xFFFFFFFFFFFFFFFFFFFFFFFFFFFFFFFFFFFFFFFF AND PUSH4 0xFEAF968C PUSH1 0x40 MLOAD DUP2 PUSH4 0xFFFFFFFF AND PUSH1 0xE0 SHL DUP2 MSTORE PUSH1 0x4 ADD PUSH1 0xA0 PUSH1 0x40 MLOAD DUP1 DUP4 SUB DUP2 DUP7 GAS STATICCALL ISZERO DUP1 ISZERO PUSH2 0x19E JUMPI RETURNDATASIZE PUSH1 0x0 DUP1 RETURNDATACOPY RETURNDATASIZE PUSH1 0x0 REVERT JUMPDEST POP POP POP POP PUSH1 0x40 MLOAD RETURNDATASIZE PUSH1 0x1F NOT PUSH1 0x1F DUP3 ADD AND DUP3 ADD DUP1 PUSH1 0x40 MSTORE POP DUP2 ADD SWAP1 PUSH2 0x1C2 SWAP2 SWAP1 PUSH2 0x372 JUMP JUMPDEST POP POP POP SWAP2 POP POP PUSH5 0x2540BE400 DUP2 PUSH2 0x1D9 SWAP2 SWAP1 PUSH2 0x41C JUMP JUMPDEST SWAP2 POP POP SWAP1 JUMP JUMPDEST PUSH1 0x1 SLOAD PUSH2 0x1EB CALLVALUE PUSH2 0x22E JUMP JUMPDEST LT ISZERO PUSH2 0x22C JUMPI PUSH1 0x40 MLOAD PUSH32 0x8C379A000000000000000000000000000000000000000000000000000000000 DUP2 MSTORE PUSH1 0x4 ADD PUSH2 0x223 SWAP1 PUSH2 0x4F1 JUMP JUMPDEST PUSH1 0x40 MLOAD DUP1 SWAP2 SUB SWAP1 REVERT JUMPDEST JUMP JUMPDEST PUSH1 0x0 DUP1 PUSH2 0x239 PUSH2 0x130 JUMP JUMPDEST SWAP1 POP PUSH1 0x0 PUSH8 0xDE0B6B3A7640000 DUP5 DUP4 PUSH2 0x252 SWAP2 SWAP1 PUSH2 0x511 JUMP JUMPDEST PUSH2 0x25C SWAP2 SWAP1 PUSH2 0x582 JUMP JUMPDEST SWAP1 POP DUP1 SWAP3 POP POP POP SWAP2 SWAP1 POP JUMP JUMPDEST PUSH1 0x0 DUP2 SWAP1 POP SWAP2 SWAP1 POP JUMP JUMPDEST PUSH2 0x27B DUP2 PUSH2 0x268 JUMP JUMPDEST DUP3 MSTORE POP POP JUMP JUMPDEST PUSH1 0x0 PUSH1 0x20 DUP3 ADD SWAP1 POP PUSH2 0x296 PUSH1 0x0 DUP4 ADD DUP5 PUSH2 0x272 JUMP JUMPDEST SWAP3 SWAP2 POP POP JUMP JUMPDEST PUSH1 0x0 DUP1 REVERT JUMPDEST PUSH2 0x2AA DUP2 PUSH2 0x268 JUMP JUMPDEST DUP2 EQ PUSH2 0x2B5 JUMPI PUSH1 0x0 DUP1 REVERT JUMPDEST POP JUMP JUMPDEST PUSH1 0x0 DUP2 MLOAD SWAP1 POP PUSH2 0x2C7 DUP2 PUSH2 0x2A1 JUMP JUMPDEST SWAP3 SWAP2 POP POP JUMP JUMPDEST PUSH1 0x0 PUSH1 0x20 DUP3 DUP5 SUB SLT ISZERO PUSH2 0x2E3 JUMPI PUSH2 0x2E2 PUSH2 0x29C JUMP JUMPDEST JUMPDEST PUSH1 0x0 PUSH2 0x2F1 DUP5 DUP3 DUP6 ADD PUSH2 0x2B8 JUMP JUMPDEST SWAP2 POP POP SWAP3 SWAP2 POP POP JUMP JUMPDEST PUSH1 0x0 PUSH10 0xFFFFFFFFFFFFFFFFFFFF DUP3 AND SWAP1 POP SWAP2 SWAP1 POP JUMP JUMPDEST PUSH2 0x319 DUP2 PUSH2 0x2FA JUMP JUMPDEST DUP2 EQ PUSH2 0x324 JUMPI PUSH1 0x0 DUP1 REVERT JUMPDEST POP JUMP JUMPDEST PUSH1 0x0 DUP2 MLOAD SWAP1 POP PUSH2 0x336 DUP2 PUSH2 0x310 JUMP JUMPDEST SWAP3 SWAP2 POP POP JUMP JUMPDEST PUSH1 0x0 DUP2 SWAP1 POP SWAP2 SWAP1 POP JUMP JUMPDEST PUSH2 0x34F DUP2 PUSH2 0x33C JUMP JUMPDEST DUP2 EQ PUSH2 0x35A JUMPI PUSH1 0x0 DUP1 REVERT JUMPDEST POP JUMP JUMPDEST PUSH1 0x0 DUP2 MLOAD SWAP1 POP PUSH2 0x36C DUP2 PUSH2 0x346 JUMP JUMPDEST SWAP3 SWAP2 POP POP JUMP JUMPDEST PUSH1 0x0 DUP1 PUSH1 0x0 DUP1 PUSH1 0x0 PUSH1 0xA0 DUP7 DUP9 SUB SLT ISZERO PUSH2 0x38E JUMPI PUSH2 0x38D PUSH2 0x29C JUMP JUMPDEST JUMPDEST PUSH1 0x0 PUSH2 0x39C DUP9 DUP3 DUP10 ADD PUSH2 0x327 JUMP JUMPDEST SWAP6 POP POP PUSH1 0x20 PUSH2 0x3AD DUP9 DUP3 DUP10 ADD PUSH2 0x35D JUMP JUMPDEST SWAP5 POP POP PUSH1 0x40 PUSH2 0x3BE DUP9 DUP3 DUP10 ADD PUSH2 0x2B8 JUMP JUMPDEST SWAP4 POP POP PUSH1 0x60 PUSH2 0x3CF DUP9 DUP3 DUP10 ADD PUSH2 0x2B8 JUMP JUMPDEST SWAP3 POP POP PUSH1 0x80 PUSH2 0x3E0 DUP9 DUP3 DUP10 ADD PUSH2 0x327 JUMP JUMPDEST SWAP2 POP POP SWAP3 SWAP6 POP SWAP3 SWAP6 SWAP1 SWAP4 POP JUMP JUMPDEST PUSH32 0x4E487B7100000000000000000000000000000000000000000000000000000000 PUSH1 0x0 MSTORE PUSH1 0x11 PUSH1 0x4 MSTORE PUSH1 0x24 PUSH1 0x0 REVERT JUMPDEST PUSH1 0x0 PUSH2 0x427 DUP3 PUSH2 0x33C JUMP JUMPDEST SWAP2 POP PUSH2 0x432 DUP4 PUSH2 0x33C JUMP JUMPDEST SWAP3 POP DUP3 DUP3 MUL PUSH2 0x440 DUP2 PUSH2 0x33C JUMP JUMPDEST SWAP2 POP PUSH32 0x8000000000000000000000000000000000000000000000000000000000000000 DUP5 EQ PUSH1 0x0 DUP5 SLT AND ISZERO PUSH2 0x478 JUMPI PUSH2 0x477 PUSH2 0x3ED JUMP JUMPDEST JUMPDEST DUP3 DUP3 SDIV DUP5 EQ DUP4 ISZERO OR PUSH2 0x48D JUMPI PUSH2 0x48C PUSH2 0x3ED JUMP JUMPDEST JUMPDEST POP SWAP3 SWAP2 POP POP JUMP JUMPDEST PUSH1 0x0 DUP3 DUP3 MSTORE PUSH1 0x20 DUP3 ADD SWAP1 POP SWAP3 SWAP2 POP POP JUMP JUMPDEST PUSH32 0x596F75206E65656420746F2073656E64206D6F72652076616C75650000000000 PUSH1 0x0 DUP3 ADD MSTORE POP JUMP JUMPDEST PUSH1 0x0 PUSH2 0x4DB PUSH1 0x1B DUP4 PUSH2 0x494 JUMP JUMPDEST SWAP2 POP PUSH2 0x4E6 DUP3 PUSH2 0x4A5 JUMP JUMPDEST PUSH1 0x20 DUP3 ADD SWAP1 POP SWAP2 SWAP1 POP JUMP JUMPDEST PUSH1 0x0 PUSH1 0x20 DUP3 ADD SWAP1 POP DUP2 DUP2 SUB PUSH1 0x0 DUP4 ADD MSTORE PUSH2 0x50A DUP2 PUSH2 0x4CE JUMP JUMPDEST SWAP1 POP SWAP2 SWAP1 POP JUMP JUMPDEST PUSH1 0x0 PUSH2 0x51C DUP3 PUSH2 0x268 JUMP JUMPDEST SWAP2 POP PUSH2 0x527 DUP4 PUSH2 0x268 JUMP JUMPDEST SWAP3 POP DUP3 DUP3 MUL PUSH2 0x535 DUP2 PUSH2 0x268 JUMP JUMPDEST SWAP2 POP DUP3 DUP3 DIV DUP5 EQ DUP4 ISZERO OR PUSH2 0x54C JUMPI PUSH2 0x54B PUSH2 0x3ED JUMP JUMPDEST JUMPDEST POP SWAP3 SWAP2 POP POP JUMP JUMPDEST PUSH32 0x4E487B7100000000000000000000000000000000000000000000000000000000 PUSH1 0x0 MSTORE PUSH1 0x12 PUSH1 0x4 MSTORE PUSH1 0x24 PUSH1 0x0 REVERT JUMPDEST PUSH1 0x0 PUSH2 0x58D DUP3 PUSH2 0x268 JUMP JUMPDEST SWAP2 POP PUSH2 0x598 DUP4 PUSH2 0x268 JUMP JUMPDEST SWAP3 POP DUP3 PUSH2 0x5A8 JUMPI PUSH2 0x5A7 PUSH2 0x553 JUMP JUMPDEST JUMPDEST DUP3 DUP3 DIV SWAP1 POP SWAP3 SWAP2 POP POP JUMP INVALID LOG2 PUSH5 0x6970667358 0x22 SLT KECCAK256 0x4C DUP16 0xF9 SDIV SELFDESTRUCT SSTORE XOR NOT CALL CALL PUSH5 0x42C800F365 PUSH28 0xE14815294A7D1A9A679325EC60B8FA64736F6C634300081300330000 "
		},
		"gasEstimates": {
			"creation": {
				"codeDepositCost": "302600",
				"executionCost": "46716",
				"totalCost": "349316"
			},
			"external": {
				"fund()": "infinite",
				"getPrice()": "infinite",
				"getVersion()": "infinite"
			},
			"internal": {
				"getConversionRate(uint256)": "infinite"
			}
		},
		"methodIdentifiers": {
			"fund()": "b60d4288",
			"getPrice()": "98d5fdca",
			"getVersion()": "0d8e6e2c"
		}
	},
	"abi": [
		{
			"inputs": [],
			"stateMutability": "nonpayable",
			"type": "constructor"
		},
		{
			"inputs": [],
			"name": "fund",
			"outputs": [],
			"stateMutability": "payable",
			"type": "function"
		},
		{
			"inputs": [],
			"name": "getPrice",
			"outputs": [
				{
					"internalType": "uint256",
					"name": "",
					"type": "uint256"
				}
			],
			"stateMutability": "view",
			"type": "function"
		},
		{
			"inputs": [],
			"name": "getVersion",
			"outputs": [
				{
					"internalType": "uint256",
					"name": "",
					"type": "uint256"
				}
			],
			"stateMutability": "view",
			"type": "function"
		}
	]
}