{
	".deps/FundMe.sol": {
		"FundMe": {
			"abi": [
				{
					"inputs": [],
					"stateMutability": "nonpayable",
					"type": "constructor"
				},
				{
					"inputs": [],
					"name": "NotOwner",
					"type": "error"
				},
				{
					"inputs": [
						{
							"internalType": "address",
							"name": "",
							"type": "address"
						}
					],
					"name": "addressToAmountFunded",
					"outputs": [
						{
							"internalType": "uint256",
							"name": "",
							"type": "uint256"
						}
					],
					"stateMutability": "view",
					"type": "function"
				},
				{
					"inputs": [],
					"name": "fund",
					"outputs": [],
					"stateMutability": "payable",
					"type": "function"
				},
				{
					"inputs": [],
					"name": "getFunders",
					"outputs": [
						{
							"internalType": "address[]",
							"name": "",
							"type": "address[]"
						}
					],
					"stateMutability": "view",
					"type": "function"
				},
				{
					"inputs": [],
					"name": "getVersion",
					"outputs": [
						{
							"internalType": "uint256",
							"name": "",
							"type": "uint256"
						}
					],
					"stateMutability": "view",
					"type": "function"
				},
				{
					"inputs": [],
					"name": "i_owner",
					"outputs": [
						{
							"internalType": "address",
							"name": "",
							"type": "address"
						}
					],
					"stateMutability": "view",
					"type": "function"
				},
				{
					"inputs": [],
					"name": "withdraw",
					"outputs": [],
					"stateMutability": "nonpayable",
					"type": "function"
				}
			],
			"devdoc": {
				"kind": "dev",
				"methods": {},
				"version": 1
			},
			"evm": {
				"assembly": "    /* \".deps/FundMe.sol\":318:1899  contract FundMe {... */\n  mstore(0x40, 0xa0)\n    /* \".deps/FundMe.sol\":585:636  constructor() {... */\n  callvalue\n  dup1\n  iszero\n  tag_1\n  jumpi\n  0x00\n  dup1\n  revert\ntag_1:\n  pop\n    /* \".deps/FundMe.sol\":619:629  msg.sender */\n  caller\n    /* \".deps/FundMe.sol\":609:629  i_owner = msg.sender */\n  0xffffffffffffffffffffffffffffffffffffffff\n  and\n  0x80\n  dup2\n  0xffffffffffffffffffffffffffffffffffffffff\n  and\n  dup2\n  mstore\n  pop\n  pop\n    /* \".deps/FundMe.sol\":318:1899  contract FundMe {... */\n  mload(0x80)\n  codecopy(0x00, dataOffset(sub_0), dataSize(sub_0))\n  0x00\n  assignImmutable(\"0x9560168699514dcd528543d614e81b4f36adf182dc624d2f1eb91df8addd987e\")\n  return(0x00, dataSize(sub_0))\nstop\n\nsub_0: assembly {\n        /* \".deps/FundMe.sol\":318:1899  contract FundMe {... */\n      mstore(0x40, 0x80)\n      jumpi(tag_1, lt(calldatasize, 0x04))\n      shr(0xe0, calldataload(0x00))\n      dup1\n      0x0d8e6e2c\n      eq\n      tag_2\n      jumpi\n      dup1\n      0x3ccfd60b\n      eq\n      tag_3\n      jumpi\n      dup1\n      0x3e47d6f3\n      eq\n      tag_4\n      jumpi\n      dup1\n      0xb60d4288\n      eq\n      tag_5\n      jumpi\n      dup1\n      0xdba6335f\n      eq\n      tag_6\n      jumpi\n      dup1\n      0xea63a044\n      eq\n      tag_7\n      jumpi\n    tag_1:\n      0x00\n      dup1\n      revert\n        /* \".deps/FundMe.sol\":741:946  function getVersion() public view returns (uint256) {... */\n    tag_2:\n      callvalue\n      dup1\n      iszero\n      tag_8\n      jumpi\n      0x00\n      dup1\n      revert\n    tag_8:\n      pop\n      tag_9\n      tag_10\n      jump\t// in\n    tag_9:\n      mload(0x40)\n      tag_11\n      swap2\n      swap1\n      tag_12\n      jump\t// in\n    tag_11:\n      mload(0x40)\n      dup1\n      swap2\n      sub\n      swap1\n      return\n        /* \".deps/FundMe.sol\":1268:1775  function withdraw() public onlyOwner {... */\n    tag_3:\n      callvalue\n      dup1\n      iszero\n      tag_13\n      jumpi\n      0x00\n      dup1\n      revert\n    tag_13:\n      pop\n      tag_14\n      tag_15\n      jump\t// in\n    tag_14:\n      stop\n        /* \".deps/FundMe.sol\":446:502  mapping(address => uint256) public addressToAmountFunded */\n    tag_4:\n      callvalue\n      dup1\n      iszero\n      tag_16\n      jumpi\n      0x00\n      dup1\n      revert\n    tag_16:\n      pop\n      tag_17\n      0x04\n      dup1\n      calldatasize\n      sub\n      dup2\n      add\n      swap1\n      tag_18\n      swap2\n      swap1\n      tag_19\n      jump\t// in\n    tag_18:\n      tag_20\n      jump\t// in\n    tag_17:\n      mload(0x40)\n      tag_21\n      swap2\n      swap1\n      tag_12\n      jump\t// in\n    tag_21:\n      mload(0x40)\n      dup1\n      swap2\n      sub\n      swap1\n      return\n        /* \".deps/FundMe.sol\":953:1262  function fund() public payable {... */\n    tag_5:\n      tag_22\n      tag_23\n      jump\t// in\n    tag_22:\n      stop\n        /* \".deps/FundMe.sol\":545:577  address immutable public i_owner */\n    tag_6:\n      callvalue\n      dup1\n      iszero\n      tag_24\n      jumpi\n      0x00\n      dup1\n      revert\n    tag_24:\n      pop\n      tag_25\n      tag_26\n      jump\t// in\n    tag_25:\n      mload(0x40)\n      tag_27\n      swap2\n      swap1\n      tag_28\n      jump\t// in\n    tag_27:\n      mload(0x40)\n      dup1\n      swap2\n      sub\n      swap1\n      return\n        /* \".deps/FundMe.sol\":642:734  function getFunders() public view returns (address[] memory) {... */\n    tag_7:\n      callvalue\n      dup1\n      iszero\n      tag_29\n      jumpi\n      0x00\n      dup1\n      revert\n    tag_29:\n      pop\n      tag_30\n      tag_31\n      jump\t// in\n    tag_30:\n      mload(0x40)\n      tag_32\n      swap2\n      swap1\n      tag_33\n      jump\t// in\n    tag_32:\n      mload(0x40)\n      dup1\n      swap2\n      sub\n      swap1\n      return\n        /* \".deps/FundMe.sol\":741:946  function getVersion() public view returns (uint256) {... */\n    tag_10:\n        /* \".deps/FundMe.sol\":784:791  uint256 */\n      0x00\n        /* \".deps/FundMe.sol\":804:835  AggregatorV3Interface priceFeed */\n      dup1\n        /* \".deps/FundMe.sol\":860:902  0x694AA1769357215DE4FAC081bf1f309aDC325306 */\n      0x694aa1769357215de4fac081bf1f309adc325306\n        /* \".deps/FundMe.sol\":804:903  AggregatorV3Interface priceFeed = AggregatorV3Interface(0x694AA1769357215DE4FAC081bf1f309aDC325306) */\n      swap1\n      pop\n        /* \".deps/FundMe.sol\":920:929  priceFeed */\n      dup1\n        /* \".deps/FundMe.sol\":920:937  priceFeed.version */\n      0xffffffffffffffffffffffffffffffffffffffff\n      and\n      0x54fd4d50\n        /* \".deps/FundMe.sol\":920:939  priceFeed.version() */\n      mload(0x40)\n      dup2\n      0xffffffff\n      and\n      0xe0\n      shl\n      dup2\n      mstore\n      0x04\n      add\n      0x20\n      mload(0x40)\n      dup1\n      dup4\n      sub\n      dup2\n      dup7\n      gas\n      staticcall\n      iszero\n      dup1\n      iszero\n      tag_36\n      jumpi\n      returndatasize\n      0x00\n      dup1\n      returndatacopy\n      revert(0x00, returndatasize)\n    tag_36:\n      pop\n      pop\n      pop\n      pop\n      mload(0x40)\n      returndatasize\n      not(0x1f)\n      0x1f\n      dup3\n      add\n      and\n      dup3\n      add\n      dup1\n      0x40\n      mstore\n      pop\n      dup2\n      add\n      swap1\n      tag_37\n      swap2\n      swap1\n      tag_38\n      jump\t// in\n    tag_37:\n        /* \".deps/FundMe.sol\":913:939  return priceFeed.version() */\n      swap2\n      pop\n      pop\n        /* \".deps/FundMe.sol\":741:946  function getVersion() public view returns (uint256) {... */\n      swap1\n      jump\t// out\n        /* \".deps/FundMe.sol\":1268:1775  function withdraw() public onlyOwner {... */\n    tag_15:\n        /* \".deps/FundMe.sol\":1829:1836  i_owner */\n      immutable(\"0x9560168699514dcd528543d614e81b4f36adf182dc624d2f1eb91df8addd987e\")\n        /* \".deps/FundMe.sol\":1815:1836  msg.sender != i_owner */\n      0xffffffffffffffffffffffffffffffffffffffff\n      and\n        /* \".deps/FundMe.sol\":1815:1825  msg.sender */\n      caller\n        /* \".deps/FundMe.sol\":1815:1836  msg.sender != i_owner */\n      0xffffffffffffffffffffffffffffffffffffffff\n      and\n      eq\n        /* \".deps/FundMe.sol\":1810:1880  if ( msg.sender != i_owner ){... */\n      tag_40\n      jumpi\n        /* \".deps/FundMe.sol\":1859:1869  NotOwner() */\n      mload(0x40)\n      0x30cd747100000000000000000000000000000000000000000000000000000000\n      dup2\n      mstore\n      0x04\n      add\n      mload(0x40)\n      dup1\n      swap2\n      sub\n      swap1\n      revert\n        /* \".deps/FundMe.sol\":1810:1880  if ( msg.sender != i_owner ){... */\n    tag_40:\n        /* \".deps/FundMe.sol\":1321:1340  uint256 funderIndex */\n      0x00\n        /* \".deps/FundMe.sol\":1316:1549  for (uint256 funderIndex = 0; funderIndex < funders.length; funderIndex++){... */\n    tag_42:\n        /* \".deps/FundMe.sol\":1360:1367  funders */\n      0x00\n        /* \".deps/FundMe.sol\":1360:1374  funders.length */\n      dup1\n      sload\n      swap1\n      pop\n        /* \".deps/FundMe.sol\":1346:1357  funderIndex */\n      dup2\n        /* \".deps/FundMe.sol\":1346:1374  funderIndex < funders.length */\n      lt\n        /* \".deps/FundMe.sol\":1316:1549  for (uint256 funderIndex = 0; funderIndex < funders.length; funderIndex++){... */\n      iszero\n      tag_43\n      jumpi\n        /* \".deps/FundMe.sol\":1404:1418  address funder */\n      0x00\n        /* \".deps/FundMe.sol\":1421:1428  funders */\n      dup1\n        /* \".deps/FundMe.sol\":1429:1440  funderIndex */\n      dup3\n        /* \".deps/FundMe.sol\":1421:1441  funders[funderIndex] */\n      dup2\n      sload\n      dup2\n      lt\n      tag_45\n      jumpi\n      tag_46\n      tag_47\n      jump\t// in\n    tag_46:\n    tag_45:\n      swap1\n      0x00\n      mstore\n      keccak256(0x00, 0x20)\n      add\n      0x00\n      swap1\n      sload\n      swap1\n      0x0100\n      exp\n      swap1\n      div\n      0xffffffffffffffffffffffffffffffffffffffff\n      and\n        /* \".deps/FundMe.sol\":1404:1441  address funder = funders[funderIndex] */\n      swap1\n      pop\n        /* \".deps/FundMe.sol\":1458:1464  isFund */\n      0x02\n        /* \".deps/FundMe.sol\":1458:1472  isFund[funder] */\n      0x00\n        /* \".deps/FundMe.sol\":1465:1471  funder */\n      dup3\n        /* \".deps/FundMe.sol\":1458:1472  isFund[funder] */\n      0xffffffffffffffffffffffffffffffffffffffff\n      and\n      0xffffffffffffffffffffffffffffffffffffffff\n      and\n      dup2\n      mstore\n      0x20\n      add\n      swap1\n      dup2\n      mstore\n      0x20\n      add\n      0x00\n      keccak256\n      0x00\n      swap1\n      sload\n      swap1\n      0x0100\n      exp\n      swap1\n      div\n      0xff\n      and\n        /* \".deps/FundMe.sol\":1455:1539  if(isFund[funder]){... */\n      iszero\n      tag_49\n      jumpi\n        /* \".deps/FundMe.sol\":1523:1524  0 */\n      0x00\n        /* \".deps/FundMe.sol\":1491:1512  addressToAmountFunded */\n      0x01\n        /* \".deps/FundMe.sol\":1491:1520  addressToAmountFunded[funder] */\n      0x00\n        /* \".deps/FundMe.sol\":1513:1519  funder */\n      dup4\n        /* \".deps/FundMe.sol\":1491:1520  addressToAmountFunded[funder] */\n      0xffffffffffffffffffffffffffffffffffffffff\n      and\n      0xffffffffffffffffffffffffffffffffffffffff\n      and\n      dup2\n      mstore\n      0x20\n      add\n      swap1\n      dup2\n      mstore\n      0x20\n      add\n      0x00\n      keccak256\n        /* \".deps/FundMe.sol\":1491:1524  addressToAmountFunded[funder] = 0 */\n      dup2\n      swap1\n      sstore\n      pop\n        /* \".deps/FundMe.sol\":1455:1539  if(isFund[funder]){... */\n    tag_49:\n        /* \".deps/FundMe.sol\":1390:1549  {... */\n      pop\n        /* \".deps/FundMe.sol\":1376:1389  funderIndex++ */\n      dup1\n      dup1\n      0x01\n      add\n      swap2\n      pop\n      pop\n        /* \".deps/FundMe.sol\":1316:1549  for (uint256 funderIndex = 0; funderIndex < funders.length; funderIndex++){... */\n      jump(tag_42)\n    tag_43:\n      pop\n        /* \".deps/FundMe.sol\":1611:1612  0 */\n      0x00\n        /* \".deps/FundMe.sol\":1597:1613  new address[](0) */\n      0xffffffffffffffff\n      dup2\n      gt\n      iszero\n      tag_50\n      jumpi\n      tag_51\n      tag_52\n      jump\t// in\n    tag_51:\n    tag_50:\n      mload(0x40)\n      swap1\n      dup1\n      dup3\n      mstore\n      dup1\n      0x20\n      mul\n      0x20\n      add\n      dup3\n      add\n      0x40\n      mstore\n      dup1\n      iszero\n      tag_53\n      jumpi\n      dup2\n      0x20\n      add\n      0x20\n      dup3\n      mul\n      dup1\n      calldatasize\n      dup4\n      calldatacopy\n      dup1\n      dup3\n      add\n      swap2\n      pop\n      pop\n      swap1\n      pop\n    tag_53:\n      pop\n        /* \".deps/FundMe.sol\":1587:1594  funders */\n      0x00\n        /* \".deps/FundMe.sol\":1587:1613  funders = new address[](0) */\n      swap1\n      dup1\n      mload\n      swap1\n      0x20\n      add\n      swap1\n      tag_54\n      swap3\n      swap2\n      swap1\n      tag_55\n      jump\t// in\n    tag_54:\n      pop\n        /* \".deps/FundMe.sol\":1624:1640  bool callSuccess */\n      0x00\n        /* \".deps/FundMe.sol\":1654:1664  msg.sender */\n      caller\n        /* \".deps/FundMe.sol\":1646:1670  payable(msg.sender).call */\n      0xffffffffffffffffffffffffffffffffffffffff\n      and\n        /* \".deps/FundMe.sol\":1678:1699  address(this).balance */\n      selfbalance\n        /* \".deps/FundMe.sol\":1646:1704  payable(msg.sender).call{value: address(this).balance}(\"\") */\n      mload(0x40)\n      tag_56\n      swap1\n      tag_57\n      jump\t// in\n    tag_56:\n      0x00\n      mload(0x40)\n      dup1\n      dup4\n      sub\n      dup2\n      dup6\n      dup8\n      gas\n      call\n      swap3\n      pop\n      pop\n      pop\n      returndatasize\n      dup1\n      0x00\n      dup2\n      eq\n      tag_60\n      jumpi\n      mload(0x40)\n      swap2\n      pop\n      and(add(returndatasize, 0x3f), not(0x1f))\n      dup3\n      add\n      0x40\n      mstore\n      returndatasize\n      dup3\n      mstore\n      returndatasize\n      0x00\n      0x20\n      dup5\n      add\n      returndatacopy\n      jump(tag_59)\n    tag_60:\n      0x60\n      swap2\n      pop\n    tag_59:\n      pop\n        /* \".deps/FundMe.sol\":1623:1704  (bool callSuccess, ) = payable(msg.sender).call{value: address(this).balance}(\"\") */\n      pop\n      swap1\n      pop\n        /* \".deps/FundMe.sol\":1722:1733  callSuccess */\n      dup1\n        /* \".deps/FundMe.sol\":1714:1768  require(callSuccess, \"failed to withdraw your funds!\") */\n      tag_61\n      jumpi\n      mload(0x40)\n      0x08c379a000000000000000000000000000000000000000000000000000000000\n      dup2\n      mstore\n      0x04\n      add\n      tag_62\n      swap1\n      tag_63\n      jump\t// in\n    tag_62:\n      mload(0x40)\n      dup1\n      swap2\n      sub\n      swap1\n      revert\n    tag_61:\n        /* \".deps/FundMe.sol\":1305:1775  {... */\n      pop\n        /* \".deps/FundMe.sol\":1268:1775  function withdraw() public onlyOwner {... */\n      jump\t// out\n        /* \".deps/FundMe.sol\":446:502  mapping(address => uint256) public addressToAmountFunded */\n    tag_20:\n      mstore(0x20, 0x01)\n      dup1\n      0x00\n      mstore\n      keccak256(0x00, 0x40)\n      0x00\n      swap2\n      pop\n      swap1\n      pop\n      sload\n      dup2\n      jump\t// out\n        /* \".deps/FundMe.sol\":953:1262  function fund() public payable {... */\n    tag_23:\n        /* \".deps/FundMe.sol\":409:417  2 * 1e18 */\n      0x1bc16d674ec80000\n        /* \".deps/FundMe.sol\":1002:1031  msg.value.getConversionRate() */\n      tag_65\n        /* \".deps/FundMe.sol\":1002:1011  msg.value */\n      callvalue\n        /* \".deps/FundMe.sol\":1002:1029  msg.value.getConversionRate */\n      tag_66\n        /* \".deps/FundMe.sol\":1002:1031  msg.value.getConversionRate() */\n      jump\t// in\n    tag_65:\n        /* \".deps/FundMe.sol\":1002:1046  msg.value.getConversionRate() >= MINIMUM_USD */\n      lt\n      iszero\n        /* \".deps/FundMe.sol\":994:1077  require(msg.value.getConversionRate() >= MINIMUM_USD,\"You need to send more value\") */\n      tag_67\n      jumpi\n      mload(0x40)\n      0x08c379a000000000000000000000000000000000000000000000000000000000\n      dup2\n      mstore\n      0x04\n      add\n      tag_68\n      swap1\n      tag_69\n      jump\t// in\n    tag_68:\n      mload(0x40)\n      dup1\n      swap2\n      sub\n      swap1\n      revert\n    tag_67:\n        /* \".deps/FundMe.sol\":1092:1098  isFund */\n      0x02\n        /* \".deps/FundMe.sol\":1092:1110  isFund[msg.sender] */\n      0x00\n        /* \".deps/FundMe.sol\":1099:1109  msg.sender */\n      caller\n        /* \".deps/FundMe.sol\":1092:1110  isFund[msg.sender] */\n      0xffffffffffffffffffffffffffffffffffffffff\n      and\n      0xffffffffffffffffffffffffffffffffffffffff\n      and\n      dup2\n      mstore\n      0x20\n      add\n      swap1\n      dup2\n      mstore\n      0x20\n      add\n      0x00\n      keccak256\n      0x00\n      swap1\n      sload\n      swap1\n      0x0100\n      exp\n      swap1\n      div\n      0xff\n      and\n        /* \".deps/FundMe.sol\":1087:1200  if (!isFund[msg.sender]) {... */\n      tag_70\n      jumpi\n        /* \".deps/FundMe.sol\":1126:1133  funders */\n      0x00\n        /* \".deps/FundMe.sol\":1139:1149  msg.sender */\n      caller\n        /* \".deps/FundMe.sol\":1126:1150  funders.push(msg.sender) */\n      swap1\n      dup1\n      0x01\n      dup2\n      sload\n      add\n      dup1\n      dup3\n      sstore\n      dup1\n      swap2\n      pop\n      pop\n      0x01\n      swap1\n      sub\n      swap1\n      0x00\n      mstore\n      keccak256(0x00, 0x20)\n      add\n      0x00\n      swap1\n      swap2\n      swap1\n      swap2\n      swap1\n      swap2\n      0x0100\n      exp\n      dup2\n      sload\n      dup2\n      0xffffffffffffffffffffffffffffffffffffffff\n      mul\n      not\n      and\n      swap1\n      dup4\n      0xffffffffffffffffffffffffffffffffffffffff\n      and\n      mul\n      or\n      swap1\n      sstore\n      pop\n        /* \".deps/FundMe.sol\":1185:1189  true */\n      0x01\n        /* \".deps/FundMe.sol\":1164:1170  isFund */\n      0x02\n        /* \".deps/FundMe.sol\":1164:1182  isFund[msg.sender] */\n      0x00\n        /* \".deps/FundMe.sol\":1171:1181  msg.sender */\n      caller\n        /* \".deps/FundMe.sol\":1164:1182  isFund[msg.sender] */\n      0xffffffffffffffffffffffffffffffffffffffff\n      and\n      0xffffffffffffffffffffffffffffffffffffffff\n      and\n      dup2\n      mstore\n      0x20\n      add\n      swap1\n      dup2\n      mstore\n      0x20\n      add\n      0x00\n      keccak256\n      0x00\n        /* \".deps/FundMe.sol\":1164:1189  isFund[msg.sender] = true */\n      0x0100\n      exp\n      dup2\n      sload\n      dup2\n      0xff\n      mul\n      not\n      and\n      swap1\n      dup4\n      iszero\n      iszero\n      mul\n      or\n      swap1\n      sstore\n      pop\n        /* \".deps/FundMe.sol\":1087:1200  if (!isFund[msg.sender]) {... */\n    tag_70:\n        /* \".deps/FundMe.sol\":1246:1255  msg.value */\n      callvalue\n        /* \".deps/FundMe.sol\":1209:1230  addressToAmountFunded */\n      0x01\n        /* \".deps/FundMe.sol\":1209:1242  addressToAmountFunded[msg.sender] */\n      0x00\n        /* \".deps/FundMe.sol\":1231:1241  msg.sender */\n      caller\n        /* \".deps/FundMe.sol\":1209:1242  addressToAmountFunded[msg.sender] */\n      0xffffffffffffffffffffffffffffffffffffffff\n      and\n      0xffffffffffffffffffffffffffffffffffffffff\n      and\n      dup2\n      mstore\n      0x20\n      add\n      swap1\n      dup2\n      mstore\n      0x20\n      add\n      0x00\n      keccak256\n      0x00\n        /* \".deps/FundMe.sol\":1209:1255  addressToAmountFunded[msg.sender] += msg.value */\n      dup3\n      dup3\n      sload\n      tag_72\n      swap2\n      swap1\n      tag_73\n      jump\t// in\n    tag_72:\n      swap3\n      pop\n      pop\n      dup2\n      swap1\n      sstore\n      pop\n        /* \".deps/FundMe.sol\":953:1262  function fund() public payable {... */\n      jump\t// out\n        /* \".deps/FundMe.sol\":545:577  address immutable public i_owner */\n    tag_26:\n      immutable(\"0x9560168699514dcd528543d614e81b4f36adf182dc624d2f1eb91df8addd987e\")\n      dup2\n      jump\t// out\n        /* \".deps/FundMe.sol\":642:734  function getFunders() public view returns (address[] memory) {... */\n    tag_31:\n        /* \".deps/FundMe.sol\":685:701  address[] memory */\n      0x60\n        /* \".deps/FundMe.sol\":720:727  funders */\n      0x00\n        /* \".deps/FundMe.sol\":713:727  return funders */\n      dup1\n      sload\n      dup1\n      0x20\n      mul\n      0x20\n      add\n      mload(0x40)\n      swap1\n      dup2\n      add\n      0x40\n      mstore\n      dup1\n      swap3\n      swap2\n      swap1\n      dup2\n      dup2\n      mstore\n      0x20\n      add\n      dup3\n      dup1\n      sload\n      dup1\n      iszero\n      tag_75\n      jumpi\n      0x20\n      mul\n      dup3\n      add\n      swap2\n      swap1\n      0x00\n      mstore\n      keccak256(0x00, 0x20)\n      swap1\n    tag_76:\n      dup2\n      0x00\n      swap1\n      sload\n      swap1\n      0x0100\n      exp\n      swap1\n      div\n      0xffffffffffffffffffffffffffffffffffffffff\n      and\n      0xffffffffffffffffffffffffffffffffffffffff\n      and\n      dup2\n      mstore\n      0x20\n      add\n      swap1\n      0x01\n      add\n      swap1\n      dup1\n      dup4\n      gt\n      tag_76\n      jumpi\n    tag_75:\n      pop\n      pop\n      pop\n      pop\n      pop\n      swap1\n      pop\n        /* \".deps/FundMe.sol\":642:734  function getFunders() public view returns (address[] memory) {... */\n      swap1\n      jump\t// out\n        /* \".deps/PriceConverter.sol\":732:1057  function getConversionRate(... */\n    tag_66:\n        /* \".deps/PriceConverter.sol\":815:822  uint256 */\n      0x00\n        /* \".deps/PriceConverter.sol\":834:850  uint256 ethPrice */\n      dup1\n        /* \".deps/PriceConverter.sol\":853:863  getPrice() */\n      tag_78\n        /* \".deps/PriceConverter.sol\":853:861  getPrice */\n      tag_79\n        /* \".deps/PriceConverter.sol\":853:863  getPrice() */\n      jump\t// in\n    tag_78:\n        /* \".deps/PriceConverter.sol\":834:863  uint256 ethPrice = getPrice() */\n      swap1\n      pop\n        /* \".deps/PriceConverter.sol\":873:895  uint256 ethAmountInUsd */\n      0x00\n        /* \".deps/PriceConverter.sol\":923:942  1000000000000000000 */\n      0x0de0b6b3a7640000\n        /* \".deps/PriceConverter.sol\":910:919  ethAmount */\n      dup5\n        /* \".deps/PriceConverter.sol\":899:907  ethPrice */\n      dup4\n        /* \".deps/PriceConverter.sol\":899:919  ethPrice * ethAmount */\n      tag_80\n      swap2\n      swap1\n      tag_81\n      jump\t// in\n    tag_80:\n        /* \".deps/PriceConverter.sol\":898:942  (ethPrice * ethAmount) / 1000000000000000000 */\n      tag_82\n      swap2\n      swap1\n      tag_83\n      jump\t// in\n    tag_82:\n        /* \".deps/PriceConverter.sol\":873:942  uint256 ethAmountInUsd = (ethPrice * ethAmount) / 1000000000000000000 */\n      swap1\n      pop\n        /* \".deps/PriceConverter.sol\":1036:1050  ethAmountInUsd */\n      dup1\n        /* \".deps/PriceConverter.sol\":1029:1050  return ethAmountInUsd */\n      swap3\n      pop\n      pop\n      pop\n        /* \".deps/PriceConverter.sol\":732:1057  function getConversionRate(... */\n      swap2\n      swap1\n      pop\n      jump\t// out\n        /* \".deps/PriceConverter.sol\":268:708  function getPrice() internal view returns (uint256) {... */\n    tag_79:\n        /* \".deps/PriceConverter.sol\":311:318  uint256 */\n      0x00\n        /* \".deps/PriceConverter.sol\":435:466  AggregatorV3Interface priceFeed */\n      dup1\n        /* \".deps/PriceConverter.sol\":504:546  0x694AA1769357215DE4FAC081bf1f309aDC325306 */\n      0x694aa1769357215de4fac081bf1f309adc325306\n        /* \".deps/PriceConverter.sol\":435:556  AggregatorV3Interface priceFeed = AggregatorV3Interface(... */\n      swap1\n      pop\n        /* \".deps/PriceConverter.sol\":569:582  int256 answer */\n      0x00\n        /* \".deps/PriceConverter.sol\":592:601  priceFeed */\n      dup2\n        /* \".deps/PriceConverter.sol\":592:617  priceFeed.latestRoundData */\n      0xffffffffffffffffffffffffffffffffffffffff\n      and\n      0xfeaf968c\n        /* \".deps/PriceConverter.sol\":592:619  priceFeed.latestRoundData() */\n      mload(0x40)\n      dup2\n      0xffffffff\n      and\n      0xe0\n      shl\n      dup2\n      mstore\n      0x04\n      add\n      0xa0\n      mload(0x40)\n      dup1\n      dup4\n      sub\n      dup2\n      dup7\n      gas\n      staticcall\n      iszero\n      dup1\n      iszero\n      tag_86\n      jumpi\n      returndatasize\n      0x00\n      dup1\n      returndatacopy\n      revert(0x00, returndatasize)\n    tag_86:\n      pop\n      pop\n      pop\n      pop\n      mload(0x40)\n      returndatasize\n      not(0x1f)\n      0x1f\n      dup3\n      add\n      and\n      dup3\n      add\n      dup1\n      0x40\n      mstore\n      pop\n      dup2\n      add\n      swap1\n      tag_87\n      swap2\n      swap1\n      tag_88\n      jump\t// in\n    tag_87:\n        /* \".deps/PriceConverter.sol\":566:619  (, int256 answer, , , ) = priceFeed.latestRoundData() */\n      pop\n      pop\n      pop\n      swap2\n      pop\n      pop\n        /* \".deps/PriceConverter.sol\":689:700  10000000000 */\n      0x02540be400\n        /* \".deps/PriceConverter.sol\":680:686  answer */\n      dup2\n        /* \".deps/PriceConverter.sol\":680:700  answer * 10000000000 */\n      tag_89\n      swap2\n      swap1\n      tag_90\n      jump\t// in\n    tag_89:\n        /* \".deps/PriceConverter.sol\":665:701  return uint256(answer * 10000000000) */\n      swap3\n      pop\n      pop\n      pop\n        /* \".deps/PriceConverter.sol\":268:708  function getPrice() internal view returns (uint256) {... */\n      swap1\n      jump\t// out\n    tag_55:\n      dup3\n      dup1\n      sload\n      dup3\n      dup3\n      sstore\n      swap1\n      0x00\n      mstore\n      keccak256(0x00, 0x20)\n      swap1\n      dup2\n      add\n      swap3\n      dup3\n      iszero\n      tag_91\n      jumpi\n      swap2\n      0x20\n      mul\n      dup3\n      add\n    tag_92:\n      dup3\n      dup2\n      gt\n      iszero\n      tag_93\n      jumpi\n      dup3\n      mload\n      dup3\n      exp(0x0100, 0x00)\n      dup2\n      sload\n      dup2\n      0xffffffffffffffffffffffffffffffffffffffff\n      mul\n      not\n      and\n      swap1\n      dup4\n      0xffffffffffffffffffffffffffffffffffffffff\n      and\n      mul\n      or\n      swap1\n      sstore\n      pop\n      swap2\n      0x20\n      add\n      swap2\n      swap1\n      0x01\n      add\n      swap1\n      jump(tag_92)\n    tag_93:\n    tag_91:\n      pop\n      swap1\n      pop\n      tag_94\n      swap2\n      swap1\n      tag_95\n      jump\t// in\n    tag_94:\n      pop\n      swap1\n      jump\t// out\n    tag_95:\n    tag_96:\n      dup1\n      dup3\n      gt\n      iszero\n      tag_97\n      jumpi\n      0x00\n      dup2\n      0x00\n      swap1\n      sstore\n      pop\n      0x01\n      add\n      jump(tag_96)\n    tag_97:\n      pop\n      swap1\n      jump\t// out\n        /* \"#utility.yul\":7:84   */\n    tag_98:\n        /* \"#utility.yul\":44:51   */\n      0x00\n        /* \"#utility.yul\":73:78   */\n      dup2\n        /* \"#utility.yul\":62:78   */\n      swap1\n      pop\n        /* \"#utility.yul\":7:84   */\n      swap2\n      swap1\n      pop\n      jump\t// out\n        /* \"#utility.yul\":90:208   */\n    tag_99:\n        /* \"#utility.yul\":177:201   */\n      tag_136\n        /* \"#utility.yul\":195:200   */\n      dup2\n        /* \"#utility.yul\":177:201   */\n      tag_98\n      jump\t// in\n    tag_136:\n        /* \"#utility.yul\":172:175   */\n      dup3\n        /* \"#utility.yul\":165:202   */\n      mstore\n        /* \"#utility.yul\":90:208   */\n      pop\n      pop\n      jump\t// out\n        /* \"#utility.yul\":214:436   */\n    tag_12:\n        /* \"#utility.yul\":307:311   */\n      0x00\n        /* \"#utility.yul\":345:347   */\n      0x20\n        /* \"#utility.yul\":334:343   */\n      dup3\n        /* \"#utility.yul\":330:348   */\n      add\n        /* \"#utility.yul\":322:348   */\n      swap1\n      pop\n        /* \"#utility.yul\":358:429   */\n      tag_138\n        /* \"#utility.yul\":426:427   */\n      0x00\n        /* \"#utility.yul\":415:424   */\n      dup4\n        /* \"#utility.yul\":411:428   */\n      add\n        /* \"#utility.yul\":402:408   */\n      dup5\n        /* \"#utility.yul\":358:429   */\n      tag_99\n      jump\t// in\n    tag_138:\n        /* \"#utility.yul\":214:436   */\n      swap3\n      swap2\n      pop\n      pop\n      jump\t// out\n        /* \"#utility.yul\":523:640   */\n    tag_101:\n        /* \"#utility.yul\":632:633   */\n      0x00\n        /* \"#utility.yul\":629:630   */\n      dup1\n        /* \"#utility.yul\":622:634   */\n      revert\n        /* \"#utility.yul\":769:895   */\n    tag_103:\n        /* \"#utility.yul\":806:813   */\n      0x00\n        /* \"#utility.yul\":846:888   */\n      0xffffffffffffffffffffffffffffffffffffffff\n        /* \"#utility.yul\":839:844   */\n      dup3\n        /* \"#utility.yul\":835:889   */\n      and\n        /* \"#utility.yul\":824:889   */\n      swap1\n      pop\n        /* \"#utility.yul\":769:895   */\n      swap2\n      swap1\n      pop\n      jump\t// out\n        /* \"#utility.yul\":901:997   */\n    tag_104:\n        /* \"#utility.yul\":938:945   */\n      0x00\n        /* \"#utility.yul\":967:991   */\n      tag_144\n        /* \"#utility.yul\":985:990   */\n      dup3\n        /* \"#utility.yul\":967:991   */\n      tag_103\n      jump\t// in\n    tag_144:\n        /* \"#utility.yul\":956:991   */\n      swap1\n      pop\n        /* \"#utility.yul\":901:997   */\n      swap2\n      swap1\n      pop\n      jump\t// out\n        /* \"#utility.yul\":1003:1125   */\n    tag_105:\n        /* \"#utility.yul\":1076:1100   */\n      tag_146\n        /* \"#utility.yul\":1094:1099   */\n      dup2\n        /* \"#utility.yul\":1076:1100   */\n      tag_104\n      jump\t// in\n    tag_146:\n        /* \"#utility.yul\":1069:1074   */\n      dup2\n        /* \"#utility.yul\":1066:1101   */\n      eq\n        /* \"#utility.yul\":1056:1119   */\n      tag_147\n      jumpi\n        /* \"#utility.yul\":1115:1116   */\n      0x00\n        /* \"#utility.yul\":1112:1113   */\n      dup1\n        /* \"#utility.yul\":1105:1117   */\n      revert\n        /* \"#utility.yul\":1056:1119   */\n    tag_147:\n        /* \"#utility.yul\":1003:1125   */\n      pop\n      jump\t// out\n        /* \"#utility.yul\":1131:1270   */\n    tag_106:\n        /* \"#utility.yul\":1177:1182   */\n      0x00\n        /* \"#utility.yul\":1215:1221   */\n      dup2\n        /* \"#utility.yul\":1202:1222   */\n      calldataload\n        /* \"#utility.yul\":1193:1222   */\n      swap1\n      pop\n        /* \"#utility.yul\":1231:1264   */\n      tag_149\n        /* \"#utility.yul\":1258:1263   */\n      dup2\n        /* \"#utility.yul\":1231:1264   */\n      tag_105\n      jump\t// in\n    tag_149:\n        /* \"#utility.yul\":1131:1270   */\n      swap3\n      swap2\n      pop\n      pop\n      jump\t// out\n        /* \"#utility.yul\":1276:1605   */\n    tag_19:\n        /* \"#utility.yul\":1335:1341   */\n      0x00\n        /* \"#utility.yul\":1384:1386   */\n      0x20\n        /* \"#utility.yul\":1372:1381   */\n      dup3\n        /* \"#utility.yul\":1363:1370   */\n      dup5\n        /* \"#utility.yul\":1359:1382   */\n      sub\n        /* \"#utility.yul\":1355:1387   */\n      slt\n        /* \"#utility.yul\":1352:1471   */\n      iszero\n      tag_151\n      jumpi\n        /* \"#utility.yul\":1390:1469   */\n      tag_152\n      tag_101\n      jump\t// in\n    tag_152:\n        /* \"#utility.yul\":1352:1471   */\n    tag_151:\n        /* \"#utility.yul\":1510:1511   */\n      0x00\n        /* \"#utility.yul\":1535:1588   */\n      tag_153\n        /* \"#utility.yul\":1580:1587   */\n      dup5\n        /* \"#utility.yul\":1571:1577   */\n      dup3\n        /* \"#utility.yul\":1560:1569   */\n      dup6\n        /* \"#utility.yul\":1556:1578   */\n      add\n        /* \"#utility.yul\":1535:1588   */\n      tag_106\n      jump\t// in\n    tag_153:\n        /* \"#utility.yul\":1525:1588   */\n      swap2\n      pop\n        /* \"#utility.yul\":1481:1598   */\n      pop\n        /* \"#utility.yul\":1276:1605   */\n      swap3\n      swap2\n      pop\n      pop\n      jump\t// out\n        /* \"#utility.yul\":1611:1729   */\n    tag_107:\n        /* \"#utility.yul\":1698:1722   */\n      tag_155\n        /* \"#utility.yul\":1716:1721   */\n      dup2\n        /* \"#utility.yul\":1698:1722   */\n      tag_104\n      jump\t// in\n    tag_155:\n        /* \"#utility.yul\":1693:1696   */\n      dup3\n        /* \"#utility.yul\":1686:1723   */\n      mstore\n        /* \"#utility.yul\":1611:1729   */\n      pop\n      pop\n      jump\t// out\n        /* \"#utility.yul\":1735:1957   */\n    tag_28:\n        /* \"#utility.yul\":1828:1832   */\n      0x00\n        /* \"#utility.yul\":1866:1868   */\n      0x20\n        /* \"#utility.yul\":1855:1864   */\n      dup3\n        /* \"#utility.yul\":1851:1869   */\n      add\n        /* \"#utility.yul\":1843:1869   */\n      swap1\n      pop\n        /* \"#utility.yul\":1879:1950   */\n      tag_157\n        /* \"#utility.yul\":1947:1948   */\n      0x00\n        /* \"#utility.yul\":1936:1945   */\n      dup4\n        /* \"#utility.yul\":1932:1949   */\n      add\n        /* \"#utility.yul\":1923:1929   */\n      dup5\n        /* \"#utility.yul\":1879:1950   */\n      tag_107\n      jump\t// in\n    tag_157:\n        /* \"#utility.yul\":1735:1957   */\n      swap3\n      swap2\n      pop\n      pop\n      jump\t// out\n        /* \"#utility.yul\":1963:2077   */\n    tag_108:\n        /* \"#utility.yul\":2030:2036   */\n      0x00\n        /* \"#utility.yul\":2064:2069   */\n      dup2\n        /* \"#utility.yul\":2058:2070   */\n      mload\n        /* \"#utility.yul\":2048:2070   */\n      swap1\n      pop\n        /* \"#utility.yul\":1963:2077   */\n      swap2\n      swap1\n      pop\n      jump\t// out\n        /* \"#utility.yul\":2083:2267   */\n    tag_109:\n        /* \"#utility.yul\":2182:2193   */\n      0x00\n        /* \"#utility.yul\":2216:2222   */\n      dup3\n        /* \"#utility.yul\":2211:2214   */\n      dup3\n        /* \"#utility.yul\":2204:2223   */\n      mstore\n        /* \"#utility.yul\":2256:2260   */\n      0x20\n        /* \"#utility.yul\":2251:2254   */\n      dup3\n        /* \"#utility.yul\":2247:2261   */\n      add\n        /* \"#utility.yul\":2232:2261   */\n      swap1\n      pop\n        /* \"#utility.yul\":2083:2267   */\n      swap3\n      swap2\n      pop\n      pop\n      jump\t// out\n        /* \"#utility.yul\":2273:2405   */\n    tag_110:\n        /* \"#utility.yul\":2340:2344   */\n      0x00\n        /* \"#utility.yul\":2363:2366   */\n      dup2\n        /* \"#utility.yul\":2355:2366   */\n      swap1\n      pop\n        /* \"#utility.yul\":2393:2397   */\n      0x20\n        /* \"#utility.yul\":2388:2391   */\n      dup3\n        /* \"#utility.yul\":2384:2398   */\n      add\n        /* \"#utility.yul\":2376:2398   */\n      swap1\n      pop\n        /* \"#utility.yul\":2273:2405   */\n      swap2\n      swap1\n      pop\n      jump\t// out\n        /* \"#utility.yul\":2411:2519   */\n    tag_111:\n        /* \"#utility.yul\":2488:2512   */\n      tag_162\n        /* \"#utility.yul\":2506:2511   */\n      dup2\n        /* \"#utility.yul\":2488:2512   */\n      tag_104\n      jump\t// in\n    tag_162:\n        /* \"#utility.yul\":2483:2486   */\n      dup3\n        /* \"#utility.yul\":2476:2513   */\n      mstore\n        /* \"#utility.yul\":2411:2519   */\n      pop\n      pop\n      jump\t// out\n        /* \"#utility.yul\":2525:2704   */\n    tag_112:\n        /* \"#utility.yul\":2594:2604   */\n      0x00\n        /* \"#utility.yul\":2615:2661   */\n      tag_164\n        /* \"#utility.yul\":2657:2660   */\n      dup4\n        /* \"#utility.yul\":2649:2655   */\n      dup4\n        /* \"#utility.yul\":2615:2661   */\n      tag_111\n      jump\t// in\n    tag_164:\n        /* \"#utility.yul\":2693:2697   */\n      0x20\n        /* \"#utility.yul\":2688:2691   */\n      dup4\n        /* \"#utility.yul\":2684:2698   */\n      add\n        /* \"#utility.yul\":2670:2698   */\n      swap1\n      pop\n        /* \"#utility.yul\":2525:2704   */\n      swap3\n      swap2\n      pop\n      pop\n      jump\t// out\n        /* \"#utility.yul\":2710:2823   */\n    tag_113:\n        /* \"#utility.yul\":2780:2784   */\n      0x00\n        /* \"#utility.yul\":2812:2816   */\n      0x20\n        /* \"#utility.yul\":2807:2810   */\n      dup3\n        /* \"#utility.yul\":2803:2817   */\n      add\n        /* \"#utility.yul\":2795:2817   */\n      swap1\n      pop\n        /* \"#utility.yul\":2710:2823   */\n      swap2\n      swap1\n      pop\n      jump\t// out\n        /* \"#utility.yul\":2859:3591   */\n    tag_114:\n        /* \"#utility.yul\":2978:2981   */\n      0x00\n        /* \"#utility.yul\":3007:3061   */\n      tag_167\n        /* \"#utility.yul\":3055:3060   */\n      dup3\n        /* \"#utility.yul\":3007:3061   */\n      tag_108\n      jump\t// in\n    tag_167:\n        /* \"#utility.yul\":3077:3163   */\n      tag_168\n        /* \"#utility.yul\":3156:3162   */\n      dup2\n        /* \"#utility.yul\":3151:3154   */\n      dup6\n        /* \"#utility.yul\":3077:3163   */\n      tag_109\n      jump\t// in\n    tag_168:\n        /* \"#utility.yul\":3070:3163   */\n      swap4\n      pop\n        /* \"#utility.yul\":3187:3243   */\n      tag_169\n        /* \"#utility.yul\":3237:3242   */\n      dup4\n        /* \"#utility.yul\":3187:3243   */\n      tag_110\n      jump\t// in\n    tag_169:\n        /* \"#utility.yul\":3266:3273   */\n      dup1\n        /* \"#utility.yul\":3297:3298   */\n      0x00\n        /* \"#utility.yul\":3282:3566   */\n    tag_170:\n        /* \"#utility.yul\":3307:3313   */\n      dup4\n        /* \"#utility.yul\":3304:3305   */\n      dup2\n        /* \"#utility.yul\":3301:3314   */\n      lt\n        /* \"#utility.yul\":3282:3566   */\n      iszero\n      tag_172\n      jumpi\n        /* \"#utility.yul\":3383:3389   */\n      dup2\n        /* \"#utility.yul\":3377:3390   */\n      mload\n        /* \"#utility.yul\":3410:3473   */\n      tag_173\n        /* \"#utility.yul\":3469:3472   */\n      dup9\n        /* \"#utility.yul\":3454:3467   */\n      dup3\n        /* \"#utility.yul\":3410:3473   */\n      tag_112\n      jump\t// in\n    tag_173:\n        /* \"#utility.yul\":3403:3473   */\n      swap8\n      pop\n        /* \"#utility.yul\":3496:3556   */\n      tag_174\n        /* \"#utility.yul\":3549:3555   */\n      dup4\n        /* \"#utility.yul\":3496:3556   */\n      tag_113\n      jump\t// in\n    tag_174:\n        /* \"#utility.yul\":3486:3556   */\n      swap3\n      pop\n        /* \"#utility.yul\":3342:3566   */\n      pop\n        /* \"#utility.yul\":3329:3330   */\n      0x01\n        /* \"#utility.yul\":3326:3327   */\n      dup2\n        /* \"#utility.yul\":3322:3331   */\n      add\n        /* \"#utility.yul\":3317:3331   */\n      swap1\n      pop\n        /* \"#utility.yul\":3282:3566   */\n      jump(tag_170)\n    tag_172:\n        /* \"#utility.yul\":3286:3300   */\n      pop\n        /* \"#utility.yul\":3582:3585   */\n      dup6\n        /* \"#utility.yul\":3575:3585   */\n      swap4\n      pop\n        /* \"#utility.yul\":2983:3591   */\n      pop\n      pop\n      pop\n        /* \"#utility.yul\":2859:3591   */\n      swap3\n      swap2\n      pop\n      pop\n      jump\t// out\n        /* \"#utility.yul\":3597:3970   */\n    tag_33:\n        /* \"#utility.yul\":3740:3744   */\n      0x00\n        /* \"#utility.yul\":3778:3780   */\n      0x20\n        /* \"#utility.yul\":3767:3776   */\n      dup3\n        /* \"#utility.yul\":3763:3781   */\n      add\n        /* \"#utility.yul\":3755:3781   */\n      swap1\n      pop\n        /* \"#utility.yul\":3827:3836   */\n      dup2\n        /* \"#utility.yul\":3821:3825   */\n      dup2\n        /* \"#utility.yul\":3817:3837   */\n      sub\n        /* \"#utility.yul\":3813:3814   */\n      0x00\n        /* \"#utility.yul\":3802:3811   */\n      dup4\n        /* \"#utility.yul\":3798:3815   */\n      add\n        /* \"#utility.yul\":3791:3838   */\n      mstore\n        /* \"#utility.yul\":3855:3963   */\n      tag_176\n        /* \"#utility.yul\":3958:3962   */\n      dup2\n        /* \"#utility.yul\":3949:3955   */\n      dup5\n        /* \"#utility.yul\":3855:3963   */\n      tag_114\n      jump\t// in\n    tag_176:\n        /* \"#utility.yul\":3847:3963   */\n      swap1\n      pop\n        /* \"#utility.yul\":3597:3970   */\n      swap3\n      swap2\n      pop\n      pop\n      jump\t// out\n        /* \"#utility.yul\":3976:4098   */\n    tag_115:\n        /* \"#utility.yul\":4049:4073   */\n      tag_178\n        /* \"#utility.yul\":4067:4072   */\n      dup2\n        /* \"#utility.yul\":4049:4073   */\n      tag_98\n      jump\t// in\n    tag_178:\n        /* \"#utility.yul\":4042:4047   */\n      dup2\n        /* \"#utility.yul\":4039:4074   */\n      eq\n        /* \"#utility.yul\":4029:4092   */\n      tag_179\n      jumpi\n        /* \"#utility.yul\":4088:4089   */\n      0x00\n        /* \"#utility.yul\":4085:4086   */\n      dup1\n        /* \"#utility.yul\":4078:4090   */\n      revert\n        /* \"#utility.yul\":4029:4092   */\n    tag_179:\n        /* \"#utility.yul\":3976:4098   */\n      pop\n      jump\t// out\n        /* \"#utility.yul\":4104:4247   */\n    tag_116:\n        /* \"#utility.yul\":4161:4166   */\n      0x00\n        /* \"#utility.yul\":4192:4198   */\n      dup2\n        /* \"#utility.yul\":4186:4199   */\n      mload\n        /* \"#utility.yul\":4177:4199   */\n      swap1\n      pop\n        /* \"#utility.yul\":4208:4241   */\n      tag_181\n        /* \"#utility.yul\":4235:4240   */\n      dup2\n        /* \"#utility.yul\":4208:4241   */\n      tag_115\n      jump\t// in\n    tag_181:\n        /* \"#utility.yul\":4104:4247   */\n      swap3\n      swap2\n      pop\n      pop\n      jump\t// out\n        /* \"#utility.yul\":4253:4604   */\n    tag_38:\n        /* \"#utility.yul\":4323:4329   */\n      0x00\n        /* \"#utility.yul\":4372:4374   */\n      0x20\n        /* \"#utility.yul\":4360:4369   */\n      dup3\n        /* \"#utility.yul\":4351:4358   */\n      dup5\n        /* \"#utility.yul\":4347:4370   */\n      sub\n        /* \"#utility.yul\":4343:4375   */\n      slt\n        /* \"#utility.yul\":4340:4459   */\n      iszero\n      tag_183\n      jumpi\n        /* \"#utility.yul\":4378:4457   */\n      tag_184\n      tag_101\n      jump\t// in\n    tag_184:\n        /* \"#utility.yul\":4340:4459   */\n    tag_183:\n        /* \"#utility.yul\":4498:4499   */\n      0x00\n        /* \"#utility.yul\":4523:4587   */\n      tag_185\n        /* \"#utility.yul\":4579:4586   */\n      dup5\n        /* \"#utility.yul\":4570:4576   */\n      dup3\n        /* \"#utility.yul\":4559:4568   */\n      dup6\n        /* \"#utility.yul\":4555:4577   */\n      add\n        /* \"#utility.yul\":4523:4587   */\n      tag_116\n      jump\t// in\n    tag_185:\n        /* \"#utility.yul\":4513:4587   */\n      swap2\n      pop\n        /* \"#utility.yul\":4469:4597   */\n      pop\n        /* \"#utility.yul\":4253:4604   */\n      swap3\n      swap2\n      pop\n      pop\n      jump\t// out\n        /* \"#utility.yul\":4610:4790   */\n    tag_47:\n        /* \"#utility.yul\":4658:4735   */\n      0x4e487b7100000000000000000000000000000000000000000000000000000000\n        /* \"#utility.yul\":4655:4656   */\n      0x00\n        /* \"#utility.yul\":4648:4736   */\n      mstore\n        /* \"#utility.yul\":4755:4759   */\n      0x32\n        /* \"#utility.yul\":4752:4753   */\n      0x04\n        /* \"#utility.yul\":4745:4760   */\n      mstore\n        /* \"#utility.yul\":4779:4783   */\n      0x24\n        /* \"#utility.yul\":4776:4777   */\n      0x00\n        /* \"#utility.yul\":4769:4784   */\n      revert\n        /* \"#utility.yul\":4796:4976   */\n    tag_52:\n        /* \"#utility.yul\":4844:4921   */\n      0x4e487b7100000000000000000000000000000000000000000000000000000000\n        /* \"#utility.yul\":4841:4842   */\n      0x00\n        /* \"#utility.yul\":4834:4922   */\n      mstore\n        /* \"#utility.yul\":4941:4945   */\n      0x41\n        /* \"#utility.yul\":4938:4939   */\n      0x04\n        /* \"#utility.yul\":4931:4946   */\n      mstore\n        /* \"#utility.yul\":4965:4969   */\n      0x24\n        /* \"#utility.yul\":4962:4963   */\n      0x00\n        /* \"#utility.yul\":4955:4970   */\n      revert\n        /* \"#utility.yul\":4982:5129   */\n    tag_117:\n        /* \"#utility.yul\":5083:5094   */\n      0x00\n        /* \"#utility.yul\":5120:5123   */\n      dup2\n        /* \"#utility.yul\":5105:5123   */\n      swap1\n      pop\n        /* \"#utility.yul\":4982:5129   */\n      swap3\n      swap2\n      pop\n      pop\n      jump\t// out\n        /* \"#utility.yul\":5135:5249   */\n    tag_118:\n      pop\n      jump\t// out\n        /* \"#utility.yul\":5255:5653   */\n    tag_119:\n        /* \"#utility.yul\":5414:5417   */\n      0x00\n        /* \"#utility.yul\":5435:5518   */\n      tag_191\n        /* \"#utility.yul\":5516:5517   */\n      0x00\n        /* \"#utility.yul\":5511:5514   */\n      dup4\n        /* \"#utility.yul\":5435:5518   */\n      tag_117\n      jump\t// in\n    tag_191:\n        /* \"#utility.yul\":5428:5518   */\n      swap2\n      pop\n        /* \"#utility.yul\":5527:5620   */\n      tag_192\n        /* \"#utility.yul\":5616:5619   */\n      dup3\n        /* \"#utility.yul\":5527:5620   */\n      tag_118\n      jump\t// in\n    tag_192:\n        /* \"#utility.yul\":5645:5646   */\n      0x00\n        /* \"#utility.yul\":5640:5643   */\n      dup3\n        /* \"#utility.yul\":5636:5647   */\n      add\n        /* \"#utility.yul\":5629:5647   */\n      swap1\n      pop\n        /* \"#utility.yul\":5255:5653   */\n      swap2\n      swap1\n      pop\n      jump\t// out\n        /* \"#utility.yul\":5659:6038   */\n    tag_57:\n        /* \"#utility.yul\":5843:5846   */\n      0x00\n        /* \"#utility.yul\":5865:6012   */\n      tag_194\n        /* \"#utility.yul\":6008:6011   */\n      dup3\n        /* \"#utility.yul\":5865:6012   */\n      tag_119\n      jump\t// in\n    tag_194:\n        /* \"#utility.yul\":5858:6012   */\n      swap2\n      pop\n        /* \"#utility.yul\":6029:6032   */\n      dup2\n        /* \"#utility.yul\":6022:6032   */\n      swap1\n      pop\n        /* \"#utility.yul\":5659:6038   */\n      swap2\n      swap1\n      pop\n      jump\t// out\n        /* \"#utility.yul\":6044:6213   */\n    tag_120:\n        /* \"#utility.yul\":6128:6139   */\n      0x00\n        /* \"#utility.yul\":6162:6168   */\n      dup3\n        /* \"#utility.yul\":6157:6160   */\n      dup3\n        /* \"#utility.yul\":6150:6169   */\n      mstore\n        /* \"#utility.yul\":6202:6206   */\n      0x20\n        /* \"#utility.yul\":6197:6200   */\n      dup3\n        /* \"#utility.yul\":6193:6207   */\n      add\n        /* \"#utility.yul\":6178:6207   */\n      swap1\n      pop\n        /* \"#utility.yul\":6044:6213   */\n      swap3\n      swap2\n      pop\n      pop\n      jump\t// out\n        /* \"#utility.yul\":6219:6399   */\n    tag_121:\n        /* \"#utility.yul\":6359:6391   */\n      0x6661696c656420746f20776974686472617720796f75722066756e6473210000\n        /* \"#utility.yul\":6355:6356   */\n      0x00\n        /* \"#utility.yul\":6347:6353   */\n      dup3\n        /* \"#utility.yul\":6343:6357   */\n      add\n        /* \"#utility.yul\":6336:6392   */\n      mstore\n        /* \"#utility.yul\":6219:6399   */\n      pop\n      jump\t// out\n        /* \"#utility.yul\":6405:6771   */\n    tag_122:\n        /* \"#utility.yul\":6547:6550   */\n      0x00\n        /* \"#utility.yul\":6568:6635   */\n      tag_198\n        /* \"#utility.yul\":6632:6634   */\n      0x1e\n        /* \"#utility.yul\":6627:6630   */\n      dup4\n        /* \"#utility.yul\":6568:6635   */\n      tag_120\n      jump\t// in\n    tag_198:\n        /* \"#utility.yul\":6561:6635   */\n      swap2\n      pop\n        /* \"#utility.yul\":6644:6737   */\n      tag_199\n        /* \"#utility.yul\":6733:6736   */\n      dup3\n        /* \"#utility.yul\":6644:6737   */\n      tag_121\n      jump\t// in\n    tag_199:\n        /* \"#utility.yul\":6762:6764   */\n      0x20\n        /* \"#utility.yul\":6757:6760   */\n      dup3\n        /* \"#utility.yul\":6753:6765   */\n      add\n        /* \"#utility.yul\":6746:6765   */\n      swap1\n      pop\n        /* \"#utility.yul\":6405:6771   */\n      swap2\n      swap1\n      pop\n      jump\t// out\n        /* \"#utility.yul\":6777:7196   */\n    tag_63:\n        /* \"#utility.yul\":6943:6947   */\n      0x00\n        /* \"#utility.yul\":6981:6983   */\n      0x20\n        /* \"#utility.yul\":6970:6979   */\n      dup3\n        /* \"#utility.yul\":6966:6984   */\n      add\n        /* \"#utility.yul\":6958:6984   */\n      swap1\n      pop\n        /* \"#utility.yul\":7030:7039   */\n      dup2\n        /* \"#utility.yul\":7024:7028   */\n      dup2\n        /* \"#utility.yul\":7020:7040   */\n      sub\n        /* \"#utility.yul\":7016:7017   */\n      0x00\n        /* \"#utility.yul\":7005:7014   */\n      dup4\n        /* \"#utility.yul\":7001:7018   */\n      add\n        /* \"#utility.yul\":6994:7041   */\n      mstore\n        /* \"#utility.yul\":7058:7189   */\n      tag_201\n        /* \"#utility.yul\":7184:7188   */\n      dup2\n        /* \"#utility.yul\":7058:7189   */\n      tag_122\n      jump\t// in\n    tag_201:\n        /* \"#utility.yul\":7050:7189   */\n      swap1\n      pop\n        /* \"#utility.yul\":6777:7196   */\n      swap2\n      swap1\n      pop\n      jump\t// out\n        /* \"#utility.yul\":7202:7379   */\n    tag_123:\n        /* \"#utility.yul\":7342:7371   */\n      0x596f75206e65656420746f2073656e64206d6f72652076616c75650000000000\n        /* \"#utility.yul\":7338:7339   */\n      0x00\n        /* \"#utility.yul\":7330:7336   */\n      dup3\n        /* \"#utility.yul\":7326:7340   */\n      add\n        /* \"#utility.yul\":7319:7372   */\n      mstore\n        /* \"#utility.yul\":7202:7379   */\n      pop\n      jump\t// out\n        /* \"#utility.yul\":7385:7751   */\n    tag_124:\n        /* \"#utility.yul\":7527:7530   */\n      0x00\n        /* \"#utility.yul\":7548:7615   */\n      tag_204\n        /* \"#utility.yul\":7612:7614   */\n      0x1b\n        /* \"#utility.yul\":7607:7610   */\n      dup4\n        /* \"#utility.yul\":7548:7615   */\n      tag_120\n      jump\t// in\n    tag_204:\n        /* \"#utility.yul\":7541:7615   */\n      swap2\n      pop\n        /* \"#utility.yul\":7624:7717   */\n      tag_205\n        /* \"#utility.yul\":7713:7716   */\n      dup3\n        /* \"#utility.yul\":7624:7717   */\n      tag_123\n      jump\t// in\n    tag_205:\n        /* \"#utility.yul\":7742:7744   */\n      0x20\n        /* \"#utility.yul\":7737:7740   */\n      dup3\n        /* \"#utility.yul\":7733:7745   */\n      add\n        /* \"#utility.yul\":7726:7745   */\n      swap1\n      pop\n        /* \"#utility.yul\":7385:7751   */\n      swap2\n      swap1\n      pop\n      jump\t// out\n        /* \"#utility.yul\":7757:8176   */\n    tag_69:\n        /* \"#utility.yul\":7923:7927   */\n      0x00\n        /* \"#utility.yul\":7961:7963   */\n      0x20\n        /* \"#utility.yul\":7950:7959   */\n      dup3\n        /* \"#utility.yul\":7946:7964   */\n      add\n        /* \"#utility.yul\":7938:7964   */\n      swap1\n      pop\n        /* \"#utility.yul\":8010:8019   */\n      dup2\n        /* \"#utility.yul\":8004:8008   */\n      dup2\n        /* \"#utility.yul\":8000:8020   */\n      sub\n        /* \"#utility.yul\":7996:7997   */\n      0x00\n        /* \"#utility.yul\":7985:7994   */\n      dup4\n        /* \"#utility.yul\":7981:7998   */\n      add\n        /* \"#utility.yul\":7974:8021   */\n      mstore\n        /* \"#utility.yul\":8038:8169   */\n      tag_207\n        /* \"#utility.yul\":8164:8168   */\n      dup2\n        /* \"#utility.yul\":8038:8169   */\n      tag_124\n      jump\t// in\n    tag_207:\n        /* \"#utility.yul\":8030:8169   */\n      swap1\n      pop\n        /* \"#utility.yul\":7757:8176   */\n      swap2\n      swap1\n      pop\n      jump\t// out\n        /* \"#utility.yul\":8182:8362   */\n    tag_125:\n        /* \"#utility.yul\":8230:8307   */\n      0x4e487b7100000000000000000000000000000000000000000000000000000000\n        /* \"#utility.yul\":8227:8228   */\n      0x00\n        /* \"#utility.yul\":8220:8308   */\n      mstore\n        /* \"#utility.yul\":8327:8331   */\n      0x11\n        /* \"#utility.yul\":8324:8325   */\n      0x04\n        /* \"#utility.yul\":8317:8332   */\n      mstore\n        /* \"#utility.yul\":8351:8355   */\n      0x24\n        /* \"#utility.yul\":8348:8349   */\n      0x00\n        /* \"#utility.yul\":8341:8356   */\n      revert\n        /* \"#utility.yul\":8368:8559   */\n    tag_73:\n        /* \"#utility.yul\":8408:8411   */\n      0x00\n        /* \"#utility.yul\":8427:8447   */\n      tag_210\n        /* \"#utility.yul\":8445:8446   */\n      dup3\n        /* \"#utility.yul\":8427:8447   */\n      tag_98\n      jump\t// in\n    tag_210:\n        /* \"#utility.yul\":8422:8447   */\n      swap2\n      pop\n        /* \"#utility.yul\":8461:8481   */\n      tag_211\n        /* \"#utility.yul\":8479:8480   */\n      dup4\n        /* \"#utility.yul\":8461:8481   */\n      tag_98\n      jump\t// in\n    tag_211:\n        /* \"#utility.yul\":8456:8481   */\n      swap3\n      pop\n        /* \"#utility.yul\":8504:8505   */\n      dup3\n        /* \"#utility.yul\":8501:8502   */\n      dup3\n        /* \"#utility.yul\":8497:8506   */\n      add\n        /* \"#utility.yul\":8490:8506   */\n      swap1\n      pop\n        /* \"#utility.yul\":8525:8528   */\n      dup1\n        /* \"#utility.yul\":8522:8523   */\n      dup3\n        /* \"#utility.yul\":8519:8529   */\n      gt\n        /* \"#utility.yul\":8516:8552   */\n      iszero\n      tag_212\n      jumpi\n        /* \"#utility.yul\":8532:8550   */\n      tag_213\n      tag_125\n      jump\t// in\n    tag_213:\n        /* \"#utility.yul\":8516:8552   */\n    tag_212:\n        /* \"#utility.yul\":8368:8559   */\n      swap3\n      swap2\n      pop\n      pop\n      jump\t// out\n        /* \"#utility.yul\":8565:8975   */\n    tag_81:\n        /* \"#utility.yul\":8605:8612   */\n      0x00\n        /* \"#utility.yul\":8628:8648   */\n      tag_215\n        /* \"#utility.yul\":8646:8647   */\n      dup3\n        /* \"#utility.yul\":8628:8648   */\n      tag_98\n      jump\t// in\n    tag_215:\n        /* \"#utility.yul\":8623:8648   */\n      swap2\n      pop\n        /* \"#utility.yul\":8662:8682   */\n      tag_216\n        /* \"#utility.yul\":8680:8681   */\n      dup4\n        /* \"#utility.yul\":8662:8682   */\n      tag_98\n      jump\t// in\n    tag_216:\n        /* \"#utility.yul\":8657:8682   */\n      swap3\n      pop\n        /* \"#utility.yul\":8717:8718   */\n      dup3\n        /* \"#utility.yul\":8714:8715   */\n      dup3\n        /* \"#utility.yul\":8710:8719   */\n      mul\n        /* \"#utility.yul\":8739:8769   */\n      tag_217\n        /* \"#utility.yul\":8757:8768   */\n      dup2\n        /* \"#utility.yul\":8739:8769   */\n      tag_98\n      jump\t// in\n    tag_217:\n        /* \"#utility.yul\":8728:8769   */\n      swap2\n      pop\n        /* \"#utility.yul\":8918:8919   */\n      dup3\n        /* \"#utility.yul\":8909:8916   */\n      dup3\n        /* \"#utility.yul\":8905:8920   */\n      div\n        /* \"#utility.yul\":8902:8903   */\n      dup5\n        /* \"#utility.yul\":8899:8921   */\n      eq\n        /* \"#utility.yul\":8879:8880   */\n      dup4\n        /* \"#utility.yul\":8872:8881   */\n      iszero\n        /* \"#utility.yul\":8852:8935   */\n      or\n        /* \"#utility.yul\":8829:8968   */\n      tag_218\n      jumpi\n        /* \"#utility.yul\":8948:8966   */\n      tag_219\n      tag_125\n      jump\t// in\n    tag_219:\n        /* \"#utility.yul\":8829:8968   */\n    tag_218:\n        /* \"#utility.yul\":8613:8975   */\n      pop\n        /* \"#utility.yul\":8565:8975   */\n      swap3\n      swap2\n      pop\n      pop\n      jump\t// out\n        /* \"#utility.yul\":8981:9161   */\n    tag_126:\n        /* \"#utility.yul\":9029:9106   */\n      0x4e487b7100000000000000000000000000000000000000000000000000000000\n        /* \"#utility.yul\":9026:9027   */\n      0x00\n        /* \"#utility.yul\":9019:9107   */\n      mstore\n        /* \"#utility.yul\":9126:9130   */\n      0x12\n        /* \"#utility.yul\":9123:9124   */\n      0x04\n        /* \"#utility.yul\":9116:9131   */\n      mstore\n        /* \"#utility.yul\":9150:9154   */\n      0x24\n        /* \"#utility.yul\":9147:9148   */\n      0x00\n        /* \"#utility.yul\":9140:9155   */\n      revert\n        /* \"#utility.yul\":9167:9352   */\n    tag_83:\n        /* \"#utility.yul\":9207:9208   */\n      0x00\n        /* \"#utility.yul\":9224:9244   */\n      tag_222\n        /* \"#utility.yul\":9242:9243   */\n      dup3\n        /* \"#utility.yul\":9224:9244   */\n      tag_98\n      jump\t// in\n    tag_222:\n        /* \"#utility.yul\":9219:9244   */\n      swap2\n      pop\n        /* \"#utility.yul\":9258:9278   */\n      tag_223\n        /* \"#utility.yul\":9276:9277   */\n      dup4\n        /* \"#utility.yul\":9258:9278   */\n      tag_98\n      jump\t// in\n    tag_223:\n        /* \"#utility.yul\":9253:9278   */\n      swap3\n      pop\n        /* \"#utility.yul\":9297:9298   */\n      dup3\n        /* \"#utility.yul\":9287:9322   */\n      tag_224\n      jumpi\n        /* \"#utility.yul\":9302:9320   */\n      tag_225\n      tag_126\n      jump\t// in\n    tag_225:\n        /* \"#utility.yul\":9287:9322   */\n    tag_224:\n        /* \"#utility.yul\":9344:9345   */\n      dup3\n        /* \"#utility.yul\":9341:9342   */\n      dup3\n        /* \"#utility.yul\":9337:9346   */\n      div\n        /* \"#utility.yul\":9332:9346   */\n      swap1\n      pop\n        /* \"#utility.yul\":9167:9352   */\n      swap3\n      swap2\n      pop\n      pop\n      jump\t// out\n        /* \"#utility.yul\":9358:9463   */\n    tag_127:\n        /* \"#utility.yul\":9394:9401   */\n      0x00\n        /* \"#utility.yul\":9434:9456   */\n      0xffffffffffffffffffff\n        /* \"#utility.yul\":9427:9432   */\n      dup3\n        /* \"#utility.yul\":9423:9457   */\n      and\n        /* \"#utility.yul\":9412:9457   */\n      swap1\n      pop\n        /* \"#utility.yul\":9358:9463   */\n      swap2\n      swap1\n      pop\n      jump\t// out\n        /* \"#utility.yul\":9469:9589   */\n    tag_128:\n        /* \"#utility.yul\":9541:9564   */\n      tag_228\n        /* \"#utility.yul\":9558:9563   */\n      dup2\n        /* \"#utility.yul\":9541:9564   */\n      tag_127\n      jump\t// in\n    tag_228:\n        /* \"#utility.yul\":9534:9539   */\n      dup2\n        /* \"#utility.yul\":9531:9565   */\n      eq\n        /* \"#utility.yul\":9521:9583   */\n      tag_229\n      jumpi\n        /* \"#utility.yul\":9579:9580   */\n      0x00\n        /* \"#utility.yul\":9576:9577   */\n      dup1\n        /* \"#utility.yul\":9569:9581   */\n      revert\n        /* \"#utility.yul\":9521:9583   */\n    tag_229:\n        /* \"#utility.yul\":9469:9589   */\n      pop\n      jump\t// out\n        /* \"#utility.yul\":9595:9736   */\n    tag_129:\n        /* \"#utility.yul\":9651:9656   */\n      0x00\n        /* \"#utility.yul\":9682:9688   */\n      dup2\n        /* \"#utility.yul\":9676:9689   */\n      mload\n        /* \"#utility.yul\":9667:9689   */\n      swap1\n      pop\n        /* \"#utility.yul\":9698:9730   */\n      tag_231\n        /* \"#utility.yul\":9724:9729   */\n      dup2\n        /* \"#utility.yul\":9698:9730   */\n      tag_128\n      jump\t// in\n    tag_231:\n        /* \"#utility.yul\":9595:9736   */\n      swap3\n      swap2\n      pop\n      pop\n      jump\t// out\n        /* \"#utility.yul\":9742:9818   */\n    tag_130:\n        /* \"#utility.yul\":9778:9785   */\n      0x00\n        /* \"#utility.yul\":9807:9812   */\n      dup2\n        /* \"#utility.yul\":9796:9812   */\n      swap1\n      pop\n        /* \"#utility.yul\":9742:9818   */\n      swap2\n      swap1\n      pop\n      jump\t// out\n        /* \"#utility.yul\":9824:9944   */\n    tag_131:\n        /* \"#utility.yul\":9896:9919   */\n      tag_234\n        /* \"#utility.yul\":9913:9918   */\n      dup2\n        /* \"#utility.yul\":9896:9919   */\n      tag_130\n      jump\t// in\n    tag_234:\n        /* \"#utility.yul\":9889:9894   */\n      dup2\n        /* \"#utility.yul\":9886:9920   */\n      eq\n        /* \"#utility.yul\":9876:9938   */\n      tag_235\n      jumpi\n        /* \"#utility.yul\":9934:9935   */\n      0x00\n        /* \"#utility.yul\":9931:9932   */\n      dup1\n        /* \"#utility.yul\":9924:9936   */\n      revert\n        /* \"#utility.yul\":9876:9938   */\n    tag_235:\n        /* \"#utility.yul\":9824:9944   */\n      pop\n      jump\t// out\n        /* \"#utility.yul\":9950:10091   */\n    tag_132:\n        /* \"#utility.yul\":10006:10011   */\n      0x00\n        /* \"#utility.yul\":10037:10043   */\n      dup2\n        /* \"#utility.yul\":10031:10044   */\n      mload\n        /* \"#utility.yul\":10022:10044   */\n      swap1\n      pop\n        /* \"#utility.yul\":10053:10085   */\n      tag_237\n        /* \"#utility.yul\":10079:10084   */\n      dup2\n        /* \"#utility.yul\":10053:10085   */\n      tag_131\n      jump\t// in\n    tag_237:\n        /* \"#utility.yul\":9950:10091   */\n      swap3\n      swap2\n      pop\n      pop\n      jump\t// out\n        /* \"#utility.yul\":10097:11068   */\n    tag_88:\n        /* \"#utility.yul\":10200:10206   */\n      0x00\n        /* \"#utility.yul\":10208:10214   */\n      dup1\n        /* \"#utility.yul\":10216:10222   */\n      0x00\n        /* \"#utility.yul\":10224:10230   */\n      dup1\n        /* \"#utility.yul\":10232:10238   */\n      0x00\n        /* \"#utility.yul\":10281:10284   */\n      0xa0\n        /* \"#utility.yul\":10269:10278   */\n      dup7\n        /* \"#utility.yul\":10260:10267   */\n      dup9\n        /* \"#utility.yul\":10256:10279   */\n      sub\n        /* \"#utility.yul\":10252:10285   */\n      slt\n        /* \"#utility.yul\":10249:10369   */\n      iszero\n      tag_239\n      jumpi\n        /* \"#utility.yul\":10288:10367   */\n      tag_240\n      tag_101\n      jump\t// in\n    tag_240:\n        /* \"#utility.yul\":10249:10369   */\n    tag_239:\n        /* \"#utility.yul\":10408:10409   */\n      0x00\n        /* \"#utility.yul\":10433:10496   */\n      tag_241\n        /* \"#utility.yul\":10488:10495   */\n      dup9\n        /* \"#utility.yul\":10479:10485   */\n      dup3\n        /* \"#utility.yul\":10468:10477   */\n      dup10\n        /* \"#utility.yul\":10464:10486   */\n      add\n        /* \"#utility.yul\":10433:10496   */\n      tag_129\n      jump\t// in\n    tag_241:\n        /* \"#utility.yul\":10423:10496   */\n      swap6\n      pop\n        /* \"#utility.yul\":10379:10506   */\n      pop\n        /* \"#utility.yul\":10545:10547   */\n      0x20\n        /* \"#utility.yul\":10571:10634   */\n      tag_242\n        /* \"#utility.yul\":10626:10633   */\n      dup9\n        /* \"#utility.yul\":10617:10623   */\n      dup3\n        /* \"#utility.yul\":10606:10615   */\n      dup10\n        /* \"#utility.yul\":10602:10624   */\n      add\n        /* \"#utility.yul\":10571:10634   */\n      tag_132\n      jump\t// in\n    tag_242:\n        /* \"#utility.yul\":10561:10634   */\n      swap5\n      pop\n        /* \"#utility.yul\":10516:10644   */\n      pop\n        /* \"#utility.yul\":10683:10685   */\n      0x40\n        /* \"#utility.yul\":10709:10773   */\n      tag_243\n        /* \"#utility.yul\":10765:10772   */\n      dup9\n        /* \"#utility.yul\":10756:10762   */\n      dup3\n        /* \"#utility.yul\":10745:10754   */\n      dup10\n        /* \"#utility.yul\":10741:10763   */\n      add\n        /* \"#utility.yul\":10709:10773   */\n      tag_116\n      jump\t// in\n    tag_243:\n        /* \"#utility.yul\":10699:10773   */\n      swap4\n      pop\n        /* \"#utility.yul\":10654:10783   */\n      pop\n        /* \"#utility.yul\":10822:10824   */\n      0x60\n        /* \"#utility.yul\":10848:10912   */\n      tag_244\n        /* \"#utility.yul\":10904:10911   */\n      dup9\n        /* \"#utility.yul\":10895:10901   */\n      dup3\n        /* \"#utility.yul\":10884:10893   */\n      dup10\n        /* \"#utility.yul\":10880:10902   */\n      add\n        /* \"#utility.yul\":10848:10912   */\n      tag_116\n      jump\t// in\n    tag_244:\n        /* \"#utility.yul\":10838:10912   */\n      swap3\n      pop\n        /* \"#utility.yul\":10793:10922   */\n      pop\n        /* \"#utility.yul\":10961:10964   */\n      0x80\n        /* \"#utility.yul\":10988:11051   */\n      tag_245\n        /* \"#utility.yul\":11043:11050   */\n      dup9\n        /* \"#utility.yul\":11034:11040   */\n      dup3\n        /* \"#utility.yul\":11023:11032   */\n      dup10\n        /* \"#utility.yul\":11019:11041   */\n      add\n        /* \"#utility.yul\":10988:11051   */\n      tag_129\n      jump\t// in\n    tag_245:\n        /* \"#utility.yul\":10978:11051   */\n      swap2\n      pop\n        /* \"#utility.yul\":10932:11061   */\n      pop\n        /* \"#utility.yul\":10097:11068   */\n      swap3\n      swap6\n      pop\n      swap3\n      swap6\n      swap1\n      swap4\n      pop\n      jump\t// out\n        /* \"#utility.yul\":11074:11630   */\n    tag_90:\n        /* \"#utility.yul\":11113:11120   */\n      0x00\n        /* \"#utility.yul\":11136:11155   */\n      tag_247\n        /* \"#utility.yul\":11153:11154   */\n      dup3\n        /* \"#utility.yul\":11136:11155   */\n      tag_130\n      jump\t// in\n    tag_247:\n        /* \"#utility.yul\":11131:11155   */\n      swap2\n      pop\n        /* \"#utility.yul\":11169:11188   */\n      tag_248\n        /* \"#utility.yul\":11186:11187   */\n      dup4\n        /* \"#utility.yul\":11169:11188   */\n      tag_130\n      jump\t// in\n    tag_248:\n        /* \"#utility.yul\":11164:11188   */\n      swap3\n      pop\n        /* \"#utility.yul\":11223:11224   */\n      dup3\n        /* \"#utility.yul\":11220:11221   */\n      dup3\n        /* \"#utility.yul\":11216:11225   */\n      mul\n        /* \"#utility.yul\":11245:11274   */\n      tag_249\n        /* \"#utility.yul\":11262:11273   */\n      dup2\n        /* \"#utility.yul\":11245:11274   */\n      tag_130\n      jump\t// in\n    tag_249:\n        /* \"#utility.yul\":11234:11274   */\n      swap2\n      pop\n        /* \"#utility.yul\":11332:11398   */\n      0x8000000000000000000000000000000000000000000000000000000000000000\n        /* \"#utility.yul\":11329:11330   */\n      dup5\n        /* \"#utility.yul\":11326:11399   */\n      eq\n        /* \"#utility.yul\":11322:11323   */\n      0x00\n        /* \"#utility.yul\":11319:11320   */\n      dup5\n        /* \"#utility.yul\":11315:11324   */\n      slt\n        /* \"#utility.yul\":11311:11400   */\n      and\n        /* \"#utility.yul\":11308:11423   */\n      iszero\n      tag_250\n      jumpi\n        /* \"#utility.yul\":11403:11421   */\n      tag_251\n      tag_125\n      jump\t// in\n    tag_251:\n        /* \"#utility.yul\":11308:11423   */\n    tag_250:\n        /* \"#utility.yul\":11573:11574   */\n      dup3\n        /* \"#utility.yul\":11564:11571   */\n      dup3\n        /* \"#utility.yul\":11559:11575   */\n      sdiv\n        /* \"#utility.yul\":11556:11557   */\n      dup5\n        /* \"#utility.yul\":11553:11576   */\n      eq\n        /* \"#utility.yul\":11533:11534   */\n      dup4\n        /* \"#utility.yul\":11526:11535   */\n      iszero\n        /* \"#utility.yul\":11506:11590   */\n      or\n        /* \"#utility.yul\":11483:11623   */\n      tag_252\n      jumpi\n        /* \"#utility.yul\":11603:11621   */\n      tag_253\n      tag_125\n      jump\t// in\n    tag_253:\n        /* \"#utility.yul\":11483:11623   */\n    tag_252:\n        /* \"#utility.yul\":11121:11630   */\n      pop\n        /* \"#utility.yul\":11074:11630   */\n      swap3\n      swap2\n      pop\n      pop\n      jump\t// out\n\n    auxdata: 0xa26469706673582212205964f88c4d2af4fd41630d80b5af3a7b6b844e1ee6c23ccb21a27a8dbd445ee464736f6c634300081a0033\n}\n",
				"bytecode": {
					"linkReferences": {},
					"object": "60a0604052348015600e575f80fd5b503373ffffffffffffffffffffffffffffffffffffffff1660808173ffffffffffffffffffffffffffffffffffffffff1681525050608051610e426100625f395f81816101c001526105fb0152610e425ff3fe608060405260043610610054575f3560e01c80630d8e6e2c146100585780633ccfd60b146100825780633e47d6f314610098578063b60d4288146100d4578063dba6335f146100de578063ea63a04414610108575b5f80fd5b348015610063575f80fd5b5061006c610132565b604051610079919061083e565b60405180910390f35b34801561008d575f80fd5b506100966101be565b005b3480156100a3575f80fd5b506100be60048036038101906100b991906108b5565b610439565b6040516100cb919061083e565b60405180910390f35b6100dc61044e565b005b3480156100e9575f80fd5b506100f26105f9565b6040516100ff91906108ef565b60405180910390f35b348015610113575f80fd5b5061011c61061d565b60405161012991906109bf565b60405180910390f35b5f8073694aa1769357215de4fac081bf1f309adc32530690508073ffffffffffffffffffffffffffffffffffffffff166354fd4d506040518163ffffffff1660e01b8152600401602060405180830381865afa158015610194573d5f803e3d5ffd5b505050506040513d601f19601f820116820180604052508101906101b89190610a09565b91505090565b7f000000000000000000000000000000000000000000000000000000000000000073ffffffffffffffffffffffffffffffffffffffff163373ffffffffffffffffffffffffffffffffffffffff1614610243576040517f30cd747100000000000000000000000000000000000000000000000000000000815260040160405180910390fd5b5f5b5f8054905081101561032f575f80828154811061026557610264610a34565b5b905f5260205f20015f9054906101000a900473ffffffffffffffffffffffffffffffffffffffff16905060025f8273ffffffffffffffffffffffffffffffffffffffff1673ffffffffffffffffffffffffffffffffffffffff1681526020019081526020015f205f9054906101000a900460ff1615610321575f60015f8373ffffffffffffffffffffffffffffffffffffffff1673ffffffffffffffffffffffffffffffffffffffff1681526020019081526020015f20819055505b508080600101915050610245565b505f67ffffffffffffffff81111561034a57610349610a61565b5b6040519080825280602002602001820160405280156103785781602001602082028036833780820191505090505b505f908051906020019061038d929190610784565b505f3373ffffffffffffffffffffffffffffffffffffffff16476040516103b390610abb565b5f6040518083038185875af1925050503d805f81146103ed576040519150601f19603f3d011682016040523d82523d5f602084013e6103f2565b606091505b5050905080610436576040517f08c379a000000000000000000000000000000000000000000000000000000000815260040161042d90610b29565b60405180910390fd5b50565b6001602052805f5260405f205f915090505481565b671bc16d674ec80000610460346106a7565b10156104a1576040517f08c379a000000000000000000000000000000000000000000000000000000000815260040161049890610b91565b60405180910390fd5b60025f3373ffffffffffffffffffffffffffffffffffffffff1673ffffffffffffffffffffffffffffffffffffffff1681526020019081526020015f205f9054906101000a900460ff166105a4575f33908060018154018082558091505060019003905f5260205f20015f9091909190916101000a81548173ffffffffffffffffffffffffffffffffffffffff021916908373ffffffffffffffffffffffffffffffffffffffff160217905550600160025f3373ffffffffffffffffffffffffffffffffffffffff1673ffffffffffffffffffffffffffffffffffffffff1681526020019081526020015f205f6101000a81548160ff0219169083151502179055505b3460015f3373ffffffffffffffffffffffffffffffffffffffff1673ffffffffffffffffffffffffffffffffffffffff1681526020019081526020015f205f8282546105f09190610bdc565b92505081905550565b7f000000000000000000000000000000000000000000000000000000000000000081565b60605f80548060200260200160405190810160405280929190818152602001828054801561069d57602002820191905f5260205f20905b815f9054906101000a900473ffffffffffffffffffffffffffffffffffffffff1673ffffffffffffffffffffffffffffffffffffffff1681526020019060010190808311610654575b5050505050905090565b5f806106b16106df565b90505f670de0b6b3a764000084836106c99190610c0f565b6106d39190610c7d565b90508092505050919050565b5f8073694aa1769357215de4fac081bf1f309adc32530690505f8173ffffffffffffffffffffffffffffffffffffffff1663feaf968c6040518163ffffffff1660e01b815260040160a060405180830381865afa158015610742573d5f803e3d5ffd5b505050506040513d601f19601f820116820180604052508101906107669190610d1f565b5050509150506402540be4008161077d9190610d96565b9250505090565b828054828255905f5260205f209081019282156107fa579160200282015b828111156107f9578251825f6101000a81548173ffffffffffffffffffffffffffffffffffffffff021916908373ffffffffffffffffffffffffffffffffffffffff160217905550916020019190600101906107a2565b5b509050610807919061080b565b5090565b5b80821115610822575f815f90555060010161080c565b5090565b5f819050919050565b61083881610826565b82525050565b5f6020820190506108515f83018461082f565b92915050565b5f80fd5b5f73ffffffffffffffffffffffffffffffffffffffff82169050919050565b5f6108848261085b565b9050919050565b6108948161087a565b811461089e575f80fd5b50565b5f813590506108af8161088b565b92915050565b5f602082840312156108ca576108c9610857565b5b5f6108d7848285016108a1565b91505092915050565b6108e98161087a565b82525050565b5f6020820190506109025f8301846108e0565b92915050565b5f81519050919050565b5f82825260208201905092915050565b5f819050602082019050919050565b61093a8161087a565b82525050565b5f61094b8383610931565b60208301905092915050565b5f602082019050919050565b5f61096d82610908565b6109778185610912565b935061098283610922565b805f5b838110156109b25781516109998882610940565b97506109a483610957565b925050600181019050610985565b5085935050505092915050565b5f6020820190508181035f8301526109d78184610963565b905092915050565b6109e881610826565b81146109f2575f80fd5b50565b5f81519050610a03816109df565b92915050565b5f60208284031215610a1e57610a1d610857565b5b5f610a2b848285016109f5565b91505092915050565b7f4e487b71000000000000000000000000000000000000000000000000000000005f52603260045260245ffd5b7f4e487b71000000000000000000000000000000000000000000000000000000005f52604160045260245ffd5b5f81905092915050565b50565b5f610aa65f83610a8e565b9150610ab182610a98565b5f82019050919050565b5f610ac582610a9b565b9150819050919050565b5f82825260208201905092915050565b7f6661696c656420746f20776974686472617720796f75722066756e64732100005f82015250565b5f610b13601e83610acf565b9150610b1e82610adf565b602082019050919050565b5f6020820190508181035f830152610b4081610b07565b9050919050565b7f596f75206e65656420746f2073656e64206d6f72652076616c756500000000005f82015250565b5f610b7b601b83610acf565b9150610b8682610b47565b602082019050919050565b5f6020820190508181035f830152610ba881610b6f565b9050919050565b7f4e487b71000000000000000000000000000000000000000000000000000000005f52601160045260245ffd5b5f610be682610826565b9150610bf183610826565b9250828201905080821115610c0957610c08610baf565b5b92915050565b5f610c1982610826565b9150610c2483610826565b9250828202610c3281610826565b91508282048414831517610c4957610c48610baf565b5b5092915050565b7f4e487b71000000000000000000000000000000000000000000000000000000005f52601260045260245ffd5b5f610c8782610826565b9150610c9283610826565b925082610ca257610ca1610c50565b5b828204905092915050565b5f69ffffffffffffffffffff82169050919050565b610ccb81610cad565b8114610cd5575f80fd5b50565b5f81519050610ce681610cc2565b92915050565b5f819050919050565b610cfe81610cec565b8114610d08575f80fd5b50565b5f81519050610d1981610cf5565b92915050565b5f805f805f60a08688031215610d3857610d37610857565b5b5f610d4588828901610cd8565b9550506020610d5688828901610d0b565b9450506040610d67888289016109f5565b9350506060610d78888289016109f5565b9250506080610d8988828901610cd8565b9150509295509295909350565b5f610da082610cec565b9150610dab83610cec565b9250828202610db981610cec565b91507f800000000000000000000000000000000000000000000000000000000000000084145f84121615610df057610def610baf565b5b8282058414831517610e0557610e04610baf565b5b509291505056fea26469706673582212205964f88c4d2af4fd41630d80b5af3a7b6b844e1ee6c23ccb21a27a8dbd445ee464736f6c634300081a0033",
					"opcodes": "PUSH1 0xA0 PUSH1 0x40 MSTORE CALLVALUE DUP1 ISZERO PUSH1 0xE JUMPI PUSH0 DUP1 REVERT JUMPDEST POP CALLER PUSH20 0xFFFFFFFFFFFFFFFFFFFFFFFFFFFFFFFFFFFFFFFF AND PUSH1 0x80 DUP2 PUSH20 0xFFFFFFFFFFFFFFFFFFFFFFFFFFFFFFFFFFFFFFFF AND DUP2 MSTORE POP POP PUSH1 0x80 MLOAD PUSH2 0xE42 PUSH2 0x62 PUSH0 CODECOPY PUSH0 DUP2 DUP2 PUSH2 0x1C0 ADD MSTORE PUSH2 0x5FB ADD MSTORE PUSH2 0xE42 PUSH0 RETURN INVALID PUSH1 0x80 PUSH1 0x40 MSTORE PUSH1 0x4 CALLDATASIZE LT PUSH2 0x54 JUMPI PUSH0 CALLDATALOAD PUSH1 0xE0 SHR DUP1 PUSH4 0xD8E6E2C EQ PUSH2 0x58 JUMPI DUP1 PUSH4 0x3CCFD60B EQ PUSH2 0x82 JUMPI DUP1 PUSH4 0x3E47D6F3 EQ PUSH2 0x98 JUMPI DUP1 PUSH4 0xB60D4288 EQ PUSH2 0xD4 JUMPI DUP1 PUSH4 0xDBA6335F EQ PUSH2 0xDE JUMPI DUP1 PUSH4 0xEA63A044 EQ PUSH2 0x108 JUMPI JUMPDEST PUSH0 DUP1 REVERT JUMPDEST CALLVALUE DUP1 ISZERO PUSH2 0x63 JUMPI PUSH0 DUP1 REVERT JUMPDEST POP PUSH2 0x6C PUSH2 0x132 JUMP JUMPDEST PUSH1 0x40 MLOAD PUSH2 0x79 SWAP2 SWAP1 PUSH2 0x83E JUMP JUMPDEST PUSH1 0x40 MLOAD DUP1 SWAP2 SUB SWAP1 RETURN JUMPDEST CALLVALUE DUP1 ISZERO PUSH2 0x8D JUMPI PUSH0 DUP1 REVERT JUMPDEST POP PUSH2 0x96 PUSH2 0x1BE JUMP JUMPDEST STOP JUMPDEST CALLVALUE DUP1 ISZERO PUSH2 0xA3 JUMPI PUSH0 DUP1 REVERT JUMPDEST POP PUSH2 0xBE PUSH1 0x4 DUP1 CALLDATASIZE SUB DUP2 ADD SWAP1 PUSH2 0xB9 SWAP2 SWAP1 PUSH2 0x8B5 JUMP JUMPDEST PUSH2 0x439 JUMP JUMPDEST PUSH1 0x40 MLOAD PUSH2 0xCB SWAP2 SWAP1 PUSH2 0x83E JUMP JUMPDEST PUSH1 0x40 MLOAD DUP1 SWAP2 SUB SWAP1 RETURN JUMPDEST PUSH2 0xDC PUSH2 0x44E JUMP JUMPDEST STOP JUMPDEST CALLVALUE DUP1 ISZERO PUSH2 0xE9 JUMPI PUSH0 DUP1 REVERT JUMPDEST POP PUSH2 0xF2 PUSH2 0x5F9 JUMP JUMPDEST PUSH1 0x40 MLOAD PUSH2 0xFF SWAP2 SWAP1 PUSH2 0x8EF JUMP JUMPDEST PUSH1 0x40 MLOAD DUP1 SWAP2 SUB SWAP1 RETURN JUMPDEST CALLVALUE DUP1 ISZERO PUSH2 0x113 JUMPI PUSH0 DUP1 REVERT JUMPDEST POP PUSH2 0x11C PUSH2 0x61D JUMP JUMPDEST PUSH1 0x40 MLOAD PUSH2 0x129 SWAP2 SWAP1 PUSH2 0x9BF JUMP JUMPDEST PUSH1 0x40 MLOAD DUP1 SWAP2 SUB SWAP1 RETURN JUMPDEST PUSH0 DUP1 PUSH20 0x694AA1769357215DE4FAC081BF1F309ADC325306 SWAP1 POP DUP1 PUSH20 0xFFFFFFFFFFFFFFFFFFFFFFFFFFFFFFFFFFFFFFFF AND PUSH4 0x54FD4D50 PUSH1 0x40 MLOAD DUP2 PUSH4 0xFFFFFFFF AND PUSH1 0xE0 SHL DUP2 MSTORE PUSH1 0x4 ADD PUSH1 0x20 PUSH1 0x40 MLOAD DUP1 DUP4 SUB DUP2 DUP7 GAS STATICCALL ISZERO DUP1 ISZERO PUSH2 0x194 JUMPI RETURNDATASIZE PUSH0 DUP1 RETURNDATACOPY RETURNDATASIZE PUSH0 REVERT JUMPDEST POP POP POP POP PUSH1 0x40 MLOAD RETURNDATASIZE PUSH1 0x1F NOT PUSH1 0x1F DUP3 ADD AND DUP3 ADD DUP1 PUSH1 0x40 MSTORE POP DUP2 ADD SWAP1 PUSH2 0x1B8 SWAP2 SWAP1 PUSH2 0xA09 JUMP JUMPDEST SWAP2 POP POP SWAP1 JUMP JUMPDEST PUSH32 0x0 PUSH20 0xFFFFFFFFFFFFFFFFFFFFFFFFFFFFFFFFFFFFFFFF AND CALLER PUSH20 0xFFFFFFFFFFFFFFFFFFFFFFFFFFFFFFFFFFFFFFFF AND EQ PUSH2 0x243 JUMPI PUSH1 0x40 MLOAD PUSH32 0x30CD747100000000000000000000000000000000000000000000000000000000 DUP2 MSTORE PUSH1 0x4 ADD PUSH1 0x40 MLOAD DUP1 SWAP2 SUB SWAP1 REVERT JUMPDEST PUSH0 JUMPDEST PUSH0 DUP1 SLOAD SWAP1 POP DUP2 LT ISZERO PUSH2 0x32F JUMPI PUSH0 DUP1 DUP3 DUP2 SLOAD DUP2 LT PUSH2 0x265 JUMPI PUSH2 0x264 PUSH2 0xA34 JUMP JUMPDEST JUMPDEST SWAP1 PUSH0 MSTORE PUSH1 0x20 PUSH0 KECCAK256 ADD PUSH0 SWAP1 SLOAD SWAP1 PUSH2 0x100 EXP SWAP1 DIV PUSH20 0xFFFFFFFFFFFFFFFFFFFFFFFFFFFFFFFFFFFFFFFF AND SWAP1 POP PUSH1 0x2 PUSH0 DUP3 PUSH20 0xFFFFFFFFFFFFFFFFFFFFFFFFFFFFFFFFFFFFFFFF AND PUSH20 0xFFFFFFFFFFFFFFFFFFFFFFFFFFFFFFFFFFFFFFFF AND DUP2 MSTORE PUSH1 0x20 ADD SWAP1 DUP2 MSTORE PUSH1 0x20 ADD PUSH0 KECCAK256 PUSH0 SWAP1 SLOAD SWAP1 PUSH2 0x100 EXP SWAP1 DIV PUSH1 0xFF AND ISZERO PUSH2 0x321 JUMPI PUSH0 PUSH1 0x1 PUSH0 DUP4 PUSH20 0xFFFFFFFFFFFFFFFFFFFFFFFFFFFFFFFFFFFFFFFF AND PUSH20 0xFFFFFFFFFFFFFFFFFFFFFFFFFFFFFFFFFFFFFFFF AND DUP2 MSTORE PUSH1 0x20 ADD SWAP1 DUP2 MSTORE PUSH1 0x20 ADD PUSH0 KECCAK256 DUP2 SWAP1 SSTORE POP JUMPDEST POP DUP1 DUP1 PUSH1 0x1 ADD SWAP2 POP POP PUSH2 0x245 JUMP JUMPDEST POP PUSH0 PUSH8 0xFFFFFFFFFFFFFFFF DUP2 GT ISZERO PUSH2 0x34A JUMPI PUSH2 0x349 PUSH2 0xA61 JUMP JUMPDEST JUMPDEST PUSH1 0x40 MLOAD SWAP1 DUP1 DUP3 MSTORE DUP1 PUSH1 0x20 MUL PUSH1 0x20 ADD DUP3 ADD PUSH1 0x40 MSTORE DUP1 ISZERO PUSH2 0x378 JUMPI DUP2 PUSH1 0x20 ADD PUSH1 0x20 DUP3 MUL DUP1 CALLDATASIZE DUP4 CALLDATACOPY DUP1 DUP3 ADD SWAP2 POP POP SWAP1 POP JUMPDEST POP PUSH0 SWAP1 DUP1 MLOAD SWAP1 PUSH1 0x20 ADD SWAP1 PUSH2 0x38D SWAP3 SWAP2 SWAP1 PUSH2 0x784 JUMP JUMPDEST POP PUSH0 CALLER PUSH20 0xFFFFFFFFFFFFFFFFFFFFFFFFFFFFFFFFFFFFFFFF AND SELFBALANCE PUSH1 0x40 MLOAD PUSH2 0x3B3 SWAP1 PUSH2 0xABB JUMP JUMPDEST PUSH0 PUSH1 0x40 MLOAD DUP1 DUP4 SUB DUP2 DUP6 DUP8 GAS CALL SWAP3 POP POP POP RETURNDATASIZE DUP1 PUSH0 DUP2 EQ PUSH2 0x3ED JUMPI PUSH1 0x40 MLOAD SWAP2 POP PUSH1 0x1F NOT PUSH1 0x3F RETURNDATASIZE ADD AND DUP3 ADD PUSH1 0x40 MSTORE RETURNDATASIZE DUP3 MSTORE RETURNDATASIZE PUSH0 PUSH1 0x20 DUP5 ADD RETURNDATACOPY PUSH2 0x3F2 JUMP JUMPDEST PUSH1 0x60 SWAP2 POP JUMPDEST POP POP SWAP1 POP DUP1 PUSH2 0x436 JUMPI PUSH1 0x40 MLOAD PUSH32 0x8C379A000000000000000000000000000000000000000000000000000000000 DUP2 MSTORE PUSH1 0x4 ADD PUSH2 0x42D SWAP1 PUSH2 0xB29 JUMP JUMPDEST PUSH1 0x40 MLOAD DUP1 SWAP2 SUB SWAP1 REVERT JUMPDEST POP JUMP JUMPDEST PUSH1 0x1 PUSH1 0x20 MSTORE DUP1 PUSH0 MSTORE PUSH1 0x40 PUSH0 KECCAK256 PUSH0 SWAP2 POP SWAP1 POP SLOAD DUP2 JUMP JUMPDEST PUSH8 0x1BC16D674EC80000 PUSH2 0x460 CALLVALUE PUSH2 0x6A7 JUMP JUMPDEST LT ISZERO PUSH2 0x4A1 JUMPI PUSH1 0x40 MLOAD PUSH32 0x8C379A000000000000000000000000000000000000000000000000000000000 DUP2 MSTORE PUSH1 0x4 ADD PUSH2 0x498 SWAP1 PUSH2 0xB91 JUMP JUMPDEST PUSH1 0x40 MLOAD DUP1 SWAP2 SUB SWAP1 REVERT JUMPDEST PUSH1 0x2 PUSH0 CALLER PUSH20 0xFFFFFFFFFFFFFFFFFFFFFFFFFFFFFFFFFFFFFFFF AND PUSH20 0xFFFFFFFFFFFFFFFFFFFFFFFFFFFFFFFFFFFFFFFF AND DUP2 MSTORE PUSH1 0x20 ADD SWAP1 DUP2 MSTORE PUSH1 0x20 ADD PUSH0 KECCAK256 PUSH0 SWAP1 SLOAD SWAP1 PUSH2 0x100 EXP SWAP1 DIV PUSH1 0xFF AND PUSH2 0x5A4 JUMPI PUSH0 CALLER SWAP1 DUP1 PUSH1 0x1 DUP2 SLOAD ADD DUP1 DUP3 SSTORE DUP1 SWAP2 POP POP PUSH1 0x1 SWAP1 SUB SWAP1 PUSH0 MSTORE PUSH1 0x20 PUSH0 KECCAK256 ADD PUSH0 SWAP1 SWAP2 SWAP1 SWAP2 SWAP1 SWAP2 PUSH2 0x100 EXP DUP2 SLOAD DUP2 PUSH20 0xFFFFFFFFFFFFFFFFFFFFFFFFFFFFFFFFFFFFFFFF MUL NOT AND SWAP1 DUP4 PUSH20 0xFFFFFFFFFFFFFFFFFFFFFFFFFFFFFFFFFFFFFFFF AND MUL OR SWAP1 SSTORE POP PUSH1 0x1 PUSH1 0x2 PUSH0 CALLER PUSH20 0xFFFFFFFFFFFFFFFFFFFFFFFFFFFFFFFFFFFFFFFF AND PUSH20 0xFFFFFFFFFFFFFFFFFFFFFFFFFFFFFFFFFFFFFFFF AND DUP2 MSTORE PUSH1 0x20 ADD SWAP1 DUP2 MSTORE PUSH1 0x20 ADD PUSH0 KECCAK256 PUSH0 PUSH2 0x100 EXP DUP2 SLOAD DUP2 PUSH1 0xFF MUL NOT AND SWAP1 DUP4 ISZERO ISZERO MUL OR SWAP1 SSTORE POP JUMPDEST CALLVALUE PUSH1 0x1 PUSH0 CALLER PUSH20 0xFFFFFFFFFFFFFFFFFFFFFFFFFFFFFFFFFFFFFFFF AND PUSH20 0xFFFFFFFFFFFFFFFFFFFFFFFFFFFFFFFFFFFFFFFF AND DUP2 MSTORE PUSH1 0x20 ADD SWAP1 DUP2 MSTORE PUSH1 0x20 ADD PUSH0 KECCAK256 PUSH0 DUP3 DUP3 SLOAD PUSH2 0x5F0 SWAP2 SWAP1 PUSH2 0xBDC JUMP JUMPDEST SWAP3 POP POP DUP2 SWAP1 SSTORE POP JUMP JUMPDEST PUSH32 0x0 DUP2 JUMP JUMPDEST PUSH1 0x60 PUSH0 DUP1 SLOAD DUP1 PUSH1 0x20 MUL PUSH1 0x20 ADD PUSH1 0x40 MLOAD SWAP1 DUP2 ADD PUSH1 0x40 MSTORE DUP1 SWAP3 SWAP2 SWAP1 DUP2 DUP2 MSTORE PUSH1 0x20 ADD DUP3 DUP1 SLOAD DUP1 ISZERO PUSH2 0x69D JUMPI PUSH1 0x20 MUL DUP3 ADD SWAP2 SWAP1 PUSH0 MSTORE PUSH1 0x20 PUSH0 KECCAK256 SWAP1 JUMPDEST DUP2 PUSH0 SWAP1 SLOAD SWAP1 PUSH2 0x100 EXP SWAP1 DIV PUSH20 0xFFFFFFFFFFFFFFFFFFFFFFFFFFFFFFFFFFFFFFFF AND PUSH20 0xFFFFFFFFFFFFFFFFFFFFFFFFFFFFFFFFFFFFFFFF AND DUP2 MSTORE PUSH1 0x20 ADD SWAP1 PUSH1 0x1 ADD SWAP1 DUP1 DUP4 GT PUSH2 0x654 JUMPI JUMPDEST POP POP POP POP POP SWAP1 POP SWAP1 JUMP JUMPDEST PUSH0 DUP1 PUSH2 0x6B1 PUSH2 0x6DF JUMP JUMPDEST SWAP1 POP PUSH0 PUSH8 0xDE0B6B3A7640000 DUP5 DUP4 PUSH2 0x6C9 SWAP2 SWAP1 PUSH2 0xC0F JUMP JUMPDEST PUSH2 0x6D3 SWAP2 SWAP1 PUSH2 0xC7D JUMP JUMPDEST SWAP1 POP DUP1 SWAP3 POP POP POP SWAP2 SWAP1 POP JUMP JUMPDEST PUSH0 DUP1 PUSH20 0x694AA1769357215DE4FAC081BF1F309ADC325306 SWAP1 POP PUSH0 DUP2 PUSH20 0xFFFFFFFFFFFFFFFFFFFFFFFFFFFFFFFFFFFFFFFF AND PUSH4 0xFEAF968C PUSH1 0x40 MLOAD DUP2 PUSH4 0xFFFFFFFF AND PUSH1 0xE0 SHL DUP2 MSTORE PUSH1 0x4 ADD PUSH1 0xA0 PUSH1 0x40 MLOAD DUP1 DUP4 SUB DUP2 DUP7 GAS STATICCALL ISZERO DUP1 ISZERO PUSH2 0x742 JUMPI RETURNDATASIZE PUSH0 DUP1 RETURNDATACOPY RETURNDATASIZE PUSH0 REVERT JUMPDEST POP POP POP POP PUSH1 0x40 MLOAD RETURNDATASIZE PUSH1 0x1F NOT PUSH1 0x1F DUP3 ADD AND DUP3 ADD DUP1 PUSH1 0x40 MSTORE POP DUP2 ADD SWAP1 PUSH2 0x766 SWAP2 SWAP1 PUSH2 0xD1F JUMP JUMPDEST POP POP POP SWAP2 POP POP PUSH5 0x2540BE400 DUP2 PUSH2 0x77D SWAP2 SWAP1 PUSH2 0xD96 JUMP JUMPDEST SWAP3 POP POP POP SWAP1 JUMP JUMPDEST DUP3 DUP1 SLOAD DUP3 DUP3 SSTORE SWAP1 PUSH0 MSTORE PUSH1 0x20 PUSH0 KECCAK256 SWAP1 DUP2 ADD SWAP3 DUP3 ISZERO PUSH2 0x7FA JUMPI SWAP2 PUSH1 0x20 MUL DUP3 ADD JUMPDEST DUP3 DUP2 GT ISZERO PUSH2 0x7F9 JUMPI DUP3 MLOAD DUP3 PUSH0 PUSH2 0x100 EXP DUP2 SLOAD DUP2 PUSH20 0xFFFFFFFFFFFFFFFFFFFFFFFFFFFFFFFFFFFFFFFF MUL NOT AND SWAP1 DUP4 PUSH20 0xFFFFFFFFFFFFFFFFFFFFFFFFFFFFFFFFFFFFFFFF AND MUL OR SWAP1 SSTORE POP SWAP2 PUSH1 0x20 ADD SWAP2 SWAP1 PUSH1 0x1 ADD SWAP1 PUSH2 0x7A2 JUMP JUMPDEST JUMPDEST POP SWAP1 POP PUSH2 0x807 SWAP2 SWAP1 PUSH2 0x80B JUMP JUMPDEST POP SWAP1 JUMP JUMPDEST JUMPDEST DUP1 DUP3 GT ISZERO PUSH2 0x822 JUMPI PUSH0 DUP2 PUSH0 SWAP1 SSTORE POP PUSH1 0x1 ADD PUSH2 0x80C JUMP JUMPDEST POP SWAP1 JUMP JUMPDEST PUSH0 DUP2 SWAP1 POP SWAP2 SWAP1 POP JUMP JUMPDEST PUSH2 0x838 DUP2 PUSH2 0x826 JUMP JUMPDEST DUP3 MSTORE POP POP JUMP JUMPDEST PUSH0 PUSH1 0x20 DUP3 ADD SWAP1 POP PUSH2 0x851 PUSH0 DUP4 ADD DUP5 PUSH2 0x82F JUMP JUMPDEST SWAP3 SWAP2 POP POP JUMP JUMPDEST PUSH0 DUP1 REVERT JUMPDEST PUSH0 PUSH20 0xFFFFFFFFFFFFFFFFFFFFFFFFFFFFFFFFFFFFFFFF DUP3 AND SWAP1 POP SWAP2 SWAP1 POP JUMP JUMPDEST PUSH0 PUSH2 0x884 DUP3 PUSH2 0x85B JUMP JUMPDEST SWAP1 POP SWAP2 SWAP1 POP JUMP JUMPDEST PUSH2 0x894 DUP2 PUSH2 0x87A JUMP JUMPDEST DUP2 EQ PUSH2 0x89E JUMPI PUSH0 DUP1 REVERT JUMPDEST POP JUMP JUMPDEST PUSH0 DUP2 CALLDATALOAD SWAP1 POP PUSH2 0x8AF DUP2 PUSH2 0x88B JUMP JUMPDEST SWAP3 SWAP2 POP POP JUMP JUMPDEST PUSH0 PUSH1 0x20 DUP3 DUP5 SUB SLT ISZERO PUSH2 0x8CA JUMPI PUSH2 0x8C9 PUSH2 0x857 JUMP JUMPDEST JUMPDEST PUSH0 PUSH2 0x8D7 DUP5 DUP3 DUP6 ADD PUSH2 0x8A1 JUMP JUMPDEST SWAP2 POP POP SWAP3 SWAP2 POP POP JUMP JUMPDEST PUSH2 0x8E9 DUP2 PUSH2 0x87A JUMP JUMPDEST DUP3 MSTORE POP POP JUMP JUMPDEST PUSH0 PUSH1 0x20 DUP3 ADD SWAP1 POP PUSH2 0x902 PUSH0 DUP4 ADD DUP5 PUSH2 0x8E0 JUMP JUMPDEST SWAP3 SWAP2 POP POP JUMP JUMPDEST PUSH0 DUP2 MLOAD SWAP1 POP SWAP2 SWAP1 POP JUMP JUMPDEST PUSH0 DUP3 DUP3 MSTORE PUSH1 0x20 DUP3 ADD SWAP1 POP SWAP3 SWAP2 POP POP JUMP JUMPDEST PUSH0 DUP2 SWAP1 POP PUSH1 0x20 DUP3 ADD SWAP1 POP SWAP2 SWAP1 POP JUMP JUMPDEST PUSH2 0x93A DUP2 PUSH2 0x87A JUMP JUMPDEST DUP3 MSTORE POP POP JUMP JUMPDEST PUSH0 PUSH2 0x94B DUP4 DUP4 PUSH2 0x931 JUMP JUMPDEST PUSH1 0x20 DUP4 ADD SWAP1 POP SWAP3 SWAP2 POP POP JUMP JUMPDEST PUSH0 PUSH1 0x20 DUP3 ADD SWAP1 POP SWAP2 SWAP1 POP JUMP JUMPDEST PUSH0 PUSH2 0x96D DUP3 PUSH2 0x908 JUMP JUMPDEST PUSH2 0x977 DUP2 DUP6 PUSH2 0x912 JUMP JUMPDEST SWAP4 POP PUSH2 0x982 DUP4 PUSH2 0x922 JUMP JUMPDEST DUP1 PUSH0 JUMPDEST DUP4 DUP2 LT ISZERO PUSH2 0x9B2 JUMPI DUP2 MLOAD PUSH2 0x999 DUP9 DUP3 PUSH2 0x940 JUMP JUMPDEST SWAP8 POP PUSH2 0x9A4 DUP4 PUSH2 0x957 JUMP JUMPDEST SWAP3 POP POP PUSH1 0x1 DUP2 ADD SWAP1 POP PUSH2 0x985 JUMP JUMPDEST POP DUP6 SWAP4 POP POP POP POP SWAP3 SWAP2 POP POP JUMP JUMPDEST PUSH0 PUSH1 0x20 DUP3 ADD SWAP1 POP DUP2 DUP2 SUB PUSH0 DUP4 ADD MSTORE PUSH2 0x9D7 DUP2 DUP5 PUSH2 0x963 JUMP JUMPDEST SWAP1 POP SWAP3 SWAP2 POP POP JUMP JUMPDEST PUSH2 0x9E8 DUP2 PUSH2 0x826 JUMP JUMPDEST DUP2 EQ PUSH2 0x9F2 JUMPI PUSH0 DUP1 REVERT JUMPDEST POP JUMP JUMPDEST PUSH0 DUP2 MLOAD SWAP1 POP PUSH2 0xA03 DUP2 PUSH2 0x9DF JUMP JUMPDEST SWAP3 SWAP2 POP POP JUMP JUMPDEST PUSH0 PUSH1 0x20 DUP3 DUP5 SUB SLT ISZERO PUSH2 0xA1E JUMPI PUSH2 0xA1D PUSH2 0x857 JUMP JUMPDEST JUMPDEST PUSH0 PUSH2 0xA2B DUP5 DUP3 DUP6 ADD PUSH2 0x9F5 JUMP JUMPDEST SWAP2 POP POP SWAP3 SWAP2 POP POP JUMP JUMPDEST PUSH32 0x4E487B7100000000000000000000000000000000000000000000000000000000 PUSH0 MSTORE PUSH1 0x32 PUSH1 0x4 MSTORE PUSH1 0x24 PUSH0 REVERT JUMPDEST PUSH32 0x4E487B7100000000000000000000000000000000000000000000000000000000 PUSH0 MSTORE PUSH1 0x41 PUSH1 0x4 MSTORE PUSH1 0x24 PUSH0 REVERT JUMPDEST PUSH0 DUP2 SWAP1 POP SWAP3 SWAP2 POP POP JUMP JUMPDEST POP JUMP JUMPDEST PUSH0 PUSH2 0xAA6 PUSH0 DUP4 PUSH2 0xA8E JUMP JUMPDEST SWAP2 POP PUSH2 0xAB1 DUP3 PUSH2 0xA98 JUMP JUMPDEST PUSH0 DUP3 ADD SWAP1 POP SWAP2 SWAP1 POP JUMP JUMPDEST PUSH0 PUSH2 0xAC5 DUP3 PUSH2 0xA9B JUMP JUMPDEST SWAP2 POP DUP2 SWAP1 POP SWAP2 SWAP1 POP JUMP JUMPDEST PUSH0 DUP3 DUP3 MSTORE PUSH1 0x20 DUP3 ADD SWAP1 POP SWAP3 SWAP2 POP POP JUMP JUMPDEST PUSH32 0x6661696C656420746F20776974686472617720796F75722066756E6473210000 PUSH0 DUP3 ADD MSTORE POP JUMP JUMPDEST PUSH0 PUSH2 0xB13 PUSH1 0x1E DUP4 PUSH2 0xACF JUMP JUMPDEST SWAP2 POP PUSH2 0xB1E DUP3 PUSH2 0xADF JUMP JUMPDEST PUSH1 0x20 DUP3 ADD SWAP1 POP SWAP2 SWAP1 POP JUMP JUMPDEST PUSH0 PUSH1 0x20 DUP3 ADD SWAP1 POP DUP2 DUP2 SUB PUSH0 DUP4 ADD MSTORE PUSH2 0xB40 DUP2 PUSH2 0xB07 JUMP JUMPDEST SWAP1 POP SWAP2 SWAP1 POP JUMP JUMPDEST PUSH32 0x596F75206E65656420746F2073656E64206D6F72652076616C75650000000000 PUSH0 DUP3 ADD MSTORE POP JUMP JUMPDEST PUSH0 PUSH2 0xB7B PUSH1 0x1B DUP4 PUSH2 0xACF JUMP JUMPDEST SWAP2 POP PUSH2 0xB86 DUP3 PUSH2 0xB47 JUMP JUMPDEST PUSH1 0x20 DUP3 ADD SWAP1 POP SWAP2 SWAP1 POP JUMP JUMPDEST PUSH0 PUSH1 0x20 DUP3 ADD SWAP1 POP DUP2 DUP2 SUB PUSH0 DUP4 ADD MSTORE PUSH2 0xBA8 DUP2 PUSH2 0xB6F JUMP JUMPDEST SWAP1 POP SWAP2 SWAP1 POP JUMP JUMPDEST PUSH32 0x4E487B7100000000000000000000000000000000000000000000000000000000 PUSH0 MSTORE PUSH1 0x11 PUSH1 0x4 MSTORE PUSH1 0x24 PUSH0 REVERT JUMPDEST PUSH0 PUSH2 0xBE6 DUP3 PUSH2 0x826 JUMP JUMPDEST SWAP2 POP PUSH2 0xBF1 DUP4 PUSH2 0x826 JUMP JUMPDEST SWAP3 POP DUP3 DUP3 ADD SWAP1 POP DUP1 DUP3 GT ISZERO PUSH2 0xC09 JUMPI PUSH2 0xC08 PUSH2 0xBAF JUMP JUMPDEST JUMPDEST SWAP3 SWAP2 POP POP JUMP JUMPDEST PUSH0 PUSH2 0xC19 DUP3 PUSH2 0x826 JUMP JUMPDEST SWAP2 POP PUSH2 0xC24 DUP4 PUSH2 0x826 JUMP JUMPDEST SWAP3 POP DUP3 DUP3 MUL PUSH2 0xC32 DUP2 PUSH2 0x826 JUMP JUMPDEST SWAP2 POP DUP3 DUP3 DIV DUP5 EQ DUP4 ISZERO OR PUSH2 0xC49 JUMPI PUSH2 0xC48 PUSH2 0xBAF JUMP JUMPDEST JUMPDEST POP SWAP3 SWAP2 POP POP JUMP JUMPDEST PUSH32 0x4E487B7100000000000000000000000000000000000000000000000000000000 PUSH0 MSTORE PUSH1 0x12 PUSH1 0x4 MSTORE PUSH1 0x24 PUSH0 REVERT JUMPDEST PUSH0 PUSH2 0xC87 DUP3 PUSH2 0x826 JUMP JUMPDEST SWAP2 POP PUSH2 0xC92 DUP4 PUSH2 0x826 JUMP JUMPDEST SWAP3 POP DUP3 PUSH2 0xCA2 JUMPI PUSH2 0xCA1 PUSH2 0xC50 JUMP JUMPDEST JUMPDEST DUP3 DUP3 DIV SWAP1 POP SWAP3 SWAP2 POP POP JUMP JUMPDEST PUSH0 PUSH10 0xFFFFFFFFFFFFFFFFFFFF DUP3 AND SWAP1 POP SWAP2 SWAP1 POP JUMP JUMPDEST PUSH2 0xCCB DUP2 PUSH2 0xCAD JUMP JUMPDEST DUP2 EQ PUSH2 0xCD5 JUMPI PUSH0 DUP1 REVERT JUMPDEST POP JUMP JUMPDEST PUSH0 DUP2 MLOAD SWAP1 POP PUSH2 0xCE6 DUP2 PUSH2 0xCC2 JUMP JUMPDEST SWAP3 SWAP2 POP POP JUMP JUMPDEST PUSH0 DUP2 SWAP1 POP SWAP2 SWAP1 POP JUMP JUMPDEST PUSH2 0xCFE DUP2 PUSH2 0xCEC JUMP JUMPDEST DUP2 EQ PUSH2 0xD08 JUMPI PUSH0 DUP1 REVERT JUMPDEST POP JUMP JUMPDEST PUSH0 DUP2 MLOAD SWAP1 POP PUSH2 0xD19 DUP2 PUSH2 0xCF5 JUMP JUMPDEST SWAP3 SWAP2 POP POP JUMP JUMPDEST PUSH0 DUP1 PUSH0 DUP1 PUSH0 PUSH1 0xA0 DUP7 DUP9 SUB SLT ISZERO PUSH2 0xD38 JUMPI PUSH2 0xD37 PUSH2 0x857 JUMP JUMPDEST JUMPDEST PUSH0 PUSH2 0xD45 DUP9 DUP3 DUP10 ADD PUSH2 0xCD8 JUMP JUMPDEST SWAP6 POP POP PUSH1 0x20 PUSH2 0xD56 DUP9 DUP3 DUP10 ADD PUSH2 0xD0B JUMP JUMPDEST SWAP5 POP POP PUSH1 0x40 PUSH2 0xD67 DUP9 DUP3 DUP10 ADD PUSH2 0x9F5 JUMP JUMPDEST SWAP4 POP POP PUSH1 0x60 PUSH2 0xD78 DUP9 DUP3 DUP10 ADD PUSH2 0x9F5 JUMP JUMPDEST SWAP3 POP POP PUSH1 0x80 PUSH2 0xD89 DUP9 DUP3 DUP10 ADD PUSH2 0xCD8 JUMP JUMPDEST SWAP2 POP POP SWAP3 SWAP6 POP SWAP3 SWAP6 SWAP1 SWAP4 POP JUMP JUMPDEST PUSH0 PUSH2 0xDA0 DUP3 PUSH2 0xCEC JUMP JUMPDEST SWAP2 POP PUSH2 0xDAB DUP4 PUSH2 0xCEC JUMP JUMPDEST SWAP3 POP DUP3 DUP3 MUL PUSH2 0xDB9 DUP2 PUSH2 0xCEC JUMP JUMPDEST SWAP2 POP PUSH32 0x8000000000000000000000000000000000000000000000000000000000000000 DUP5 EQ PUSH0 DUP5 SLT AND ISZERO PUSH2 0xDF0 JUMPI PUSH2 0xDEF PUSH2 0xBAF JUMP JUMPDEST JUMPDEST DUP3 DUP3 SDIV DUP5 EQ DUP4 ISZERO OR PUSH2 0xE05 JUMPI PUSH2 0xE04 PUSH2 0xBAF JUMP JUMPDEST JUMPDEST POP SWAP3 SWAP2 POP POP JUMP INVALID LOG2 PUSH5 0x6970667358 0x22 SLT KECCAK256 MSIZE PUSH5 0xF88C4D2AF4 REVERT COINBASE PUSH4 0xD80B5AF GASPRICE PUSH28 0x6B844E1EE6C23CCB21A27A8DBD445EE464736F6C634300081A003300 "
				},
				"gasEstimates": {
					"creation": {
						"codeDepositCost": "730000",
						"executionCost": "infinite",
						"totalCost": "infinite"
					},
					"external": {
						"addressToAmountFunded(address)": "2824",
						"fund()": "infinite",
						"getFunders()": "infinite",
						"getVersion()": "infinite",
						"i_owner()": "infinite",
						"withdraw()": "infinite"
					}
				},
				"methodIdentifiers": {
					"addressToAmountFunded(address)": "3e47d6f3",
					"fund()": "b60d4288",
					"getFunders()": "ea63a044",
					"getVersion()": "0d8e6e2c",
					"i_owner()": "dba6335f",
					"withdraw()": "3ccfd60b"
				}
			},
			"storageLayout": {
				"storage": [
					{
						"astId": 18,
						"contract": ".deps/FundMe.sol:FundMe",
						"label": "funders",
						"offset": 0,
						"slot": "0",
						"type": "t_array(t_address)dyn_storage"
					},
					{
						"astId": 22,
						"contract": ".deps/FundMe.sol:FundMe",
						"label": "addressToAmountFunded",
						"offset": 0,
						"slot": "1",
						"type": "t_mapping(t_address,t_uint256)"
					},
					{
						"astId": 26,
						"contract": ".deps/FundMe.sol:FundMe",
						"label": "isFund",
						"offset": 0,
						"slot": "2",
						"type": "t_mapping(t_address,t_bool)"
					}
				],
				"types": {
					"t_address": {
						"encoding": "inplace",
						"label": "address",
						"numberOfBytes": "20"
					},
					"t_array(t_address)dyn_storage": {
						"base": "t_address",
						"encoding": "dynamic_array",
						"label": "address[]",
						"numberOfBytes": "32"
					},
					"t_bool": {
						"encoding": "inplace",
						"label": "bool",
						"numberOfBytes": "1"
					},
					"t_mapping(t_address,t_bool)": {
						"encoding": "mapping",
						"key": "t_address",
						"label": "mapping(address => bool)",
						"numberOfBytes": "32",
						"value": "t_bool"
					},
					"t_mapping(t_address,t_uint256)": {
						"encoding": "mapping",
						"key": "t_address",
						"label": "mapping(address => uint256)",
						"numberOfBytes": "32",
						"value": "t_uint256"
					},
					"t_uint256": {
						"encoding": "inplace",
						"label": "uint256",
						"numberOfBytes": "32"
					}
				}
			},
			"userdoc": {
				"kind": "user",
				"methods": {},
				"version": 1
			}
		}
	}
}