{
	".deps/FundMe.sol": {
		"FundMe": {
			"abi": [
				{
					"inputs": [],
					"stateMutability": "nonpayable",
					"type": "constructor"
				},
				{
					"inputs": [
						{
							"internalType": "address",
							"name": "",
							"type": "address"
						}
					],
					"name": "addressToAmountFunded",
					"outputs": [
						{
							"internalType": "uint256",
							"name": "",
							"type": "uint256"
						}
					],
					"stateMutability": "view",
					"type": "function"
				},
				{
					"inputs": [],
					"name": "fund",
					"outputs": [],
					"stateMutability": "payable",
					"type": "function"
				},
				{
					"inputs": [],
					"name": "getFunders",
					"outputs": [
						{
							"internalType": "address[]",
							"name": "",
							"type": "address[]"
						}
					],
					"stateMutability": "view",
					"type": "function"
				},
				{
					"inputs": [],
					"name": "getPrice",
					"outputs": [
						{
							"internalType": "uint256",
							"name": "",
							"type": "uint256"
						}
					],
					"stateMutability": "view",
					"type": "function"
				},
				{
					"inputs": [],
					"name": "getVersion",
					"outputs": [
						{
							"internalType": "uint256",
							"name": "",
							"type": "uint256"
						}
					],
					"stateMutability": "view",
					"type": "function"
				},
				{
					"inputs": [],
					"name": "owner",
					"outputs": [
						{
							"internalType": "address",
							"name": "",
							"type": "address"
						}
					],
					"stateMutability": "view",
					"type": "function"
				},
				{
					"inputs": [],
					"name": "withdraw",
					"outputs": [],
					"stateMutability": "nonpayable",
					"type": "function"
				}
			],
			"devdoc": {
				"kind": "dev",
				"methods": {},
				"version": 1
			},
			"evm": {
				"assembly": "    /* \".deps/FundMe.sol\":246:2516  contract FundMe {... */\n  mstore(0x40, 0x80)\n    /* \".deps/FundMe.sol\":290:298  2 * 1e18 */\n  0x1bc16d674ec80000\n    /* \".deps/FundMe.sol\":269:298  uint256 minimumUsd = 2 * 1e18 */\n  0x00\n  sstore\n    /* \".deps/FundMe.sol\":625:782  constructor() {... */\n  callvalue\n  dup1\n  iszero\n  tag_1\n  jumpi\n  0x00\n  dup1\n  revert\ntag_1:\n  pop\n    /* \".deps/FundMe.sol\":657:667  msg.sender */\n  caller\n    /* \".deps/FundMe.sol\":649:654  owner */\n  0x04\n  0x00\n    /* \".deps/FundMe.sol\":649:667  owner = msg.sender */\n  0x0100\n  exp\n  dup2\n  sload\n  dup2\n  0xffffffffffffffffffffffffffffffffffffffff\n  mul\n  not\n  and\n  swap1\n  dup4\n  0xffffffffffffffffffffffffffffffffffffffff\n  and\n  mul\n  or\n  swap1\n  sstore\n  pop\n    /* \".deps/FundMe.sol\":723:765  0x694AA1769357215DE4FAC081bf1f309aDC325306 */\n  0x694aa1769357215de4fac081bf1f309adc325306\n    /* \".deps/FundMe.sol\":677:685  dataFeed */\n  0x05\n  0x00\n    /* \".deps/FundMe.sol\":677:775  dataFeed = AggregatorV3Interface(... */\n  0x0100\n  exp\n  dup2\n  sload\n  dup2\n  0xffffffffffffffffffffffffffffffffffffffff\n  mul\n  not\n  and\n  swap1\n  dup4\n  0xffffffffffffffffffffffffffffffffffffffff\n  and\n  mul\n  or\n  swap1\n  sstore\n  pop\n    /* \".deps/FundMe.sol\":246:2516  contract FundMe {... */\n  dataSize(sub_0)\n  dup1\n  dataOffset(sub_0)\n  0x00\n  codecopy\n  0x00\n  return\nstop\n\nsub_0: assembly {\n        /* \".deps/FundMe.sol\":246:2516  contract FundMe {... */\n      mstore(0x40, 0x80)\n      jumpi(tag_1, lt(calldatasize, 0x04))\n      shr(0xe0, calldataload(0x00))\n      dup1\n      0x8da5cb5b\n      gt\n      tag_9\n      jumpi\n      dup1\n      0x8da5cb5b\n      eq\n      tag_5\n      jumpi\n      dup1\n      0x98d5fdca\n      eq\n      tag_6\n      jumpi\n      dup1\n      0xb60d4288\n      eq\n      tag_7\n      jumpi\n      dup1\n      0xea63a044\n      eq\n      tag_8\n      jumpi\n      jump(tag_1)\n    tag_9:\n      dup1\n      0x0d8e6e2c\n      eq\n      tag_2\n      jumpi\n      dup1\n      0x3ccfd60b\n      eq\n      tag_3\n      jumpi\n      dup1\n      0x3e47d6f3\n      eq\n      tag_4\n      jumpi\n    tag_1:\n      0x00\n      dup1\n      revert\n        /* \".deps/FundMe.sol\":1494:1588  function getVersion() public view returns (uint256) {... */\n    tag_2:\n      callvalue\n      dup1\n      iszero\n      tag_10\n      jumpi\n      0x00\n      dup1\n      revert\n    tag_10:\n      pop\n      tag_11\n      tag_12\n      jump\t// in\n    tag_11:\n      mload(0x40)\n      tag_13\n      swap2\n      swap1\n      tag_14\n      jump\t// in\n    tag_13:\n      mload(0x40)\n      dup1\n      swap2\n      sub\n      swap1\n      return\n        /* \".deps/FundMe.sol\":1943:2514  function withdraw() public {... */\n    tag_3:\n      callvalue\n      dup1\n      iszero\n      tag_15\n      jumpi\n      0x00\n      dup1\n      revert\n    tag_15:\n      pop\n      tag_16\n      tag_17\n      jump\t// in\n    tag_16:\n      stop\n        /* \".deps/FundMe.sol\":327:383  mapping(address => uint256) public addressToAmountFunded */\n    tag_4:\n      callvalue\n      dup1\n      iszero\n      tag_18\n      jumpi\n      0x00\n      dup1\n      revert\n    tag_18:\n      pop\n      tag_19\n      0x04\n      dup1\n      calldatasize\n      sub\n      dup2\n      add\n      swap1\n      tag_20\n      swap2\n      swap1\n      tag_21\n      jump\t// in\n    tag_20:\n      tag_22\n      jump\t// in\n    tag_19:\n      mload(0x40)\n      tag_23\n      swap2\n      swap1\n      tag_14\n      jump\t// in\n    tag_23:\n      mload(0x40)\n      dup1\n      swap2\n      sub\n      swap1\n      return\n        /* \".deps/FundMe.sol\":427:447  address public owner */\n    tag_5:\n      callvalue\n      dup1\n      iszero\n      tag_24\n      jumpi\n      0x00\n      dup1\n      revert\n    tag_24:\n      pop\n      tag_25\n      tag_26\n      jump\t// in\n    tag_25:\n      mload(0x40)\n      tag_27\n      swap2\n      swap1\n      tag_28\n      jump\t// in\n    tag_27:\n      mload(0x40)\n      dup1\n      swap2\n      sub\n      swap1\n      return\n        /* \".deps/FundMe.sol\":897:1235  function getPrice() public view returns (uint256) {... */\n    tag_6:\n      callvalue\n      dup1\n      iszero\n      tag_29\n      jumpi\n      0x00\n      dup1\n      revert\n    tag_29:\n      pop\n      tag_30\n      tag_31\n      jump\t// in\n    tag_30:\n      mload(0x40)\n      tag_32\n      swap2\n      swap1\n      tag_14\n      jump\t// in\n    tag_32:\n      mload(0x40)\n      dup1\n      swap2\n      sub\n      swap1\n      return\n        /* \".deps/FundMe.sol\":1595:1937  function fund() public payable {... */\n    tag_7:\n      tag_33\n      tag_34\n      jump\t// in\n    tag_33:\n      stop\n        /* \".deps/FundMe.sol\":799:891  function getFunders() public view returns (address[] memory) {... */\n    tag_8:\n      callvalue\n      dup1\n      iszero\n      tag_35\n      jumpi\n      0x00\n      dup1\n      revert\n    tag_35:\n      pop\n      tag_36\n      tag_37\n      jump\t// in\n    tag_36:\n      mload(0x40)\n      tag_38\n      swap2\n      swap1\n      tag_39\n      jump\t// in\n    tag_38:\n      mload(0x40)\n      dup1\n      swap2\n      sub\n      swap1\n      return\n        /* \".deps/FundMe.sol\":1494:1588  function getVersion() public view returns (uint256) {... */\n    tag_12:\n        /* \".deps/FundMe.sol\":1537:1544  uint256 */\n      0x00\n        /* \".deps/FundMe.sol\":1563:1571  dataFeed */\n      0x05\n      0x00\n      swap1\n      sload\n      swap1\n      0x0100\n      exp\n      swap1\n      div\n      0xffffffffffffffffffffffffffffffffffffffff\n      and\n        /* \".deps/FundMe.sol\":1563:1579  dataFeed.version */\n      0xffffffffffffffffffffffffffffffffffffffff\n      and\n      0x54fd4d50\n        /* \".deps/FundMe.sol\":1563:1581  dataFeed.version() */\n      mload(0x40)\n      dup2\n      0xffffffff\n      and\n      0xe0\n      shl\n      dup2\n      mstore\n      0x04\n      add\n      0x20\n      mload(0x40)\n      dup1\n      dup4\n      sub\n      dup2\n      dup7\n      gas\n      staticcall\n      iszero\n      dup1\n      iszero\n      tag_42\n      jumpi\n      returndatasize\n      0x00\n      dup1\n      returndatacopy\n      revert(0x00, returndatasize)\n    tag_42:\n      pop\n      pop\n      pop\n      pop\n      mload(0x40)\n      returndatasize\n      not(0x1f)\n      0x1f\n      dup3\n      add\n      and\n      dup3\n      add\n      dup1\n      0x40\n      mstore\n      pop\n      dup2\n      add\n      swap1\n      tag_43\n      swap2\n      swap1\n      tag_44\n      jump\t// in\n    tag_43:\n        /* \".deps/FundMe.sol\":1556:1581  return dataFeed.version() */\n      swap1\n      pop\n        /* \".deps/FundMe.sol\":1494:1588  function getVersion() public view returns (uint256) {... */\n      swap1\n      jump\t// out\n        /* \".deps/FundMe.sol\":1943:2514  function withdraw() public {... */\n    tag_17:\n        /* \".deps/FundMe.sol\":2003:2008  owner */\n      0x04\n      0x00\n      swap1\n      sload\n      swap1\n      0x0100\n      exp\n      swap1\n      div\n      0xffffffffffffffffffffffffffffffffffffffff\n      and\n        /* \".deps/FundMe.sol\":1989:2008  msg.sender == owner */\n      0xffffffffffffffffffffffffffffffffffffffff\n      and\n        /* \".deps/FundMe.sol\":1989:1999  msg.sender */\n      caller\n        /* \".deps/FundMe.sol\":1989:2008  msg.sender == owner */\n      0xffffffffffffffffffffffffffffffffffffffff\n      and\n      eq\n        /* \".deps/FundMe.sol\":1981:2035  require(msg.sender == owner, \"You are not the owner!\") */\n      tag_46\n      jumpi\n      mload(0x40)\n      0x08c379a000000000000000000000000000000000000000000000000000000000\n      dup2\n      mstore\n      0x04\n      add\n      tag_47\n      swap1\n      tag_48\n      jump\t// in\n    tag_47:\n      mload(0x40)\n      dup1\n      swap2\n      sub\n      swap1\n      revert\n    tag_46:\n        /* \".deps/FundMe.sol\":2060:2079  uint256 funderIndex */\n      0x00\n        /* \".deps/FundMe.sol\":2055:2288  for (uint256 funderIndex = 0; funderIndex < funders.length; funderIndex++){... */\n    tag_49:\n        /* \".deps/FundMe.sol\":2099:2106  funders */\n      0x01\n        /* \".deps/FundMe.sol\":2099:2113  funders.length */\n      dup1\n      sload\n      swap1\n      pop\n        /* \".deps/FundMe.sol\":2085:2096  funderIndex */\n      dup2\n        /* \".deps/FundMe.sol\":2085:2113  funderIndex < funders.length */\n      lt\n        /* \".deps/FundMe.sol\":2055:2288  for (uint256 funderIndex = 0; funderIndex < funders.length; funderIndex++){... */\n      iszero\n      tag_50\n      jumpi\n        /* \".deps/FundMe.sol\":2143:2157  address funder */\n      0x00\n        /* \".deps/FundMe.sol\":2160:2167  funders */\n      0x01\n        /* \".deps/FundMe.sol\":2168:2179  funderIndex */\n      dup3\n        /* \".deps/FundMe.sol\":2160:2180  funders[funderIndex] */\n      dup2\n      sload\n      dup2\n      lt\n      tag_52\n      jumpi\n      tag_53\n      tag_54\n      jump\t// in\n    tag_53:\n    tag_52:\n      swap1\n      0x00\n      mstore\n      keccak256(0x00, 0x20)\n      add\n      0x00\n      swap1\n      sload\n      swap1\n      0x0100\n      exp\n      swap1\n      div\n      0xffffffffffffffffffffffffffffffffffffffff\n      and\n        /* \".deps/FundMe.sol\":2143:2180  address funder = funders[funderIndex] */\n      swap1\n      pop\n        /* \".deps/FundMe.sol\":2197:2203  isFund */\n      0x03\n        /* \".deps/FundMe.sol\":2197:2211  isFund[funder] */\n      0x00\n        /* \".deps/FundMe.sol\":2204:2210  funder */\n      dup3\n        /* \".deps/FundMe.sol\":2197:2211  isFund[funder] */\n      0xffffffffffffffffffffffffffffffffffffffff\n      and\n      0xffffffffffffffffffffffffffffffffffffffff\n      and\n      dup2\n      mstore\n      0x20\n      add\n      swap1\n      dup2\n      mstore\n      0x20\n      add\n      0x00\n      keccak256\n      0x00\n      swap1\n      sload\n      swap1\n      0x0100\n      exp\n      swap1\n      div\n      0xff\n      and\n        /* \".deps/FundMe.sol\":2194:2278  if(isFund[funder]){... */\n      iszero\n      tag_56\n      jumpi\n        /* \".deps/FundMe.sol\":2262:2263  0 */\n      0x00\n        /* \".deps/FundMe.sol\":2230:2251  addressToAmountFunded */\n      0x02\n        /* \".deps/FundMe.sol\":2230:2259  addressToAmountFunded[funder] */\n      0x00\n        /* \".deps/FundMe.sol\":2252:2258  funder */\n      dup4\n        /* \".deps/FundMe.sol\":2230:2259  addressToAmountFunded[funder] */\n      0xffffffffffffffffffffffffffffffffffffffff\n      and\n      0xffffffffffffffffffffffffffffffffffffffff\n      and\n      dup2\n      mstore\n      0x20\n      add\n      swap1\n      dup2\n      mstore\n      0x20\n      add\n      0x00\n      keccak256\n        /* \".deps/FundMe.sol\":2230:2263  addressToAmountFunded[funder] = 0 */\n      dup2\n      swap1\n      sstore\n      pop\n        /* \".deps/FundMe.sol\":2194:2278  if(isFund[funder]){... */\n    tag_56:\n        /* \".deps/FundMe.sol\":2129:2288  {... */\n      pop\n        /* \".deps/FundMe.sol\":2115:2128  funderIndex++ */\n      dup1\n      dup1\n      0x01\n      add\n      swap2\n      pop\n      pop\n        /* \".deps/FundMe.sol\":2055:2288  for (uint256 funderIndex = 0; funderIndex < funders.length; funderIndex++){... */\n      jump(tag_49)\n    tag_50:\n      pop\n        /* \".deps/FundMe.sol\":2350:2351  0 */\n      0x00\n        /* \".deps/FundMe.sol\":2336:2352  new address[](0) */\n      0xffffffffffffffff\n      dup2\n      gt\n      iszero\n      tag_57\n      jumpi\n      tag_58\n      tag_59\n      jump\t// in\n    tag_58:\n    tag_57:\n      mload(0x40)\n      swap1\n      dup1\n      dup3\n      mstore\n      dup1\n      0x20\n      mul\n      0x20\n      add\n      dup3\n      add\n      0x40\n      mstore\n      dup1\n      iszero\n      tag_60\n      jumpi\n      dup2\n      0x20\n      add\n      0x20\n      dup3\n      mul\n      dup1\n      calldatasize\n      dup4\n      calldatacopy\n      dup1\n      dup3\n      add\n      swap2\n      pop\n      pop\n      swap1\n      pop\n    tag_60:\n      pop\n        /* \".deps/FundMe.sol\":2326:2333  funders */\n      0x01\n        /* \".deps/FundMe.sol\":2326:2352  funders = new address[](0) */\n      swap1\n      dup1\n      mload\n      swap1\n      0x20\n      add\n      swap1\n      tag_61\n      swap3\n      swap2\n      swap1\n      tag_62\n      jump\t// in\n    tag_61:\n      pop\n        /* \".deps/FundMe.sol\":2363:2379  bool callSuccess */\n      0x00\n        /* \".deps/FundMe.sol\":2393:2403  msg.sender */\n      caller\n        /* \".deps/FundMe.sol\":2385:2409  payable(msg.sender).call */\n      0xffffffffffffffffffffffffffffffffffffffff\n      and\n        /* \".deps/FundMe.sol\":2417:2438  address(this).balance */\n      selfbalance\n        /* \".deps/FundMe.sol\":2385:2443  payable(msg.sender).call{value: address(this).balance}(\"\") */\n      mload(0x40)\n      tag_63\n      swap1\n      tag_64\n      jump\t// in\n    tag_63:\n      0x00\n      mload(0x40)\n      dup1\n      dup4\n      sub\n      dup2\n      dup6\n      dup8\n      gas\n      call\n      swap3\n      pop\n      pop\n      pop\n      returndatasize\n      dup1\n      0x00\n      dup2\n      eq\n      tag_67\n      jumpi\n      mload(0x40)\n      swap2\n      pop\n      and(add(returndatasize, 0x3f), not(0x1f))\n      dup3\n      add\n      0x40\n      mstore\n      returndatasize\n      dup3\n      mstore\n      returndatasize\n      0x00\n      0x20\n      dup5\n      add\n      returndatacopy\n      jump(tag_66)\n    tag_67:\n      0x60\n      swap2\n      pop\n    tag_66:\n      pop\n        /* \".deps/FundMe.sol\":2362:2443  (bool callSuccess, ) = payable(msg.sender).call{value: address(this).balance}(\"\") */\n      pop\n      swap1\n      pop\n        /* \".deps/FundMe.sol\":2461:2472  callSuccess */\n      dup1\n        /* \".deps/FundMe.sol\":2453:2507  require(callSuccess, \"failed to withdraw your funds!\") */\n      tag_68\n      jumpi\n      mload(0x40)\n      0x08c379a000000000000000000000000000000000000000000000000000000000\n      dup2\n      mstore\n      0x04\n      add\n      tag_69\n      swap1\n      tag_70\n      jump\t// in\n    tag_69:\n      mload(0x40)\n      dup1\n      swap2\n      sub\n      swap1\n      revert\n    tag_68:\n        /* \".deps/FundMe.sol\":1970:2514  {... */\n      pop\n        /* \".deps/FundMe.sol\":1943:2514  function withdraw() public {... */\n      jump\t// out\n        /* \".deps/FundMe.sol\":327:383  mapping(address => uint256) public addressToAmountFunded */\n    tag_22:\n      mstore(0x20, 0x02)\n      dup1\n      0x00\n      mstore\n      keccak256(0x00, 0x40)\n      0x00\n      swap2\n      pop\n      swap1\n      pop\n      sload\n      dup2\n      jump\t// out\n        /* \".deps/FundMe.sol\":427:447  address public owner */\n    tag_26:\n      0x04\n      0x00\n      swap1\n      sload\n      swap1\n      0x0100\n      exp\n      swap1\n      div\n      0xffffffffffffffffffffffffffffffffffffffff\n      and\n      dup2\n      jump\t// out\n        /* \".deps/FundMe.sol\":897:1235  function getPrice() public view returns (uint256) {... */\n    tag_31:\n        /* \".deps/FundMe.sol\":938:945  uint256 */\n      0x00\n        /* \".deps/FundMe.sol\":1018:1031  int256 answer */\n      dup1\n        /* \".deps/FundMe.sol\":1163:1171  dataFeed */\n      0x05\n      0x00\n      swap1\n      sload\n      swap1\n      0x0100\n      exp\n      swap1\n      div\n      0xffffffffffffffffffffffffffffffffffffffff\n      and\n        /* \".deps/FundMe.sol\":1163:1187  dataFeed.latestRoundData */\n      0xffffffffffffffffffffffffffffffffffffffff\n      and\n      0xfeaf968c\n        /* \".deps/FundMe.sol\":1163:1189  dataFeed.latestRoundData() */\n      mload(0x40)\n      dup2\n      0xffffffff\n      and\n      0xe0\n      shl\n      dup2\n      mstore\n      0x04\n      add\n      0xa0\n      mload(0x40)\n      dup1\n      dup4\n      sub\n      dup2\n      dup7\n      gas\n      staticcall\n      iszero\n      dup1\n      iszero\n      tag_73\n      jumpi\n      returndatasize\n      0x00\n      dup1\n      returndatacopy\n      revert(0x00, returndatasize)\n    tag_73:\n      pop\n      pop\n      pop\n      pop\n      mload(0x40)\n      returndatasize\n      not(0x1f)\n      0x1f\n      dup3\n      add\n      and\n      dup3\n      add\n      dup1\n      0x40\n      mstore\n      pop\n      dup2\n      add\n      swap1\n      tag_74\n      swap2\n      swap1\n      tag_75\n      jump\t// in\n    tag_74:\n        /* \".deps/FundMe.sol\":957:1189  (... */\n      pop\n      pop\n      pop\n      swap2\n      pop\n      pop\n        /* \".deps/FundMe.sol\":1223:1227  1e10 */\n      0x02540be400\n        /* \".deps/FundMe.sol\":1214:1220  answer */\n      dup2\n        /* \".deps/FundMe.sol\":1214:1227  answer * 1e10 */\n      tag_76\n      swap2\n      swap1\n      tag_77\n      jump\t// in\n    tag_76:\n        /* \".deps/FundMe.sol\":1199:1228  return uint256(answer * 1e10) */\n      swap2\n      pop\n      pop\n        /* \".deps/FundMe.sol\":897:1235  function getPrice() public view returns (uint256) {... */\n      swap1\n      jump\t// out\n        /* \".deps/FundMe.sol\":1595:1937  function fund() public payable {... */\n    tag_34:\n        /* \".deps/FundMe.sol\":1689:1699  minimumUsd */\n      sload(0x00)\n        /* \".deps/FundMe.sol\":1657:1685  getConversionRate(msg.value) */\n      tag_79\n        /* \".deps/FundMe.sol\":1675:1684  msg.value */\n      callvalue\n        /* \".deps/FundMe.sol\":1657:1674  getConversionRate */\n      tag_80\n        /* \".deps/FundMe.sol\":1657:1685  getConversionRate(msg.value) */\n      jump\t// in\n    tag_79:\n        /* \".deps/FundMe.sol\":1657:1699  getConversionRate(msg.value) >= minimumUsd */\n      lt\n      iszero\n        /* \".deps/FundMe.sol\":1636:1752  require(... */\n      tag_81\n      jumpi\n      mload(0x40)\n      0x08c379a000000000000000000000000000000000000000000000000000000000\n      dup2\n      mstore\n      0x04\n      add\n      tag_82\n      swap1\n      tag_83\n      jump\t// in\n    tag_82:\n      mload(0x40)\n      dup1\n      swap2\n      sub\n      swap1\n      revert\n    tag_81:\n        /* \".deps/FundMe.sol\":1767:1773  isFund */\n      0x03\n        /* \".deps/FundMe.sol\":1767:1785  isFund[msg.sender] */\n      0x00\n        /* \".deps/FundMe.sol\":1774:1784  msg.sender */\n      caller\n        /* \".deps/FundMe.sol\":1767:1785  isFund[msg.sender] */\n      0xffffffffffffffffffffffffffffffffffffffff\n      and\n      0xffffffffffffffffffffffffffffffffffffffff\n      and\n      dup2\n      mstore\n      0x20\n      add\n      swap1\n      dup2\n      mstore\n      0x20\n      add\n      0x00\n      keccak256\n      0x00\n      swap1\n      sload\n      swap1\n      0x0100\n      exp\n      swap1\n      div\n      0xff\n      and\n        /* \".deps/FundMe.sol\":1762:1875  if (!isFund[msg.sender]) {... */\n      tag_84\n      jumpi\n        /* \".deps/FundMe.sol\":1801:1808  funders */\n      0x01\n        /* \".deps/FundMe.sol\":1814:1824  msg.sender */\n      caller\n        /* \".deps/FundMe.sol\":1801:1825  funders.push(msg.sender) */\n      swap1\n      dup1\n      0x01\n      dup2\n      sload\n      add\n      dup1\n      dup3\n      sstore\n      dup1\n      swap2\n      pop\n      pop\n      0x01\n      swap1\n      sub\n      swap1\n      0x00\n      mstore\n      keccak256(0x00, 0x20)\n      add\n      0x00\n      swap1\n      swap2\n      swap1\n      swap2\n      swap1\n      swap2\n      0x0100\n      exp\n      dup2\n      sload\n      dup2\n      0xffffffffffffffffffffffffffffffffffffffff\n      mul\n      not\n      and\n      swap1\n      dup4\n      0xffffffffffffffffffffffffffffffffffffffff\n      and\n      mul\n      or\n      swap1\n      sstore\n      pop\n        /* \".deps/FundMe.sol\":1860:1864  true */\n      0x01\n        /* \".deps/FundMe.sol\":1839:1845  isFund */\n      0x03\n        /* \".deps/FundMe.sol\":1839:1857  isFund[msg.sender] */\n      0x00\n        /* \".deps/FundMe.sol\":1846:1856  msg.sender */\n      caller\n        /* \".deps/FundMe.sol\":1839:1857  isFund[msg.sender] */\n      0xffffffffffffffffffffffffffffffffffffffff\n      and\n      0xffffffffffffffffffffffffffffffffffffffff\n      and\n      dup2\n      mstore\n      0x20\n      add\n      swap1\n      dup2\n      mstore\n      0x20\n      add\n      0x00\n      keccak256\n      0x00\n        /* \".deps/FundMe.sol\":1839:1864  isFund[msg.sender] = true */\n      0x0100\n      exp\n      dup2\n      sload\n      dup2\n      0xff\n      mul\n      not\n      and\n      swap1\n      dup4\n      iszero\n      iszero\n      mul\n      or\n      swap1\n      sstore\n      pop\n        /* \".deps/FundMe.sol\":1762:1875  if (!isFund[msg.sender]) {... */\n    tag_84:\n        /* \".deps/FundMe.sol\":1921:1930  msg.value */\n      callvalue\n        /* \".deps/FundMe.sol\":1884:1905  addressToAmountFunded */\n      0x02\n        /* \".deps/FundMe.sol\":1884:1917  addressToAmountFunded[msg.sender] */\n      0x00\n        /* \".deps/FundMe.sol\":1906:1916  msg.sender */\n      caller\n        /* \".deps/FundMe.sol\":1884:1917  addressToAmountFunded[msg.sender] */\n      0xffffffffffffffffffffffffffffffffffffffff\n      and\n      0xffffffffffffffffffffffffffffffffffffffff\n      and\n      dup2\n      mstore\n      0x20\n      add\n      swap1\n      dup2\n      mstore\n      0x20\n      add\n      0x00\n      keccak256\n      0x00\n        /* \".deps/FundMe.sol\":1884:1930  addressToAmountFunded[msg.sender] += msg.value */\n      dup3\n      dup3\n      sload\n      tag_86\n      swap2\n      swap1\n      tag_87\n      jump\t// in\n    tag_86:\n      swap3\n      pop\n      pop\n      dup2\n      swap1\n      sstore\n      pop\n        /* \".deps/FundMe.sol\":1595:1937  function fund() public payable {... */\n      jump\t// out\n        /* \".deps/FundMe.sol\":799:891  function getFunders() public view returns (address[] memory) {... */\n    tag_37:\n        /* \".deps/FundMe.sol\":842:858  address[] memory */\n      0x60\n        /* \".deps/FundMe.sol\":877:884  funders */\n      0x01\n        /* \".deps/FundMe.sol\":870:884  return funders */\n      dup1\n      sload\n      dup1\n      0x20\n      mul\n      0x20\n      add\n      mload(0x40)\n      swap1\n      dup2\n      add\n      0x40\n      mstore\n      dup1\n      swap3\n      swap2\n      swap1\n      dup2\n      dup2\n      mstore\n      0x20\n      add\n      dup3\n      dup1\n      sload\n      dup1\n      iszero\n      tag_89\n      jumpi\n      0x20\n      mul\n      dup3\n      add\n      swap2\n      swap1\n      0x00\n      mstore\n      keccak256(0x00, 0x20)\n      swap1\n    tag_90:\n      dup2\n      0x00\n      swap1\n      sload\n      swap1\n      0x0100\n      exp\n      swap1\n      div\n      0xffffffffffffffffffffffffffffffffffffffff\n      and\n      0xffffffffffffffffffffffffffffffffffffffff\n      and\n      dup2\n      mstore\n      0x20\n      add\n      swap1\n      0x01\n      add\n      swap1\n      dup1\n      dup4\n      gt\n      tag_90\n      jumpi\n    tag_89:\n      pop\n      pop\n      pop\n      pop\n      pop\n      swap1\n      pop\n        /* \".deps/FundMe.sol\":799:891  function getFunders() public view returns (address[] memory) {... */\n      swap1\n      jump\t// out\n        /* \".deps/FundMe.sol\":1241:1488  function getConversionRate(uint256 ethAmount)... */\n    tag_80:\n        /* \".deps/FundMe.sol\":1334:1341  uint256 */\n      0x00\n        /* \".deps/FundMe.sol\":1357:1373  uint256 ethPrice */\n      dup1\n        /* \".deps/FundMe.sol\":1376:1386  getPrice() */\n      tag_92\n        /* \".deps/FundMe.sol\":1376:1384  getPrice */\n      tag_31\n        /* \".deps/FundMe.sol\":1376:1386  getPrice() */\n      jump\t// in\n    tag_92:\n        /* \".deps/FundMe.sol\":1357:1386  uint256 ethPrice = getPrice() */\n      swap1\n      pop\n        /* \".deps/FundMe.sol\":1396:1418  uint256 ethAmountInUsd */\n      0x00\n        /* \".deps/FundMe.sol\":1446:1450  1e18 */\n      0x0de0b6b3a7640000\n        /* \".deps/FundMe.sol\":1433:1442  ethAmount */\n      dup5\n        /* \".deps/FundMe.sol\":1422:1430  ethPrice */\n      dup4\n        /* \".deps/FundMe.sol\":1422:1442  ethPrice * ethAmount */\n      tag_93\n      swap2\n      swap1\n      tag_94\n      jump\t// in\n    tag_93:\n        /* \".deps/FundMe.sol\":1421:1450  (ethPrice * ethAmount) / 1e18 */\n      tag_95\n      swap2\n      swap1\n      tag_96\n      jump\t// in\n    tag_95:\n        /* \".deps/FundMe.sol\":1396:1450  uint256 ethAmountInUsd = (ethPrice * ethAmount) / 1e18 */\n      swap1\n      pop\n        /* \".deps/FundMe.sol\":1467:1481  ethAmountInUsd */\n      dup1\n        /* \".deps/FundMe.sol\":1460:1481  return ethAmountInUsd */\n      swap3\n      pop\n      pop\n      pop\n        /* \".deps/FundMe.sol\":1241:1488  function getConversionRate(uint256 ethAmount)... */\n      swap2\n      swap1\n      pop\n      jump\t// out\n    tag_62:\n      dup3\n      dup1\n      sload\n      dup3\n      dup3\n      sstore\n      swap1\n      0x00\n      mstore\n      keccak256(0x00, 0x20)\n      swap1\n      dup2\n      add\n      swap3\n      dup3\n      iszero\n      tag_97\n      jumpi\n      swap2\n      0x20\n      mul\n      dup3\n      add\n    tag_98:\n      dup3\n      dup2\n      gt\n      iszero\n      tag_99\n      jumpi\n      dup3\n      mload\n      dup3\n      exp(0x0100, 0x00)\n      dup2\n      sload\n      dup2\n      0xffffffffffffffffffffffffffffffffffffffff\n      mul\n      not\n      and\n      swap1\n      dup4\n      0xffffffffffffffffffffffffffffffffffffffff\n      and\n      mul\n      or\n      swap1\n      sstore\n      pop\n      swap2\n      0x20\n      add\n      swap2\n      swap1\n      0x01\n      add\n      swap1\n      jump(tag_98)\n    tag_99:\n    tag_97:\n      pop\n      swap1\n      pop\n      tag_100\n      swap2\n      swap1\n      tag_101\n      jump\t// in\n    tag_100:\n      pop\n      swap1\n      jump\t// out\n    tag_101:\n    tag_102:\n      dup1\n      dup3\n      gt\n      iszero\n      tag_103\n      jumpi\n      0x00\n      dup2\n      0x00\n      swap1\n      sstore\n      pop\n      0x01\n      add\n      jump(tag_102)\n    tag_103:\n      pop\n      swap1\n      jump\t// out\n        /* \"#utility.yul\":7:84   */\n    tag_104:\n        /* \"#utility.yul\":44:51   */\n      0x00\n        /* \"#utility.yul\":73:78   */\n      dup2\n        /* \"#utility.yul\":62:78   */\n      swap1\n      pop\n        /* \"#utility.yul\":7:84   */\n      swap2\n      swap1\n      pop\n      jump\t// out\n        /* \"#utility.yul\":90:208   */\n    tag_105:\n        /* \"#utility.yul\":177:201   */\n      tag_144\n        /* \"#utility.yul\":195:200   */\n      dup2\n        /* \"#utility.yul\":177:201   */\n      tag_104\n      jump\t// in\n    tag_144:\n        /* \"#utility.yul\":172:175   */\n      dup3\n        /* \"#utility.yul\":165:202   */\n      mstore\n        /* \"#utility.yul\":90:208   */\n      pop\n      pop\n      jump\t// out\n        /* \"#utility.yul\":214:436   */\n    tag_14:\n        /* \"#utility.yul\":307:311   */\n      0x00\n        /* \"#utility.yul\":345:347   */\n      0x20\n        /* \"#utility.yul\":334:343   */\n      dup3\n        /* \"#utility.yul\":330:348   */\n      add\n        /* \"#utility.yul\":322:348   */\n      swap1\n      pop\n        /* \"#utility.yul\":358:429   */\n      tag_146\n        /* \"#utility.yul\":426:427   */\n      0x00\n        /* \"#utility.yul\":415:424   */\n      dup4\n        /* \"#utility.yul\":411:428   */\n      add\n        /* \"#utility.yul\":402:408   */\n      dup5\n        /* \"#utility.yul\":358:429   */\n      tag_105\n      jump\t// in\n    tag_146:\n        /* \"#utility.yul\":214:436   */\n      swap3\n      swap2\n      pop\n      pop\n      jump\t// out\n        /* \"#utility.yul\":523:640   */\n    tag_107:\n        /* \"#utility.yul\":632:633   */\n      0x00\n        /* \"#utility.yul\":629:630   */\n      dup1\n        /* \"#utility.yul\":622:634   */\n      revert\n        /* \"#utility.yul\":769:895   */\n    tag_109:\n        /* \"#utility.yul\":806:813   */\n      0x00\n        /* \"#utility.yul\":846:888   */\n      0xffffffffffffffffffffffffffffffffffffffff\n        /* \"#utility.yul\":839:844   */\n      dup3\n        /* \"#utility.yul\":835:889   */\n      and\n        /* \"#utility.yul\":824:889   */\n      swap1\n      pop\n        /* \"#utility.yul\":769:895   */\n      swap2\n      swap1\n      pop\n      jump\t// out\n        /* \"#utility.yul\":901:997   */\n    tag_110:\n        /* \"#utility.yul\":938:945   */\n      0x00\n        /* \"#utility.yul\":967:991   */\n      tag_152\n        /* \"#utility.yul\":985:990   */\n      dup3\n        /* \"#utility.yul\":967:991   */\n      tag_109\n      jump\t// in\n    tag_152:\n        /* \"#utility.yul\":956:991   */\n      swap1\n      pop\n        /* \"#utility.yul\":901:997   */\n      swap2\n      swap1\n      pop\n      jump\t// out\n        /* \"#utility.yul\":1003:1125   */\n    tag_111:\n        /* \"#utility.yul\":1076:1100   */\n      tag_154\n        /* \"#utility.yul\":1094:1099   */\n      dup2\n        /* \"#utility.yul\":1076:1100   */\n      tag_110\n      jump\t// in\n    tag_154:\n        /* \"#utility.yul\":1069:1074   */\n      dup2\n        /* \"#utility.yul\":1066:1101   */\n      eq\n        /* \"#utility.yul\":1056:1119   */\n      tag_155\n      jumpi\n        /* \"#utility.yul\":1115:1116   */\n      0x00\n        /* \"#utility.yul\":1112:1113   */\n      dup1\n        /* \"#utility.yul\":1105:1117   */\n      revert\n        /* \"#utility.yul\":1056:1119   */\n    tag_155:\n        /* \"#utility.yul\":1003:1125   */\n      pop\n      jump\t// out\n        /* \"#utility.yul\":1131:1270   */\n    tag_112:\n        /* \"#utility.yul\":1177:1182   */\n      0x00\n        /* \"#utility.yul\":1215:1221   */\n      dup2\n        /* \"#utility.yul\":1202:1222   */\n      calldataload\n        /* \"#utility.yul\":1193:1222   */\n      swap1\n      pop\n        /* \"#utility.yul\":1231:1264   */\n      tag_157\n        /* \"#utility.yul\":1258:1263   */\n      dup2\n        /* \"#utility.yul\":1231:1264   */\n      tag_111\n      jump\t// in\n    tag_157:\n        /* \"#utility.yul\":1131:1270   */\n      swap3\n      swap2\n      pop\n      pop\n      jump\t// out\n        /* \"#utility.yul\":1276:1605   */\n    tag_21:\n        /* \"#utility.yul\":1335:1341   */\n      0x00\n        /* \"#utility.yul\":1384:1386   */\n      0x20\n        /* \"#utility.yul\":1372:1381   */\n      dup3\n        /* \"#utility.yul\":1363:1370   */\n      dup5\n        /* \"#utility.yul\":1359:1382   */\n      sub\n        /* \"#utility.yul\":1355:1387   */\n      slt\n        /* \"#utility.yul\":1352:1471   */\n      iszero\n      tag_159\n      jumpi\n        /* \"#utility.yul\":1390:1469   */\n      tag_160\n      tag_107\n      jump\t// in\n    tag_160:\n        /* \"#utility.yul\":1352:1471   */\n    tag_159:\n        /* \"#utility.yul\":1510:1511   */\n      0x00\n        /* \"#utility.yul\":1535:1588   */\n      tag_161\n        /* \"#utility.yul\":1580:1587   */\n      dup5\n        /* \"#utility.yul\":1571:1577   */\n      dup3\n        /* \"#utility.yul\":1560:1569   */\n      dup6\n        /* \"#utility.yul\":1556:1578   */\n      add\n        /* \"#utility.yul\":1535:1588   */\n      tag_112\n      jump\t// in\n    tag_161:\n        /* \"#utility.yul\":1525:1588   */\n      swap2\n      pop\n        /* \"#utility.yul\":1481:1598   */\n      pop\n        /* \"#utility.yul\":1276:1605   */\n      swap3\n      swap2\n      pop\n      pop\n      jump\t// out\n        /* \"#utility.yul\":1611:1729   */\n    tag_113:\n        /* \"#utility.yul\":1698:1722   */\n      tag_163\n        /* \"#utility.yul\":1716:1721   */\n      dup2\n        /* \"#utility.yul\":1698:1722   */\n      tag_110\n      jump\t// in\n    tag_163:\n        /* \"#utility.yul\":1693:1696   */\n      dup3\n        /* \"#utility.yul\":1686:1723   */\n      mstore\n        /* \"#utility.yul\":1611:1729   */\n      pop\n      pop\n      jump\t// out\n        /* \"#utility.yul\":1735:1957   */\n    tag_28:\n        /* \"#utility.yul\":1828:1832   */\n      0x00\n        /* \"#utility.yul\":1866:1868   */\n      0x20\n        /* \"#utility.yul\":1855:1864   */\n      dup3\n        /* \"#utility.yul\":1851:1869   */\n      add\n        /* \"#utility.yul\":1843:1869   */\n      swap1\n      pop\n        /* \"#utility.yul\":1879:1950   */\n      tag_165\n        /* \"#utility.yul\":1947:1948   */\n      0x00\n        /* \"#utility.yul\":1936:1945   */\n      dup4\n        /* \"#utility.yul\":1932:1949   */\n      add\n        /* \"#utility.yul\":1923:1929   */\n      dup5\n        /* \"#utility.yul\":1879:1950   */\n      tag_113\n      jump\t// in\n    tag_165:\n        /* \"#utility.yul\":1735:1957   */\n      swap3\n      swap2\n      pop\n      pop\n      jump\t// out\n        /* \"#utility.yul\":1963:2077   */\n    tag_114:\n        /* \"#utility.yul\":2030:2036   */\n      0x00\n        /* \"#utility.yul\":2064:2069   */\n      dup2\n        /* \"#utility.yul\":2058:2070   */\n      mload\n        /* \"#utility.yul\":2048:2070   */\n      swap1\n      pop\n        /* \"#utility.yul\":1963:2077   */\n      swap2\n      swap1\n      pop\n      jump\t// out\n        /* \"#utility.yul\":2083:2267   */\n    tag_115:\n        /* \"#utility.yul\":2182:2193   */\n      0x00\n        /* \"#utility.yul\":2216:2222   */\n      dup3\n        /* \"#utility.yul\":2211:2214   */\n      dup3\n        /* \"#utility.yul\":2204:2223   */\n      mstore\n        /* \"#utility.yul\":2256:2260   */\n      0x20\n        /* \"#utility.yul\":2251:2254   */\n      dup3\n        /* \"#utility.yul\":2247:2261   */\n      add\n        /* \"#utility.yul\":2232:2261   */\n      swap1\n      pop\n        /* \"#utility.yul\":2083:2267   */\n      swap3\n      swap2\n      pop\n      pop\n      jump\t// out\n        /* \"#utility.yul\":2273:2405   */\n    tag_116:\n        /* \"#utility.yul\":2340:2344   */\n      0x00\n        /* \"#utility.yul\":2363:2366   */\n      dup2\n        /* \"#utility.yul\":2355:2366   */\n      swap1\n      pop\n        /* \"#utility.yul\":2393:2397   */\n      0x20\n        /* \"#utility.yul\":2388:2391   */\n      dup3\n        /* \"#utility.yul\":2384:2398   */\n      add\n        /* \"#utility.yul\":2376:2398   */\n      swap1\n      pop\n        /* \"#utility.yul\":2273:2405   */\n      swap2\n      swap1\n      pop\n      jump\t// out\n        /* \"#utility.yul\":2411:2519   */\n    tag_117:\n        /* \"#utility.yul\":2488:2512   */\n      tag_170\n        /* \"#utility.yul\":2506:2511   */\n      dup2\n        /* \"#utility.yul\":2488:2512   */\n      tag_110\n      jump\t// in\n    tag_170:\n        /* \"#utility.yul\":2483:2486   */\n      dup3\n        /* \"#utility.yul\":2476:2513   */\n      mstore\n        /* \"#utility.yul\":2411:2519   */\n      pop\n      pop\n      jump\t// out\n        /* \"#utility.yul\":2525:2704   */\n    tag_118:\n        /* \"#utility.yul\":2594:2604   */\n      0x00\n        /* \"#utility.yul\":2615:2661   */\n      tag_172\n        /* \"#utility.yul\":2657:2660   */\n      dup4\n        /* \"#utility.yul\":2649:2655   */\n      dup4\n        /* \"#utility.yul\":2615:2661   */\n      tag_117\n      jump\t// in\n    tag_172:\n        /* \"#utility.yul\":2693:2697   */\n      0x20\n        /* \"#utility.yul\":2688:2691   */\n      dup4\n        /* \"#utility.yul\":2684:2698   */\n      add\n        /* \"#utility.yul\":2670:2698   */\n      swap1\n      pop\n        /* \"#utility.yul\":2525:2704   */\n      swap3\n      swap2\n      pop\n      pop\n      jump\t// out\n        /* \"#utility.yul\":2710:2823   */\n    tag_119:\n        /* \"#utility.yul\":2780:2784   */\n      0x00\n        /* \"#utility.yul\":2812:2816   */\n      0x20\n        /* \"#utility.yul\":2807:2810   */\n      dup3\n        /* \"#utility.yul\":2803:2817   */\n      add\n        /* \"#utility.yul\":2795:2817   */\n      swap1\n      pop\n        /* \"#utility.yul\":2710:2823   */\n      swap2\n      swap1\n      pop\n      jump\t// out\n        /* \"#utility.yul\":2859:3591   */\n    tag_120:\n        /* \"#utility.yul\":2978:2981   */\n      0x00\n        /* \"#utility.yul\":3007:3061   */\n      tag_175\n        /* \"#utility.yul\":3055:3060   */\n      dup3\n        /* \"#utility.yul\":3007:3061   */\n      tag_114\n      jump\t// in\n    tag_175:\n        /* \"#utility.yul\":3077:3163   */\n      tag_176\n        /* \"#utility.yul\":3156:3162   */\n      dup2\n        /* \"#utility.yul\":3151:3154   */\n      dup6\n        /* \"#utility.yul\":3077:3163   */\n      tag_115\n      jump\t// in\n    tag_176:\n        /* \"#utility.yul\":3070:3163   */\n      swap4\n      pop\n        /* \"#utility.yul\":3187:3243   */\n      tag_177\n        /* \"#utility.yul\":3237:3242   */\n      dup4\n        /* \"#utility.yul\":3187:3243   */\n      tag_116\n      jump\t// in\n    tag_177:\n        /* \"#utility.yul\":3266:3273   */\n      dup1\n        /* \"#utility.yul\":3297:3298   */\n      0x00\n        /* \"#utility.yul\":3282:3566   */\n    tag_178:\n        /* \"#utility.yul\":3307:3313   */\n      dup4\n        /* \"#utility.yul\":3304:3305   */\n      dup2\n        /* \"#utility.yul\":3301:3314   */\n      lt\n        /* \"#utility.yul\":3282:3566   */\n      iszero\n      tag_180\n      jumpi\n        /* \"#utility.yul\":3383:3389   */\n      dup2\n        /* \"#utility.yul\":3377:3390   */\n      mload\n        /* \"#utility.yul\":3410:3473   */\n      tag_181\n        /* \"#utility.yul\":3469:3472   */\n      dup9\n        /* \"#utility.yul\":3454:3467   */\n      dup3\n        /* \"#utility.yul\":3410:3473   */\n      tag_118\n      jump\t// in\n    tag_181:\n        /* \"#utility.yul\":3403:3473   */\n      swap8\n      pop\n        /* \"#utility.yul\":3496:3556   */\n      tag_182\n        /* \"#utility.yul\":3549:3555   */\n      dup4\n        /* \"#utility.yul\":3496:3556   */\n      tag_119\n      jump\t// in\n    tag_182:\n        /* \"#utility.yul\":3486:3556   */\n      swap3\n      pop\n        /* \"#utility.yul\":3342:3566   */\n      pop\n        /* \"#utility.yul\":3329:3330   */\n      0x01\n        /* \"#utility.yul\":3326:3327   */\n      dup2\n        /* \"#utility.yul\":3322:3331   */\n      add\n        /* \"#utility.yul\":3317:3331   */\n      swap1\n      pop\n        /* \"#utility.yul\":3282:3566   */\n      jump(tag_178)\n    tag_180:\n        /* \"#utility.yul\":3286:3300   */\n      pop\n        /* \"#utility.yul\":3582:3585   */\n      dup6\n        /* \"#utility.yul\":3575:3585   */\n      swap4\n      pop\n        /* \"#utility.yul\":2983:3591   */\n      pop\n      pop\n      pop\n        /* \"#utility.yul\":2859:3591   */\n      swap3\n      swap2\n      pop\n      pop\n      jump\t// out\n        /* \"#utility.yul\":3597:3970   */\n    tag_39:\n        /* \"#utility.yul\":3740:3744   */\n      0x00\n        /* \"#utility.yul\":3778:3780   */\n      0x20\n        /* \"#utility.yul\":3767:3776   */\n      dup3\n        /* \"#utility.yul\":3763:3781   */\n      add\n        /* \"#utility.yul\":3755:3781   */\n      swap1\n      pop\n        /* \"#utility.yul\":3827:3836   */\n      dup2\n        /* \"#utility.yul\":3821:3825   */\n      dup2\n        /* \"#utility.yul\":3817:3837   */\n      sub\n        /* \"#utility.yul\":3813:3814   */\n      0x00\n        /* \"#utility.yul\":3802:3811   */\n      dup4\n        /* \"#utility.yul\":3798:3815   */\n      add\n        /* \"#utility.yul\":3791:3838   */\n      mstore\n        /* \"#utility.yul\":3855:3963   */\n      tag_184\n        /* \"#utility.yul\":3958:3962   */\n      dup2\n        /* \"#utility.yul\":3949:3955   */\n      dup5\n        /* \"#utility.yul\":3855:3963   */\n      tag_120\n      jump\t// in\n    tag_184:\n        /* \"#utility.yul\":3847:3963   */\n      swap1\n      pop\n        /* \"#utility.yul\":3597:3970   */\n      swap3\n      swap2\n      pop\n      pop\n      jump\t// out\n        /* \"#utility.yul\":3976:4098   */\n    tag_121:\n        /* \"#utility.yul\":4049:4073   */\n      tag_186\n        /* \"#utility.yul\":4067:4072   */\n      dup2\n        /* \"#utility.yul\":4049:4073   */\n      tag_104\n      jump\t// in\n    tag_186:\n        /* \"#utility.yul\":4042:4047   */\n      dup2\n        /* \"#utility.yul\":4039:4074   */\n      eq\n        /* \"#utility.yul\":4029:4092   */\n      tag_187\n      jumpi\n        /* \"#utility.yul\":4088:4089   */\n      0x00\n        /* \"#utility.yul\":4085:4086   */\n      dup1\n        /* \"#utility.yul\":4078:4090   */\n      revert\n        /* \"#utility.yul\":4029:4092   */\n    tag_187:\n        /* \"#utility.yul\":3976:4098   */\n      pop\n      jump\t// out\n        /* \"#utility.yul\":4104:4247   */\n    tag_122:\n        /* \"#utility.yul\":4161:4166   */\n      0x00\n        /* \"#utility.yul\":4192:4198   */\n      dup2\n        /* \"#utility.yul\":4186:4199   */\n      mload\n        /* \"#utility.yul\":4177:4199   */\n      swap1\n      pop\n        /* \"#utility.yul\":4208:4241   */\n      tag_189\n        /* \"#utility.yul\":4235:4240   */\n      dup2\n        /* \"#utility.yul\":4208:4241   */\n      tag_121\n      jump\t// in\n    tag_189:\n        /* \"#utility.yul\":4104:4247   */\n      swap3\n      swap2\n      pop\n      pop\n      jump\t// out\n        /* \"#utility.yul\":4253:4604   */\n    tag_44:\n        /* \"#utility.yul\":4323:4329   */\n      0x00\n        /* \"#utility.yul\":4372:4374   */\n      0x20\n        /* \"#utility.yul\":4360:4369   */\n      dup3\n        /* \"#utility.yul\":4351:4358   */\n      dup5\n        /* \"#utility.yul\":4347:4370   */\n      sub\n        /* \"#utility.yul\":4343:4375   */\n      slt\n        /* \"#utility.yul\":4340:4459   */\n      iszero\n      tag_191\n      jumpi\n        /* \"#utility.yul\":4378:4457   */\n      tag_192\n      tag_107\n      jump\t// in\n    tag_192:\n        /* \"#utility.yul\":4340:4459   */\n    tag_191:\n        /* \"#utility.yul\":4498:4499   */\n      0x00\n        /* \"#utility.yul\":4523:4587   */\n      tag_193\n        /* \"#utility.yul\":4579:4586   */\n      dup5\n        /* \"#utility.yul\":4570:4576   */\n      dup3\n        /* \"#utility.yul\":4559:4568   */\n      dup6\n        /* \"#utility.yul\":4555:4577   */\n      add\n        /* \"#utility.yul\":4523:4587   */\n      tag_122\n      jump\t// in\n    tag_193:\n        /* \"#utility.yul\":4513:4587   */\n      swap2\n      pop\n        /* \"#utility.yul\":4469:4597   */\n      pop\n        /* \"#utility.yul\":4253:4604   */\n      swap3\n      swap2\n      pop\n      pop\n      jump\t// out\n        /* \"#utility.yul\":4610:4779   */\n    tag_123:\n        /* \"#utility.yul\":4694:4705   */\n      0x00\n        /* \"#utility.yul\":4728:4734   */\n      dup3\n        /* \"#utility.yul\":4723:4726   */\n      dup3\n        /* \"#utility.yul\":4716:4735   */\n      mstore\n        /* \"#utility.yul\":4768:4772   */\n      0x20\n        /* \"#utility.yul\":4763:4766   */\n      dup3\n        /* \"#utility.yul\":4759:4773   */\n      add\n        /* \"#utility.yul\":4744:4773   */\n      swap1\n      pop\n        /* \"#utility.yul\":4610:4779   */\n      swap3\n      swap2\n      pop\n      pop\n      jump\t// out\n        /* \"#utility.yul\":4785:4957   */\n    tag_124:\n        /* \"#utility.yul\":4925:4949   */\n      0x596f7520617265206e6f7420746865206f776e65722100000000000000000000\n        /* \"#utility.yul\":4921:4922   */\n      0x00\n        /* \"#utility.yul\":4913:4919   */\n      dup3\n        /* \"#utility.yul\":4909:4923   */\n      add\n        /* \"#utility.yul\":4902:4950   */\n      mstore\n        /* \"#utility.yul\":4785:4957   */\n      pop\n      jump\t// out\n        /* \"#utility.yul\":4963:5329   */\n    tag_125:\n        /* \"#utility.yul\":5105:5108   */\n      0x00\n        /* \"#utility.yul\":5126:5193   */\n      tag_197\n        /* \"#utility.yul\":5190:5192   */\n      0x16\n        /* \"#utility.yul\":5185:5188   */\n      dup4\n        /* \"#utility.yul\":5126:5193   */\n      tag_123\n      jump\t// in\n    tag_197:\n        /* \"#utility.yul\":5119:5193   */\n      swap2\n      pop\n        /* \"#utility.yul\":5202:5295   */\n      tag_198\n        /* \"#utility.yul\":5291:5294   */\n      dup3\n        /* \"#utility.yul\":5202:5295   */\n      tag_124\n      jump\t// in\n    tag_198:\n        /* \"#utility.yul\":5320:5322   */\n      0x20\n        /* \"#utility.yul\":5315:5318   */\n      dup3\n        /* \"#utility.yul\":5311:5323   */\n      add\n        /* \"#utility.yul\":5304:5323   */\n      swap1\n      pop\n        /* \"#utility.yul\":4963:5329   */\n      swap2\n      swap1\n      pop\n      jump\t// out\n        /* \"#utility.yul\":5335:5754   */\n    tag_48:\n        /* \"#utility.yul\":5501:5505   */\n      0x00\n        /* \"#utility.yul\":5539:5541   */\n      0x20\n        /* \"#utility.yul\":5528:5537   */\n      dup3\n        /* \"#utility.yul\":5524:5542   */\n      add\n        /* \"#utility.yul\":5516:5542   */\n      swap1\n      pop\n        /* \"#utility.yul\":5588:5597   */\n      dup2\n        /* \"#utility.yul\":5582:5586   */\n      dup2\n        /* \"#utility.yul\":5578:5598   */\n      sub\n        /* \"#utility.yul\":5574:5575   */\n      0x00\n        /* \"#utility.yul\":5563:5572   */\n      dup4\n        /* \"#utility.yul\":5559:5576   */\n      add\n        /* \"#utility.yul\":5552:5599   */\n      mstore\n        /* \"#utility.yul\":5616:5747   */\n      tag_200\n        /* \"#utility.yul\":5742:5746   */\n      dup2\n        /* \"#utility.yul\":5616:5747   */\n      tag_125\n      jump\t// in\n    tag_200:\n        /* \"#utility.yul\":5608:5747   */\n      swap1\n      pop\n        /* \"#utility.yul\":5335:5754   */\n      swap2\n      swap1\n      pop\n      jump\t// out\n        /* \"#utility.yul\":5760:5940   */\n    tag_54:\n        /* \"#utility.yul\":5808:5885   */\n      0x4e487b7100000000000000000000000000000000000000000000000000000000\n        /* \"#utility.yul\":5805:5806   */\n      0x00\n        /* \"#utility.yul\":5798:5886   */\n      mstore\n        /* \"#utility.yul\":5905:5909   */\n      0x32\n        /* \"#utility.yul\":5902:5903   */\n      0x04\n        /* \"#utility.yul\":5895:5910   */\n      mstore\n        /* \"#utility.yul\":5929:5933   */\n      0x24\n        /* \"#utility.yul\":5926:5927   */\n      0x00\n        /* \"#utility.yul\":5919:5934   */\n      revert\n        /* \"#utility.yul\":5946:6126   */\n    tag_59:\n        /* \"#utility.yul\":5994:6071   */\n      0x4e487b7100000000000000000000000000000000000000000000000000000000\n        /* \"#utility.yul\":5991:5992   */\n      0x00\n        /* \"#utility.yul\":5984:6072   */\n      mstore\n        /* \"#utility.yul\":6091:6095   */\n      0x41\n        /* \"#utility.yul\":6088:6089   */\n      0x04\n        /* \"#utility.yul\":6081:6096   */\n      mstore\n        /* \"#utility.yul\":6115:6119   */\n      0x24\n        /* \"#utility.yul\":6112:6113   */\n      0x00\n        /* \"#utility.yul\":6105:6120   */\n      revert\n        /* \"#utility.yul\":6132:6279   */\n    tag_126:\n        /* \"#utility.yul\":6233:6244   */\n      0x00\n        /* \"#utility.yul\":6270:6273   */\n      dup2\n        /* \"#utility.yul\":6255:6273   */\n      swap1\n      pop\n        /* \"#utility.yul\":6132:6279   */\n      swap3\n      swap2\n      pop\n      pop\n      jump\t// out\n        /* \"#utility.yul\":6285:6399   */\n    tag_127:\n      pop\n      jump\t// out\n        /* \"#utility.yul\":6405:6803   */\n    tag_128:\n        /* \"#utility.yul\":6564:6567   */\n      0x00\n        /* \"#utility.yul\":6585:6668   */\n      tag_206\n        /* \"#utility.yul\":6666:6667   */\n      0x00\n        /* \"#utility.yul\":6661:6664   */\n      dup4\n        /* \"#utility.yul\":6585:6668   */\n      tag_126\n      jump\t// in\n    tag_206:\n        /* \"#utility.yul\":6578:6668   */\n      swap2\n      pop\n        /* \"#utility.yul\":6677:6770   */\n      tag_207\n        /* \"#utility.yul\":6766:6769   */\n      dup3\n        /* \"#utility.yul\":6677:6770   */\n      tag_127\n      jump\t// in\n    tag_207:\n        /* \"#utility.yul\":6795:6796   */\n      0x00\n        /* \"#utility.yul\":6790:6793   */\n      dup3\n        /* \"#utility.yul\":6786:6797   */\n      add\n        /* \"#utility.yul\":6779:6797   */\n      swap1\n      pop\n        /* \"#utility.yul\":6405:6803   */\n      swap2\n      swap1\n      pop\n      jump\t// out\n        /* \"#utility.yul\":6809:7188   */\n    tag_64:\n        /* \"#utility.yul\":6993:6996   */\n      0x00\n        /* \"#utility.yul\":7015:7162   */\n      tag_209\n        /* \"#utility.yul\":7158:7161   */\n      dup3\n        /* \"#utility.yul\":7015:7162   */\n      tag_128\n      jump\t// in\n    tag_209:\n        /* \"#utility.yul\":7008:7162   */\n      swap2\n      pop\n        /* \"#utility.yul\":7179:7182   */\n      dup2\n        /* \"#utility.yul\":7172:7182   */\n      swap1\n      pop\n        /* \"#utility.yul\":6809:7188   */\n      swap2\n      swap1\n      pop\n      jump\t// out\n        /* \"#utility.yul\":7194:7374   */\n    tag_129:\n        /* \"#utility.yul\":7334:7366   */\n      0x6661696c656420746f20776974686472617720796f75722066756e6473210000\n        /* \"#utility.yul\":7330:7331   */\n      0x00\n        /* \"#utility.yul\":7322:7328   */\n      dup3\n        /* \"#utility.yul\":7318:7332   */\n      add\n        /* \"#utility.yul\":7311:7367   */\n      mstore\n        /* \"#utility.yul\":7194:7374   */\n      pop\n      jump\t// out\n        /* \"#utility.yul\":7380:7746   */\n    tag_130:\n        /* \"#utility.yul\":7522:7525   */\n      0x00\n        /* \"#utility.yul\":7543:7610   */\n      tag_212\n        /* \"#utility.yul\":7607:7609   */\n      0x1e\n        /* \"#utility.yul\":7602:7605   */\n      dup4\n        /* \"#utility.yul\":7543:7610   */\n      tag_123\n      jump\t// in\n    tag_212:\n        /* \"#utility.yul\":7536:7610   */\n      swap2\n      pop\n        /* \"#utility.yul\":7619:7712   */\n      tag_213\n        /* \"#utility.yul\":7708:7711   */\n      dup3\n        /* \"#utility.yul\":7619:7712   */\n      tag_129\n      jump\t// in\n    tag_213:\n        /* \"#utility.yul\":7737:7739   */\n      0x20\n        /* \"#utility.yul\":7732:7735   */\n      dup3\n        /* \"#utility.yul\":7728:7740   */\n      add\n        /* \"#utility.yul\":7721:7740   */\n      swap1\n      pop\n        /* \"#utility.yul\":7380:7746   */\n      swap2\n      swap1\n      pop\n      jump\t// out\n        /* \"#utility.yul\":7752:8171   */\n    tag_70:\n        /* \"#utility.yul\":7918:7922   */\n      0x00\n        /* \"#utility.yul\":7956:7958   */\n      0x20\n        /* \"#utility.yul\":7945:7954   */\n      dup3\n        /* \"#utility.yul\":7941:7959   */\n      add\n        /* \"#utility.yul\":7933:7959   */\n      swap1\n      pop\n        /* \"#utility.yul\":8005:8014   */\n      dup2\n        /* \"#utility.yul\":7999:8003   */\n      dup2\n        /* \"#utility.yul\":7995:8015   */\n      sub\n        /* \"#utility.yul\":7991:7992   */\n      0x00\n        /* \"#utility.yul\":7980:7989   */\n      dup4\n        /* \"#utility.yul\":7976:7993   */\n      add\n        /* \"#utility.yul\":7969:8016   */\n      mstore\n        /* \"#utility.yul\":8033:8164   */\n      tag_215\n        /* \"#utility.yul\":8159:8163   */\n      dup2\n        /* \"#utility.yul\":8033:8164   */\n      tag_130\n      jump\t// in\n    tag_215:\n        /* \"#utility.yul\":8025:8164   */\n      swap1\n      pop\n        /* \"#utility.yul\":7752:8171   */\n      swap2\n      swap1\n      pop\n      jump\t// out\n        /* \"#utility.yul\":8177:8282   */\n    tag_131:\n        /* \"#utility.yul\":8213:8220   */\n      0x00\n        /* \"#utility.yul\":8253:8275   */\n      0xffffffffffffffffffff\n        /* \"#utility.yul\":8246:8251   */\n      dup3\n        /* \"#utility.yul\":8242:8276   */\n      and\n        /* \"#utility.yul\":8231:8276   */\n      swap1\n      pop\n        /* \"#utility.yul\":8177:8282   */\n      swap2\n      swap1\n      pop\n      jump\t// out\n        /* \"#utility.yul\":8288:8408   */\n    tag_132:\n        /* \"#utility.yul\":8360:8383   */\n      tag_218\n        /* \"#utility.yul\":8377:8382   */\n      dup2\n        /* \"#utility.yul\":8360:8383   */\n      tag_131\n      jump\t// in\n    tag_218:\n        /* \"#utility.yul\":8353:8358   */\n      dup2\n        /* \"#utility.yul\":8350:8384   */\n      eq\n        /* \"#utility.yul\":8340:8402   */\n      tag_219\n      jumpi\n        /* \"#utility.yul\":8398:8399   */\n      0x00\n        /* \"#utility.yul\":8395:8396   */\n      dup1\n        /* \"#utility.yul\":8388:8400   */\n      revert\n        /* \"#utility.yul\":8340:8402   */\n    tag_219:\n        /* \"#utility.yul\":8288:8408   */\n      pop\n      jump\t// out\n        /* \"#utility.yul\":8414:8555   */\n    tag_133:\n        /* \"#utility.yul\":8470:8475   */\n      0x00\n        /* \"#utility.yul\":8501:8507   */\n      dup2\n        /* \"#utility.yul\":8495:8508   */\n      mload\n        /* \"#utility.yul\":8486:8508   */\n      swap1\n      pop\n        /* \"#utility.yul\":8517:8549   */\n      tag_221\n        /* \"#utility.yul\":8543:8548   */\n      dup2\n        /* \"#utility.yul\":8517:8549   */\n      tag_132\n      jump\t// in\n    tag_221:\n        /* \"#utility.yul\":8414:8555   */\n      swap3\n      swap2\n      pop\n      pop\n      jump\t// out\n        /* \"#utility.yul\":8561:8637   */\n    tag_134:\n        /* \"#utility.yul\":8597:8604   */\n      0x00\n        /* \"#utility.yul\":8626:8631   */\n      dup2\n        /* \"#utility.yul\":8615:8631   */\n      swap1\n      pop\n        /* \"#utility.yul\":8561:8637   */\n      swap2\n      swap1\n      pop\n      jump\t// out\n        /* \"#utility.yul\":8643:8763   */\n    tag_135:\n        /* \"#utility.yul\":8715:8738   */\n      tag_224\n        /* \"#utility.yul\":8732:8737   */\n      dup2\n        /* \"#utility.yul\":8715:8738   */\n      tag_134\n      jump\t// in\n    tag_224:\n        /* \"#utility.yul\":8708:8713   */\n      dup2\n        /* \"#utility.yul\":8705:8739   */\n      eq\n        /* \"#utility.yul\":8695:8757   */\n      tag_225\n      jumpi\n        /* \"#utility.yul\":8753:8754   */\n      0x00\n        /* \"#utility.yul\":8750:8751   */\n      dup1\n        /* \"#utility.yul\":8743:8755   */\n      revert\n        /* \"#utility.yul\":8695:8757   */\n    tag_225:\n        /* \"#utility.yul\":8643:8763   */\n      pop\n      jump\t// out\n        /* \"#utility.yul\":8769:8910   */\n    tag_136:\n        /* \"#utility.yul\":8825:8830   */\n      0x00\n        /* \"#utility.yul\":8856:8862   */\n      dup2\n        /* \"#utility.yul\":8850:8863   */\n      mload\n        /* \"#utility.yul\":8841:8863   */\n      swap1\n      pop\n        /* \"#utility.yul\":8872:8904   */\n      tag_227\n        /* \"#utility.yul\":8898:8903   */\n      dup2\n        /* \"#utility.yul\":8872:8904   */\n      tag_135\n      jump\t// in\n    tag_227:\n        /* \"#utility.yul\":8769:8910   */\n      swap3\n      swap2\n      pop\n      pop\n      jump\t// out\n        /* \"#utility.yul\":8916:9887   */\n    tag_75:\n        /* \"#utility.yul\":9019:9025   */\n      0x00\n        /* \"#utility.yul\":9027:9033   */\n      dup1\n        /* \"#utility.yul\":9035:9041   */\n      0x00\n        /* \"#utility.yul\":9043:9049   */\n      dup1\n        /* \"#utility.yul\":9051:9057   */\n      0x00\n        /* \"#utility.yul\":9100:9103   */\n      0xa0\n        /* \"#utility.yul\":9088:9097   */\n      dup7\n        /* \"#utility.yul\":9079:9086   */\n      dup9\n        /* \"#utility.yul\":9075:9098   */\n      sub\n        /* \"#utility.yul\":9071:9104   */\n      slt\n        /* \"#utility.yul\":9068:9188   */\n      iszero\n      tag_229\n      jumpi\n        /* \"#utility.yul\":9107:9186   */\n      tag_230\n      tag_107\n      jump\t// in\n    tag_230:\n        /* \"#utility.yul\":9068:9188   */\n    tag_229:\n        /* \"#utility.yul\":9227:9228   */\n      0x00\n        /* \"#utility.yul\":9252:9315   */\n      tag_231\n        /* \"#utility.yul\":9307:9314   */\n      dup9\n        /* \"#utility.yul\":9298:9304   */\n      dup3\n        /* \"#utility.yul\":9287:9296   */\n      dup10\n        /* \"#utility.yul\":9283:9305   */\n      add\n        /* \"#utility.yul\":9252:9315   */\n      tag_133\n      jump\t// in\n    tag_231:\n        /* \"#utility.yul\":9242:9315   */\n      swap6\n      pop\n        /* \"#utility.yul\":9198:9325   */\n      pop\n        /* \"#utility.yul\":9364:9366   */\n      0x20\n        /* \"#utility.yul\":9390:9453   */\n      tag_232\n        /* \"#utility.yul\":9445:9452   */\n      dup9\n        /* \"#utility.yul\":9436:9442   */\n      dup3\n        /* \"#utility.yul\":9425:9434   */\n      dup10\n        /* \"#utility.yul\":9421:9443   */\n      add\n        /* \"#utility.yul\":9390:9453   */\n      tag_136\n      jump\t// in\n    tag_232:\n        /* \"#utility.yul\":9380:9453   */\n      swap5\n      pop\n        /* \"#utility.yul\":9335:9463   */\n      pop\n        /* \"#utility.yul\":9502:9504   */\n      0x40\n        /* \"#utility.yul\":9528:9592   */\n      tag_233\n        /* \"#utility.yul\":9584:9591   */\n      dup9\n        /* \"#utility.yul\":9575:9581   */\n      dup3\n        /* \"#utility.yul\":9564:9573   */\n      dup10\n        /* \"#utility.yul\":9560:9582   */\n      add\n        /* \"#utility.yul\":9528:9592   */\n      tag_122\n      jump\t// in\n    tag_233:\n        /* \"#utility.yul\":9518:9592   */\n      swap4\n      pop\n        /* \"#utility.yul\":9473:9602   */\n      pop\n        /* \"#utility.yul\":9641:9643   */\n      0x60\n        /* \"#utility.yul\":9667:9731   */\n      tag_234\n        /* \"#utility.yul\":9723:9730   */\n      dup9\n        /* \"#utility.yul\":9714:9720   */\n      dup3\n        /* \"#utility.yul\":9703:9712   */\n      dup10\n        /* \"#utility.yul\":9699:9721   */\n      add\n        /* \"#utility.yul\":9667:9731   */\n      tag_122\n      jump\t// in\n    tag_234:\n        /* \"#utility.yul\":9657:9731   */\n      swap3\n      pop\n        /* \"#utility.yul\":9612:9741   */\n      pop\n        /* \"#utility.yul\":9780:9783   */\n      0x80\n        /* \"#utility.yul\":9807:9870   */\n      tag_235\n        /* \"#utility.yul\":9862:9869   */\n      dup9\n        /* \"#utility.yul\":9853:9859   */\n      dup3\n        /* \"#utility.yul\":9842:9851   */\n      dup10\n        /* \"#utility.yul\":9838:9860   */\n      add\n        /* \"#utility.yul\":9807:9870   */\n      tag_133\n      jump\t// in\n    tag_235:\n        /* \"#utility.yul\":9797:9870   */\n      swap2\n      pop\n        /* \"#utility.yul\":9751:9880   */\n      pop\n        /* \"#utility.yul\":8916:9887   */\n      swap3\n      swap6\n      pop\n      swap3\n      swap6\n      swap1\n      swap4\n      pop\n      jump\t// out\n        /* \"#utility.yul\":9893:10073   */\n    tag_137:\n        /* \"#utility.yul\":9941:10018   */\n      0x4e487b7100000000000000000000000000000000000000000000000000000000\n        /* \"#utility.yul\":9938:9939   */\n      0x00\n        /* \"#utility.yul\":9931:10019   */\n      mstore\n        /* \"#utility.yul\":10038:10042   */\n      0x11\n        /* \"#utility.yul\":10035:10036   */\n      0x04\n        /* \"#utility.yul\":10028:10043   */\n      mstore\n        /* \"#utility.yul\":10062:10066   */\n      0x24\n        /* \"#utility.yul\":10059:10060   */\n      0x00\n        /* \"#utility.yul\":10052:10067   */\n      revert\n        /* \"#utility.yul\":10079:10635   */\n    tag_77:\n        /* \"#utility.yul\":10118:10125   */\n      0x00\n        /* \"#utility.yul\":10141:10160   */\n      tag_238\n        /* \"#utility.yul\":10158:10159   */\n      dup3\n        /* \"#utility.yul\":10141:10160   */\n      tag_134\n      jump\t// in\n    tag_238:\n        /* \"#utility.yul\":10136:10160   */\n      swap2\n      pop\n        /* \"#utility.yul\":10174:10193   */\n      tag_239\n        /* \"#utility.yul\":10191:10192   */\n      dup4\n        /* \"#utility.yul\":10174:10193   */\n      tag_134\n      jump\t// in\n    tag_239:\n        /* \"#utility.yul\":10169:10193   */\n      swap3\n      pop\n        /* \"#utility.yul\":10228:10229   */\n      dup3\n        /* \"#utility.yul\":10225:10226   */\n      dup3\n        /* \"#utility.yul\":10221:10230   */\n      mul\n        /* \"#utility.yul\":10250:10279   */\n      tag_240\n        /* \"#utility.yul\":10267:10278   */\n      dup2\n        /* \"#utility.yul\":10250:10279   */\n      tag_134\n      jump\t// in\n    tag_240:\n        /* \"#utility.yul\":10239:10279   */\n      swap2\n      pop\n        /* \"#utility.yul\":10337:10403   */\n      0x8000000000000000000000000000000000000000000000000000000000000000\n        /* \"#utility.yul\":10334:10335   */\n      dup5\n        /* \"#utility.yul\":10331:10404   */\n      eq\n        /* \"#utility.yul\":10327:10328   */\n      0x00\n        /* \"#utility.yul\":10324:10325   */\n      dup5\n        /* \"#utility.yul\":10320:10329   */\n      slt\n        /* \"#utility.yul\":10316:10405   */\n      and\n        /* \"#utility.yul\":10313:10428   */\n      iszero\n      tag_241\n      jumpi\n        /* \"#utility.yul\":10408:10426   */\n      tag_242\n      tag_137\n      jump\t// in\n    tag_242:\n        /* \"#utility.yul\":10313:10428   */\n    tag_241:\n        /* \"#utility.yul\":10578:10579   */\n      dup3\n        /* \"#utility.yul\":10569:10576   */\n      dup3\n        /* \"#utility.yul\":10564:10580   */\n      sdiv\n        /* \"#utility.yul\":10561:10562   */\n      dup5\n        /* \"#utility.yul\":10558:10581   */\n      eq\n        /* \"#utility.yul\":10538:10539   */\n      dup4\n        /* \"#utility.yul\":10531:10540   */\n      iszero\n        /* \"#utility.yul\":10511:10595   */\n      or\n        /* \"#utility.yul\":10488:10628   */\n      tag_243\n      jumpi\n        /* \"#utility.yul\":10608:10626   */\n      tag_244\n      tag_137\n      jump\t// in\n    tag_244:\n        /* \"#utility.yul\":10488:10628   */\n    tag_243:\n        /* \"#utility.yul\":10126:10635   */\n      pop\n        /* \"#utility.yul\":10079:10635   */\n      swap3\n      swap2\n      pop\n      pop\n      jump\t// out\n        /* \"#utility.yul\":10641:10818   */\n    tag_138:\n        /* \"#utility.yul\":10781:10810   */\n      0x596f75206e65656420746f2073656e64206d6f72652076616c75650000000000\n        /* \"#utility.yul\":10777:10778   */\n      0x00\n        /* \"#utility.yul\":10769:10775   */\n      dup3\n        /* \"#utility.yul\":10765:10779   */\n      add\n        /* \"#utility.yul\":10758:10811   */\n      mstore\n        /* \"#utility.yul\":10641:10818   */\n      pop\n      jump\t// out\n        /* \"#utility.yul\":10824:11190   */\n    tag_139:\n        /* \"#utility.yul\":10966:10969   */\n      0x00\n        /* \"#utility.yul\":10987:11054   */\n      tag_247\n        /* \"#utility.yul\":11051:11053   */\n      0x1b\n        /* \"#utility.yul\":11046:11049   */\n      dup4\n        /* \"#utility.yul\":10987:11054   */\n      tag_123\n      jump\t// in\n    tag_247:\n        /* \"#utility.yul\":10980:11054   */\n      swap2\n      pop\n        /* \"#utility.yul\":11063:11156   */\n      tag_248\n        /* \"#utility.yul\":11152:11155   */\n      dup3\n        /* \"#utility.yul\":11063:11156   */\n      tag_138\n      jump\t// in\n    tag_248:\n        /* \"#utility.yul\":11181:11183   */\n      0x20\n        /* \"#utility.yul\":11176:11179   */\n      dup3\n        /* \"#utility.yul\":11172:11184   */\n      add\n        /* \"#utility.yul\":11165:11184   */\n      swap1\n      pop\n        /* \"#utility.yul\":10824:11190   */\n      swap2\n      swap1\n      pop\n      jump\t// out\n        /* \"#utility.yul\":11196:11615   */\n    tag_83:\n        /* \"#utility.yul\":11362:11366   */\n      0x00\n        /* \"#utility.yul\":11400:11402   */\n      0x20\n        /* \"#utility.yul\":11389:11398   */\n      dup3\n        /* \"#utility.yul\":11385:11403   */\n      add\n        /* \"#utility.yul\":11377:11403   */\n      swap1\n      pop\n        /* \"#utility.yul\":11449:11458   */\n      dup2\n        /* \"#utility.yul\":11443:11447   */\n      dup2\n        /* \"#utility.yul\":11439:11459   */\n      sub\n        /* \"#utility.yul\":11435:11436   */\n      0x00\n        /* \"#utility.yul\":11424:11433   */\n      dup4\n        /* \"#utility.yul\":11420:11437   */\n      add\n        /* \"#utility.yul\":11413:11460   */\n      mstore\n        /* \"#utility.yul\":11477:11608   */\n      tag_250\n        /* \"#utility.yul\":11603:11607   */\n      dup2\n        /* \"#utility.yul\":11477:11608   */\n      tag_139\n      jump\t// in\n    tag_250:\n        /* \"#utility.yul\":11469:11608   */\n      swap1\n      pop\n        /* \"#utility.yul\":11196:11615   */\n      swap2\n      swap1\n      pop\n      jump\t// out\n        /* \"#utility.yul\":11621:11812   */\n    tag_87:\n        /* \"#utility.yul\":11661:11664   */\n      0x00\n        /* \"#utility.yul\":11680:11700   */\n      tag_252\n        /* \"#utility.yul\":11698:11699   */\n      dup3\n        /* \"#utility.yul\":11680:11700   */\n      tag_104\n      jump\t// in\n    tag_252:\n        /* \"#utility.yul\":11675:11700   */\n      swap2\n      pop\n        /* \"#utility.yul\":11714:11734   */\n      tag_253\n        /* \"#utility.yul\":11732:11733   */\n      dup4\n        /* \"#utility.yul\":11714:11734   */\n      tag_104\n      jump\t// in\n    tag_253:\n        /* \"#utility.yul\":11709:11734   */\n      swap3\n      pop\n        /* \"#utility.yul\":11757:11758   */\n      dup3\n        /* \"#utility.yul\":11754:11755   */\n      dup3\n        /* \"#utility.yul\":11750:11759   */\n      add\n        /* \"#utility.yul\":11743:11759   */\n      swap1\n      pop\n        /* \"#utility.yul\":11778:11781   */\n      dup1\n        /* \"#utility.yul\":11775:11776   */\n      dup3\n        /* \"#utility.yul\":11772:11782   */\n      gt\n        /* \"#utility.yul\":11769:11805   */\n      iszero\n      tag_254\n      jumpi\n        /* \"#utility.yul\":11785:11803   */\n      tag_255\n      tag_137\n      jump\t// in\n    tag_255:\n        /* \"#utility.yul\":11769:11805   */\n    tag_254:\n        /* \"#utility.yul\":11621:11812   */\n      swap3\n      swap2\n      pop\n      pop\n      jump\t// out\n        /* \"#utility.yul\":11818:12228   */\n    tag_94:\n        /* \"#utility.yul\":11858:11865   */\n      0x00\n        /* \"#utility.yul\":11881:11901   */\n      tag_257\n        /* \"#utility.yul\":11899:11900   */\n      dup3\n        /* \"#utility.yul\":11881:11901   */\n      tag_104\n      jump\t// in\n    tag_257:\n        /* \"#utility.yul\":11876:11901   */\n      swap2\n      pop\n        /* \"#utility.yul\":11915:11935   */\n      tag_258\n        /* \"#utility.yul\":11933:11934   */\n      dup4\n        /* \"#utility.yul\":11915:11935   */\n      tag_104\n      jump\t// in\n    tag_258:\n        /* \"#utility.yul\":11910:11935   */\n      swap3\n      pop\n        /* \"#utility.yul\":11970:11971   */\n      dup3\n        /* \"#utility.yul\":11967:11968   */\n      dup3\n        /* \"#utility.yul\":11963:11972   */\n      mul\n        /* \"#utility.yul\":11992:12022   */\n      tag_259\n        /* \"#utility.yul\":12010:12021   */\n      dup2\n        /* \"#utility.yul\":11992:12022   */\n      tag_104\n      jump\t// in\n    tag_259:\n        /* \"#utility.yul\":11981:12022   */\n      swap2\n      pop\n        /* \"#utility.yul\":12171:12172   */\n      dup3\n        /* \"#utility.yul\":12162:12169   */\n      dup3\n        /* \"#utility.yul\":12158:12173   */\n      div\n        /* \"#utility.yul\":12155:12156   */\n      dup5\n        /* \"#utility.yul\":12152:12174   */\n      eq\n        /* \"#utility.yul\":12132:12133   */\n      dup4\n        /* \"#utility.yul\":12125:12134   */\n      iszero\n        /* \"#utility.yul\":12105:12188   */\n      or\n        /* \"#utility.yul\":12082:12221   */\n      tag_260\n      jumpi\n        /* \"#utility.yul\":12201:12219   */\n      tag_261\n      tag_137\n      jump\t// in\n    tag_261:\n        /* \"#utility.yul\":12082:12221   */\n    tag_260:\n        /* \"#utility.yul\":11866:12228   */\n      pop\n        /* \"#utility.yul\":11818:12228   */\n      swap3\n      swap2\n      pop\n      pop\n      jump\t// out\n        /* \"#utility.yul\":12234:12414   */\n    tag_140:\n        /* \"#utility.yul\":12282:12359   */\n      0x4e487b7100000000000000000000000000000000000000000000000000000000\n        /* \"#utility.yul\":12279:12280   */\n      0x00\n        /* \"#utility.yul\":12272:12360   */\n      mstore\n        /* \"#utility.yul\":12379:12383   */\n      0x12\n        /* \"#utility.yul\":12376:12377   */\n      0x04\n        /* \"#utility.yul\":12369:12384   */\n      mstore\n        /* \"#utility.yul\":12403:12407   */\n      0x24\n        /* \"#utility.yul\":12400:12401   */\n      0x00\n        /* \"#utility.yul\":12393:12408   */\n      revert\n        /* \"#utility.yul\":12420:12605   */\n    tag_96:\n        /* \"#utility.yul\":12460:12461   */\n      0x00\n        /* \"#utility.yul\":12477:12497   */\n      tag_264\n        /* \"#utility.yul\":12495:12496   */\n      dup3\n        /* \"#utility.yul\":12477:12497   */\n      tag_104\n      jump\t// in\n    tag_264:\n        /* \"#utility.yul\":12472:12497   */\n      swap2\n      pop\n        /* \"#utility.yul\":12511:12531   */\n      tag_265\n        /* \"#utility.yul\":12529:12530   */\n      dup4\n        /* \"#utility.yul\":12511:12531   */\n      tag_104\n      jump\t// in\n    tag_265:\n        /* \"#utility.yul\":12506:12531   */\n      swap3\n      pop\n        /* \"#utility.yul\":12550:12551   */\n      dup3\n        /* \"#utility.yul\":12540:12575   */\n      tag_266\n      jumpi\n        /* \"#utility.yul\":12555:12573   */\n      tag_267\n      tag_140\n      jump\t// in\n    tag_267:\n        /* \"#utility.yul\":12540:12575   */\n    tag_266:\n        /* \"#utility.yul\":12597:12598   */\n      dup3\n        /* \"#utility.yul\":12594:12595   */\n      dup3\n        /* \"#utility.yul\":12590:12599   */\n      div\n        /* \"#utility.yul\":12585:12599   */\n      swap1\n      pop\n        /* \"#utility.yul\":12420:12605   */\n      swap3\n      swap2\n      pop\n      pop\n      jump\t// out\n\n    auxdata: 0xa2646970667358221220ef9d3187c70a9d1e0e68fcf1dbc26fb3275cb9c20d5e70a980085a0e6a748b5c64736f6c634300081a0033\n}\n",
				"bytecode": {
					"linkReferences": {},
					"object": "6080604052671bc16d674ec800005f553480156019575f80fd5b503360045f6101000a81548173ffffffffffffffffffffffffffffffffffffffff021916908373ffffffffffffffffffffffffffffffffffffffff16021790555073694aa1769357215de4fac081bf1f309adc32530660055f6101000a81548173ffffffffffffffffffffffffffffffffffffffff021916908373ffffffffffffffffffffffffffffffffffffffff160217905550610f08806100bb5f395ff3fe60806040526004361061006f575f3560e01c80638da5cb5b1161004d5780638da5cb5b146100ef57806398d5fdca14610119578063b60d428814610143578063ea63a0441461014d5761006f565b80630d8e6e2c146100735780633ccfd60b1461009d5780633e47d6f3146100b3575b5f80fd5b34801561007e575f80fd5b50610087610177565b604051610094919061089c565b60405180910390f35b3480156100a8575f80fd5b506100b161020b565b005b3480156100be575f80fd5b506100d960048036038101906100d49190610913565b610493565b6040516100e6919061089c565b60405180910390f35b3480156100fa575f80fd5b506101036104a8565b604051610110919061094d565b60405180910390f35b348015610124575f80fd5b5061012d6104cd565b60405161013a919061089c565b60405180910390f35b61014b61057a565b005b348015610158575f80fd5b5061016161071f565b60405161016e9190610a1d565b60405180910390f35b5f60055f9054906101000a900473ffffffffffffffffffffffffffffffffffffffff1673ffffffffffffffffffffffffffffffffffffffff166354fd4d506040518163ffffffff1660e01b8152600401602060405180830381865afa1580156101e2573d5f803e3d5ffd5b505050506040513d601f19601f820116820180604052508101906102069190610a67565b905090565b60045f9054906101000a900473ffffffffffffffffffffffffffffffffffffffff1673ffffffffffffffffffffffffffffffffffffffff163373ffffffffffffffffffffffffffffffffffffffff161461029a576040517f08c379a000000000000000000000000000000000000000000000000000000000815260040161029190610aec565b60405180910390fd5b5f5b600180549050811015610388575f600182815481106102be576102bd610b0a565b5b905f5260205f20015f9054906101000a900473ffffffffffffffffffffffffffffffffffffffff16905060035f8273ffffffffffffffffffffffffffffffffffffffff1673ffffffffffffffffffffffffffffffffffffffff1681526020019081526020015f205f9054906101000a900460ff161561037a575f60025f8373ffffffffffffffffffffffffffffffffffffffff1673ffffffffffffffffffffffffffffffffffffffff1681526020019081526020015f20819055505b50808060010191505061029c565b505f67ffffffffffffffff8111156103a3576103a2610b37565b5b6040519080825280602002602001820160405280156103d15781602001602082028036833780820191505090505b50600190805190602001906103e79291906107e2565b505f3373ffffffffffffffffffffffffffffffffffffffff164760405161040d90610b91565b5f6040518083038185875af1925050503d805f8114610447576040519150601f19603f3d011682016040523d82523d5f602084013e61044c565b606091505b5050905080610490576040517f08c379a000000000000000000000000000000000000000000000000000000000815260040161048790610bef565b60405180910390fd5b50565b6002602052805f5260405f205f915090505481565b60045f9054906101000a900473ffffffffffffffffffffffffffffffffffffffff1681565b5f8060055f9054906101000a900473ffffffffffffffffffffffffffffffffffffffff1673ffffffffffffffffffffffffffffffffffffffff1663feaf968c6040518163ffffffff1660e01b815260040160a060405180830381865afa158015610539573d5f803e3d5ffd5b505050506040513d601f19601f8201168201806040525081019061055d9190610c7f565b5050509150506402540be400816105749190610d23565b91505090565b5f54610585346107aa565b10156105c6576040517f08c379a00000000000000000000000000000000000000000000000000000000081526004016105bd90610de3565b60405180910390fd5b60035f3373ffffffffffffffffffffffffffffffffffffffff1673ffffffffffffffffffffffffffffffffffffffff1681526020019081526020015f205f9054906101000a900460ff166106ca57600133908060018154018082558091505060019003905f5260205f20015f9091909190916101000a81548173ffffffffffffffffffffffffffffffffffffffff021916908373ffffffffffffffffffffffffffffffffffffffff160217905550600160035f3373ffffffffffffffffffffffffffffffffffffffff1673ffffffffffffffffffffffffffffffffffffffff1681526020019081526020015f205f6101000a81548160ff0219169083151502179055505b3460025f3373ffffffffffffffffffffffffffffffffffffffff1673ffffffffffffffffffffffffffffffffffffffff1681526020019081526020015f205f8282546107169190610e01565b92505081905550565b606060018054806020026020016040519081016040528092919081815260200182805480156107a057602002820191905f5260205f20905b815f9054906101000a900473ffffffffffffffffffffffffffffffffffffffff1673ffffffffffffffffffffffffffffffffffffffff1681526020019060010190808311610757575b5050505050905090565b5f806107b46104cd565b90505f670de0b6b3a764000084836107cc9190610e34565b6107d69190610ea2565b90508092505050919050565b828054828255905f5260205f20908101928215610858579160200282015b82811115610857578251825f6101000a81548173ffffffffffffffffffffffffffffffffffffffff021916908373ffffffffffffffffffffffffffffffffffffffff16021790555091602001919060010190610800565b5b5090506108659190610869565b5090565b5b80821115610880575f815f90555060010161086a565b5090565b5f819050919050565b61089681610884565b82525050565b5f6020820190506108af5f83018461088d565b92915050565b5f80fd5b5f73ffffffffffffffffffffffffffffffffffffffff82169050919050565b5f6108e2826108b9565b9050919050565b6108f2816108d8565b81146108fc575f80fd5b50565b5f8135905061090d816108e9565b92915050565b5f60208284031215610928576109276108b5565b5b5f610935848285016108ff565b91505092915050565b610947816108d8565b82525050565b5f6020820190506109605f83018461093e565b92915050565b5f81519050919050565b5f82825260208201905092915050565b5f819050602082019050919050565b610998816108d8565b82525050565b5f6109a9838361098f565b60208301905092915050565b5f602082019050919050565b5f6109cb82610966565b6109d58185610970565b93506109e083610980565b805f5b83811015610a105781516109f7888261099e565b9750610a02836109b5565b9250506001810190506109e3565b5085935050505092915050565b5f6020820190508181035f830152610a3581846109c1565b905092915050565b610a4681610884565b8114610a50575f80fd5b50565b5f81519050610a6181610a3d565b92915050565b5f60208284031215610a7c57610a7b6108b5565b5b5f610a8984828501610a53565b91505092915050565b5f82825260208201905092915050565b7f596f7520617265206e6f7420746865206f776e657221000000000000000000005f82015250565b5f610ad6601683610a92565b9150610ae182610aa2565b602082019050919050565b5f6020820190508181035f830152610b0381610aca565b9050919050565b7f4e487b71000000000000000000000000000000000000000000000000000000005f52603260045260245ffd5b7f4e487b71000000000000000000000000000000000000000000000000000000005f52604160045260245ffd5b5f81905092915050565b50565b5f610b7c5f83610b64565b9150610b8782610b6e565b5f82019050919050565b5f610b9b82610b71565b9150819050919050565b7f6661696c656420746f20776974686472617720796f75722066756e64732100005f82015250565b5f610bd9601e83610a92565b9150610be482610ba5565b602082019050919050565b5f6020820190508181035f830152610c0681610bcd565b9050919050565b5f69ffffffffffffffffffff82169050919050565b610c2b81610c0d565b8114610c35575f80fd5b50565b5f81519050610c4681610c22565b92915050565b5f819050919050565b610c5e81610c4c565b8114610c68575f80fd5b50565b5f81519050610c7981610c55565b92915050565b5f805f805f60a08688031215610c9857610c976108b5565b5b5f610ca588828901610c38565b9550506020610cb688828901610c6b565b9450506040610cc788828901610a53565b9350506060610cd888828901610a53565b9250506080610ce988828901610c38565b9150509295509295909350565b7f4e487b71000000000000000000000000000000000000000000000000000000005f52601160045260245ffd5b5f610d2d82610c4c565b9150610d3883610c4c565b9250828202610d4681610c4c565b91507f800000000000000000000000000000000000000000000000000000000000000084145f84121615610d7d57610d7c610cf6565b5b8282058414831517610d9257610d91610cf6565b5b5092915050565b7f596f75206e65656420746f2073656e64206d6f72652076616c756500000000005f82015250565b5f610dcd601b83610a92565b9150610dd882610d99565b602082019050919050565b5f6020820190508181035f830152610dfa81610dc1565b9050919050565b5f610e0b82610884565b9150610e1683610884565b9250828201905080821115610e2e57610e2d610cf6565b5b92915050565b5f610e3e82610884565b9150610e4983610884565b9250828202610e5781610884565b91508282048414831517610e6e57610e6d610cf6565b5b5092915050565b7f4e487b71000000000000000000000000000000000000000000000000000000005f52601260045260245ffd5b5f610eac82610884565b9150610eb783610884565b925082610ec757610ec6610e75565b5b82820490509291505056fea2646970667358221220ef9d3187c70a9d1e0e68fcf1dbc26fb3275cb9c20d5e70a980085a0e6a748b5c64736f6c634300081a0033",
					"opcodes": "PUSH1 0x80 PUSH1 0x40 MSTORE PUSH8 0x1BC16D674EC80000 PUSH0 SSTORE CALLVALUE DUP1 ISZERO PUSH1 0x19 JUMPI PUSH0 DUP1 REVERT JUMPDEST POP CALLER PUSH1 0x4 PUSH0 PUSH2 0x100 EXP DUP2 SLOAD DUP2 PUSH20 0xFFFFFFFFFFFFFFFFFFFFFFFFFFFFFFFFFFFFFFFF MUL NOT AND SWAP1 DUP4 PUSH20 0xFFFFFFFFFFFFFFFFFFFFFFFFFFFFFFFFFFFFFFFF AND MUL OR SWAP1 SSTORE POP PUSH20 0x694AA1769357215DE4FAC081BF1F309ADC325306 PUSH1 0x5 PUSH0 PUSH2 0x100 EXP DUP2 SLOAD DUP2 PUSH20 0xFFFFFFFFFFFFFFFFFFFFFFFFFFFFFFFFFFFFFFFF MUL NOT AND SWAP1 DUP4 PUSH20 0xFFFFFFFFFFFFFFFFFFFFFFFFFFFFFFFFFFFFFFFF AND MUL OR SWAP1 SSTORE POP PUSH2 0xF08 DUP1 PUSH2 0xBB PUSH0 CODECOPY PUSH0 RETURN INVALID PUSH1 0x80 PUSH1 0x40 MSTORE PUSH1 0x4 CALLDATASIZE LT PUSH2 0x6F JUMPI PUSH0 CALLDATALOAD PUSH1 0xE0 SHR DUP1 PUSH4 0x8DA5CB5B GT PUSH2 0x4D JUMPI DUP1 PUSH4 0x8DA5CB5B EQ PUSH2 0xEF JUMPI DUP1 PUSH4 0x98D5FDCA EQ PUSH2 0x119 JUMPI DUP1 PUSH4 0xB60D4288 EQ PUSH2 0x143 JUMPI DUP1 PUSH4 0xEA63A044 EQ PUSH2 0x14D JUMPI PUSH2 0x6F JUMP JUMPDEST DUP1 PUSH4 0xD8E6E2C EQ PUSH2 0x73 JUMPI DUP1 PUSH4 0x3CCFD60B EQ PUSH2 0x9D JUMPI DUP1 PUSH4 0x3E47D6F3 EQ PUSH2 0xB3 JUMPI JUMPDEST PUSH0 DUP1 REVERT JUMPDEST CALLVALUE DUP1 ISZERO PUSH2 0x7E JUMPI PUSH0 DUP1 REVERT JUMPDEST POP PUSH2 0x87 PUSH2 0x177 JUMP JUMPDEST PUSH1 0x40 MLOAD PUSH2 0x94 SWAP2 SWAP1 PUSH2 0x89C JUMP JUMPDEST PUSH1 0x40 MLOAD DUP1 SWAP2 SUB SWAP1 RETURN JUMPDEST CALLVALUE DUP1 ISZERO PUSH2 0xA8 JUMPI PUSH0 DUP1 REVERT JUMPDEST POP PUSH2 0xB1 PUSH2 0x20B JUMP JUMPDEST STOP JUMPDEST CALLVALUE DUP1 ISZERO PUSH2 0xBE JUMPI PUSH0 DUP1 REVERT JUMPDEST POP PUSH2 0xD9 PUSH1 0x4 DUP1 CALLDATASIZE SUB DUP2 ADD SWAP1 PUSH2 0xD4 SWAP2 SWAP1 PUSH2 0x913 JUMP JUMPDEST PUSH2 0x493 JUMP JUMPDEST PUSH1 0x40 MLOAD PUSH2 0xE6 SWAP2 SWAP1 PUSH2 0x89C JUMP JUMPDEST PUSH1 0x40 MLOAD DUP1 SWAP2 SUB SWAP1 RETURN JUMPDEST CALLVALUE DUP1 ISZERO PUSH2 0xFA JUMPI PUSH0 DUP1 REVERT JUMPDEST POP PUSH2 0x103 PUSH2 0x4A8 JUMP JUMPDEST PUSH1 0x40 MLOAD PUSH2 0x110 SWAP2 SWAP1 PUSH2 0x94D JUMP JUMPDEST PUSH1 0x40 MLOAD DUP1 SWAP2 SUB SWAP1 RETURN JUMPDEST CALLVALUE DUP1 ISZERO PUSH2 0x124 JUMPI PUSH0 DUP1 REVERT JUMPDEST POP PUSH2 0x12D PUSH2 0x4CD JUMP JUMPDEST PUSH1 0x40 MLOAD PUSH2 0x13A SWAP2 SWAP1 PUSH2 0x89C JUMP JUMPDEST PUSH1 0x40 MLOAD DUP1 SWAP2 SUB SWAP1 RETURN JUMPDEST PUSH2 0x14B PUSH2 0x57A JUMP JUMPDEST STOP JUMPDEST CALLVALUE DUP1 ISZERO PUSH2 0x158 JUMPI PUSH0 DUP1 REVERT JUMPDEST POP PUSH2 0x161 PUSH2 0x71F JUMP JUMPDEST PUSH1 0x40 MLOAD PUSH2 0x16E SWAP2 SWAP1 PUSH2 0xA1D JUMP JUMPDEST PUSH1 0x40 MLOAD DUP1 SWAP2 SUB SWAP1 RETURN JUMPDEST PUSH0 PUSH1 0x5 PUSH0 SWAP1 SLOAD SWAP1 PUSH2 0x100 EXP SWAP1 DIV PUSH20 0xFFFFFFFFFFFFFFFFFFFFFFFFFFFFFFFFFFFFFFFF AND PUSH20 0xFFFFFFFFFFFFFFFFFFFFFFFFFFFFFFFFFFFFFFFF AND PUSH4 0x54FD4D50 PUSH1 0x40 MLOAD DUP2 PUSH4 0xFFFFFFFF AND PUSH1 0xE0 SHL DUP2 MSTORE PUSH1 0x4 ADD PUSH1 0x20 PUSH1 0x40 MLOAD DUP1 DUP4 SUB DUP2 DUP7 GAS STATICCALL ISZERO DUP1 ISZERO PUSH2 0x1E2 JUMPI RETURNDATASIZE PUSH0 DUP1 RETURNDATACOPY RETURNDATASIZE PUSH0 REVERT JUMPDEST POP POP POP POP PUSH1 0x40 MLOAD RETURNDATASIZE PUSH1 0x1F NOT PUSH1 0x1F DUP3 ADD AND DUP3 ADD DUP1 PUSH1 0x40 MSTORE POP DUP2 ADD SWAP1 PUSH2 0x206 SWAP2 SWAP1 PUSH2 0xA67 JUMP JUMPDEST SWAP1 POP SWAP1 JUMP JUMPDEST PUSH1 0x4 PUSH0 SWAP1 SLOAD SWAP1 PUSH2 0x100 EXP SWAP1 DIV PUSH20 0xFFFFFFFFFFFFFFFFFFFFFFFFFFFFFFFFFFFFFFFF AND PUSH20 0xFFFFFFFFFFFFFFFFFFFFFFFFFFFFFFFFFFFFFFFF AND CALLER PUSH20 0xFFFFFFFFFFFFFFFFFFFFFFFFFFFFFFFFFFFFFFFF AND EQ PUSH2 0x29A JUMPI PUSH1 0x40 MLOAD PUSH32 0x8C379A000000000000000000000000000000000000000000000000000000000 DUP2 MSTORE PUSH1 0x4 ADD PUSH2 0x291 SWAP1 PUSH2 0xAEC JUMP JUMPDEST PUSH1 0x40 MLOAD DUP1 SWAP2 SUB SWAP1 REVERT JUMPDEST PUSH0 JUMPDEST PUSH1 0x1 DUP1 SLOAD SWAP1 POP DUP2 LT ISZERO PUSH2 0x388 JUMPI PUSH0 PUSH1 0x1 DUP3 DUP2 SLOAD DUP2 LT PUSH2 0x2BE JUMPI PUSH2 0x2BD PUSH2 0xB0A JUMP JUMPDEST JUMPDEST SWAP1 PUSH0 MSTORE PUSH1 0x20 PUSH0 KECCAK256 ADD PUSH0 SWAP1 SLOAD SWAP1 PUSH2 0x100 EXP SWAP1 DIV PUSH20 0xFFFFFFFFFFFFFFFFFFFFFFFFFFFFFFFFFFFFFFFF AND SWAP1 POP PUSH1 0x3 PUSH0 DUP3 PUSH20 0xFFFFFFFFFFFFFFFFFFFFFFFFFFFFFFFFFFFFFFFF AND PUSH20 0xFFFFFFFFFFFFFFFFFFFFFFFFFFFFFFFFFFFFFFFF AND DUP2 MSTORE PUSH1 0x20 ADD SWAP1 DUP2 MSTORE PUSH1 0x20 ADD PUSH0 KECCAK256 PUSH0 SWAP1 SLOAD SWAP1 PUSH2 0x100 EXP SWAP1 DIV PUSH1 0xFF AND ISZERO PUSH2 0x37A JUMPI PUSH0 PUSH1 0x2 PUSH0 DUP4 PUSH20 0xFFFFFFFFFFFFFFFFFFFFFFFFFFFFFFFFFFFFFFFF AND PUSH20 0xFFFFFFFFFFFFFFFFFFFFFFFFFFFFFFFFFFFFFFFF AND DUP2 MSTORE PUSH1 0x20 ADD SWAP1 DUP2 MSTORE PUSH1 0x20 ADD PUSH0 KECCAK256 DUP2 SWAP1 SSTORE POP JUMPDEST POP DUP1 DUP1 PUSH1 0x1 ADD SWAP2 POP POP PUSH2 0x29C JUMP JUMPDEST POP PUSH0 PUSH8 0xFFFFFFFFFFFFFFFF DUP2 GT ISZERO PUSH2 0x3A3 JUMPI PUSH2 0x3A2 PUSH2 0xB37 JUMP JUMPDEST JUMPDEST PUSH1 0x40 MLOAD SWAP1 DUP1 DUP3 MSTORE DUP1 PUSH1 0x20 MUL PUSH1 0x20 ADD DUP3 ADD PUSH1 0x40 MSTORE DUP1 ISZERO PUSH2 0x3D1 JUMPI DUP2 PUSH1 0x20 ADD PUSH1 0x20 DUP3 MUL DUP1 CALLDATASIZE DUP4 CALLDATACOPY DUP1 DUP3 ADD SWAP2 POP POP SWAP1 POP JUMPDEST POP PUSH1 0x1 SWAP1 DUP1 MLOAD SWAP1 PUSH1 0x20 ADD SWAP1 PUSH2 0x3E7 SWAP3 SWAP2 SWAP1 PUSH2 0x7E2 JUMP JUMPDEST POP PUSH0 CALLER PUSH20 0xFFFFFFFFFFFFFFFFFFFFFFFFFFFFFFFFFFFFFFFF AND SELFBALANCE PUSH1 0x40 MLOAD PUSH2 0x40D SWAP1 PUSH2 0xB91 JUMP JUMPDEST PUSH0 PUSH1 0x40 MLOAD DUP1 DUP4 SUB DUP2 DUP6 DUP8 GAS CALL SWAP3 POP POP POP RETURNDATASIZE DUP1 PUSH0 DUP2 EQ PUSH2 0x447 JUMPI PUSH1 0x40 MLOAD SWAP2 POP PUSH1 0x1F NOT PUSH1 0x3F RETURNDATASIZE ADD AND DUP3 ADD PUSH1 0x40 MSTORE RETURNDATASIZE DUP3 MSTORE RETURNDATASIZE PUSH0 PUSH1 0x20 DUP5 ADD RETURNDATACOPY PUSH2 0x44C JUMP JUMPDEST PUSH1 0x60 SWAP2 POP JUMPDEST POP POP SWAP1 POP DUP1 PUSH2 0x490 JUMPI PUSH1 0x40 MLOAD PUSH32 0x8C379A000000000000000000000000000000000000000000000000000000000 DUP2 MSTORE PUSH1 0x4 ADD PUSH2 0x487 SWAP1 PUSH2 0xBEF JUMP JUMPDEST PUSH1 0x40 MLOAD DUP1 SWAP2 SUB SWAP1 REVERT JUMPDEST POP JUMP JUMPDEST PUSH1 0x2 PUSH1 0x20 MSTORE DUP1 PUSH0 MSTORE PUSH1 0x40 PUSH0 KECCAK256 PUSH0 SWAP2 POP SWAP1 POP SLOAD DUP2 JUMP JUMPDEST PUSH1 0x4 PUSH0 SWAP1 SLOAD SWAP1 PUSH2 0x100 EXP SWAP1 DIV PUSH20 0xFFFFFFFFFFFFFFFFFFFFFFFFFFFFFFFFFFFFFFFF AND DUP2 JUMP JUMPDEST PUSH0 DUP1 PUSH1 0x5 PUSH0 SWAP1 SLOAD SWAP1 PUSH2 0x100 EXP SWAP1 DIV PUSH20 0xFFFFFFFFFFFFFFFFFFFFFFFFFFFFFFFFFFFFFFFF AND PUSH20 0xFFFFFFFFFFFFFFFFFFFFFFFFFFFFFFFFFFFFFFFF AND PUSH4 0xFEAF968C PUSH1 0x40 MLOAD DUP2 PUSH4 0xFFFFFFFF AND PUSH1 0xE0 SHL DUP2 MSTORE PUSH1 0x4 ADD PUSH1 0xA0 PUSH1 0x40 MLOAD DUP1 DUP4 SUB DUP2 DUP7 GAS STATICCALL ISZERO DUP1 ISZERO PUSH2 0x539 JUMPI RETURNDATASIZE PUSH0 DUP1 RETURNDATACOPY RETURNDATASIZE PUSH0 REVERT JUMPDEST POP POP POP POP PUSH1 0x40 MLOAD RETURNDATASIZE PUSH1 0x1F NOT PUSH1 0x1F DUP3 ADD AND DUP3 ADD DUP1 PUSH1 0x40 MSTORE POP DUP2 ADD SWAP1 PUSH2 0x55D SWAP2 SWAP1 PUSH2 0xC7F JUMP JUMPDEST POP POP POP SWAP2 POP POP PUSH5 0x2540BE400 DUP2 PUSH2 0x574 SWAP2 SWAP1 PUSH2 0xD23 JUMP JUMPDEST SWAP2 POP POP SWAP1 JUMP JUMPDEST PUSH0 SLOAD PUSH2 0x585 CALLVALUE PUSH2 0x7AA JUMP JUMPDEST LT ISZERO PUSH2 0x5C6 JUMPI PUSH1 0x40 MLOAD PUSH32 0x8C379A000000000000000000000000000000000000000000000000000000000 DUP2 MSTORE PUSH1 0x4 ADD PUSH2 0x5BD SWAP1 PUSH2 0xDE3 JUMP JUMPDEST PUSH1 0x40 MLOAD DUP1 SWAP2 SUB SWAP1 REVERT JUMPDEST PUSH1 0x3 PUSH0 CALLER PUSH20 0xFFFFFFFFFFFFFFFFFFFFFFFFFFFFFFFFFFFFFFFF AND PUSH20 0xFFFFFFFFFFFFFFFFFFFFFFFFFFFFFFFFFFFFFFFF AND DUP2 MSTORE PUSH1 0x20 ADD SWAP1 DUP2 MSTORE PUSH1 0x20 ADD PUSH0 KECCAK256 PUSH0 SWAP1 SLOAD SWAP1 PUSH2 0x100 EXP SWAP1 DIV PUSH1 0xFF AND PUSH2 0x6CA JUMPI PUSH1 0x1 CALLER SWAP1 DUP1 PUSH1 0x1 DUP2 SLOAD ADD DUP1 DUP3 SSTORE DUP1 SWAP2 POP POP PUSH1 0x1 SWAP1 SUB SWAP1 PUSH0 MSTORE PUSH1 0x20 PUSH0 KECCAK256 ADD PUSH0 SWAP1 SWAP2 SWAP1 SWAP2 SWAP1 SWAP2 PUSH2 0x100 EXP DUP2 SLOAD DUP2 PUSH20 0xFFFFFFFFFFFFFFFFFFFFFFFFFFFFFFFFFFFFFFFF MUL NOT AND SWAP1 DUP4 PUSH20 0xFFFFFFFFFFFFFFFFFFFFFFFFFFFFFFFFFFFFFFFF AND MUL OR SWAP1 SSTORE POP PUSH1 0x1 PUSH1 0x3 PUSH0 CALLER PUSH20 0xFFFFFFFFFFFFFFFFFFFFFFFFFFFFFFFFFFFFFFFF AND PUSH20 0xFFFFFFFFFFFFFFFFFFFFFFFFFFFFFFFFFFFFFFFF AND DUP2 MSTORE PUSH1 0x20 ADD SWAP1 DUP2 MSTORE PUSH1 0x20 ADD PUSH0 KECCAK256 PUSH0 PUSH2 0x100 EXP DUP2 SLOAD DUP2 PUSH1 0xFF MUL NOT AND SWAP1 DUP4 ISZERO ISZERO MUL OR SWAP1 SSTORE POP JUMPDEST CALLVALUE PUSH1 0x2 PUSH0 CALLER PUSH20 0xFFFFFFFFFFFFFFFFFFFFFFFFFFFFFFFFFFFFFFFF AND PUSH20 0xFFFFFFFFFFFFFFFFFFFFFFFFFFFFFFFFFFFFFFFF AND DUP2 MSTORE PUSH1 0x20 ADD SWAP1 DUP2 MSTORE PUSH1 0x20 ADD PUSH0 KECCAK256 PUSH0 DUP3 DUP3 SLOAD PUSH2 0x716 SWAP2 SWAP1 PUSH2 0xE01 JUMP JUMPDEST SWAP3 POP POP DUP2 SWAP1 SSTORE POP JUMP JUMPDEST PUSH1 0x60 PUSH1 0x1 DUP1 SLOAD DUP1 PUSH1 0x20 MUL PUSH1 0x20 ADD PUSH1 0x40 MLOAD SWAP1 DUP2 ADD PUSH1 0x40 MSTORE DUP1 SWAP3 SWAP2 SWAP1 DUP2 DUP2 MSTORE PUSH1 0x20 ADD DUP3 DUP1 SLOAD DUP1 ISZERO PUSH2 0x7A0 JUMPI PUSH1 0x20 MUL DUP3 ADD SWAP2 SWAP1 PUSH0 MSTORE PUSH1 0x20 PUSH0 KECCAK256 SWAP1 JUMPDEST DUP2 PUSH0 SWAP1 SLOAD SWAP1 PUSH2 0x100 EXP SWAP1 DIV PUSH20 0xFFFFFFFFFFFFFFFFFFFFFFFFFFFFFFFFFFFFFFFF AND PUSH20 0xFFFFFFFFFFFFFFFFFFFFFFFFFFFFFFFFFFFFFFFF AND DUP2 MSTORE PUSH1 0x20 ADD SWAP1 PUSH1 0x1 ADD SWAP1 DUP1 DUP4 GT PUSH2 0x757 JUMPI JUMPDEST POP POP POP POP POP SWAP1 POP SWAP1 JUMP JUMPDEST PUSH0 DUP1 PUSH2 0x7B4 PUSH2 0x4CD JUMP JUMPDEST SWAP1 POP PUSH0 PUSH8 0xDE0B6B3A7640000 DUP5 DUP4 PUSH2 0x7CC SWAP2 SWAP1 PUSH2 0xE34 JUMP JUMPDEST PUSH2 0x7D6 SWAP2 SWAP1 PUSH2 0xEA2 JUMP JUMPDEST SWAP1 POP DUP1 SWAP3 POP POP POP SWAP2 SWAP1 POP JUMP JUMPDEST DUP3 DUP1 SLOAD DUP3 DUP3 SSTORE SWAP1 PUSH0 MSTORE PUSH1 0x20 PUSH0 KECCAK256 SWAP1 DUP2 ADD SWAP3 DUP3 ISZERO PUSH2 0x858 JUMPI SWAP2 PUSH1 0x20 MUL DUP3 ADD JUMPDEST DUP3 DUP2 GT ISZERO PUSH2 0x857 JUMPI DUP3 MLOAD DUP3 PUSH0 PUSH2 0x100 EXP DUP2 SLOAD DUP2 PUSH20 0xFFFFFFFFFFFFFFFFFFFFFFFFFFFFFFFFFFFFFFFF MUL NOT AND SWAP1 DUP4 PUSH20 0xFFFFFFFFFFFFFFFFFFFFFFFFFFFFFFFFFFFFFFFF AND MUL OR SWAP1 SSTORE POP SWAP2 PUSH1 0x20 ADD SWAP2 SWAP1 PUSH1 0x1 ADD SWAP1 PUSH2 0x800 JUMP JUMPDEST JUMPDEST POP SWAP1 POP PUSH2 0x865 SWAP2 SWAP1 PUSH2 0x869 JUMP JUMPDEST POP SWAP1 JUMP JUMPDEST JUMPDEST DUP1 DUP3 GT ISZERO PUSH2 0x880 JUMPI PUSH0 DUP2 PUSH0 SWAP1 SSTORE POP PUSH1 0x1 ADD PUSH2 0x86A JUMP JUMPDEST POP SWAP1 JUMP JUMPDEST PUSH0 DUP2 SWAP1 POP SWAP2 SWAP1 POP JUMP JUMPDEST PUSH2 0x896 DUP2 PUSH2 0x884 JUMP JUMPDEST DUP3 MSTORE POP POP JUMP JUMPDEST PUSH0 PUSH1 0x20 DUP3 ADD SWAP1 POP PUSH2 0x8AF PUSH0 DUP4 ADD DUP5 PUSH2 0x88D JUMP JUMPDEST SWAP3 SWAP2 POP POP JUMP JUMPDEST PUSH0 DUP1 REVERT JUMPDEST PUSH0 PUSH20 0xFFFFFFFFFFFFFFFFFFFFFFFFFFFFFFFFFFFFFFFF DUP3 AND SWAP1 POP SWAP2 SWAP1 POP JUMP JUMPDEST PUSH0 PUSH2 0x8E2 DUP3 PUSH2 0x8B9 JUMP JUMPDEST SWAP1 POP SWAP2 SWAP1 POP JUMP JUMPDEST PUSH2 0x8F2 DUP2 PUSH2 0x8D8 JUMP JUMPDEST DUP2 EQ PUSH2 0x8FC JUMPI PUSH0 DUP1 REVERT JUMPDEST POP JUMP JUMPDEST PUSH0 DUP2 CALLDATALOAD SWAP1 POP PUSH2 0x90D DUP2 PUSH2 0x8E9 JUMP JUMPDEST SWAP3 SWAP2 POP POP JUMP JUMPDEST PUSH0 PUSH1 0x20 DUP3 DUP5 SUB SLT ISZERO PUSH2 0x928 JUMPI PUSH2 0x927 PUSH2 0x8B5 JUMP JUMPDEST JUMPDEST PUSH0 PUSH2 0x935 DUP5 DUP3 DUP6 ADD PUSH2 0x8FF JUMP JUMPDEST SWAP2 POP POP SWAP3 SWAP2 POP POP JUMP JUMPDEST PUSH2 0x947 DUP2 PUSH2 0x8D8 JUMP JUMPDEST DUP3 MSTORE POP POP JUMP JUMPDEST PUSH0 PUSH1 0x20 DUP3 ADD SWAP1 POP PUSH2 0x960 PUSH0 DUP4 ADD DUP5 PUSH2 0x93E JUMP JUMPDEST SWAP3 SWAP2 POP POP JUMP JUMPDEST PUSH0 DUP2 MLOAD SWAP1 POP SWAP2 SWAP1 POP JUMP JUMPDEST PUSH0 DUP3 DUP3 MSTORE PUSH1 0x20 DUP3 ADD SWAP1 POP SWAP3 SWAP2 POP POP JUMP JUMPDEST PUSH0 DUP2 SWAP1 POP PUSH1 0x20 DUP3 ADD SWAP1 POP SWAP2 SWAP1 POP JUMP JUMPDEST PUSH2 0x998 DUP2 PUSH2 0x8D8 JUMP JUMPDEST DUP3 MSTORE POP POP JUMP JUMPDEST PUSH0 PUSH2 0x9A9 DUP4 DUP4 PUSH2 0x98F JUMP JUMPDEST PUSH1 0x20 DUP4 ADD SWAP1 POP SWAP3 SWAP2 POP POP JUMP JUMPDEST PUSH0 PUSH1 0x20 DUP3 ADD SWAP1 POP SWAP2 SWAP1 POP JUMP JUMPDEST PUSH0 PUSH2 0x9CB DUP3 PUSH2 0x966 JUMP JUMPDEST PUSH2 0x9D5 DUP2 DUP6 PUSH2 0x970 JUMP JUMPDEST SWAP4 POP PUSH2 0x9E0 DUP4 PUSH2 0x980 JUMP JUMPDEST DUP1 PUSH0 JUMPDEST DUP4 DUP2 LT ISZERO PUSH2 0xA10 JUMPI DUP2 MLOAD PUSH2 0x9F7 DUP9 DUP3 PUSH2 0x99E JUMP JUMPDEST SWAP8 POP PUSH2 0xA02 DUP4 PUSH2 0x9B5 JUMP JUMPDEST SWAP3 POP POP PUSH1 0x1 DUP2 ADD SWAP1 POP PUSH2 0x9E3 JUMP JUMPDEST POP DUP6 SWAP4 POP POP POP POP SWAP3 SWAP2 POP POP JUMP JUMPDEST PUSH0 PUSH1 0x20 DUP3 ADD SWAP1 POP DUP2 DUP2 SUB PUSH0 DUP4 ADD MSTORE PUSH2 0xA35 DUP2 DUP5 PUSH2 0x9C1 JUMP JUMPDEST SWAP1 POP SWAP3 SWAP2 POP POP JUMP JUMPDEST PUSH2 0xA46 DUP2 PUSH2 0x884 JUMP JUMPDEST DUP2 EQ PUSH2 0xA50 JUMPI PUSH0 DUP1 REVERT JUMPDEST POP JUMP JUMPDEST PUSH0 DUP2 MLOAD SWAP1 POP PUSH2 0xA61 DUP2 PUSH2 0xA3D JUMP JUMPDEST SWAP3 SWAP2 POP POP JUMP JUMPDEST PUSH0 PUSH1 0x20 DUP3 DUP5 SUB SLT ISZERO PUSH2 0xA7C JUMPI PUSH2 0xA7B PUSH2 0x8B5 JUMP JUMPDEST JUMPDEST PUSH0 PUSH2 0xA89 DUP5 DUP3 DUP6 ADD PUSH2 0xA53 JUMP JUMPDEST SWAP2 POP POP SWAP3 SWAP2 POP POP JUMP JUMPDEST PUSH0 DUP3 DUP3 MSTORE PUSH1 0x20 DUP3 ADD SWAP1 POP SWAP3 SWAP2 POP POP JUMP JUMPDEST PUSH32 0x596F7520617265206E6F7420746865206F776E65722100000000000000000000 PUSH0 DUP3 ADD MSTORE POP JUMP JUMPDEST PUSH0 PUSH2 0xAD6 PUSH1 0x16 DUP4 PUSH2 0xA92 JUMP JUMPDEST SWAP2 POP PUSH2 0xAE1 DUP3 PUSH2 0xAA2 JUMP JUMPDEST PUSH1 0x20 DUP3 ADD SWAP1 POP SWAP2 SWAP1 POP JUMP JUMPDEST PUSH0 PUSH1 0x20 DUP3 ADD SWAP1 POP DUP2 DUP2 SUB PUSH0 DUP4 ADD MSTORE PUSH2 0xB03 DUP2 PUSH2 0xACA JUMP JUMPDEST SWAP1 POP SWAP2 SWAP1 POP JUMP JUMPDEST PUSH32 0x4E487B7100000000000000000000000000000000000000000000000000000000 PUSH0 MSTORE PUSH1 0x32 PUSH1 0x4 MSTORE PUSH1 0x24 PUSH0 REVERT JUMPDEST PUSH32 0x4E487B7100000000000000000000000000000000000000000000000000000000 PUSH0 MSTORE PUSH1 0x41 PUSH1 0x4 MSTORE PUSH1 0x24 PUSH0 REVERT JUMPDEST PUSH0 DUP2 SWAP1 POP SWAP3 SWAP2 POP POP JUMP JUMPDEST POP JUMP JUMPDEST PUSH0 PUSH2 0xB7C PUSH0 DUP4 PUSH2 0xB64 JUMP JUMPDEST SWAP2 POP PUSH2 0xB87 DUP3 PUSH2 0xB6E JUMP JUMPDEST PUSH0 DUP3 ADD SWAP1 POP SWAP2 SWAP1 POP JUMP JUMPDEST PUSH0 PUSH2 0xB9B DUP3 PUSH2 0xB71 JUMP JUMPDEST SWAP2 POP DUP2 SWAP1 POP SWAP2 SWAP1 POP JUMP JUMPDEST PUSH32 0x6661696C656420746F20776974686472617720796F75722066756E6473210000 PUSH0 DUP3 ADD MSTORE POP JUMP JUMPDEST PUSH0 PUSH2 0xBD9 PUSH1 0x1E DUP4 PUSH2 0xA92 JUMP JUMPDEST SWAP2 POP PUSH2 0xBE4 DUP3 PUSH2 0xBA5 JUMP JUMPDEST PUSH1 0x20 DUP3 ADD SWAP1 POP SWAP2 SWAP1 POP JUMP JUMPDEST PUSH0 PUSH1 0x20 DUP3 ADD SWAP1 POP DUP2 DUP2 SUB PUSH0 DUP4 ADD MSTORE PUSH2 0xC06 DUP2 PUSH2 0xBCD JUMP JUMPDEST SWAP1 POP SWAP2 SWAP1 POP JUMP JUMPDEST PUSH0 PUSH10 0xFFFFFFFFFFFFFFFFFFFF DUP3 AND SWAP1 POP SWAP2 SWAP1 POP JUMP JUMPDEST PUSH2 0xC2B DUP2 PUSH2 0xC0D JUMP JUMPDEST DUP2 EQ PUSH2 0xC35 JUMPI PUSH0 DUP1 REVERT JUMPDEST POP JUMP JUMPDEST PUSH0 DUP2 MLOAD SWAP1 POP PUSH2 0xC46 DUP2 PUSH2 0xC22 JUMP JUMPDEST SWAP3 SWAP2 POP POP JUMP JUMPDEST PUSH0 DUP2 SWAP1 POP SWAP2 SWAP1 POP JUMP JUMPDEST PUSH2 0xC5E DUP2 PUSH2 0xC4C JUMP JUMPDEST DUP2 EQ PUSH2 0xC68 JUMPI PUSH0 DUP1 REVERT JUMPDEST POP JUMP JUMPDEST PUSH0 DUP2 MLOAD SWAP1 POP PUSH2 0xC79 DUP2 PUSH2 0xC55 JUMP JUMPDEST SWAP3 SWAP2 POP POP JUMP JUMPDEST PUSH0 DUP1 PUSH0 DUP1 PUSH0 PUSH1 0xA0 DUP7 DUP9 SUB SLT ISZERO PUSH2 0xC98 JUMPI PUSH2 0xC97 PUSH2 0x8B5 JUMP JUMPDEST JUMPDEST PUSH0 PUSH2 0xCA5 DUP9 DUP3 DUP10 ADD PUSH2 0xC38 JUMP JUMPDEST SWAP6 POP POP PUSH1 0x20 PUSH2 0xCB6 DUP9 DUP3 DUP10 ADD PUSH2 0xC6B JUMP JUMPDEST SWAP5 POP POP PUSH1 0x40 PUSH2 0xCC7 DUP9 DUP3 DUP10 ADD PUSH2 0xA53 JUMP JUMPDEST SWAP4 POP POP PUSH1 0x60 PUSH2 0xCD8 DUP9 DUP3 DUP10 ADD PUSH2 0xA53 JUMP JUMPDEST SWAP3 POP POP PUSH1 0x80 PUSH2 0xCE9 DUP9 DUP3 DUP10 ADD PUSH2 0xC38 JUMP JUMPDEST SWAP2 POP POP SWAP3 SWAP6 POP SWAP3 SWAP6 SWAP1 SWAP4 POP JUMP JUMPDEST PUSH32 0x4E487B7100000000000000000000000000000000000000000000000000000000 PUSH0 MSTORE PUSH1 0x11 PUSH1 0x4 MSTORE PUSH1 0x24 PUSH0 REVERT JUMPDEST PUSH0 PUSH2 0xD2D DUP3 PUSH2 0xC4C JUMP JUMPDEST SWAP2 POP PUSH2 0xD38 DUP4 PUSH2 0xC4C JUMP JUMPDEST SWAP3 POP DUP3 DUP3 MUL PUSH2 0xD46 DUP2 PUSH2 0xC4C JUMP JUMPDEST SWAP2 POP PUSH32 0x8000000000000000000000000000000000000000000000000000000000000000 DUP5 EQ PUSH0 DUP5 SLT AND ISZERO PUSH2 0xD7D JUMPI PUSH2 0xD7C PUSH2 0xCF6 JUMP JUMPDEST JUMPDEST DUP3 DUP3 SDIV DUP5 EQ DUP4 ISZERO OR PUSH2 0xD92 JUMPI PUSH2 0xD91 PUSH2 0xCF6 JUMP JUMPDEST JUMPDEST POP SWAP3 SWAP2 POP POP JUMP JUMPDEST PUSH32 0x596F75206E65656420746F2073656E64206D6F72652076616C75650000000000 PUSH0 DUP3 ADD MSTORE POP JUMP JUMPDEST PUSH0 PUSH2 0xDCD PUSH1 0x1B DUP4 PUSH2 0xA92 JUMP JUMPDEST SWAP2 POP PUSH2 0xDD8 DUP3 PUSH2 0xD99 JUMP JUMPDEST PUSH1 0x20 DUP3 ADD SWAP1 POP SWAP2 SWAP1 POP JUMP JUMPDEST PUSH0 PUSH1 0x20 DUP3 ADD SWAP1 POP DUP2 DUP2 SUB PUSH0 DUP4 ADD MSTORE PUSH2 0xDFA DUP2 PUSH2 0xDC1 JUMP JUMPDEST SWAP1 POP SWAP2 SWAP1 POP JUMP JUMPDEST PUSH0 PUSH2 0xE0B DUP3 PUSH2 0x884 JUMP JUMPDEST SWAP2 POP PUSH2 0xE16 DUP4 PUSH2 0x884 JUMP JUMPDEST SWAP3 POP DUP3 DUP3 ADD SWAP1 POP DUP1 DUP3 GT ISZERO PUSH2 0xE2E JUMPI PUSH2 0xE2D PUSH2 0xCF6 JUMP JUMPDEST JUMPDEST SWAP3 SWAP2 POP POP JUMP JUMPDEST PUSH0 PUSH2 0xE3E DUP3 PUSH2 0x884 JUMP JUMPDEST SWAP2 POP PUSH2 0xE49 DUP4 PUSH2 0x884 JUMP JUMPDEST SWAP3 POP DUP3 DUP3 MUL PUSH2 0xE57 DUP2 PUSH2 0x884 JUMP JUMPDEST SWAP2 POP DUP3 DUP3 DIV DUP5 EQ DUP4 ISZERO OR PUSH2 0xE6E JUMPI PUSH2 0xE6D PUSH2 0xCF6 JUMP JUMPDEST JUMPDEST POP SWAP3 SWAP2 POP POP JUMP JUMPDEST PUSH32 0x4E487B7100000000000000000000000000000000000000000000000000000000 PUSH0 MSTORE PUSH1 0x12 PUSH1 0x4 MSTORE PUSH1 0x24 PUSH0 REVERT JUMPDEST PUSH0 PUSH2 0xEAC DUP3 PUSH2 0x884 JUMP JUMPDEST SWAP2 POP PUSH2 0xEB7 DUP4 PUSH2 0x884 JUMP JUMPDEST SWAP3 POP DUP3 PUSH2 0xEC7 JUMPI PUSH2 0xEC6 PUSH2 0xE75 JUMP JUMPDEST JUMPDEST DUP3 DUP3 DIV SWAP1 POP SWAP3 SWAP2 POP POP JUMP INVALID LOG2 PUSH5 0x6970667358 0x22 SLT KECCAK256 0xEF SWAP14 BALANCE DUP8 0xC7 EXP SWAP14 0x1E 0xE PUSH9 0xFCF1DBC26FB3275CB9 0xC2 0xD MCOPY PUSH17 0xA980085A0E6A748B5C64736F6C63430008 BYTE STOP CALLER "
				},
				"gasEstimates": {
					"creation": {
						"codeDepositCost": "769600",
						"executionCost": "71439",
						"totalCost": "841039"
					},
					"external": {
						"addressToAmountFunded(address)": "2847",
						"fund()": "infinite",
						"getFunders()": "infinite",
						"getPrice()": "infinite",
						"getVersion()": "infinite",
						"owner()": "2508",
						"withdraw()": "infinite"
					},
					"internal": {
						"getConversionRate(uint256)": "infinite"
					}
				},
				"methodIdentifiers": {
					"addressToAmountFunded(address)": "3e47d6f3",
					"fund()": "b60d4288",
					"getFunders()": "ea63a044",
					"getPrice()": "98d5fdca",
					"getVersion()": "0d8e6e2c",
					"owner()": "8da5cb5b",
					"withdraw()": "3ccfd60b"
				}
			},
			"storageLayout": {
				"storage": [
					{
						"astId": 8,
						"contract": ".deps/FundMe.sol:FundMe",
						"label": "minimumUsd",
						"offset": 0,
						"slot": "0",
						"type": "t_uint256"
					},
					{
						"astId": 11,
						"contract": ".deps/FundMe.sol:FundMe",
						"label": "funders",
						"offset": 0,
						"slot": "1",
						"type": "t_array(t_address)dyn_storage"
					},
					{
						"astId": 15,
						"contract": ".deps/FundMe.sol:FundMe",
						"label": "addressToAmountFunded",
						"offset": 0,
						"slot": "2",
						"type": "t_mapping(t_address,t_uint256)"
					},
					{
						"astId": 19,
						"contract": ".deps/FundMe.sol:FundMe",
						"label": "isFund",
						"offset": 0,
						"slot": "3",
						"type": "t_mapping(t_address,t_bool)"
					},
					{
						"astId": 21,
						"contract": ".deps/FundMe.sol:FundMe",
						"label": "owner",
						"offset": 0,
						"slot": "4",
						"type": "t_address"
					},
					{
						"astId": 24,
						"contract": ".deps/FundMe.sol:FundMe",
						"label": "dataFeed",
						"offset": 0,
						"slot": "5",
						"type": "t_contract(AggregatorV3Interface)264"
					}
				],
				"types": {
					"t_address": {
						"encoding": "inplace",
						"label": "address",
						"numberOfBytes": "20"
					},
					"t_array(t_address)dyn_storage": {
						"base": "t_address",
						"encoding": "dynamic_array",
						"label": "address[]",
						"numberOfBytes": "32"
					},
					"t_bool": {
						"encoding": "inplace",
						"label": "bool",
						"numberOfBytes": "1"
					},
					"t_contract(AggregatorV3Interface)264": {
						"encoding": "inplace",
						"label": "contract AggregatorV3Interface",
						"numberOfBytes": "20"
					},
					"t_mapping(t_address,t_bool)": {
						"encoding": "mapping",
						"key": "t_address",
						"label": "mapping(address => bool)",
						"numberOfBytes": "32",
						"value": "t_bool"
					},
					"t_mapping(t_address,t_uint256)": {
						"encoding": "mapping",
						"key": "t_address",
						"label": "mapping(address => uint256)",
						"numberOfBytes": "32",
						"value": "t_uint256"
					},
					"t_uint256": {
						"encoding": "inplace",
						"label": "uint256",
						"numberOfBytes": "32"
					}
				}
			},
			"userdoc": {
				"kind": "user",
				"methods": {
					"constructor": {
						"notice": "Network: Sepolia Aggregator: ETH/USD Address: 0x694AA1769357215DE4FAC081bf1f309aDC325306"
					}
				},
				"version": 1
			}
		}
	}
}