{
	".deps/FundMe.sol": {
		"FundMe": {
			"abi": [
				{
					"inputs": [],
					"stateMutability": "nonpayable",
					"type": "constructor"
				},
				{
					"inputs": [
						{
							"internalType": "address",
							"name": "",
							"type": "address"
						}
					],
					"name": "addressToAmountFunded",
					"outputs": [
						{
							"internalType": "uint256",
							"name": "",
							"type": "uint256"
						}
					],
					"stateMutability": "view",
					"type": "function"
				},
				{
					"inputs": [],
					"name": "fund",
					"outputs": [],
					"stateMutability": "payable",
					"type": "function"
				},
				{
					"inputs": [],
					"name": "getFunders",
					"outputs": [
						{
							"internalType": "address[]",
							"name": "",
							"type": "address[]"
						}
					],
					"stateMutability": "view",
					"type": "function"
				},
				{
					"inputs": [],
					"name": "getVersion",
					"outputs": [
						{
							"internalType": "uint256",
							"name": "",
							"type": "uint256"
						}
					],
					"stateMutability": "view",
					"type": "function"
				},
				{
					"inputs": [],
					"name": "owner",
					"outputs": [
						{
							"internalType": "address",
							"name": "",
							"type": "address"
						}
					],
					"stateMutability": "view",
					"type": "function"
				},
				{
					"inputs": [],
					"name": "withdraw",
					"outputs": [],
					"stateMutability": "nonpayable",
					"type": "function"
				}
			],
			"devdoc": {
				"kind": "dev",
				"methods": {},
				"version": 1
			},
			"evm": {
				"assembly": "    /* \".deps/FundMe.sol\":300:1798  contract FundMe {... */\n  mstore(0x40, 0x80)\n    /* \".deps/FundMe.sol\":381:389  2 * 1e18 */\n  0x1bc16d674ec80000\n    /* \".deps/FundMe.sol\":360:389  uint256 minimumUsd = 2 * 1e18 */\n  0x00\n  sstore\n    /* \".deps/FundMe.sol\":545:594  constructor() {... */\n  callvalue\n  dup1\n  iszero\n  tag_1\n  jumpi\n  0x00\n  dup1\n  revert\ntag_1:\n  pop\n    /* \".deps/FundMe.sol\":577:587  msg.sender */\n  caller\n    /* \".deps/FundMe.sol\":569:574  owner */\n  0x04\n  0x00\n    /* \".deps/FundMe.sol\":569:587  owner = msg.sender */\n  0x0100\n  exp\n  dup2\n  sload\n  dup2\n  0xffffffffffffffffffffffffffffffffffffffff\n  mul\n  not\n  and\n  swap1\n  dup4\n  0xffffffffffffffffffffffffffffffffffffffff\n  and\n  mul\n  or\n  swap1\n  sstore\n  pop\n    /* \".deps/FundMe.sol\":300:1798  contract FundMe {... */\n  dataSize(sub_0)\n  dup1\n  dataOffset(sub_0)\n  0x00\n  codecopy\n  0x00\n  return\nstop\n\nsub_0: assembly {\n        /* \".deps/FundMe.sol\":300:1798  contract FundMe {... */\n      mstore(0x40, 0x80)\n      jumpi(tag_1, lt(calldatasize, 0x04))\n      shr(0xe0, calldataload(0x00))\n      dup1\n      0x0d8e6e2c\n      eq\n      tag_2\n      jumpi\n      dup1\n      0x3ccfd60b\n      eq\n      tag_3\n      jumpi\n      dup1\n      0x3e47d6f3\n      eq\n      tag_4\n      jumpi\n      dup1\n      0x8da5cb5b\n      eq\n      tag_5\n      jumpi\n      dup1\n      0xb60d4288\n      eq\n      tag_6\n      jumpi\n      dup1\n      0xea63a044\n      eq\n      tag_7\n      jumpi\n    tag_1:\n      0x00\n      dup1\n      revert\n        /* \".deps/FundMe.sol\":699:904  function getVersion() public view returns (uint256) {... */\n    tag_2:\n      callvalue\n      dup1\n      iszero\n      tag_8\n      jumpi\n      0x00\n      dup1\n      revert\n    tag_8:\n      pop\n      tag_9\n      tag_10\n      jump\t// in\n    tag_9:\n      mload(0x40)\n      tag_11\n      swap2\n      swap1\n      tag_12\n      jump\t// in\n    tag_11:\n      mload(0x40)\n      dup1\n      swap2\n      sub\n      swap1\n      return\n        /* \".deps/FundMe.sol\":1225:1796  function withdraw() public {... */\n    tag_3:\n      callvalue\n      dup1\n      iszero\n      tag_13\n      jumpi\n      0x00\n      dup1\n      revert\n    tag_13:\n      pop\n      tag_14\n      tag_15\n      jump\t// in\n    tag_14:\n      stop\n        /* \".deps/FundMe.sol\":418:474  mapping(address => uint256) public addressToAmountFunded */\n    tag_4:\n      callvalue\n      dup1\n      iszero\n      tag_16\n      jumpi\n      0x00\n      dup1\n      revert\n    tag_16:\n      pop\n      tag_17\n      0x04\n      dup1\n      calldatasize\n      sub\n      dup2\n      add\n      swap1\n      tag_18\n      swap2\n      swap1\n      tag_19\n      jump\t// in\n    tag_18:\n      tag_20\n      jump\t// in\n    tag_17:\n      mload(0x40)\n      tag_21\n      swap2\n      swap1\n      tag_12\n      jump\t// in\n    tag_21:\n      mload(0x40)\n      dup1\n      swap2\n      sub\n      swap1\n      return\n        /* \".deps/FundMe.sol\":517:537  address public owner */\n    tag_5:\n      callvalue\n      dup1\n      iszero\n      tag_22\n      jumpi\n      0x00\n      dup1\n      revert\n    tag_22:\n      pop\n      tag_23\n      tag_24\n      jump\t// in\n    tag_23:\n      mload(0x40)\n      tag_25\n      swap2\n      swap1\n      tag_26\n      jump\t// in\n    tag_25:\n      mload(0x40)\n      dup1\n      swap2\n      sub\n      swap1\n      return\n        /* \".deps/FundMe.sol\":911:1219  function fund() public payable {... */\n    tag_6:\n      tag_27\n      tag_28\n      jump\t// in\n    tag_27:\n      stop\n        /* \".deps/FundMe.sol\":600:692  function getFunders() public view returns (address[] memory) {... */\n    tag_7:\n      callvalue\n      dup1\n      iszero\n      tag_29\n      jumpi\n      0x00\n      dup1\n      revert\n    tag_29:\n      pop\n      tag_30\n      tag_31\n      jump\t// in\n    tag_30:\n      mload(0x40)\n      tag_32\n      swap2\n      swap1\n      tag_33\n      jump\t// in\n    tag_32:\n      mload(0x40)\n      dup1\n      swap2\n      sub\n      swap1\n      return\n        /* \".deps/FundMe.sol\":699:904  function getVersion() public view returns (uint256) {... */\n    tag_10:\n        /* \".deps/FundMe.sol\":742:749  uint256 */\n      0x00\n        /* \".deps/FundMe.sol\":762:793  AggregatorV3Interface priceFeed */\n      dup1\n        /* \".deps/FundMe.sol\":818:860  0x694AA1769357215DE4FAC081bf1f309aDC325306 */\n      0x694aa1769357215de4fac081bf1f309adc325306\n        /* \".deps/FundMe.sol\":762:861  AggregatorV3Interface priceFeed = AggregatorV3Interface(0x694AA1769357215DE4FAC081bf1f309aDC325306) */\n      swap1\n      pop\n        /* \".deps/FundMe.sol\":878:887  priceFeed */\n      dup1\n        /* \".deps/FundMe.sol\":878:895  priceFeed.version */\n      0xffffffffffffffffffffffffffffffffffffffff\n      and\n      0x54fd4d50\n        /* \".deps/FundMe.sol\":878:897  priceFeed.version() */\n      mload(0x40)\n      dup2\n      0xffffffff\n      and\n      0xe0\n      shl\n      dup2\n      mstore\n      0x04\n      add\n      0x20\n      mload(0x40)\n      dup1\n      dup4\n      sub\n      dup2\n      dup7\n      gas\n      staticcall\n      iszero\n      dup1\n      iszero\n      tag_36\n      jumpi\n      returndatasize\n      0x00\n      dup1\n      returndatacopy\n      revert(0x00, returndatasize)\n    tag_36:\n      pop\n      pop\n      pop\n      pop\n      mload(0x40)\n      returndatasize\n      not(0x1f)\n      0x1f\n      dup3\n      add\n      and\n      dup3\n      add\n      dup1\n      0x40\n      mstore\n      pop\n      dup2\n      add\n      swap1\n      tag_37\n      swap2\n      swap1\n      tag_38\n      jump\t// in\n    tag_37:\n        /* \".deps/FundMe.sol\":871:897  return priceFeed.version() */\n      swap2\n      pop\n      pop\n        /* \".deps/FundMe.sol\":699:904  function getVersion() public view returns (uint256) {... */\n      swap1\n      jump\t// out\n        /* \".deps/FundMe.sol\":1225:1796  function withdraw() public {... */\n    tag_15:\n        /* \".deps/FundMe.sol\":1285:1290  owner */\n      0x04\n      0x00\n      swap1\n      sload\n      swap1\n      0x0100\n      exp\n      swap1\n      div\n      0xffffffffffffffffffffffffffffffffffffffff\n      and\n        /* \".deps/FundMe.sol\":1271:1290  msg.sender == owner */\n      0xffffffffffffffffffffffffffffffffffffffff\n      and\n        /* \".deps/FundMe.sol\":1271:1281  msg.sender */\n      caller\n        /* \".deps/FundMe.sol\":1271:1290  msg.sender == owner */\n      0xffffffffffffffffffffffffffffffffffffffff\n      and\n      eq\n        /* \".deps/FundMe.sol\":1263:1317  require(msg.sender == owner, \"You are not the owner!\") */\n      tag_40\n      jumpi\n      mload(0x40)\n      0x08c379a000000000000000000000000000000000000000000000000000000000\n      dup2\n      mstore\n      0x04\n      add\n      tag_41\n      swap1\n      tag_42\n      jump\t// in\n    tag_41:\n      mload(0x40)\n      dup1\n      swap2\n      sub\n      swap1\n      revert\n    tag_40:\n        /* \".deps/FundMe.sol\":1342:1361  uint256 funderIndex */\n      0x00\n        /* \".deps/FundMe.sol\":1337:1570  for (uint256 funderIndex = 0; funderIndex < funders.length; funderIndex++){... */\n    tag_43:\n        /* \".deps/FundMe.sol\":1381:1388  funders */\n      0x01\n        /* \".deps/FundMe.sol\":1381:1395  funders.length */\n      dup1\n      sload\n      swap1\n      pop\n        /* \".deps/FundMe.sol\":1367:1378  funderIndex */\n      dup2\n        /* \".deps/FundMe.sol\":1367:1395  funderIndex < funders.length */\n      lt\n        /* \".deps/FundMe.sol\":1337:1570  for (uint256 funderIndex = 0; funderIndex < funders.length; funderIndex++){... */\n      iszero\n      tag_44\n      jumpi\n        /* \".deps/FundMe.sol\":1425:1439  address funder */\n      0x00\n        /* \".deps/FundMe.sol\":1442:1449  funders */\n      0x01\n        /* \".deps/FundMe.sol\":1450:1461  funderIndex */\n      dup3\n        /* \".deps/FundMe.sol\":1442:1462  funders[funderIndex] */\n      dup2\n      sload\n      dup2\n      lt\n      tag_46\n      jumpi\n      tag_47\n      tag_48\n      jump\t// in\n    tag_47:\n    tag_46:\n      swap1\n      0x00\n      mstore\n      keccak256(0x00, 0x20)\n      add\n      0x00\n      swap1\n      sload\n      swap1\n      0x0100\n      exp\n      swap1\n      div\n      0xffffffffffffffffffffffffffffffffffffffff\n      and\n        /* \".deps/FundMe.sol\":1425:1462  address funder = funders[funderIndex] */\n      swap1\n      pop\n        /* \".deps/FundMe.sol\":1479:1485  isFund */\n      0x03\n        /* \".deps/FundMe.sol\":1479:1493  isFund[funder] */\n      0x00\n        /* \".deps/FundMe.sol\":1486:1492  funder */\n      dup3\n        /* \".deps/FundMe.sol\":1479:1493  isFund[funder] */\n      0xffffffffffffffffffffffffffffffffffffffff\n      and\n      0xffffffffffffffffffffffffffffffffffffffff\n      and\n      dup2\n      mstore\n      0x20\n      add\n      swap1\n      dup2\n      mstore\n      0x20\n      add\n      0x00\n      keccak256\n      0x00\n      swap1\n      sload\n      swap1\n      0x0100\n      exp\n      swap1\n      div\n      0xff\n      and\n        /* \".deps/FundMe.sol\":1476:1560  if(isFund[funder]){... */\n      iszero\n      tag_50\n      jumpi\n        /* \".deps/FundMe.sol\":1544:1545  0 */\n      0x00\n        /* \".deps/FundMe.sol\":1512:1533  addressToAmountFunded */\n      0x02\n        /* \".deps/FundMe.sol\":1512:1541  addressToAmountFunded[funder] */\n      0x00\n        /* \".deps/FundMe.sol\":1534:1540  funder */\n      dup4\n        /* \".deps/FundMe.sol\":1512:1541  addressToAmountFunded[funder] */\n      0xffffffffffffffffffffffffffffffffffffffff\n      and\n      0xffffffffffffffffffffffffffffffffffffffff\n      and\n      dup2\n      mstore\n      0x20\n      add\n      swap1\n      dup2\n      mstore\n      0x20\n      add\n      0x00\n      keccak256\n        /* \".deps/FundMe.sol\":1512:1545  addressToAmountFunded[funder] = 0 */\n      dup2\n      swap1\n      sstore\n      pop\n        /* \".deps/FundMe.sol\":1476:1560  if(isFund[funder]){... */\n    tag_50:\n        /* \".deps/FundMe.sol\":1411:1570  {... */\n      pop\n        /* \".deps/FundMe.sol\":1397:1410  funderIndex++ */\n      dup1\n      dup1\n      0x01\n      add\n      swap2\n      pop\n      pop\n        /* \".deps/FundMe.sol\":1337:1570  for (uint256 funderIndex = 0; funderIndex < funders.length; funderIndex++){... */\n      jump(tag_43)\n    tag_44:\n      pop\n        /* \".deps/FundMe.sol\":1632:1633  0 */\n      0x00\n        /* \".deps/FundMe.sol\":1618:1634  new address[](0) */\n      0xffffffffffffffff\n      dup2\n      gt\n      iszero\n      tag_51\n      jumpi\n      tag_52\n      tag_53\n      jump\t// in\n    tag_52:\n    tag_51:\n      mload(0x40)\n      swap1\n      dup1\n      dup3\n      mstore\n      dup1\n      0x20\n      mul\n      0x20\n      add\n      dup3\n      add\n      0x40\n      mstore\n      dup1\n      iszero\n      tag_54\n      jumpi\n      dup2\n      0x20\n      add\n      0x20\n      dup3\n      mul\n      dup1\n      calldatasize\n      dup4\n      calldatacopy\n      dup1\n      dup3\n      add\n      swap2\n      pop\n      pop\n      swap1\n      pop\n    tag_54:\n      pop\n        /* \".deps/FundMe.sol\":1608:1615  funders */\n      0x01\n        /* \".deps/FundMe.sol\":1608:1634  funders = new address[](0) */\n      swap1\n      dup1\n      mload\n      swap1\n      0x20\n      add\n      swap1\n      tag_55\n      swap3\n      swap2\n      swap1\n      tag_56\n      jump\t// in\n    tag_55:\n      pop\n        /* \".deps/FundMe.sol\":1645:1661  bool callSuccess */\n      0x00\n        /* \".deps/FundMe.sol\":1675:1685  msg.sender */\n      caller\n        /* \".deps/FundMe.sol\":1667:1691  payable(msg.sender).call */\n      0xffffffffffffffffffffffffffffffffffffffff\n      and\n        /* \".deps/FundMe.sol\":1699:1720  address(this).balance */\n      selfbalance\n        /* \".deps/FundMe.sol\":1667:1725  payable(msg.sender).call{value: address(this).balance}(\"\") */\n      mload(0x40)\n      tag_57\n      swap1\n      tag_58\n      jump\t// in\n    tag_57:\n      0x00\n      mload(0x40)\n      dup1\n      dup4\n      sub\n      dup2\n      dup6\n      dup8\n      gas\n      call\n      swap3\n      pop\n      pop\n      pop\n      returndatasize\n      dup1\n      0x00\n      dup2\n      eq\n      tag_61\n      jumpi\n      mload(0x40)\n      swap2\n      pop\n      and(add(returndatasize, 0x3f), not(0x1f))\n      dup3\n      add\n      0x40\n      mstore\n      returndatasize\n      dup3\n      mstore\n      returndatasize\n      0x00\n      0x20\n      dup5\n      add\n      returndatacopy\n      jump(tag_60)\n    tag_61:\n      0x60\n      swap2\n      pop\n    tag_60:\n      pop\n        /* \".deps/FundMe.sol\":1644:1725  (bool callSuccess, ) = payable(msg.sender).call{value: address(this).balance}(\"\") */\n      pop\n      swap1\n      pop\n        /* \".deps/FundMe.sol\":1743:1754  callSuccess */\n      dup1\n        /* \".deps/FundMe.sol\":1735:1789  require(callSuccess, \"failed to withdraw your funds!\") */\n      tag_62\n      jumpi\n      mload(0x40)\n      0x08c379a000000000000000000000000000000000000000000000000000000000\n      dup2\n      mstore\n      0x04\n      add\n      tag_63\n      swap1\n      tag_64\n      jump\t// in\n    tag_63:\n      mload(0x40)\n      dup1\n      swap2\n      sub\n      swap1\n      revert\n    tag_62:\n        /* \".deps/FundMe.sol\":1252:1796  {... */\n      pop\n        /* \".deps/FundMe.sol\":1225:1796  function withdraw() public {... */\n      jump\t// out\n        /* \".deps/FundMe.sol\":418:474  mapping(address => uint256) public addressToAmountFunded */\n    tag_20:\n      mstore(0x20, 0x02)\n      dup1\n      0x00\n      mstore\n      keccak256(0x00, 0x40)\n      0x00\n      swap2\n      pop\n      swap1\n      pop\n      sload\n      dup2\n      jump\t// out\n        /* \".deps/FundMe.sol\":517:537  address public owner */\n    tag_24:\n      0x04\n      0x00\n      swap1\n      sload\n      swap1\n      0x0100\n      exp\n      swap1\n      div\n      0xffffffffffffffffffffffffffffffffffffffff\n      and\n      dup2\n      jump\t// out\n        /* \".deps/FundMe.sol\":911:1219  function fund() public payable {... */\n    tag_28:\n        /* \".deps/FundMe.sol\":993:1003  minimumUsd */\n      sload(0x00)\n        /* \".deps/FundMe.sol\":960:989  msg.value.getConversionRate() */\n      tag_66\n        /* \".deps/FundMe.sol\":960:969  msg.value */\n      callvalue\n        /* \".deps/FundMe.sol\":960:987  msg.value.getConversionRate */\n      tag_67\n        /* \".deps/FundMe.sol\":960:989  msg.value.getConversionRate() */\n      jump\t// in\n    tag_66:\n        /* \".deps/FundMe.sol\":960:1003  msg.value.getConversionRate() >= minimumUsd */\n      lt\n      iszero\n        /* \".deps/FundMe.sol\":952:1034  require(msg.value.getConversionRate() >= minimumUsd,\"You need to send more value\") */\n      tag_68\n      jumpi\n      mload(0x40)\n      0x08c379a000000000000000000000000000000000000000000000000000000000\n      dup2\n      mstore\n      0x04\n      add\n      tag_69\n      swap1\n      tag_70\n      jump\t// in\n    tag_69:\n      mload(0x40)\n      dup1\n      swap2\n      sub\n      swap1\n      revert\n    tag_68:\n        /* \".deps/FundMe.sol\":1049:1055  isFund */\n      0x03\n        /* \".deps/FundMe.sol\":1049:1067  isFund[msg.sender] */\n      0x00\n        /* \".deps/FundMe.sol\":1056:1066  msg.sender */\n      caller\n        /* \".deps/FundMe.sol\":1049:1067  isFund[msg.sender] */\n      0xffffffffffffffffffffffffffffffffffffffff\n      and\n      0xffffffffffffffffffffffffffffffffffffffff\n      and\n      dup2\n      mstore\n      0x20\n      add\n      swap1\n      dup2\n      mstore\n      0x20\n      add\n      0x00\n      keccak256\n      0x00\n      swap1\n      sload\n      swap1\n      0x0100\n      exp\n      swap1\n      div\n      0xff\n      and\n        /* \".deps/FundMe.sol\":1044:1157  if (!isFund[msg.sender]) {... */\n      tag_71\n      jumpi\n        /* \".deps/FundMe.sol\":1083:1090  funders */\n      0x01\n        /* \".deps/FundMe.sol\":1096:1106  msg.sender */\n      caller\n        /* \".deps/FundMe.sol\":1083:1107  funders.push(msg.sender) */\n      swap1\n      dup1\n      0x01\n      dup2\n      sload\n      add\n      dup1\n      dup3\n      sstore\n      dup1\n      swap2\n      pop\n      pop\n      0x01\n      swap1\n      sub\n      swap1\n      0x00\n      mstore\n      keccak256(0x00, 0x20)\n      add\n      0x00\n      swap1\n      swap2\n      swap1\n      swap2\n      swap1\n      swap2\n      0x0100\n      exp\n      dup2\n      sload\n      dup2\n      0xffffffffffffffffffffffffffffffffffffffff\n      mul\n      not\n      and\n      swap1\n      dup4\n      0xffffffffffffffffffffffffffffffffffffffff\n      and\n      mul\n      or\n      swap1\n      sstore\n      pop\n        /* \".deps/FundMe.sol\":1142:1146  true */\n      0x01\n        /* \".deps/FundMe.sol\":1121:1127  isFund */\n      0x03\n        /* \".deps/FundMe.sol\":1121:1139  isFund[msg.sender] */\n      0x00\n        /* \".deps/FundMe.sol\":1128:1138  msg.sender */\n      caller\n        /* \".deps/FundMe.sol\":1121:1139  isFund[msg.sender] */\n      0xffffffffffffffffffffffffffffffffffffffff\n      and\n      0xffffffffffffffffffffffffffffffffffffffff\n      and\n      dup2\n      mstore\n      0x20\n      add\n      swap1\n      dup2\n      mstore\n      0x20\n      add\n      0x00\n      keccak256\n      0x00\n        /* \".deps/FundMe.sol\":1121:1146  isFund[msg.sender] = true */\n      0x0100\n      exp\n      dup2\n      sload\n      dup2\n      0xff\n      mul\n      not\n      and\n      swap1\n      dup4\n      iszero\n      iszero\n      mul\n      or\n      swap1\n      sstore\n      pop\n        /* \".deps/FundMe.sol\":1044:1157  if (!isFund[msg.sender]) {... */\n    tag_71:\n        /* \".deps/FundMe.sol\":1203:1212  msg.value */\n      callvalue\n        /* \".deps/FundMe.sol\":1166:1187  addressToAmountFunded */\n      0x02\n        /* \".deps/FundMe.sol\":1166:1199  addressToAmountFunded[msg.sender] */\n      0x00\n        /* \".deps/FundMe.sol\":1188:1198  msg.sender */\n      caller\n        /* \".deps/FundMe.sol\":1166:1199  addressToAmountFunded[msg.sender] */\n      0xffffffffffffffffffffffffffffffffffffffff\n      and\n      0xffffffffffffffffffffffffffffffffffffffff\n      and\n      dup2\n      mstore\n      0x20\n      add\n      swap1\n      dup2\n      mstore\n      0x20\n      add\n      0x00\n      keccak256\n      0x00\n        /* \".deps/FundMe.sol\":1166:1212  addressToAmountFunded[msg.sender] += msg.value */\n      dup3\n      dup3\n      sload\n      tag_73\n      swap2\n      swap1\n      tag_74\n      jump\t// in\n    tag_73:\n      swap3\n      pop\n      pop\n      dup2\n      swap1\n      sstore\n      pop\n        /* \".deps/FundMe.sol\":911:1219  function fund() public payable {... */\n      jump\t// out\n        /* \".deps/FundMe.sol\":600:692  function getFunders() public view returns (address[] memory) {... */\n    tag_31:\n        /* \".deps/FundMe.sol\":643:659  address[] memory */\n      0x60\n        /* \".deps/FundMe.sol\":678:685  funders */\n      0x01\n        /* \".deps/FundMe.sol\":671:685  return funders */\n      dup1\n      sload\n      dup1\n      0x20\n      mul\n      0x20\n      add\n      mload(0x40)\n      swap1\n      dup2\n      add\n      0x40\n      mstore\n      dup1\n      swap3\n      swap2\n      swap1\n      dup2\n      dup2\n      mstore\n      0x20\n      add\n      dup3\n      dup1\n      sload\n      dup1\n      iszero\n      tag_76\n      jumpi\n      0x20\n      mul\n      dup3\n      add\n      swap2\n      swap1\n      0x00\n      mstore\n      keccak256(0x00, 0x20)\n      swap1\n    tag_77:\n      dup2\n      0x00\n      swap1\n      sload\n      swap1\n      0x0100\n      exp\n      swap1\n      div\n      0xffffffffffffffffffffffffffffffffffffffff\n      and\n      0xffffffffffffffffffffffffffffffffffffffff\n      and\n      dup2\n      mstore\n      0x20\n      add\n      swap1\n      0x01\n      add\n      swap1\n      dup1\n      dup4\n      gt\n      tag_77\n      jumpi\n    tag_76:\n      pop\n      pop\n      pop\n      pop\n      pop\n      swap1\n      pop\n        /* \".deps/FundMe.sol\":600:692  function getFunders() public view returns (address[] memory) {... */\n      swap1\n      jump\t// out\n        /* \".deps/PriceConverter.sol\":732:1057  function getConversionRate(... */\n    tag_67:\n        /* \".deps/PriceConverter.sol\":815:822  uint256 */\n      0x00\n        /* \".deps/PriceConverter.sol\":834:850  uint256 ethPrice */\n      dup1\n        /* \".deps/PriceConverter.sol\":853:863  getPrice() */\n      tag_79\n        /* \".deps/PriceConverter.sol\":853:861  getPrice */\n      tag_80\n        /* \".deps/PriceConverter.sol\":853:863  getPrice() */\n      jump\t// in\n    tag_79:\n        /* \".deps/PriceConverter.sol\":834:863  uint256 ethPrice = getPrice() */\n      swap1\n      pop\n        /* \".deps/PriceConverter.sol\":873:895  uint256 ethAmountInUsd */\n      0x00\n        /* \".deps/PriceConverter.sol\":923:942  1000000000000000000 */\n      0x0de0b6b3a7640000\n        /* \".deps/PriceConverter.sol\":910:919  ethAmount */\n      dup5\n        /* \".deps/PriceConverter.sol\":899:907  ethPrice */\n      dup4\n        /* \".deps/PriceConverter.sol\":899:919  ethPrice * ethAmount */\n      tag_81\n      swap2\n      swap1\n      tag_82\n      jump\t// in\n    tag_81:\n        /* \".deps/PriceConverter.sol\":898:942  (ethPrice * ethAmount) / 1000000000000000000 */\n      tag_83\n      swap2\n      swap1\n      tag_84\n      jump\t// in\n    tag_83:\n        /* \".deps/PriceConverter.sol\":873:942  uint256 ethAmountInUsd = (ethPrice * ethAmount) / 1000000000000000000 */\n      swap1\n      pop\n        /* \".deps/PriceConverter.sol\":1036:1050  ethAmountInUsd */\n      dup1\n        /* \".deps/PriceConverter.sol\":1029:1050  return ethAmountInUsd */\n      swap3\n      pop\n      pop\n      pop\n        /* \".deps/PriceConverter.sol\":732:1057  function getConversionRate(... */\n      swap2\n      swap1\n      pop\n      jump\t// out\n        /* \".deps/PriceConverter.sol\":268:708  function getPrice() internal view returns (uint256) {... */\n    tag_80:\n        /* \".deps/PriceConverter.sol\":311:318  uint256 */\n      0x00\n        /* \".deps/PriceConverter.sol\":435:466  AggregatorV3Interface priceFeed */\n      dup1\n        /* \".deps/PriceConverter.sol\":504:546  0x694AA1769357215DE4FAC081bf1f309aDC325306 */\n      0x694aa1769357215de4fac081bf1f309adc325306\n        /* \".deps/PriceConverter.sol\":435:556  AggregatorV3Interface priceFeed = AggregatorV3Interface(... */\n      swap1\n      pop\n        /* \".deps/PriceConverter.sol\":569:582  int256 answer */\n      0x00\n        /* \".deps/PriceConverter.sol\":592:601  priceFeed */\n      dup2\n        /* \".deps/PriceConverter.sol\":592:617  priceFeed.latestRoundData */\n      0xffffffffffffffffffffffffffffffffffffffff\n      and\n      0xfeaf968c\n        /* \".deps/PriceConverter.sol\":592:619  priceFeed.latestRoundData() */\n      mload(0x40)\n      dup2\n      0xffffffff\n      and\n      0xe0\n      shl\n      dup2\n      mstore\n      0x04\n      add\n      0xa0\n      mload(0x40)\n      dup1\n      dup4\n      sub\n      dup2\n      dup7\n      gas\n      staticcall\n      iszero\n      dup1\n      iszero\n      tag_87\n      jumpi\n      returndatasize\n      0x00\n      dup1\n      returndatacopy\n      revert(0x00, returndatasize)\n    tag_87:\n      pop\n      pop\n      pop\n      pop\n      mload(0x40)\n      returndatasize\n      not(0x1f)\n      0x1f\n      dup3\n      add\n      and\n      dup3\n      add\n      dup1\n      0x40\n      mstore\n      pop\n      dup2\n      add\n      swap1\n      tag_88\n      swap2\n      swap1\n      tag_89\n      jump\t// in\n    tag_88:\n        /* \".deps/PriceConverter.sol\":566:619  (, int256 answer, , , ) = priceFeed.latestRoundData() */\n      pop\n      pop\n      pop\n      swap2\n      pop\n      pop\n        /* \".deps/PriceConverter.sol\":689:700  10000000000 */\n      0x02540be400\n        /* \".deps/PriceConverter.sol\":680:686  answer */\n      dup2\n        /* \".deps/PriceConverter.sol\":680:700  answer * 10000000000 */\n      tag_90\n      swap2\n      swap1\n      tag_91\n      jump\t// in\n    tag_90:\n        /* \".deps/PriceConverter.sol\":665:701  return uint256(answer * 10000000000) */\n      swap3\n      pop\n      pop\n      pop\n        /* \".deps/PriceConverter.sol\":268:708  function getPrice() internal view returns (uint256) {... */\n      swap1\n      jump\t// out\n    tag_56:\n      dup3\n      dup1\n      sload\n      dup3\n      dup3\n      sstore\n      swap1\n      0x00\n      mstore\n      keccak256(0x00, 0x20)\n      swap1\n      dup2\n      add\n      swap3\n      dup3\n      iszero\n      tag_92\n      jumpi\n      swap2\n      0x20\n      mul\n      dup3\n      add\n    tag_93:\n      dup3\n      dup2\n      gt\n      iszero\n      tag_94\n      jumpi\n      dup3\n      mload\n      dup3\n      exp(0x0100, 0x00)\n      dup2\n      sload\n      dup2\n      0xffffffffffffffffffffffffffffffffffffffff\n      mul\n      not\n      and\n      swap1\n      dup4\n      0xffffffffffffffffffffffffffffffffffffffff\n      and\n      mul\n      or\n      swap1\n      sstore\n      pop\n      swap2\n      0x20\n      add\n      swap2\n      swap1\n      0x01\n      add\n      swap1\n      jump(tag_93)\n    tag_94:\n    tag_92:\n      pop\n      swap1\n      pop\n      tag_95\n      swap2\n      swap1\n      tag_96\n      jump\t// in\n    tag_95:\n      pop\n      swap1\n      jump\t// out\n    tag_96:\n    tag_97:\n      dup1\n      dup3\n      gt\n      iszero\n      tag_98\n      jumpi\n      0x00\n      dup2\n      0x00\n      swap1\n      sstore\n      pop\n      0x01\n      add\n      jump(tag_97)\n    tag_98:\n      pop\n      swap1\n      jump\t// out\n        /* \"#utility.yul\":7:84   */\n    tag_99:\n        /* \"#utility.yul\":44:51   */\n      0x00\n        /* \"#utility.yul\":73:78   */\n      dup2\n        /* \"#utility.yul\":62:78   */\n      swap1\n      pop\n        /* \"#utility.yul\":7:84   */\n      swap2\n      swap1\n      pop\n      jump\t// out\n        /* \"#utility.yul\":90:208   */\n    tag_100:\n        /* \"#utility.yul\":177:201   */\n      tag_139\n        /* \"#utility.yul\":195:200   */\n      dup2\n        /* \"#utility.yul\":177:201   */\n      tag_99\n      jump\t// in\n    tag_139:\n        /* \"#utility.yul\":172:175   */\n      dup3\n        /* \"#utility.yul\":165:202   */\n      mstore\n        /* \"#utility.yul\":90:208   */\n      pop\n      pop\n      jump\t// out\n        /* \"#utility.yul\":214:436   */\n    tag_12:\n        /* \"#utility.yul\":307:311   */\n      0x00\n        /* \"#utility.yul\":345:347   */\n      0x20\n        /* \"#utility.yul\":334:343   */\n      dup3\n        /* \"#utility.yul\":330:348   */\n      add\n        /* \"#utility.yul\":322:348   */\n      swap1\n      pop\n        /* \"#utility.yul\":358:429   */\n      tag_141\n        /* \"#utility.yul\":426:427   */\n      0x00\n        /* \"#utility.yul\":415:424   */\n      dup4\n        /* \"#utility.yul\":411:428   */\n      add\n        /* \"#utility.yul\":402:408   */\n      dup5\n        /* \"#utility.yul\":358:429   */\n      tag_100\n      jump\t// in\n    tag_141:\n        /* \"#utility.yul\":214:436   */\n      swap3\n      swap2\n      pop\n      pop\n      jump\t// out\n        /* \"#utility.yul\":523:640   */\n    tag_102:\n        /* \"#utility.yul\":632:633   */\n      0x00\n        /* \"#utility.yul\":629:630   */\n      dup1\n        /* \"#utility.yul\":622:634   */\n      revert\n        /* \"#utility.yul\":769:895   */\n    tag_104:\n        /* \"#utility.yul\":806:813   */\n      0x00\n        /* \"#utility.yul\":846:888   */\n      0xffffffffffffffffffffffffffffffffffffffff\n        /* \"#utility.yul\":839:844   */\n      dup3\n        /* \"#utility.yul\":835:889   */\n      and\n        /* \"#utility.yul\":824:889   */\n      swap1\n      pop\n        /* \"#utility.yul\":769:895   */\n      swap2\n      swap1\n      pop\n      jump\t// out\n        /* \"#utility.yul\":901:997   */\n    tag_105:\n        /* \"#utility.yul\":938:945   */\n      0x00\n        /* \"#utility.yul\":967:991   */\n      tag_147\n        /* \"#utility.yul\":985:990   */\n      dup3\n        /* \"#utility.yul\":967:991   */\n      tag_104\n      jump\t// in\n    tag_147:\n        /* \"#utility.yul\":956:991   */\n      swap1\n      pop\n        /* \"#utility.yul\":901:997   */\n      swap2\n      swap1\n      pop\n      jump\t// out\n        /* \"#utility.yul\":1003:1125   */\n    tag_106:\n        /* \"#utility.yul\":1076:1100   */\n      tag_149\n        /* \"#utility.yul\":1094:1099   */\n      dup2\n        /* \"#utility.yul\":1076:1100   */\n      tag_105\n      jump\t// in\n    tag_149:\n        /* \"#utility.yul\":1069:1074   */\n      dup2\n        /* \"#utility.yul\":1066:1101   */\n      eq\n        /* \"#utility.yul\":1056:1119   */\n      tag_150\n      jumpi\n        /* \"#utility.yul\":1115:1116   */\n      0x00\n        /* \"#utility.yul\":1112:1113   */\n      dup1\n        /* \"#utility.yul\":1105:1117   */\n      revert\n        /* \"#utility.yul\":1056:1119   */\n    tag_150:\n        /* \"#utility.yul\":1003:1125   */\n      pop\n      jump\t// out\n        /* \"#utility.yul\":1131:1270   */\n    tag_107:\n        /* \"#utility.yul\":1177:1182   */\n      0x00\n        /* \"#utility.yul\":1215:1221   */\n      dup2\n        /* \"#utility.yul\":1202:1222   */\n      calldataload\n        /* \"#utility.yul\":1193:1222   */\n      swap1\n      pop\n        /* \"#utility.yul\":1231:1264   */\n      tag_152\n        /* \"#utility.yul\":1258:1263   */\n      dup2\n        /* \"#utility.yul\":1231:1264   */\n      tag_106\n      jump\t// in\n    tag_152:\n        /* \"#utility.yul\":1131:1270   */\n      swap3\n      swap2\n      pop\n      pop\n      jump\t// out\n        /* \"#utility.yul\":1276:1605   */\n    tag_19:\n        /* \"#utility.yul\":1335:1341   */\n      0x00\n        /* \"#utility.yul\":1384:1386   */\n      0x20\n        /* \"#utility.yul\":1372:1381   */\n      dup3\n        /* \"#utility.yul\":1363:1370   */\n      dup5\n        /* \"#utility.yul\":1359:1382   */\n      sub\n        /* \"#utility.yul\":1355:1387   */\n      slt\n        /* \"#utility.yul\":1352:1471   */\n      iszero\n      tag_154\n      jumpi\n        /* \"#utility.yul\":1390:1469   */\n      tag_155\n      tag_102\n      jump\t// in\n    tag_155:\n        /* \"#utility.yul\":1352:1471   */\n    tag_154:\n        /* \"#utility.yul\":1510:1511   */\n      0x00\n        /* \"#utility.yul\":1535:1588   */\n      tag_156\n        /* \"#utility.yul\":1580:1587   */\n      dup5\n        /* \"#utility.yul\":1571:1577   */\n      dup3\n        /* \"#utility.yul\":1560:1569   */\n      dup6\n        /* \"#utility.yul\":1556:1578   */\n      add\n        /* \"#utility.yul\":1535:1588   */\n      tag_107\n      jump\t// in\n    tag_156:\n        /* \"#utility.yul\":1525:1588   */\n      swap2\n      pop\n        /* \"#utility.yul\":1481:1598   */\n      pop\n        /* \"#utility.yul\":1276:1605   */\n      swap3\n      swap2\n      pop\n      pop\n      jump\t// out\n        /* \"#utility.yul\":1611:1729   */\n    tag_108:\n        /* \"#utility.yul\":1698:1722   */\n      tag_158\n        /* \"#utility.yul\":1716:1721   */\n      dup2\n        /* \"#utility.yul\":1698:1722   */\n      tag_105\n      jump\t// in\n    tag_158:\n        /* \"#utility.yul\":1693:1696   */\n      dup3\n        /* \"#utility.yul\":1686:1723   */\n      mstore\n        /* \"#utility.yul\":1611:1729   */\n      pop\n      pop\n      jump\t// out\n        /* \"#utility.yul\":1735:1957   */\n    tag_26:\n        /* \"#utility.yul\":1828:1832   */\n      0x00\n        /* \"#utility.yul\":1866:1868   */\n      0x20\n        /* \"#utility.yul\":1855:1864   */\n      dup3\n        /* \"#utility.yul\":1851:1869   */\n      add\n        /* \"#utility.yul\":1843:1869   */\n      swap1\n      pop\n        /* \"#utility.yul\":1879:1950   */\n      tag_160\n        /* \"#utility.yul\":1947:1948   */\n      0x00\n        /* \"#utility.yul\":1936:1945   */\n      dup4\n        /* \"#utility.yul\":1932:1949   */\n      add\n        /* \"#utility.yul\":1923:1929   */\n      dup5\n        /* \"#utility.yul\":1879:1950   */\n      tag_108\n      jump\t// in\n    tag_160:\n        /* \"#utility.yul\":1735:1957   */\n      swap3\n      swap2\n      pop\n      pop\n      jump\t// out\n        /* \"#utility.yul\":1963:2077   */\n    tag_109:\n        /* \"#utility.yul\":2030:2036   */\n      0x00\n        /* \"#utility.yul\":2064:2069   */\n      dup2\n        /* \"#utility.yul\":2058:2070   */\n      mload\n        /* \"#utility.yul\":2048:2070   */\n      swap1\n      pop\n        /* \"#utility.yul\":1963:2077   */\n      swap2\n      swap1\n      pop\n      jump\t// out\n        /* \"#utility.yul\":2083:2267   */\n    tag_110:\n        /* \"#utility.yul\":2182:2193   */\n      0x00\n        /* \"#utility.yul\":2216:2222   */\n      dup3\n        /* \"#utility.yul\":2211:2214   */\n      dup3\n        /* \"#utility.yul\":2204:2223   */\n      mstore\n        /* \"#utility.yul\":2256:2260   */\n      0x20\n        /* \"#utility.yul\":2251:2254   */\n      dup3\n        /* \"#utility.yul\":2247:2261   */\n      add\n        /* \"#utility.yul\":2232:2261   */\n      swap1\n      pop\n        /* \"#utility.yul\":2083:2267   */\n      swap3\n      swap2\n      pop\n      pop\n      jump\t// out\n        /* \"#utility.yul\":2273:2405   */\n    tag_111:\n        /* \"#utility.yul\":2340:2344   */\n      0x00\n        /* \"#utility.yul\":2363:2366   */\n      dup2\n        /* \"#utility.yul\":2355:2366   */\n      swap1\n      pop\n        /* \"#utility.yul\":2393:2397   */\n      0x20\n        /* \"#utility.yul\":2388:2391   */\n      dup3\n        /* \"#utility.yul\":2384:2398   */\n      add\n        /* \"#utility.yul\":2376:2398   */\n      swap1\n      pop\n        /* \"#utility.yul\":2273:2405   */\n      swap2\n      swap1\n      pop\n      jump\t// out\n        /* \"#utility.yul\":2411:2519   */\n    tag_112:\n        /* \"#utility.yul\":2488:2512   */\n      tag_165\n        /* \"#utility.yul\":2506:2511   */\n      dup2\n        /* \"#utility.yul\":2488:2512   */\n      tag_105\n      jump\t// in\n    tag_165:\n        /* \"#utility.yul\":2483:2486   */\n      dup3\n        /* \"#utility.yul\":2476:2513   */\n      mstore\n        /* \"#utility.yul\":2411:2519   */\n      pop\n      pop\n      jump\t// out\n        /* \"#utility.yul\":2525:2704   */\n    tag_113:\n        /* \"#utility.yul\":2594:2604   */\n      0x00\n        /* \"#utility.yul\":2615:2661   */\n      tag_167\n        /* \"#utility.yul\":2657:2660   */\n      dup4\n        /* \"#utility.yul\":2649:2655   */\n      dup4\n        /* \"#utility.yul\":2615:2661   */\n      tag_112\n      jump\t// in\n    tag_167:\n        /* \"#utility.yul\":2693:2697   */\n      0x20\n        /* \"#utility.yul\":2688:2691   */\n      dup4\n        /* \"#utility.yul\":2684:2698   */\n      add\n        /* \"#utility.yul\":2670:2698   */\n      swap1\n      pop\n        /* \"#utility.yul\":2525:2704   */\n      swap3\n      swap2\n      pop\n      pop\n      jump\t// out\n        /* \"#utility.yul\":2710:2823   */\n    tag_114:\n        /* \"#utility.yul\":2780:2784   */\n      0x00\n        /* \"#utility.yul\":2812:2816   */\n      0x20\n        /* \"#utility.yul\":2807:2810   */\n      dup3\n        /* \"#utility.yul\":2803:2817   */\n      add\n        /* \"#utility.yul\":2795:2817   */\n      swap1\n      pop\n        /* \"#utility.yul\":2710:2823   */\n      swap2\n      swap1\n      pop\n      jump\t// out\n        /* \"#utility.yul\":2859:3591   */\n    tag_115:\n        /* \"#utility.yul\":2978:2981   */\n      0x00\n        /* \"#utility.yul\":3007:3061   */\n      tag_170\n        /* \"#utility.yul\":3055:3060   */\n      dup3\n        /* \"#utility.yul\":3007:3061   */\n      tag_109\n      jump\t// in\n    tag_170:\n        /* \"#utility.yul\":3077:3163   */\n      tag_171\n        /* \"#utility.yul\":3156:3162   */\n      dup2\n        /* \"#utility.yul\":3151:3154   */\n      dup6\n        /* \"#utility.yul\":3077:3163   */\n      tag_110\n      jump\t// in\n    tag_171:\n        /* \"#utility.yul\":3070:3163   */\n      swap4\n      pop\n        /* \"#utility.yul\":3187:3243   */\n      tag_172\n        /* \"#utility.yul\":3237:3242   */\n      dup4\n        /* \"#utility.yul\":3187:3243   */\n      tag_111\n      jump\t// in\n    tag_172:\n        /* \"#utility.yul\":3266:3273   */\n      dup1\n        /* \"#utility.yul\":3297:3298   */\n      0x00\n        /* \"#utility.yul\":3282:3566   */\n    tag_173:\n        /* \"#utility.yul\":3307:3313   */\n      dup4\n        /* \"#utility.yul\":3304:3305   */\n      dup2\n        /* \"#utility.yul\":3301:3314   */\n      lt\n        /* \"#utility.yul\":3282:3566   */\n      iszero\n      tag_175\n      jumpi\n        /* \"#utility.yul\":3383:3389   */\n      dup2\n        /* \"#utility.yul\":3377:3390   */\n      mload\n        /* \"#utility.yul\":3410:3473   */\n      tag_176\n        /* \"#utility.yul\":3469:3472   */\n      dup9\n        /* \"#utility.yul\":3454:3467   */\n      dup3\n        /* \"#utility.yul\":3410:3473   */\n      tag_113\n      jump\t// in\n    tag_176:\n        /* \"#utility.yul\":3403:3473   */\n      swap8\n      pop\n        /* \"#utility.yul\":3496:3556   */\n      tag_177\n        /* \"#utility.yul\":3549:3555   */\n      dup4\n        /* \"#utility.yul\":3496:3556   */\n      tag_114\n      jump\t// in\n    tag_177:\n        /* \"#utility.yul\":3486:3556   */\n      swap3\n      pop\n        /* \"#utility.yul\":3342:3566   */\n      pop\n        /* \"#utility.yul\":3329:3330   */\n      0x01\n        /* \"#utility.yul\":3326:3327   */\n      dup2\n        /* \"#utility.yul\":3322:3331   */\n      add\n        /* \"#utility.yul\":3317:3331   */\n      swap1\n      pop\n        /* \"#utility.yul\":3282:3566   */\n      jump(tag_173)\n    tag_175:\n        /* \"#utility.yul\":3286:3300   */\n      pop\n        /* \"#utility.yul\":3582:3585   */\n      dup6\n        /* \"#utility.yul\":3575:3585   */\n      swap4\n      pop\n        /* \"#utility.yul\":2983:3591   */\n      pop\n      pop\n      pop\n        /* \"#utility.yul\":2859:3591   */\n      swap3\n      swap2\n      pop\n      pop\n      jump\t// out\n        /* \"#utility.yul\":3597:3970   */\n    tag_33:\n        /* \"#utility.yul\":3740:3744   */\n      0x00\n        /* \"#utility.yul\":3778:3780   */\n      0x20\n        /* \"#utility.yul\":3767:3776   */\n      dup3\n        /* \"#utility.yul\":3763:3781   */\n      add\n        /* \"#utility.yul\":3755:3781   */\n      swap1\n      pop\n        /* \"#utility.yul\":3827:3836   */\n      dup2\n        /* \"#utility.yul\":3821:3825   */\n      dup2\n        /* \"#utility.yul\":3817:3837   */\n      sub\n        /* \"#utility.yul\":3813:3814   */\n      0x00\n        /* \"#utility.yul\":3802:3811   */\n      dup4\n        /* \"#utility.yul\":3798:3815   */\n      add\n        /* \"#utility.yul\":3791:3838   */\n      mstore\n        /* \"#utility.yul\":3855:3963   */\n      tag_179\n        /* \"#utility.yul\":3958:3962   */\n      dup2\n        /* \"#utility.yul\":3949:3955   */\n      dup5\n        /* \"#utility.yul\":3855:3963   */\n      tag_115\n      jump\t// in\n    tag_179:\n        /* \"#utility.yul\":3847:3963   */\n      swap1\n      pop\n        /* \"#utility.yul\":3597:3970   */\n      swap3\n      swap2\n      pop\n      pop\n      jump\t// out\n        /* \"#utility.yul\":3976:4098   */\n    tag_116:\n        /* \"#utility.yul\":4049:4073   */\n      tag_181\n        /* \"#utility.yul\":4067:4072   */\n      dup2\n        /* \"#utility.yul\":4049:4073   */\n      tag_99\n      jump\t// in\n    tag_181:\n        /* \"#utility.yul\":4042:4047   */\n      dup2\n        /* \"#utility.yul\":4039:4074   */\n      eq\n        /* \"#utility.yul\":4029:4092   */\n      tag_182\n      jumpi\n        /* \"#utility.yul\":4088:4089   */\n      0x00\n        /* \"#utility.yul\":4085:4086   */\n      dup1\n        /* \"#utility.yul\":4078:4090   */\n      revert\n        /* \"#utility.yul\":4029:4092   */\n    tag_182:\n        /* \"#utility.yul\":3976:4098   */\n      pop\n      jump\t// out\n        /* \"#utility.yul\":4104:4247   */\n    tag_117:\n        /* \"#utility.yul\":4161:4166   */\n      0x00\n        /* \"#utility.yul\":4192:4198   */\n      dup2\n        /* \"#utility.yul\":4186:4199   */\n      mload\n        /* \"#utility.yul\":4177:4199   */\n      swap1\n      pop\n        /* \"#utility.yul\":4208:4241   */\n      tag_184\n        /* \"#utility.yul\":4235:4240   */\n      dup2\n        /* \"#utility.yul\":4208:4241   */\n      tag_116\n      jump\t// in\n    tag_184:\n        /* \"#utility.yul\":4104:4247   */\n      swap3\n      swap2\n      pop\n      pop\n      jump\t// out\n        /* \"#utility.yul\":4253:4604   */\n    tag_38:\n        /* \"#utility.yul\":4323:4329   */\n      0x00\n        /* \"#utility.yul\":4372:4374   */\n      0x20\n        /* \"#utility.yul\":4360:4369   */\n      dup3\n        /* \"#utility.yul\":4351:4358   */\n      dup5\n        /* \"#utility.yul\":4347:4370   */\n      sub\n        /* \"#utility.yul\":4343:4375   */\n      slt\n        /* \"#utility.yul\":4340:4459   */\n      iszero\n      tag_186\n      jumpi\n        /* \"#utility.yul\":4378:4457   */\n      tag_187\n      tag_102\n      jump\t// in\n    tag_187:\n        /* \"#utility.yul\":4340:4459   */\n    tag_186:\n        /* \"#utility.yul\":4498:4499   */\n      0x00\n        /* \"#utility.yul\":4523:4587   */\n      tag_188\n        /* \"#utility.yul\":4579:4586   */\n      dup5\n        /* \"#utility.yul\":4570:4576   */\n      dup3\n        /* \"#utility.yul\":4559:4568   */\n      dup6\n        /* \"#utility.yul\":4555:4577   */\n      add\n        /* \"#utility.yul\":4523:4587   */\n      tag_117\n      jump\t// in\n    tag_188:\n        /* \"#utility.yul\":4513:4587   */\n      swap2\n      pop\n        /* \"#utility.yul\":4469:4597   */\n      pop\n        /* \"#utility.yul\":4253:4604   */\n      swap3\n      swap2\n      pop\n      pop\n      jump\t// out\n        /* \"#utility.yul\":4610:4779   */\n    tag_118:\n        /* \"#utility.yul\":4694:4705   */\n      0x00\n        /* \"#utility.yul\":4728:4734   */\n      dup3\n        /* \"#utility.yul\":4723:4726   */\n      dup3\n        /* \"#utility.yul\":4716:4735   */\n      mstore\n        /* \"#utility.yul\":4768:4772   */\n      0x20\n        /* \"#utility.yul\":4763:4766   */\n      dup3\n        /* \"#utility.yul\":4759:4773   */\n      add\n        /* \"#utility.yul\":4744:4773   */\n      swap1\n      pop\n        /* \"#utility.yul\":4610:4779   */\n      swap3\n      swap2\n      pop\n      pop\n      jump\t// out\n        /* \"#utility.yul\":4785:4957   */\n    tag_119:\n        /* \"#utility.yul\":4925:4949   */\n      0x596f7520617265206e6f7420746865206f776e65722100000000000000000000\n        /* \"#utility.yul\":4921:4922   */\n      0x00\n        /* \"#utility.yul\":4913:4919   */\n      dup3\n        /* \"#utility.yul\":4909:4923   */\n      add\n        /* \"#utility.yul\":4902:4950   */\n      mstore\n        /* \"#utility.yul\":4785:4957   */\n      pop\n      jump\t// out\n        /* \"#utility.yul\":4963:5329   */\n    tag_120:\n        /* \"#utility.yul\":5105:5108   */\n      0x00\n        /* \"#utility.yul\":5126:5193   */\n      tag_192\n        /* \"#utility.yul\":5190:5192   */\n      0x16\n        /* \"#utility.yul\":5185:5188   */\n      dup4\n        /* \"#utility.yul\":5126:5193   */\n      tag_118\n      jump\t// in\n    tag_192:\n        /* \"#utility.yul\":5119:5193   */\n      swap2\n      pop\n        /* \"#utility.yul\":5202:5295   */\n      tag_193\n        /* \"#utility.yul\":5291:5294   */\n      dup3\n        /* \"#utility.yul\":5202:5295   */\n      tag_119\n      jump\t// in\n    tag_193:\n        /* \"#utility.yul\":5320:5322   */\n      0x20\n        /* \"#utility.yul\":5315:5318   */\n      dup3\n        /* \"#utility.yul\":5311:5323   */\n      add\n        /* \"#utility.yul\":5304:5323   */\n      swap1\n      pop\n        /* \"#utility.yul\":4963:5329   */\n      swap2\n      swap1\n      pop\n      jump\t// out\n        /* \"#utility.yul\":5335:5754   */\n    tag_42:\n        /* \"#utility.yul\":5501:5505   */\n      0x00\n        /* \"#utility.yul\":5539:5541   */\n      0x20\n        /* \"#utility.yul\":5528:5537   */\n      dup3\n        /* \"#utility.yul\":5524:5542   */\n      add\n        /* \"#utility.yul\":5516:5542   */\n      swap1\n      pop\n        /* \"#utility.yul\":5588:5597   */\n      dup2\n        /* \"#utility.yul\":5582:5586   */\n      dup2\n        /* \"#utility.yul\":5578:5598   */\n      sub\n        /* \"#utility.yul\":5574:5575   */\n      0x00\n        /* \"#utility.yul\":5563:5572   */\n      dup4\n        /* \"#utility.yul\":5559:5576   */\n      add\n        /* \"#utility.yul\":5552:5599   */\n      mstore\n        /* \"#utility.yul\":5616:5747   */\n      tag_195\n        /* \"#utility.yul\":5742:5746   */\n      dup2\n        /* \"#utility.yul\":5616:5747   */\n      tag_120\n      jump\t// in\n    tag_195:\n        /* \"#utility.yul\":5608:5747   */\n      swap1\n      pop\n        /* \"#utility.yul\":5335:5754   */\n      swap2\n      swap1\n      pop\n      jump\t// out\n        /* \"#utility.yul\":5760:5940   */\n    tag_48:\n        /* \"#utility.yul\":5808:5885   */\n      0x4e487b7100000000000000000000000000000000000000000000000000000000\n        /* \"#utility.yul\":5805:5806   */\n      0x00\n        /* \"#utility.yul\":5798:5886   */\n      mstore\n        /* \"#utility.yul\":5905:5909   */\n      0x32\n        /* \"#utility.yul\":5902:5903   */\n      0x04\n        /* \"#utility.yul\":5895:5910   */\n      mstore\n        /* \"#utility.yul\":5929:5933   */\n      0x24\n        /* \"#utility.yul\":5926:5927   */\n      0x00\n        /* \"#utility.yul\":5919:5934   */\n      revert\n        /* \"#utility.yul\":5946:6126   */\n    tag_53:\n        /* \"#utility.yul\":5994:6071   */\n      0x4e487b7100000000000000000000000000000000000000000000000000000000\n        /* \"#utility.yul\":5991:5992   */\n      0x00\n        /* \"#utility.yul\":5984:6072   */\n      mstore\n        /* \"#utility.yul\":6091:6095   */\n      0x41\n        /* \"#utility.yul\":6088:6089   */\n      0x04\n        /* \"#utility.yul\":6081:6096   */\n      mstore\n        /* \"#utility.yul\":6115:6119   */\n      0x24\n        /* \"#utility.yul\":6112:6113   */\n      0x00\n        /* \"#utility.yul\":6105:6120   */\n      revert\n        /* \"#utility.yul\":6132:6279   */\n    tag_121:\n        /* \"#utility.yul\":6233:6244   */\n      0x00\n        /* \"#utility.yul\":6270:6273   */\n      dup2\n        /* \"#utility.yul\":6255:6273   */\n      swap1\n      pop\n        /* \"#utility.yul\":6132:6279   */\n      swap3\n      swap2\n      pop\n      pop\n      jump\t// out\n        /* \"#utility.yul\":6285:6399   */\n    tag_122:\n      pop\n      jump\t// out\n        /* \"#utility.yul\":6405:6803   */\n    tag_123:\n        /* \"#utility.yul\":6564:6567   */\n      0x00\n        /* \"#utility.yul\":6585:6668   */\n      tag_201\n        /* \"#utility.yul\":6666:6667   */\n      0x00\n        /* \"#utility.yul\":6661:6664   */\n      dup4\n        /* \"#utility.yul\":6585:6668   */\n      tag_121\n      jump\t// in\n    tag_201:\n        /* \"#utility.yul\":6578:6668   */\n      swap2\n      pop\n        /* \"#utility.yul\":6677:6770   */\n      tag_202\n        /* \"#utility.yul\":6766:6769   */\n      dup3\n        /* \"#utility.yul\":6677:6770   */\n      tag_122\n      jump\t// in\n    tag_202:\n        /* \"#utility.yul\":6795:6796   */\n      0x00\n        /* \"#utility.yul\":6790:6793   */\n      dup3\n        /* \"#utility.yul\":6786:6797   */\n      add\n        /* \"#utility.yul\":6779:6797   */\n      swap1\n      pop\n        /* \"#utility.yul\":6405:6803   */\n      swap2\n      swap1\n      pop\n      jump\t// out\n        /* \"#utility.yul\":6809:7188   */\n    tag_58:\n        /* \"#utility.yul\":6993:6996   */\n      0x00\n        /* \"#utility.yul\":7015:7162   */\n      tag_204\n        /* \"#utility.yul\":7158:7161   */\n      dup3\n        /* \"#utility.yul\":7015:7162   */\n      tag_123\n      jump\t// in\n    tag_204:\n        /* \"#utility.yul\":7008:7162   */\n      swap2\n      pop\n        /* \"#utility.yul\":7179:7182   */\n      dup2\n        /* \"#utility.yul\":7172:7182   */\n      swap1\n      pop\n        /* \"#utility.yul\":6809:7188   */\n      swap2\n      swap1\n      pop\n      jump\t// out\n        /* \"#utility.yul\":7194:7374   */\n    tag_124:\n        /* \"#utility.yul\":7334:7366   */\n      0x6661696c656420746f20776974686472617720796f75722066756e6473210000\n        /* \"#utility.yul\":7330:7331   */\n      0x00\n        /* \"#utility.yul\":7322:7328   */\n      dup3\n        /* \"#utility.yul\":7318:7332   */\n      add\n        /* \"#utility.yul\":7311:7367   */\n      mstore\n        /* \"#utility.yul\":7194:7374   */\n      pop\n      jump\t// out\n        /* \"#utility.yul\":7380:7746   */\n    tag_125:\n        /* \"#utility.yul\":7522:7525   */\n      0x00\n        /* \"#utility.yul\":7543:7610   */\n      tag_207\n        /* \"#utility.yul\":7607:7609   */\n      0x1e\n        /* \"#utility.yul\":7602:7605   */\n      dup4\n        /* \"#utility.yul\":7543:7610   */\n      tag_118\n      jump\t// in\n    tag_207:\n        /* \"#utility.yul\":7536:7610   */\n      swap2\n      pop\n        /* \"#utility.yul\":7619:7712   */\n      tag_208\n        /* \"#utility.yul\":7708:7711   */\n      dup3\n        /* \"#utility.yul\":7619:7712   */\n      tag_124\n      jump\t// in\n    tag_208:\n        /* \"#utility.yul\":7737:7739   */\n      0x20\n        /* \"#utility.yul\":7732:7735   */\n      dup3\n        /* \"#utility.yul\":7728:7740   */\n      add\n        /* \"#utility.yul\":7721:7740   */\n      swap1\n      pop\n        /* \"#utility.yul\":7380:7746   */\n      swap2\n      swap1\n      pop\n      jump\t// out\n        /* \"#utility.yul\":7752:8171   */\n    tag_64:\n        /* \"#utility.yul\":7918:7922   */\n      0x00\n        /* \"#utility.yul\":7956:7958   */\n      0x20\n        /* \"#utility.yul\":7945:7954   */\n      dup3\n        /* \"#utility.yul\":7941:7959   */\n      add\n        /* \"#utility.yul\":7933:7959   */\n      swap1\n      pop\n        /* \"#utility.yul\":8005:8014   */\n      dup2\n        /* \"#utility.yul\":7999:8003   */\n      dup2\n        /* \"#utility.yul\":7995:8015   */\n      sub\n        /* \"#utility.yul\":7991:7992   */\n      0x00\n        /* \"#utility.yul\":7980:7989   */\n      dup4\n        /* \"#utility.yul\":7976:7993   */\n      add\n        /* \"#utility.yul\":7969:8016   */\n      mstore\n        /* \"#utility.yul\":8033:8164   */\n      tag_210\n        /* \"#utility.yul\":8159:8163   */\n      dup2\n        /* \"#utility.yul\":8033:8164   */\n      tag_125\n      jump\t// in\n    tag_210:\n        /* \"#utility.yul\":8025:8164   */\n      swap1\n      pop\n        /* \"#utility.yul\":7752:8171   */\n      swap2\n      swap1\n      pop\n      jump\t// out\n        /* \"#utility.yul\":8177:8354   */\n    tag_126:\n        /* \"#utility.yul\":8317:8346   */\n      0x596f75206e65656420746f2073656e64206d6f72652076616c75650000000000\n        /* \"#utility.yul\":8313:8314   */\n      0x00\n        /* \"#utility.yul\":8305:8311   */\n      dup3\n        /* \"#utility.yul\":8301:8315   */\n      add\n        /* \"#utility.yul\":8294:8347   */\n      mstore\n        /* \"#utility.yul\":8177:8354   */\n      pop\n      jump\t// out\n        /* \"#utility.yul\":8360:8726   */\n    tag_127:\n        /* \"#utility.yul\":8502:8505   */\n      0x00\n        /* \"#utility.yul\":8523:8590   */\n      tag_213\n        /* \"#utility.yul\":8587:8589   */\n      0x1b\n        /* \"#utility.yul\":8582:8585   */\n      dup4\n        /* \"#utility.yul\":8523:8590   */\n      tag_118\n      jump\t// in\n    tag_213:\n        /* \"#utility.yul\":8516:8590   */\n      swap2\n      pop\n        /* \"#utility.yul\":8599:8692   */\n      tag_214\n        /* \"#utility.yul\":8688:8691   */\n      dup3\n        /* \"#utility.yul\":8599:8692   */\n      tag_126\n      jump\t// in\n    tag_214:\n        /* \"#utility.yul\":8717:8719   */\n      0x20\n        /* \"#utility.yul\":8712:8715   */\n      dup3\n        /* \"#utility.yul\":8708:8720   */\n      add\n        /* \"#utility.yul\":8701:8720   */\n      swap1\n      pop\n        /* \"#utility.yul\":8360:8726   */\n      swap2\n      swap1\n      pop\n      jump\t// out\n        /* \"#utility.yul\":8732:9151   */\n    tag_70:\n        /* \"#utility.yul\":8898:8902   */\n      0x00\n        /* \"#utility.yul\":8936:8938   */\n      0x20\n        /* \"#utility.yul\":8925:8934   */\n      dup3\n        /* \"#utility.yul\":8921:8939   */\n      add\n        /* \"#utility.yul\":8913:8939   */\n      swap1\n      pop\n        /* \"#utility.yul\":8985:8994   */\n      dup2\n        /* \"#utility.yul\":8979:8983   */\n      dup2\n        /* \"#utility.yul\":8975:8995   */\n      sub\n        /* \"#utility.yul\":8971:8972   */\n      0x00\n        /* \"#utility.yul\":8960:8969   */\n      dup4\n        /* \"#utility.yul\":8956:8973   */\n      add\n        /* \"#utility.yul\":8949:8996   */\n      mstore\n        /* \"#utility.yul\":9013:9144   */\n      tag_216\n        /* \"#utility.yul\":9139:9143   */\n      dup2\n        /* \"#utility.yul\":9013:9144   */\n      tag_127\n      jump\t// in\n    tag_216:\n        /* \"#utility.yul\":9005:9144   */\n      swap1\n      pop\n        /* \"#utility.yul\":8732:9151   */\n      swap2\n      swap1\n      pop\n      jump\t// out\n        /* \"#utility.yul\":9157:9337   */\n    tag_128:\n        /* \"#utility.yul\":9205:9282   */\n      0x4e487b7100000000000000000000000000000000000000000000000000000000\n        /* \"#utility.yul\":9202:9203   */\n      0x00\n        /* \"#utility.yul\":9195:9283   */\n      mstore\n        /* \"#utility.yul\":9302:9306   */\n      0x11\n        /* \"#utility.yul\":9299:9300   */\n      0x04\n        /* \"#utility.yul\":9292:9307   */\n      mstore\n        /* \"#utility.yul\":9326:9330   */\n      0x24\n        /* \"#utility.yul\":9323:9324   */\n      0x00\n        /* \"#utility.yul\":9316:9331   */\n      revert\n        /* \"#utility.yul\":9343:9534   */\n    tag_74:\n        /* \"#utility.yul\":9383:9386   */\n      0x00\n        /* \"#utility.yul\":9402:9422   */\n      tag_219\n        /* \"#utility.yul\":9420:9421   */\n      dup3\n        /* \"#utility.yul\":9402:9422   */\n      tag_99\n      jump\t// in\n    tag_219:\n        /* \"#utility.yul\":9397:9422   */\n      swap2\n      pop\n        /* \"#utility.yul\":9436:9456   */\n      tag_220\n        /* \"#utility.yul\":9454:9455   */\n      dup4\n        /* \"#utility.yul\":9436:9456   */\n      tag_99\n      jump\t// in\n    tag_220:\n        /* \"#utility.yul\":9431:9456   */\n      swap3\n      pop\n        /* \"#utility.yul\":9479:9480   */\n      dup3\n        /* \"#utility.yul\":9476:9477   */\n      dup3\n        /* \"#utility.yul\":9472:9481   */\n      add\n        /* \"#utility.yul\":9465:9481   */\n      swap1\n      pop\n        /* \"#utility.yul\":9500:9503   */\n      dup1\n        /* \"#utility.yul\":9497:9498   */\n      dup3\n        /* \"#utility.yul\":9494:9504   */\n      gt\n        /* \"#utility.yul\":9491:9527   */\n      iszero\n      tag_221\n      jumpi\n        /* \"#utility.yul\":9507:9525   */\n      tag_222\n      tag_128\n      jump\t// in\n    tag_222:\n        /* \"#utility.yul\":9491:9527   */\n    tag_221:\n        /* \"#utility.yul\":9343:9534   */\n      swap3\n      swap2\n      pop\n      pop\n      jump\t// out\n        /* \"#utility.yul\":9540:9950   */\n    tag_82:\n        /* \"#utility.yul\":9580:9587   */\n      0x00\n        /* \"#utility.yul\":9603:9623   */\n      tag_224\n        /* \"#utility.yul\":9621:9622   */\n      dup3\n        /* \"#utility.yul\":9603:9623   */\n      tag_99\n      jump\t// in\n    tag_224:\n        /* \"#utility.yul\":9598:9623   */\n      swap2\n      pop\n        /* \"#utility.yul\":9637:9657   */\n      tag_225\n        /* \"#utility.yul\":9655:9656   */\n      dup4\n        /* \"#utility.yul\":9637:9657   */\n      tag_99\n      jump\t// in\n    tag_225:\n        /* \"#utility.yul\":9632:9657   */\n      swap3\n      pop\n        /* \"#utility.yul\":9692:9693   */\n      dup3\n        /* \"#utility.yul\":9689:9690   */\n      dup3\n        /* \"#utility.yul\":9685:9694   */\n      mul\n        /* \"#utility.yul\":9714:9744   */\n      tag_226\n        /* \"#utility.yul\":9732:9743   */\n      dup2\n        /* \"#utility.yul\":9714:9744   */\n      tag_99\n      jump\t// in\n    tag_226:\n        /* \"#utility.yul\":9703:9744   */\n      swap2\n      pop\n        /* \"#utility.yul\":9893:9894   */\n      dup3\n        /* \"#utility.yul\":9884:9891   */\n      dup3\n        /* \"#utility.yul\":9880:9895   */\n      div\n        /* \"#utility.yul\":9877:9878   */\n      dup5\n        /* \"#utility.yul\":9874:9896   */\n      eq\n        /* \"#utility.yul\":9854:9855   */\n      dup4\n        /* \"#utility.yul\":9847:9856   */\n      iszero\n        /* \"#utility.yul\":9827:9910   */\n      or\n        /* \"#utility.yul\":9804:9943   */\n      tag_227\n      jumpi\n        /* \"#utility.yul\":9923:9941   */\n      tag_228\n      tag_128\n      jump\t// in\n    tag_228:\n        /* \"#utility.yul\":9804:9943   */\n    tag_227:\n        /* \"#utility.yul\":9588:9950   */\n      pop\n        /* \"#utility.yul\":9540:9950   */\n      swap3\n      swap2\n      pop\n      pop\n      jump\t// out\n        /* \"#utility.yul\":9956:10136   */\n    tag_129:\n        /* \"#utility.yul\":10004:10081   */\n      0x4e487b7100000000000000000000000000000000000000000000000000000000\n        /* \"#utility.yul\":10001:10002   */\n      0x00\n        /* \"#utility.yul\":9994:10082   */\n      mstore\n        /* \"#utility.yul\":10101:10105   */\n      0x12\n        /* \"#utility.yul\":10098:10099   */\n      0x04\n        /* \"#utility.yul\":10091:10106   */\n      mstore\n        /* \"#utility.yul\":10125:10129   */\n      0x24\n        /* \"#utility.yul\":10122:10123   */\n      0x00\n        /* \"#utility.yul\":10115:10130   */\n      revert\n        /* \"#utility.yul\":10142:10327   */\n    tag_84:\n        /* \"#utility.yul\":10182:10183   */\n      0x00\n        /* \"#utility.yul\":10199:10219   */\n      tag_231\n        /* \"#utility.yul\":10217:10218   */\n      dup3\n        /* \"#utility.yul\":10199:10219   */\n      tag_99\n      jump\t// in\n    tag_231:\n        /* \"#utility.yul\":10194:10219   */\n      swap2\n      pop\n        /* \"#utility.yul\":10233:10253   */\n      tag_232\n        /* \"#utility.yul\":10251:10252   */\n      dup4\n        /* \"#utility.yul\":10233:10253   */\n      tag_99\n      jump\t// in\n    tag_232:\n        /* \"#utility.yul\":10228:10253   */\n      swap3\n      pop\n        /* \"#utility.yul\":10272:10273   */\n      dup3\n        /* \"#utility.yul\":10262:10297   */\n      tag_233\n      jumpi\n        /* \"#utility.yul\":10277:10295   */\n      tag_234\n      tag_129\n      jump\t// in\n    tag_234:\n        /* \"#utility.yul\":10262:10297   */\n    tag_233:\n        /* \"#utility.yul\":10319:10320   */\n      dup3\n        /* \"#utility.yul\":10316:10317   */\n      dup3\n        /* \"#utility.yul\":10312:10321   */\n      div\n        /* \"#utility.yul\":10307:10321   */\n      swap1\n      pop\n        /* \"#utility.yul\":10142:10327   */\n      swap3\n      swap2\n      pop\n      pop\n      jump\t// out\n        /* \"#utility.yul\":10333:10438   */\n    tag_130:\n        /* \"#utility.yul\":10369:10376   */\n      0x00\n        /* \"#utility.yul\":10409:10431   */\n      0xffffffffffffffffffff\n        /* \"#utility.yul\":10402:10407   */\n      dup3\n        /* \"#utility.yul\":10398:10432   */\n      and\n        /* \"#utility.yul\":10387:10432   */\n      swap1\n      pop\n        /* \"#utility.yul\":10333:10438   */\n      swap2\n      swap1\n      pop\n      jump\t// out\n        /* \"#utility.yul\":10444:10564   */\n    tag_131:\n        /* \"#utility.yul\":10516:10539   */\n      tag_237\n        /* \"#utility.yul\":10533:10538   */\n      dup2\n        /* \"#utility.yul\":10516:10539   */\n      tag_130\n      jump\t// in\n    tag_237:\n        /* \"#utility.yul\":10509:10514   */\n      dup2\n        /* \"#utility.yul\":10506:10540   */\n      eq\n        /* \"#utility.yul\":10496:10558   */\n      tag_238\n      jumpi\n        /* \"#utility.yul\":10554:10555   */\n      0x00\n        /* \"#utility.yul\":10551:10552   */\n      dup1\n        /* \"#utility.yul\":10544:10556   */\n      revert\n        /* \"#utility.yul\":10496:10558   */\n    tag_238:\n        /* \"#utility.yul\":10444:10564   */\n      pop\n      jump\t// out\n        /* \"#utility.yul\":10570:10711   */\n    tag_132:\n        /* \"#utility.yul\":10626:10631   */\n      0x00\n        /* \"#utility.yul\":10657:10663   */\n      dup2\n        /* \"#utility.yul\":10651:10664   */\n      mload\n        /* \"#utility.yul\":10642:10664   */\n      swap1\n      pop\n        /* \"#utility.yul\":10673:10705   */\n      tag_240\n        /* \"#utility.yul\":10699:10704   */\n      dup2\n        /* \"#utility.yul\":10673:10705   */\n      tag_131\n      jump\t// in\n    tag_240:\n        /* \"#utility.yul\":10570:10711   */\n      swap3\n      swap2\n      pop\n      pop\n      jump\t// out\n        /* \"#utility.yul\":10717:10793   */\n    tag_133:\n        /* \"#utility.yul\":10753:10760   */\n      0x00\n        /* \"#utility.yul\":10782:10787   */\n      dup2\n        /* \"#utility.yul\":10771:10787   */\n      swap1\n      pop\n        /* \"#utility.yul\":10717:10793   */\n      swap2\n      swap1\n      pop\n      jump\t// out\n        /* \"#utility.yul\":10799:10919   */\n    tag_134:\n        /* \"#utility.yul\":10871:10894   */\n      tag_243\n        /* \"#utility.yul\":10888:10893   */\n      dup2\n        /* \"#utility.yul\":10871:10894   */\n      tag_133\n      jump\t// in\n    tag_243:\n        /* \"#utility.yul\":10864:10869   */\n      dup2\n        /* \"#utility.yul\":10861:10895   */\n      eq\n        /* \"#utility.yul\":10851:10913   */\n      tag_244\n      jumpi\n        /* \"#utility.yul\":10909:10910   */\n      0x00\n        /* \"#utility.yul\":10906:10907   */\n      dup1\n        /* \"#utility.yul\":10899:10911   */\n      revert\n        /* \"#utility.yul\":10851:10913   */\n    tag_244:\n        /* \"#utility.yul\":10799:10919   */\n      pop\n      jump\t// out\n        /* \"#utility.yul\":10925:11066   */\n    tag_135:\n        /* \"#utility.yul\":10981:10986   */\n      0x00\n        /* \"#utility.yul\":11012:11018   */\n      dup2\n        /* \"#utility.yul\":11006:11019   */\n      mload\n        /* \"#utility.yul\":10997:11019   */\n      swap1\n      pop\n        /* \"#utility.yul\":11028:11060   */\n      tag_246\n        /* \"#utility.yul\":11054:11059   */\n      dup2\n        /* \"#utility.yul\":11028:11060   */\n      tag_134\n      jump\t// in\n    tag_246:\n        /* \"#utility.yul\":10925:11066   */\n      swap3\n      swap2\n      pop\n      pop\n      jump\t// out\n        /* \"#utility.yul\":11072:12043   */\n    tag_89:\n        /* \"#utility.yul\":11175:11181   */\n      0x00\n        /* \"#utility.yul\":11183:11189   */\n      dup1\n        /* \"#utility.yul\":11191:11197   */\n      0x00\n        /* \"#utility.yul\":11199:11205   */\n      dup1\n        /* \"#utility.yul\":11207:11213   */\n      0x00\n        /* \"#utility.yul\":11256:11259   */\n      0xa0\n        /* \"#utility.yul\":11244:11253   */\n      dup7\n        /* \"#utility.yul\":11235:11242   */\n      dup9\n        /* \"#utility.yul\":11231:11254   */\n      sub\n        /* \"#utility.yul\":11227:11260   */\n      slt\n        /* \"#utility.yul\":11224:11344   */\n      iszero\n      tag_248\n      jumpi\n        /* \"#utility.yul\":11263:11342   */\n      tag_249\n      tag_102\n      jump\t// in\n    tag_249:\n        /* \"#utility.yul\":11224:11344   */\n    tag_248:\n        /* \"#utility.yul\":11383:11384   */\n      0x00\n        /* \"#utility.yul\":11408:11471   */\n      tag_250\n        /* \"#utility.yul\":11463:11470   */\n      dup9\n        /* \"#utility.yul\":11454:11460   */\n      dup3\n        /* \"#utility.yul\":11443:11452   */\n      dup10\n        /* \"#utility.yul\":11439:11461   */\n      add\n        /* \"#utility.yul\":11408:11471   */\n      tag_132\n      jump\t// in\n    tag_250:\n        /* \"#utility.yul\":11398:11471   */\n      swap6\n      pop\n        /* \"#utility.yul\":11354:11481   */\n      pop\n        /* \"#utility.yul\":11520:11522   */\n      0x20\n        /* \"#utility.yul\":11546:11609   */\n      tag_251\n        /* \"#utility.yul\":11601:11608   */\n      dup9\n        /* \"#utility.yul\":11592:11598   */\n      dup3\n        /* \"#utility.yul\":11581:11590   */\n      dup10\n        /* \"#utility.yul\":11577:11599   */\n      add\n        /* \"#utility.yul\":11546:11609   */\n      tag_135\n      jump\t// in\n    tag_251:\n        /* \"#utility.yul\":11536:11609   */\n      swap5\n      pop\n        /* \"#utility.yul\":11491:11619   */\n      pop\n        /* \"#utility.yul\":11658:11660   */\n      0x40\n        /* \"#utility.yul\":11684:11748   */\n      tag_252\n        /* \"#utility.yul\":11740:11747   */\n      dup9\n        /* \"#utility.yul\":11731:11737   */\n      dup3\n        /* \"#utility.yul\":11720:11729   */\n      dup10\n        /* \"#utility.yul\":11716:11738   */\n      add\n        /* \"#utility.yul\":11684:11748   */\n      tag_117\n      jump\t// in\n    tag_252:\n        /* \"#utility.yul\":11674:11748   */\n      swap4\n      pop\n        /* \"#utility.yul\":11629:11758   */\n      pop\n        /* \"#utility.yul\":11797:11799   */\n      0x60\n        /* \"#utility.yul\":11823:11887   */\n      tag_253\n        /* \"#utility.yul\":11879:11886   */\n      dup9\n        /* \"#utility.yul\":11870:11876   */\n      dup3\n        /* \"#utility.yul\":11859:11868   */\n      dup10\n        /* \"#utility.yul\":11855:11877   */\n      add\n        /* \"#utility.yul\":11823:11887   */\n      tag_117\n      jump\t// in\n    tag_253:\n        /* \"#utility.yul\":11813:11887   */\n      swap3\n      pop\n        /* \"#utility.yul\":11768:11897   */\n      pop\n        /* \"#utility.yul\":11936:11939   */\n      0x80\n        /* \"#utility.yul\":11963:12026   */\n      tag_254\n        /* \"#utility.yul\":12018:12025   */\n      dup9\n        /* \"#utility.yul\":12009:12015   */\n      dup3\n        /* \"#utility.yul\":11998:12007   */\n      dup10\n        /* \"#utility.yul\":11994:12016   */\n      add\n        /* \"#utility.yul\":11963:12026   */\n      tag_132\n      jump\t// in\n    tag_254:\n        /* \"#utility.yul\":11953:12026   */\n      swap2\n      pop\n        /* \"#utility.yul\":11907:12036   */\n      pop\n        /* \"#utility.yul\":11072:12043   */\n      swap3\n      swap6\n      pop\n      swap3\n      swap6\n      swap1\n      swap4\n      pop\n      jump\t// out\n        /* \"#utility.yul\":12049:12605   */\n    tag_91:\n        /* \"#utility.yul\":12088:12095   */\n      0x00\n        /* \"#utility.yul\":12111:12130   */\n      tag_256\n        /* \"#utility.yul\":12128:12129   */\n      dup3\n        /* \"#utility.yul\":12111:12130   */\n      tag_133\n      jump\t// in\n    tag_256:\n        /* \"#utility.yul\":12106:12130   */\n      swap2\n      pop\n        /* \"#utility.yul\":12144:12163   */\n      tag_257\n        /* \"#utility.yul\":12161:12162   */\n      dup4\n        /* \"#utility.yul\":12144:12163   */\n      tag_133\n      jump\t// in\n    tag_257:\n        /* \"#utility.yul\":12139:12163   */\n      swap3\n      pop\n        /* \"#utility.yul\":12198:12199   */\n      dup3\n        /* \"#utility.yul\":12195:12196   */\n      dup3\n        /* \"#utility.yul\":12191:12200   */\n      mul\n        /* \"#utility.yul\":12220:12249   */\n      tag_258\n        /* \"#utility.yul\":12237:12248   */\n      dup2\n        /* \"#utility.yul\":12220:12249   */\n      tag_133\n      jump\t// in\n    tag_258:\n        /* \"#utility.yul\":12209:12249   */\n      swap2\n      pop\n        /* \"#utility.yul\":12307:12373   */\n      0x8000000000000000000000000000000000000000000000000000000000000000\n        /* \"#utility.yul\":12304:12305   */\n      dup5\n        /* \"#utility.yul\":12301:12374   */\n      eq\n        /* \"#utility.yul\":12297:12298   */\n      0x00\n        /* \"#utility.yul\":12294:12295   */\n      dup5\n        /* \"#utility.yul\":12290:12299   */\n      slt\n        /* \"#utility.yul\":12286:12375   */\n      and\n        /* \"#utility.yul\":12283:12398   */\n      iszero\n      tag_259\n      jumpi\n        /* \"#utility.yul\":12378:12396   */\n      tag_260\n      tag_128\n      jump\t// in\n    tag_260:\n        /* \"#utility.yul\":12283:12398   */\n    tag_259:\n        /* \"#utility.yul\":12548:12549   */\n      dup3\n        /* \"#utility.yul\":12539:12546   */\n      dup3\n        /* \"#utility.yul\":12534:12550   */\n      sdiv\n        /* \"#utility.yul\":12531:12532   */\n      dup5\n        /* \"#utility.yul\":12528:12551   */\n      eq\n        /* \"#utility.yul\":12508:12509   */\n      dup4\n        /* \"#utility.yul\":12501:12510   */\n      iszero\n        /* \"#utility.yul\":12481:12565   */\n      or\n        /* \"#utility.yul\":12458:12598   */\n      tag_261\n      jumpi\n        /* \"#utility.yul\":12578:12596   */\n      tag_262\n      tag_128\n      jump\t// in\n    tag_262:\n        /* \"#utility.yul\":12458:12598   */\n    tag_261:\n        /* \"#utility.yul\":12096:12605   */\n      pop\n        /* \"#utility.yul\":12049:12605   */\n      swap3\n      swap2\n      pop\n      pop\n      jump\t// out\n\n    auxdata: 0xa264697066735822122059ed786769f7b7833c1382ebdd0444695017b1c60872a8f29b2a3d151bae39ec64736f6c634300081a0033\n}\n",
				"bytecode": {
					"linkReferences": {},
					"object": "6080604052671bc16d674ec800005f553480156019575f80fd5b503360045f6101000a81548173ffffffffffffffffffffffffffffffffffffffff021916908373ffffffffffffffffffffffffffffffffffffffff160217905550610eb3806100675f395ff3fe608060405260043610610054575f3560e01c80630d8e6e2c146100585780633ccfd60b146100825780633e47d6f3146100985780638da5cb5b146100d4578063b60d4288146100fe578063ea63a04414610108575b5f80fd5b348015610063575f80fd5b5061006c610132565b6040516100799190610847565b60405180910390f35b34801561008d575f80fd5b506100966101be565b005b3480156100a3575f80fd5b506100be60048036038101906100b991906108be565b610446565b6040516100cb9190610847565b60405180910390f35b3480156100df575f80fd5b506100e861045b565b6040516100f591906108f8565b60405180910390f35b610106610480565b005b348015610113575f80fd5b5061011c610625565b60405161012991906109c8565b60405180910390f35b5f8073694aa1769357215de4fac081bf1f309adc32530690508073ffffffffffffffffffffffffffffffffffffffff166354fd4d506040518163ffffffff1660e01b8152600401602060405180830381865afa158015610194573d5f803e3d5ffd5b505050506040513d601f19601f820116820180604052508101906101b89190610a12565b91505090565b60045f9054906101000a900473ffffffffffffffffffffffffffffffffffffffff1673ffffffffffffffffffffffffffffffffffffffff163373ffffffffffffffffffffffffffffffffffffffff161461024d576040517f08c379a000000000000000000000000000000000000000000000000000000000815260040161024490610a97565b60405180910390fd5b5f5b60018054905081101561033b575f6001828154811061027157610270610ab5565b5b905f5260205f20015f9054906101000a900473ffffffffffffffffffffffffffffffffffffffff16905060035f8273ffffffffffffffffffffffffffffffffffffffff1673ffffffffffffffffffffffffffffffffffffffff1681526020019081526020015f205f9054906101000a900460ff161561032d575f60025f8373ffffffffffffffffffffffffffffffffffffffff1673ffffffffffffffffffffffffffffffffffffffff1681526020019081526020015f20819055505b50808060010191505061024f565b505f67ffffffffffffffff81111561035657610355610ae2565b5b6040519080825280602002602001820160405280156103845781602001602082028036833780820191505090505b506001908051906020019061039a92919061078d565b505f3373ffffffffffffffffffffffffffffffffffffffff16476040516103c090610b3c565b5f6040518083038185875af1925050503d805f81146103fa576040519150601f19603f3d011682016040523d82523d5f602084013e6103ff565b606091505b5050905080610443576040517f08c379a000000000000000000000000000000000000000000000000000000000815260040161043a90610b9a565b60405180910390fd5b50565b6002602052805f5260405f205f915090505481565b60045f9054906101000a900473ffffffffffffffffffffffffffffffffffffffff1681565b5f5461048b346106b0565b10156104cc576040517f08c379a00000000000000000000000000000000000000000000000000000000081526004016104c390610c02565b60405180910390fd5b60035f3373ffffffffffffffffffffffffffffffffffffffff1673ffffffffffffffffffffffffffffffffffffffff1681526020019081526020015f205f9054906101000a900460ff166105d057600133908060018154018082558091505060019003905f5260205f20015f9091909190916101000a81548173ffffffffffffffffffffffffffffffffffffffff021916908373ffffffffffffffffffffffffffffffffffffffff160217905550600160035f3373ffffffffffffffffffffffffffffffffffffffff1673ffffffffffffffffffffffffffffffffffffffff1681526020019081526020015f205f6101000a81548160ff0219169083151502179055505b3460025f3373ffffffffffffffffffffffffffffffffffffffff1673ffffffffffffffffffffffffffffffffffffffff1681526020019081526020015f205f82825461061c9190610c4d565b92505081905550565b606060018054806020026020016040519081016040528092919081815260200182805480156106a657602002820191905f5260205f20905b815f9054906101000a900473ffffffffffffffffffffffffffffffffffffffff1673ffffffffffffffffffffffffffffffffffffffff168152602001906001019080831161065d575b5050505050905090565b5f806106ba6106e8565b90505f670de0b6b3a764000084836106d29190610c80565b6106dc9190610cee565b90508092505050919050565b5f8073694aa1769357215de4fac081bf1f309adc32530690505f8173ffffffffffffffffffffffffffffffffffffffff1663feaf968c6040518163ffffffff1660e01b815260040160a060405180830381865afa15801561074b573d5f803e3d5ffd5b505050506040513d601f19601f8201168201806040525081019061076f9190610d90565b5050509150506402540be400816107869190610e07565b9250505090565b828054828255905f5260205f20908101928215610803579160200282015b82811115610802578251825f6101000a81548173ffffffffffffffffffffffffffffffffffffffff021916908373ffffffffffffffffffffffffffffffffffffffff160217905550916020019190600101906107ab565b5b5090506108109190610814565b5090565b5b8082111561082b575f815f905550600101610815565b5090565b5f819050919050565b6108418161082f565b82525050565b5f60208201905061085a5f830184610838565b92915050565b5f80fd5b5f73ffffffffffffffffffffffffffffffffffffffff82169050919050565b5f61088d82610864565b9050919050565b61089d81610883565b81146108a7575f80fd5b50565b5f813590506108b881610894565b92915050565b5f602082840312156108d3576108d2610860565b5b5f6108e0848285016108aa565b91505092915050565b6108f281610883565b82525050565b5f60208201905061090b5f8301846108e9565b92915050565b5f81519050919050565b5f82825260208201905092915050565b5f819050602082019050919050565b61094381610883565b82525050565b5f610954838361093a565b60208301905092915050565b5f602082019050919050565b5f61097682610911565b610980818561091b565b935061098b8361092b565b805f5b838110156109bb5781516109a28882610949565b97506109ad83610960565b92505060018101905061098e565b5085935050505092915050565b5f6020820190508181035f8301526109e0818461096c565b905092915050565b6109f18161082f565b81146109fb575f80fd5b50565b5f81519050610a0c816109e8565b92915050565b5f60208284031215610a2757610a26610860565b5b5f610a34848285016109fe565b91505092915050565b5f82825260208201905092915050565b7f596f7520617265206e6f7420746865206f776e657221000000000000000000005f82015250565b5f610a81601683610a3d565b9150610a8c82610a4d565b602082019050919050565b5f6020820190508181035f830152610aae81610a75565b9050919050565b7f4e487b71000000000000000000000000000000000000000000000000000000005f52603260045260245ffd5b7f4e487b71000000000000000000000000000000000000000000000000000000005f52604160045260245ffd5b5f81905092915050565b50565b5f610b275f83610b0f565b9150610b3282610b19565b5f82019050919050565b5f610b4682610b1c565b9150819050919050565b7f6661696c656420746f20776974686472617720796f75722066756e64732100005f82015250565b5f610b84601e83610a3d565b9150610b8f82610b50565b602082019050919050565b5f6020820190508181035f830152610bb181610b78565b9050919050565b7f596f75206e65656420746f2073656e64206d6f72652076616c756500000000005f82015250565b5f610bec601b83610a3d565b9150610bf782610bb8565b602082019050919050565b5f6020820190508181035f830152610c1981610be0565b9050919050565b7f4e487b71000000000000000000000000000000000000000000000000000000005f52601160045260245ffd5b5f610c578261082f565b9150610c628361082f565b9250828201905080821115610c7a57610c79610c20565b5b92915050565b5f610c8a8261082f565b9150610c958361082f565b9250828202610ca38161082f565b91508282048414831517610cba57610cb9610c20565b5b5092915050565b7f4e487b71000000000000000000000000000000000000000000000000000000005f52601260045260245ffd5b5f610cf88261082f565b9150610d038361082f565b925082610d1357610d12610cc1565b5b828204905092915050565b5f69ffffffffffffffffffff82169050919050565b610d3c81610d1e565b8114610d46575f80fd5b50565b5f81519050610d5781610d33565b92915050565b5f819050919050565b610d6f81610d5d565b8114610d79575f80fd5b50565b5f81519050610d8a81610d66565b92915050565b5f805f805f60a08688031215610da957610da8610860565b5b5f610db688828901610d49565b9550506020610dc788828901610d7c565b9450506040610dd8888289016109fe565b9350506060610de9888289016109fe565b9250506080610dfa88828901610d49565b9150509295509295909350565b5f610e1182610d5d565b9150610e1c83610d5d565b9250828202610e2a81610d5d565b91507f800000000000000000000000000000000000000000000000000000000000000084145f84121615610e6157610e60610c20565b5b8282058414831517610e7657610e75610c20565b5b509291505056fea264697066735822122059ed786769f7b7833c1382ebdd0444695017b1c60872a8f29b2a3d151bae39ec64736f6c634300081a0033",
					"opcodes": "PUSH1 0x80 PUSH1 0x40 MSTORE PUSH8 0x1BC16D674EC80000 PUSH0 SSTORE CALLVALUE DUP1 ISZERO PUSH1 0x19 JUMPI PUSH0 DUP1 REVERT JUMPDEST POP CALLER PUSH1 0x4 PUSH0 PUSH2 0x100 EXP DUP2 SLOAD DUP2 PUSH20 0xFFFFFFFFFFFFFFFFFFFFFFFFFFFFFFFFFFFFFFFF MUL NOT AND SWAP1 DUP4 PUSH20 0xFFFFFFFFFFFFFFFFFFFFFFFFFFFFFFFFFFFFFFFF AND MUL OR SWAP1 SSTORE POP PUSH2 0xEB3 DUP1 PUSH2 0x67 PUSH0 CODECOPY PUSH0 RETURN INVALID PUSH1 0x80 PUSH1 0x40 MSTORE PUSH1 0x4 CALLDATASIZE LT PUSH2 0x54 JUMPI PUSH0 CALLDATALOAD PUSH1 0xE0 SHR DUP1 PUSH4 0xD8E6E2C EQ PUSH2 0x58 JUMPI DUP1 PUSH4 0x3CCFD60B EQ PUSH2 0x82 JUMPI DUP1 PUSH4 0x3E47D6F3 EQ PUSH2 0x98 JUMPI DUP1 PUSH4 0x8DA5CB5B EQ PUSH2 0xD4 JUMPI DUP1 PUSH4 0xB60D4288 EQ PUSH2 0xFE JUMPI DUP1 PUSH4 0xEA63A044 EQ PUSH2 0x108 JUMPI JUMPDEST PUSH0 DUP1 REVERT JUMPDEST CALLVALUE DUP1 ISZERO PUSH2 0x63 JUMPI PUSH0 DUP1 REVERT JUMPDEST POP PUSH2 0x6C PUSH2 0x132 JUMP JUMPDEST PUSH1 0x40 MLOAD PUSH2 0x79 SWAP2 SWAP1 PUSH2 0x847 JUMP JUMPDEST PUSH1 0x40 MLOAD DUP1 SWAP2 SUB SWAP1 RETURN JUMPDEST CALLVALUE DUP1 ISZERO PUSH2 0x8D JUMPI PUSH0 DUP1 REVERT JUMPDEST POP PUSH2 0x96 PUSH2 0x1BE JUMP JUMPDEST STOP JUMPDEST CALLVALUE DUP1 ISZERO PUSH2 0xA3 JUMPI PUSH0 DUP1 REVERT JUMPDEST POP PUSH2 0xBE PUSH1 0x4 DUP1 CALLDATASIZE SUB DUP2 ADD SWAP1 PUSH2 0xB9 SWAP2 SWAP1 PUSH2 0x8BE JUMP JUMPDEST PUSH2 0x446 JUMP JUMPDEST PUSH1 0x40 MLOAD PUSH2 0xCB SWAP2 SWAP1 PUSH2 0x847 JUMP JUMPDEST PUSH1 0x40 MLOAD DUP1 SWAP2 SUB SWAP1 RETURN JUMPDEST CALLVALUE DUP1 ISZERO PUSH2 0xDF JUMPI PUSH0 DUP1 REVERT JUMPDEST POP PUSH2 0xE8 PUSH2 0x45B JUMP JUMPDEST PUSH1 0x40 MLOAD PUSH2 0xF5 SWAP2 SWAP1 PUSH2 0x8F8 JUMP JUMPDEST PUSH1 0x40 MLOAD DUP1 SWAP2 SUB SWAP1 RETURN JUMPDEST PUSH2 0x106 PUSH2 0x480 JUMP JUMPDEST STOP JUMPDEST CALLVALUE DUP1 ISZERO PUSH2 0x113 JUMPI PUSH0 DUP1 REVERT JUMPDEST POP PUSH2 0x11C PUSH2 0x625 JUMP JUMPDEST PUSH1 0x40 MLOAD PUSH2 0x129 SWAP2 SWAP1 PUSH2 0x9C8 JUMP JUMPDEST PUSH1 0x40 MLOAD DUP1 SWAP2 SUB SWAP1 RETURN JUMPDEST PUSH0 DUP1 PUSH20 0x694AA1769357215DE4FAC081BF1F309ADC325306 SWAP1 POP DUP1 PUSH20 0xFFFFFFFFFFFFFFFFFFFFFFFFFFFFFFFFFFFFFFFF AND PUSH4 0x54FD4D50 PUSH1 0x40 MLOAD DUP2 PUSH4 0xFFFFFFFF AND PUSH1 0xE0 SHL DUP2 MSTORE PUSH1 0x4 ADD PUSH1 0x20 PUSH1 0x40 MLOAD DUP1 DUP4 SUB DUP2 DUP7 GAS STATICCALL ISZERO DUP1 ISZERO PUSH2 0x194 JUMPI RETURNDATASIZE PUSH0 DUP1 RETURNDATACOPY RETURNDATASIZE PUSH0 REVERT JUMPDEST POP POP POP POP PUSH1 0x40 MLOAD RETURNDATASIZE PUSH1 0x1F NOT PUSH1 0x1F DUP3 ADD AND DUP3 ADD DUP1 PUSH1 0x40 MSTORE POP DUP2 ADD SWAP1 PUSH2 0x1B8 SWAP2 SWAP1 PUSH2 0xA12 JUMP JUMPDEST SWAP2 POP POP SWAP1 JUMP JUMPDEST PUSH1 0x4 PUSH0 SWAP1 SLOAD SWAP1 PUSH2 0x100 EXP SWAP1 DIV PUSH20 0xFFFFFFFFFFFFFFFFFFFFFFFFFFFFFFFFFFFFFFFF AND PUSH20 0xFFFFFFFFFFFFFFFFFFFFFFFFFFFFFFFFFFFFFFFF AND CALLER PUSH20 0xFFFFFFFFFFFFFFFFFFFFFFFFFFFFFFFFFFFFFFFF AND EQ PUSH2 0x24D JUMPI PUSH1 0x40 MLOAD PUSH32 0x8C379A000000000000000000000000000000000000000000000000000000000 DUP2 MSTORE PUSH1 0x4 ADD PUSH2 0x244 SWAP1 PUSH2 0xA97 JUMP JUMPDEST PUSH1 0x40 MLOAD DUP1 SWAP2 SUB SWAP1 REVERT JUMPDEST PUSH0 JUMPDEST PUSH1 0x1 DUP1 SLOAD SWAP1 POP DUP2 LT ISZERO PUSH2 0x33B JUMPI PUSH0 PUSH1 0x1 DUP3 DUP2 SLOAD DUP2 LT PUSH2 0x271 JUMPI PUSH2 0x270 PUSH2 0xAB5 JUMP JUMPDEST JUMPDEST SWAP1 PUSH0 MSTORE PUSH1 0x20 PUSH0 KECCAK256 ADD PUSH0 SWAP1 SLOAD SWAP1 PUSH2 0x100 EXP SWAP1 DIV PUSH20 0xFFFFFFFFFFFFFFFFFFFFFFFFFFFFFFFFFFFFFFFF AND SWAP1 POP PUSH1 0x3 PUSH0 DUP3 PUSH20 0xFFFFFFFFFFFFFFFFFFFFFFFFFFFFFFFFFFFFFFFF AND PUSH20 0xFFFFFFFFFFFFFFFFFFFFFFFFFFFFFFFFFFFFFFFF AND DUP2 MSTORE PUSH1 0x20 ADD SWAP1 DUP2 MSTORE PUSH1 0x20 ADD PUSH0 KECCAK256 PUSH0 SWAP1 SLOAD SWAP1 PUSH2 0x100 EXP SWAP1 DIV PUSH1 0xFF AND ISZERO PUSH2 0x32D JUMPI PUSH0 PUSH1 0x2 PUSH0 DUP4 PUSH20 0xFFFFFFFFFFFFFFFFFFFFFFFFFFFFFFFFFFFFFFFF AND PUSH20 0xFFFFFFFFFFFFFFFFFFFFFFFFFFFFFFFFFFFFFFFF AND DUP2 MSTORE PUSH1 0x20 ADD SWAP1 DUP2 MSTORE PUSH1 0x20 ADD PUSH0 KECCAK256 DUP2 SWAP1 SSTORE POP JUMPDEST POP DUP1 DUP1 PUSH1 0x1 ADD SWAP2 POP POP PUSH2 0x24F JUMP JUMPDEST POP PUSH0 PUSH8 0xFFFFFFFFFFFFFFFF DUP2 GT ISZERO PUSH2 0x356 JUMPI PUSH2 0x355 PUSH2 0xAE2 JUMP JUMPDEST JUMPDEST PUSH1 0x40 MLOAD SWAP1 DUP1 DUP3 MSTORE DUP1 PUSH1 0x20 MUL PUSH1 0x20 ADD DUP3 ADD PUSH1 0x40 MSTORE DUP1 ISZERO PUSH2 0x384 JUMPI DUP2 PUSH1 0x20 ADD PUSH1 0x20 DUP3 MUL DUP1 CALLDATASIZE DUP4 CALLDATACOPY DUP1 DUP3 ADD SWAP2 POP POP SWAP1 POP JUMPDEST POP PUSH1 0x1 SWAP1 DUP1 MLOAD SWAP1 PUSH1 0x20 ADD SWAP1 PUSH2 0x39A SWAP3 SWAP2 SWAP1 PUSH2 0x78D JUMP JUMPDEST POP PUSH0 CALLER PUSH20 0xFFFFFFFFFFFFFFFFFFFFFFFFFFFFFFFFFFFFFFFF AND SELFBALANCE PUSH1 0x40 MLOAD PUSH2 0x3C0 SWAP1 PUSH2 0xB3C JUMP JUMPDEST PUSH0 PUSH1 0x40 MLOAD DUP1 DUP4 SUB DUP2 DUP6 DUP8 GAS CALL SWAP3 POP POP POP RETURNDATASIZE DUP1 PUSH0 DUP2 EQ PUSH2 0x3FA JUMPI PUSH1 0x40 MLOAD SWAP2 POP PUSH1 0x1F NOT PUSH1 0x3F RETURNDATASIZE ADD AND DUP3 ADD PUSH1 0x40 MSTORE RETURNDATASIZE DUP3 MSTORE RETURNDATASIZE PUSH0 PUSH1 0x20 DUP5 ADD RETURNDATACOPY PUSH2 0x3FF JUMP JUMPDEST PUSH1 0x60 SWAP2 POP JUMPDEST POP POP SWAP1 POP DUP1 PUSH2 0x443 JUMPI PUSH1 0x40 MLOAD PUSH32 0x8C379A000000000000000000000000000000000000000000000000000000000 DUP2 MSTORE PUSH1 0x4 ADD PUSH2 0x43A SWAP1 PUSH2 0xB9A JUMP JUMPDEST PUSH1 0x40 MLOAD DUP1 SWAP2 SUB SWAP1 REVERT JUMPDEST POP JUMP JUMPDEST PUSH1 0x2 PUSH1 0x20 MSTORE DUP1 PUSH0 MSTORE PUSH1 0x40 PUSH0 KECCAK256 PUSH0 SWAP2 POP SWAP1 POP SLOAD DUP2 JUMP JUMPDEST PUSH1 0x4 PUSH0 SWAP1 SLOAD SWAP1 PUSH2 0x100 EXP SWAP1 DIV PUSH20 0xFFFFFFFFFFFFFFFFFFFFFFFFFFFFFFFFFFFFFFFF AND DUP2 JUMP JUMPDEST PUSH0 SLOAD PUSH2 0x48B CALLVALUE PUSH2 0x6B0 JUMP JUMPDEST LT ISZERO PUSH2 0x4CC JUMPI PUSH1 0x40 MLOAD PUSH32 0x8C379A000000000000000000000000000000000000000000000000000000000 DUP2 MSTORE PUSH1 0x4 ADD PUSH2 0x4C3 SWAP1 PUSH2 0xC02 JUMP JUMPDEST PUSH1 0x40 MLOAD DUP1 SWAP2 SUB SWAP1 REVERT JUMPDEST PUSH1 0x3 PUSH0 CALLER PUSH20 0xFFFFFFFFFFFFFFFFFFFFFFFFFFFFFFFFFFFFFFFF AND PUSH20 0xFFFFFFFFFFFFFFFFFFFFFFFFFFFFFFFFFFFFFFFF AND DUP2 MSTORE PUSH1 0x20 ADD SWAP1 DUP2 MSTORE PUSH1 0x20 ADD PUSH0 KECCAK256 PUSH0 SWAP1 SLOAD SWAP1 PUSH2 0x100 EXP SWAP1 DIV PUSH1 0xFF AND PUSH2 0x5D0 JUMPI PUSH1 0x1 CALLER SWAP1 DUP1 PUSH1 0x1 DUP2 SLOAD ADD DUP1 DUP3 SSTORE DUP1 SWAP2 POP POP PUSH1 0x1 SWAP1 SUB SWAP1 PUSH0 MSTORE PUSH1 0x20 PUSH0 KECCAK256 ADD PUSH0 SWAP1 SWAP2 SWAP1 SWAP2 SWAP1 SWAP2 PUSH2 0x100 EXP DUP2 SLOAD DUP2 PUSH20 0xFFFFFFFFFFFFFFFFFFFFFFFFFFFFFFFFFFFFFFFF MUL NOT AND SWAP1 DUP4 PUSH20 0xFFFFFFFFFFFFFFFFFFFFFFFFFFFFFFFFFFFFFFFF AND MUL OR SWAP1 SSTORE POP PUSH1 0x1 PUSH1 0x3 PUSH0 CALLER PUSH20 0xFFFFFFFFFFFFFFFFFFFFFFFFFFFFFFFFFFFFFFFF AND PUSH20 0xFFFFFFFFFFFFFFFFFFFFFFFFFFFFFFFFFFFFFFFF AND DUP2 MSTORE PUSH1 0x20 ADD SWAP1 DUP2 MSTORE PUSH1 0x20 ADD PUSH0 KECCAK256 PUSH0 PUSH2 0x100 EXP DUP2 SLOAD DUP2 PUSH1 0xFF MUL NOT AND SWAP1 DUP4 ISZERO ISZERO MUL OR SWAP1 SSTORE POP JUMPDEST CALLVALUE PUSH1 0x2 PUSH0 CALLER PUSH20 0xFFFFFFFFFFFFFFFFFFFFFFFFFFFFFFFFFFFFFFFF AND PUSH20 0xFFFFFFFFFFFFFFFFFFFFFFFFFFFFFFFFFFFFFFFF AND DUP2 MSTORE PUSH1 0x20 ADD SWAP1 DUP2 MSTORE PUSH1 0x20 ADD PUSH0 KECCAK256 PUSH0 DUP3 DUP3 SLOAD PUSH2 0x61C SWAP2 SWAP1 PUSH2 0xC4D JUMP JUMPDEST SWAP3 POP POP DUP2 SWAP1 SSTORE POP JUMP JUMPDEST PUSH1 0x60 PUSH1 0x1 DUP1 SLOAD DUP1 PUSH1 0x20 MUL PUSH1 0x20 ADD PUSH1 0x40 MLOAD SWAP1 DUP2 ADD PUSH1 0x40 MSTORE DUP1 SWAP3 SWAP2 SWAP1 DUP2 DUP2 MSTORE PUSH1 0x20 ADD DUP3 DUP1 SLOAD DUP1 ISZERO PUSH2 0x6A6 JUMPI PUSH1 0x20 MUL DUP3 ADD SWAP2 SWAP1 PUSH0 MSTORE PUSH1 0x20 PUSH0 KECCAK256 SWAP1 JUMPDEST DUP2 PUSH0 SWAP1 SLOAD SWAP1 PUSH2 0x100 EXP SWAP1 DIV PUSH20 0xFFFFFFFFFFFFFFFFFFFFFFFFFFFFFFFFFFFFFFFF AND PUSH20 0xFFFFFFFFFFFFFFFFFFFFFFFFFFFFFFFFFFFFFFFF AND DUP2 MSTORE PUSH1 0x20 ADD SWAP1 PUSH1 0x1 ADD SWAP1 DUP1 DUP4 GT PUSH2 0x65D JUMPI JUMPDEST POP POP POP POP POP SWAP1 POP SWAP1 JUMP JUMPDEST PUSH0 DUP1 PUSH2 0x6BA PUSH2 0x6E8 JUMP JUMPDEST SWAP1 POP PUSH0 PUSH8 0xDE0B6B3A7640000 DUP5 DUP4 PUSH2 0x6D2 SWAP2 SWAP1 PUSH2 0xC80 JUMP JUMPDEST PUSH2 0x6DC SWAP2 SWAP1 PUSH2 0xCEE JUMP JUMPDEST SWAP1 POP DUP1 SWAP3 POP POP POP SWAP2 SWAP1 POP JUMP JUMPDEST PUSH0 DUP1 PUSH20 0x694AA1769357215DE4FAC081BF1F309ADC325306 SWAP1 POP PUSH0 DUP2 PUSH20 0xFFFFFFFFFFFFFFFFFFFFFFFFFFFFFFFFFFFFFFFF AND PUSH4 0xFEAF968C PUSH1 0x40 MLOAD DUP2 PUSH4 0xFFFFFFFF AND PUSH1 0xE0 SHL DUP2 MSTORE PUSH1 0x4 ADD PUSH1 0xA0 PUSH1 0x40 MLOAD DUP1 DUP4 SUB DUP2 DUP7 GAS STATICCALL ISZERO DUP1 ISZERO PUSH2 0x74B JUMPI RETURNDATASIZE PUSH0 DUP1 RETURNDATACOPY RETURNDATASIZE PUSH0 REVERT JUMPDEST POP POP POP POP PUSH1 0x40 MLOAD RETURNDATASIZE PUSH1 0x1F NOT PUSH1 0x1F DUP3 ADD AND DUP3 ADD DUP1 PUSH1 0x40 MSTORE POP DUP2 ADD SWAP1 PUSH2 0x76F SWAP2 SWAP1 PUSH2 0xD90 JUMP JUMPDEST POP POP POP SWAP2 POP POP PUSH5 0x2540BE400 DUP2 PUSH2 0x786 SWAP2 SWAP1 PUSH2 0xE07 JUMP JUMPDEST SWAP3 POP POP POP SWAP1 JUMP JUMPDEST DUP3 DUP1 SLOAD DUP3 DUP3 SSTORE SWAP1 PUSH0 MSTORE PUSH1 0x20 PUSH0 KECCAK256 SWAP1 DUP2 ADD SWAP3 DUP3 ISZERO PUSH2 0x803 JUMPI SWAP2 PUSH1 0x20 MUL DUP3 ADD JUMPDEST DUP3 DUP2 GT ISZERO PUSH2 0x802 JUMPI DUP3 MLOAD DUP3 PUSH0 PUSH2 0x100 EXP DUP2 SLOAD DUP2 PUSH20 0xFFFFFFFFFFFFFFFFFFFFFFFFFFFFFFFFFFFFFFFF MUL NOT AND SWAP1 DUP4 PUSH20 0xFFFFFFFFFFFFFFFFFFFFFFFFFFFFFFFFFFFFFFFF AND MUL OR SWAP1 SSTORE POP SWAP2 PUSH1 0x20 ADD SWAP2 SWAP1 PUSH1 0x1 ADD SWAP1 PUSH2 0x7AB JUMP JUMPDEST JUMPDEST POP SWAP1 POP PUSH2 0x810 SWAP2 SWAP1 PUSH2 0x814 JUMP JUMPDEST POP SWAP1 JUMP JUMPDEST JUMPDEST DUP1 DUP3 GT ISZERO PUSH2 0x82B JUMPI PUSH0 DUP2 PUSH0 SWAP1 SSTORE POP PUSH1 0x1 ADD PUSH2 0x815 JUMP JUMPDEST POP SWAP1 JUMP JUMPDEST PUSH0 DUP2 SWAP1 POP SWAP2 SWAP1 POP JUMP JUMPDEST PUSH2 0x841 DUP2 PUSH2 0x82F JUMP JUMPDEST DUP3 MSTORE POP POP JUMP JUMPDEST PUSH0 PUSH1 0x20 DUP3 ADD SWAP1 POP PUSH2 0x85A PUSH0 DUP4 ADD DUP5 PUSH2 0x838 JUMP JUMPDEST SWAP3 SWAP2 POP POP JUMP JUMPDEST PUSH0 DUP1 REVERT JUMPDEST PUSH0 PUSH20 0xFFFFFFFFFFFFFFFFFFFFFFFFFFFFFFFFFFFFFFFF DUP3 AND SWAP1 POP SWAP2 SWAP1 POP JUMP JUMPDEST PUSH0 PUSH2 0x88D DUP3 PUSH2 0x864 JUMP JUMPDEST SWAP1 POP SWAP2 SWAP1 POP JUMP JUMPDEST PUSH2 0x89D DUP2 PUSH2 0x883 JUMP JUMPDEST DUP2 EQ PUSH2 0x8A7 JUMPI PUSH0 DUP1 REVERT JUMPDEST POP JUMP JUMPDEST PUSH0 DUP2 CALLDATALOAD SWAP1 POP PUSH2 0x8B8 DUP2 PUSH2 0x894 JUMP JUMPDEST SWAP3 SWAP2 POP POP JUMP JUMPDEST PUSH0 PUSH1 0x20 DUP3 DUP5 SUB SLT ISZERO PUSH2 0x8D3 JUMPI PUSH2 0x8D2 PUSH2 0x860 JUMP JUMPDEST JUMPDEST PUSH0 PUSH2 0x8E0 DUP5 DUP3 DUP6 ADD PUSH2 0x8AA JUMP JUMPDEST SWAP2 POP POP SWAP3 SWAP2 POP POP JUMP JUMPDEST PUSH2 0x8F2 DUP2 PUSH2 0x883 JUMP JUMPDEST DUP3 MSTORE POP POP JUMP JUMPDEST PUSH0 PUSH1 0x20 DUP3 ADD SWAP1 POP PUSH2 0x90B PUSH0 DUP4 ADD DUP5 PUSH2 0x8E9 JUMP JUMPDEST SWAP3 SWAP2 POP POP JUMP JUMPDEST PUSH0 DUP2 MLOAD SWAP1 POP SWAP2 SWAP1 POP JUMP JUMPDEST PUSH0 DUP3 DUP3 MSTORE PUSH1 0x20 DUP3 ADD SWAP1 POP SWAP3 SWAP2 POP POP JUMP JUMPDEST PUSH0 DUP2 SWAP1 POP PUSH1 0x20 DUP3 ADD SWAP1 POP SWAP2 SWAP1 POP JUMP JUMPDEST PUSH2 0x943 DUP2 PUSH2 0x883 JUMP JUMPDEST DUP3 MSTORE POP POP JUMP JUMPDEST PUSH0 PUSH2 0x954 DUP4 DUP4 PUSH2 0x93A JUMP JUMPDEST PUSH1 0x20 DUP4 ADD SWAP1 POP SWAP3 SWAP2 POP POP JUMP JUMPDEST PUSH0 PUSH1 0x20 DUP3 ADD SWAP1 POP SWAP2 SWAP1 POP JUMP JUMPDEST PUSH0 PUSH2 0x976 DUP3 PUSH2 0x911 JUMP JUMPDEST PUSH2 0x980 DUP2 DUP6 PUSH2 0x91B JUMP JUMPDEST SWAP4 POP PUSH2 0x98B DUP4 PUSH2 0x92B JUMP JUMPDEST DUP1 PUSH0 JUMPDEST DUP4 DUP2 LT ISZERO PUSH2 0x9BB JUMPI DUP2 MLOAD PUSH2 0x9A2 DUP9 DUP3 PUSH2 0x949 JUMP JUMPDEST SWAP8 POP PUSH2 0x9AD DUP4 PUSH2 0x960 JUMP JUMPDEST SWAP3 POP POP PUSH1 0x1 DUP2 ADD SWAP1 POP PUSH2 0x98E JUMP JUMPDEST POP DUP6 SWAP4 POP POP POP POP SWAP3 SWAP2 POP POP JUMP JUMPDEST PUSH0 PUSH1 0x20 DUP3 ADD SWAP1 POP DUP2 DUP2 SUB PUSH0 DUP4 ADD MSTORE PUSH2 0x9E0 DUP2 DUP5 PUSH2 0x96C JUMP JUMPDEST SWAP1 POP SWAP3 SWAP2 POP POP JUMP JUMPDEST PUSH2 0x9F1 DUP2 PUSH2 0x82F JUMP JUMPDEST DUP2 EQ PUSH2 0x9FB JUMPI PUSH0 DUP1 REVERT JUMPDEST POP JUMP JUMPDEST PUSH0 DUP2 MLOAD SWAP1 POP PUSH2 0xA0C DUP2 PUSH2 0x9E8 JUMP JUMPDEST SWAP3 SWAP2 POP POP JUMP JUMPDEST PUSH0 PUSH1 0x20 DUP3 DUP5 SUB SLT ISZERO PUSH2 0xA27 JUMPI PUSH2 0xA26 PUSH2 0x860 JUMP JUMPDEST JUMPDEST PUSH0 PUSH2 0xA34 DUP5 DUP3 DUP6 ADD PUSH2 0x9FE JUMP JUMPDEST SWAP2 POP POP SWAP3 SWAP2 POP POP JUMP JUMPDEST PUSH0 DUP3 DUP3 MSTORE PUSH1 0x20 DUP3 ADD SWAP1 POP SWAP3 SWAP2 POP POP JUMP JUMPDEST PUSH32 0x596F7520617265206E6F7420746865206F776E65722100000000000000000000 PUSH0 DUP3 ADD MSTORE POP JUMP JUMPDEST PUSH0 PUSH2 0xA81 PUSH1 0x16 DUP4 PUSH2 0xA3D JUMP JUMPDEST SWAP2 POP PUSH2 0xA8C DUP3 PUSH2 0xA4D JUMP JUMPDEST PUSH1 0x20 DUP3 ADD SWAP1 POP SWAP2 SWAP1 POP JUMP JUMPDEST PUSH0 PUSH1 0x20 DUP3 ADD SWAP1 POP DUP2 DUP2 SUB PUSH0 DUP4 ADD MSTORE PUSH2 0xAAE DUP2 PUSH2 0xA75 JUMP JUMPDEST SWAP1 POP SWAP2 SWAP1 POP JUMP JUMPDEST PUSH32 0x4E487B7100000000000000000000000000000000000000000000000000000000 PUSH0 MSTORE PUSH1 0x32 PUSH1 0x4 MSTORE PUSH1 0x24 PUSH0 REVERT JUMPDEST PUSH32 0x4E487B7100000000000000000000000000000000000000000000000000000000 PUSH0 MSTORE PUSH1 0x41 PUSH1 0x4 MSTORE PUSH1 0x24 PUSH0 REVERT JUMPDEST PUSH0 DUP2 SWAP1 POP SWAP3 SWAP2 POP POP JUMP JUMPDEST POP JUMP JUMPDEST PUSH0 PUSH2 0xB27 PUSH0 DUP4 PUSH2 0xB0F JUMP JUMPDEST SWAP2 POP PUSH2 0xB32 DUP3 PUSH2 0xB19 JUMP JUMPDEST PUSH0 DUP3 ADD SWAP1 POP SWAP2 SWAP1 POP JUMP JUMPDEST PUSH0 PUSH2 0xB46 DUP3 PUSH2 0xB1C JUMP JUMPDEST SWAP2 POP DUP2 SWAP1 POP SWAP2 SWAP1 POP JUMP JUMPDEST PUSH32 0x6661696C656420746F20776974686472617720796F75722066756E6473210000 PUSH0 DUP3 ADD MSTORE POP JUMP JUMPDEST PUSH0 PUSH2 0xB84 PUSH1 0x1E DUP4 PUSH2 0xA3D JUMP JUMPDEST SWAP2 POP PUSH2 0xB8F DUP3 PUSH2 0xB50 JUMP JUMPDEST PUSH1 0x20 DUP3 ADD SWAP1 POP SWAP2 SWAP1 POP JUMP JUMPDEST PUSH0 PUSH1 0x20 DUP3 ADD SWAP1 POP DUP2 DUP2 SUB PUSH0 DUP4 ADD MSTORE PUSH2 0xBB1 DUP2 PUSH2 0xB78 JUMP JUMPDEST SWAP1 POP SWAP2 SWAP1 POP JUMP JUMPDEST PUSH32 0x596F75206E65656420746F2073656E64206D6F72652076616C75650000000000 PUSH0 DUP3 ADD MSTORE POP JUMP JUMPDEST PUSH0 PUSH2 0xBEC PUSH1 0x1B DUP4 PUSH2 0xA3D JUMP JUMPDEST SWAP2 POP PUSH2 0xBF7 DUP3 PUSH2 0xBB8 JUMP JUMPDEST PUSH1 0x20 DUP3 ADD SWAP1 POP SWAP2 SWAP1 POP JUMP JUMPDEST PUSH0 PUSH1 0x20 DUP3 ADD SWAP1 POP DUP2 DUP2 SUB PUSH0 DUP4 ADD MSTORE PUSH2 0xC19 DUP2 PUSH2 0xBE0 JUMP JUMPDEST SWAP1 POP SWAP2 SWAP1 POP JUMP JUMPDEST PUSH32 0x4E487B7100000000000000000000000000000000000000000000000000000000 PUSH0 MSTORE PUSH1 0x11 PUSH1 0x4 MSTORE PUSH1 0x24 PUSH0 REVERT JUMPDEST PUSH0 PUSH2 0xC57 DUP3 PUSH2 0x82F JUMP JUMPDEST SWAP2 POP PUSH2 0xC62 DUP4 PUSH2 0x82F JUMP JUMPDEST SWAP3 POP DUP3 DUP3 ADD SWAP1 POP DUP1 DUP3 GT ISZERO PUSH2 0xC7A JUMPI PUSH2 0xC79 PUSH2 0xC20 JUMP JUMPDEST JUMPDEST SWAP3 SWAP2 POP POP JUMP JUMPDEST PUSH0 PUSH2 0xC8A DUP3 PUSH2 0x82F JUMP JUMPDEST SWAP2 POP PUSH2 0xC95 DUP4 PUSH2 0x82F JUMP JUMPDEST SWAP3 POP DUP3 DUP3 MUL PUSH2 0xCA3 DUP2 PUSH2 0x82F JUMP JUMPDEST SWAP2 POP DUP3 DUP3 DIV DUP5 EQ DUP4 ISZERO OR PUSH2 0xCBA JUMPI PUSH2 0xCB9 PUSH2 0xC20 JUMP JUMPDEST JUMPDEST POP SWAP3 SWAP2 POP POP JUMP JUMPDEST PUSH32 0x4E487B7100000000000000000000000000000000000000000000000000000000 PUSH0 MSTORE PUSH1 0x12 PUSH1 0x4 MSTORE PUSH1 0x24 PUSH0 REVERT JUMPDEST PUSH0 PUSH2 0xCF8 DUP3 PUSH2 0x82F JUMP JUMPDEST SWAP2 POP PUSH2 0xD03 DUP4 PUSH2 0x82F JUMP JUMPDEST SWAP3 POP DUP3 PUSH2 0xD13 JUMPI PUSH2 0xD12 PUSH2 0xCC1 JUMP JUMPDEST JUMPDEST DUP3 DUP3 DIV SWAP1 POP SWAP3 SWAP2 POP POP JUMP JUMPDEST PUSH0 PUSH10 0xFFFFFFFFFFFFFFFFFFFF DUP3 AND SWAP1 POP SWAP2 SWAP1 POP JUMP JUMPDEST PUSH2 0xD3C DUP2 PUSH2 0xD1E JUMP JUMPDEST DUP2 EQ PUSH2 0xD46 JUMPI PUSH0 DUP1 REVERT JUMPDEST POP JUMP JUMPDEST PUSH0 DUP2 MLOAD SWAP1 POP PUSH2 0xD57 DUP2 PUSH2 0xD33 JUMP JUMPDEST SWAP3 SWAP2 POP POP JUMP JUMPDEST PUSH0 DUP2 SWAP1 POP SWAP2 SWAP1 POP JUMP JUMPDEST PUSH2 0xD6F DUP2 PUSH2 0xD5D JUMP JUMPDEST DUP2 EQ PUSH2 0xD79 JUMPI PUSH0 DUP1 REVERT JUMPDEST POP JUMP JUMPDEST PUSH0 DUP2 MLOAD SWAP1 POP PUSH2 0xD8A DUP2 PUSH2 0xD66 JUMP JUMPDEST SWAP3 SWAP2 POP POP JUMP JUMPDEST PUSH0 DUP1 PUSH0 DUP1 PUSH0 PUSH1 0xA0 DUP7 DUP9 SUB SLT ISZERO PUSH2 0xDA9 JUMPI PUSH2 0xDA8 PUSH2 0x860 JUMP JUMPDEST JUMPDEST PUSH0 PUSH2 0xDB6 DUP9 DUP3 DUP10 ADD PUSH2 0xD49 JUMP JUMPDEST SWAP6 POP POP PUSH1 0x20 PUSH2 0xDC7 DUP9 DUP3 DUP10 ADD PUSH2 0xD7C JUMP JUMPDEST SWAP5 POP POP PUSH1 0x40 PUSH2 0xDD8 DUP9 DUP3 DUP10 ADD PUSH2 0x9FE JUMP JUMPDEST SWAP4 POP POP PUSH1 0x60 PUSH2 0xDE9 DUP9 DUP3 DUP10 ADD PUSH2 0x9FE JUMP JUMPDEST SWAP3 POP POP PUSH1 0x80 PUSH2 0xDFA DUP9 DUP3 DUP10 ADD PUSH2 0xD49 JUMP JUMPDEST SWAP2 POP POP SWAP3 SWAP6 POP SWAP3 SWAP6 SWAP1 SWAP4 POP JUMP JUMPDEST PUSH0 PUSH2 0xE11 DUP3 PUSH2 0xD5D JUMP JUMPDEST SWAP2 POP PUSH2 0xE1C DUP4 PUSH2 0xD5D JUMP JUMPDEST SWAP3 POP DUP3 DUP3 MUL PUSH2 0xE2A DUP2 PUSH2 0xD5D JUMP JUMPDEST SWAP2 POP PUSH32 0x8000000000000000000000000000000000000000000000000000000000000000 DUP5 EQ PUSH0 DUP5 SLT AND ISZERO PUSH2 0xE61 JUMPI PUSH2 0xE60 PUSH2 0xC20 JUMP JUMPDEST JUMPDEST DUP3 DUP3 SDIV DUP5 EQ DUP4 ISZERO OR PUSH2 0xE76 JUMPI PUSH2 0xE75 PUSH2 0xC20 JUMP JUMPDEST JUMPDEST POP SWAP3 SWAP2 POP POP JUMP INVALID LOG2 PUSH5 0x6970667358 0x22 SLT KECCAK256 MSIZE 0xED PUSH25 0x6769F7B7833C1382EBDD0444695017B1C60872A8F29B2A3D15 SHL 0xAE CODECOPY 0xEC PUSH5 0x736F6C6343 STOP ADDMOD BYTE STOP CALLER "
				},
				"gasEstimates": {
					"creation": {
						"codeDepositCost": "752600",
						"executionCost": "47154",
						"totalCost": "799754"
					},
					"external": {
						"addressToAmountFunded(address)": "2824",
						"fund()": "infinite",
						"getFunders()": "infinite",
						"getVersion()": "infinite",
						"owner()": "2552",
						"withdraw()": "infinite"
					}
				},
				"methodIdentifiers": {
					"addressToAmountFunded(address)": "3e47d6f3",
					"fund()": "b60d4288",
					"getFunders()": "ea63a044",
					"getVersion()": "0d8e6e2c",
					"owner()": "8da5cb5b",
					"withdraw()": "3ccfd60b"
				}
			},
			"storageLayout": {
				"storage": [
					{
						"astId": 13,
						"contract": ".deps/FundMe.sol:FundMe",
						"label": "minimumUsd",
						"offset": 0,
						"slot": "0",
						"type": "t_uint256"
					},
					{
						"astId": 16,
						"contract": ".deps/FundMe.sol:FundMe",
						"label": "funders",
						"offset": 0,
						"slot": "1",
						"type": "t_array(t_address)dyn_storage"
					},
					{
						"astId": 20,
						"contract": ".deps/FundMe.sol:FundMe",
						"label": "addressToAmountFunded",
						"offset": 0,
						"slot": "2",
						"type": "t_mapping(t_address,t_uint256)"
					},
					{
						"astId": 24,
						"contract": ".deps/FundMe.sol:FundMe",
						"label": "isFund",
						"offset": 0,
						"slot": "3",
						"type": "t_mapping(t_address,t_bool)"
					},
					{
						"astId": 26,
						"contract": ".deps/FundMe.sol:FundMe",
						"label": "owner",
						"offset": 0,
						"slot": "4",
						"type": "t_address"
					}
				],
				"types": {
					"t_address": {
						"encoding": "inplace",
						"label": "address",
						"numberOfBytes": "20"
					},
					"t_array(t_address)dyn_storage": {
						"base": "t_address",
						"encoding": "dynamic_array",
						"label": "address[]",
						"numberOfBytes": "32"
					},
					"t_bool": {
						"encoding": "inplace",
						"label": "bool",
						"numberOfBytes": "1"
					},
					"t_mapping(t_address,t_bool)": {
						"encoding": "mapping",
						"key": "t_address",
						"label": "mapping(address => bool)",
						"numberOfBytes": "32",
						"value": "t_bool"
					},
					"t_mapping(t_address,t_uint256)": {
						"encoding": "mapping",
						"key": "t_address",
						"label": "mapping(address => uint256)",
						"numberOfBytes": "32",
						"value": "t_uint256"
					},
					"t_uint256": {
						"encoding": "inplace",
						"label": "uint256",
						"numberOfBytes": "32"
					}
				}
			},
			"userdoc": {
				"kind": "user",
				"methods": {},
				"version": 1
			}
		}
	}
}